:020000040800F2
:10000000106700202D030008813B0008B73300086B
:100010001D3900082F070008A14700080000000054
:100020000000000000000000000000006D02000859
:100030008F09000800000000C9020008093E0008FE
:100040004703000847030008470300084703000868
:100050004703000847030008470300084703000858
:100060004703000847030008470300084703000848
:100070004703000847030008470300084703000838
:100080006508000847030008470300084703000805
:10009000A10700084703000847030008910900086A
:1000A0004703000847030008470300084703000808
:1000B000E93E0008F93E000847030008470300082E
:1000C00047030008470300084703000847030008E8
:1000D000470300087147000881470008914700085E
:1000E00047030008470300084703000847030008C8
:1000F00047030008470300084703000847030008B8
:1001000047030008470300084703000847030008A7
:100110004703000847030008470300084703000897
:100120004703000875080008470300084703000854
:100130004703000847030008470300084703000877
:100140002508000847030008470300084703000884
:100150004703000847030008470300084703000857
:100160004703000847030008470300084703000847
:100170004703000847030008470300080000000089
:10018000470300084703000800F002F800F05EF89B
:100190000AA090E8000C82448344AAF10107DA45E2
:1001A00001D100F053F8AFF2090EBAE80F0013F0D6
:1001B000010F18BFFB1A43F001031847D09100004C
:1001C000F09100000A444FF0000C10F8013B13F0CE
:1001D000070408BF10F8014B1D1108BF10F8015BA0
:1001E000641E05D010F8016B641E01F8016BF9D193
:1001F00013F0080F1EBF10F8014BAD1C0C1B09D1EA
:100200006D1E58BF01F801CBFAD505E014F8016B5B
:1002100001F8016B6D1EF9D59142D6D370470000ED
:100220000023002400250026103A28BF78C1FBD8FF
:10023000520728BF30C148BF0B6070471FB508F098
:10024000F0FD00F0B3F91FBD10B510BD00F021FAAC
:100250001146FFF7F3FF05F0DFFB00F03FFA03B4B0
:10026000FFF7F2FF03BC00F00DFA00002C4B1968F9
:100270000868B0E8F04F80F30988BFF36F8F4FF044
:10028000000080F3118870470000000008480068F3
:10029000006880F308884FF0000080F3148862B68D
:1002A00061B6BFF34F8FBFF36F8F00DF00BF00BF9A
:1002B00008ED00E0DFF80C00016841F47001016016
:1002C000704700BF88ED00E0EFF30980BFF36F8F48
:1002D000134B1A681EF0100F08BF20ED108A20E99A
:1002E000F04F106009B44FF0500080F31188BFF355
:1002F0004F8FBFF36F8F06F059FE4FF0000080F371
:10030000118809BC19680868B0E8F04F1EF0100F9A
:1003100008BFB0EC108A80F30988BFF36F8F704775
:10032000D4000020EFF305807047000009488047A3
:1003300009480047FEE7FEE7FEE7FEE7FEE7FEE7C7
:10034000FEE7FEE7FEE7FEE704480549054A064BDF
:1003500070470000D53E00088901000810610020A8
:1003600010670020106300201063002053EA020C85
:1003700000F069802DE9F04B4FF00006002B1FBF05
:10038000B3FA83F503FA05F424FA05F65E4012BFCA
:100390001643B2FA82F502FA05F4C5F120051EBF34
:1003A00022FA05FC44EA0C04203556EA044C4FEAD4
:1003B000144418BF641C4FF000084FF0000990422D
:1003C00071EB030C39D3002919BFB1FA81F701FA97
:1003D00007F6B0FA80F700FA07F6C7F120071EBF4C
:1003E00020FA07FC46EA0C062037B6FBF4FCA7EB24
:1003F0000507103F07F01F0BCBF120060CFA0BFB93
:100400002CFA06F644BFB3460026202FA4BF5E4652
:100410004FF0000B5BEA060C08BF4FF0010B19EB25
:100420000B09ABFB027C48EB0608C01B06FB02CCA9
:100430000BFB03CC71EB0C01C1E70B4602464146B6
:100440004846BDE8F08B13B54FF000004FF00001B7
:10045000AFF30080BDE81C407047032A40F23080B3
:1004600010F0030C00F0158011F8013BBCF1020FF5
:10047000624498BF11F801CB00F8013B38BF11F876
:10048000013BA2F1040298BF00F801CB38BF00F88D
:10049000013B11F0030300F02580083AC0F008800A
:1004A00051F8043B083A51F804CBA0E80810F5E7EE
:1004B000121D5CBF51F8043B40F8043BAFF30080D1
:1004C000D20724BF11F8013B11F801CB48BF11F846
:1004D000012B24BF00F8013B00F801CB48BF00F816
:1004E000012B704710B5203AC0F00B80B1E81850CE
:1004F000203AA0E81850B1E81850A0E81850BFF40E
:10050000F5AF5FEA027C24BFB1E81850A0E81850AC
:1005100044BF18C918C0BDE810405FEA827C24BF00
:1005200051F8043B40F8043B08BF7047D20728BF8E
:1005300031F8023B48BF11F8012B28BF20F8023BDD
:1005400048BF00F8012B704702F0FF0343EA032283
:1005500042EA024200F050B84FF0000200B51346E4
:1005600094469646203922BFA0E80C50A0E80C50D3
:10057000B1F12001BFF4F7AF090728BFA0E80C5084
:1005800048BF0CC05DF804EB890028BF40F8042B7D
:1005900008BF704748BF20F8022B11F0804F18BFEA
:1005A00000F8012B704770477047704770B5064CD4
:1005B0007C44064D7D4403E0206820448047241D90
:1005C000AC42F9D170BD0000F88D0000F88D00003C
:1005D00010B500F035F8006810BD10B5044600F005
:1005E0002FF8046010BD10B500F034F8BDE81040DD
:1005F00000F02AB84FF000020429C0F0128010F079
:10060000030C3FF4ABAFCCF1040CBCF1020F18BFEC
:1006100000F8012BA8BF20F8022BA1EB0C01FFF77B
:100620009DBF5FEAC17C24BF00F8012B00F8012BBD
:1006300048BF00F8012B704700487047B0600020A9
:1006400000487047B0600020002801D000F01AB8C0
:100650007047000010B5002102A000F048F801200A
:1006600010BD00005349475056464E3A205075720F
:1006700065207669727475616C20666E2063616CAA
:100680006C65640001491820ABBEFEE7260002003D
:1006900070477546FFF7D0FFAE46050069465346E2
:1006A00020F00700854618B020B5FFF74DFEBDE8E5
:1006B00020404FF000064FF000074FF000084FF0C9
:1006C000000B21F00701AC46ACE8C009ACE8C0095A
:1006D000ACE8C009ACE8C0098D46704710B50446C7
:1006E000AFF300802046BDE81040FFF7B8BD70B5FD
:1006F00005460C460A2000E06D1C00F011F835B1EB
:1007000028780028F8D102E0641C00F009F814B140
:1007100020780028F8D1BDE870400A20AFF30080AF
:1007200008B569468DF800000320ABBE08BD00BFC8
:10073000FEE7000000B58BB0002006900790012076
:100740000890002001900420029000200390049063
:1007500005900120099001A90F4800F0DBF908B1CC
:1007600000F01BF90C4800F0FCFD08B100F015F991
:100770000221094800F014F908B100F00EF9002038
:1007800006494860042088600020C860082008618D
:10079000002008750BB000BDC0010020A80100209A
:1007A00010B5024800F013FB10BD0000C00100208E
:1007B00000B58BB00E200690002007900120089015
:1007C00000200190042002900020039004900590E6
:1007D000012009900E200A9001A9104800F09AF912
:1007E00008B100F0DAF80D4800F0BBFD08B100F0E8
:1007F000D4F80221094800F0D3F808B100F0CDF890
:10080000002007494860042088600020C860082054
:100810000861002008750BB000BD0000E801002051
:10082000A801002010B5024800F0D1FA10BD000068
:10083000E801002030B502460B46002000210BE005
:10084000545C84EA2024E4B2054D35F8144084EA6F
:100850000024A0B24C1CE1B29942F1DB30BD000093
:100860000C8F000810B5024800F01EFE10BD0000FD
:10087000D403002010B5024800F016FE10BD0000A1
:10088000340400200146087810381823B0FBF3F236
:100890000848805CC865032A05D908686FF3090019
:1008A000001D886503E008686FF309008865886D9E
:1008B00070470000EC8E0008014600208A6A8B69B0
:1008C000CBB932B1012A0DD0022A03D0032A10D1AC
:1008D0000EE000BFCB6A03F08073B3F1807F00D1DC
:1008E000012007E0CB6AB3F1C07F00D1012001E015
:1008F00000E000BF34E08B69B3F5005F1AD132B17C
:10090000012A07D0022A03D0032A11D10AE000BF2E
:1009100001200EE0CB6A03F08073B3F1807F00D139
:10092000012006E0CB6AB3F1C07F00D1012000E0D6
:1009300000BF15E032B1012A05D0022A04D0032AF3
:100940000CD103E000BF00BF012008E0CB6A03F038
:100950008073B3F1807F00D1012000E000BF00BFB1
:10096000704730B50468246824F4802405682C603E
:10097000046863608468402C04D10468A260046841
:10098000E16003E00468A1600468E26030BD704784
:1009900010B5402000F0FEFF10BD72B600BFFEE7AC
:1009A00010B5024692F82030012B01D0022B06D15F
:1009B00010684069084314686061002010BD506AE7
:1009C00040F4802050620120F8E7F0B504460D465F
:1009D0001E4694F8207020688368A86800B900E07B
:1009E00000BF012F01D0022F7DD103F0806030B90C
:1009F00003F0006018B903F0805000287ED0C3F3E4
:100A00000161012088403060A86860B9B5F800C075
:100A1000E86840EA4C5C206800F5C07000EB01100B
:100A2000C0F800C00FE0D5E901C040EACC00D5F81D
:100A30000CC040EA0C00D4F800C00CF5C07C0CEBF4
:100A4000011CCCF80000D5F810C0206800F5C0707B
:100A500000EB0110C0F804C0287D01280ED12068E9
:100A600000F5C07000EB0110406840F4807C206805
:100A700000F5C07000EB0110C0F804C0D07900068A
:100A800092F806C040EA0C4092F805C040EA0C20FB
:100A900092F804C040EA0C00D4F800C00CF5C07C09
:100AA0000CEB011CCCF80C00D078000692F802C0C8
:100AB00040EA0C4092F801C040EA0C2092F800C0D5
:100AC00040EA0C00D4F800C00CF5C07C0CEB011C13
:100AD000CCF80800206800F5C07000EB0110006839
:100AE00040F0010C01E00FE008E0206800F5C07064
:100AF00000EB0110C0F800C00020F0BD606A40F4B7
:100B0000001060620120F8E7606A40F480206062B3
:100B10000120F2E7F0B504460A46216894F8205017
:100B2000012D01D0022D7ED1424901F500710868E6
:100B300040F001000860086820F47C5008600868F4
:100B4000566A40EA06200860107D00F01F0601206A
:100B500000FA06F3C8699843C861A1F50071D0692D
:100B6000C8B9D1F80C029843C1F80C02908880B241
:100B7000968940EA064601F51070576940F83760DB
:100B8000108880B2168940EA064601F51070576950
:100B900000EBC7004660D069012819D1D1F80C02DA
:100BA0001843C1F80C02908880B2168840EA0646C5
:100BB00001F51070576940F83760908980B2168946
:100BC00040EA064601F51070576900EBC700466021
:100BD000906928B9D1F804029843C1F8040204E0EE
:100BE000D1F804021843C1F80402106928B9D1F8F9
:100BF00014029843C1F8140204E0D1F81402184317
:100C0000C1F81402106A012804D1D1F81C0218435B
:100C1000C1F81C02D1F8000220F00100C1F8000266
:100C20000020F0BDFFE7606A40F480206062012090
:100C3000F7E7000000640040704770B5044694F880
:100C40002050012D01D0022D7DD151B92068C068FE
:100C500000F0030080B9606A40F400106062012077
:100C600070BD2068006900F0030028B9606A40F494
:100C7000001060620120F3E7206800F5D87000EBF7
:100C80000110006800F004009060906840B920688E
:100C900000F5D87000EB01100068400D106007E00F
:100CA000206800F5D87000EB01100068C0085060A3
:100CB000206800F5D87000EB0110006800F0020019
:100CC000D060206800F5D87000EB0110406800F09B
:100CD0000F00082802D30820106108E0206800F502
:100CE000D87000EB0110406800F00F001061206820
:100CF00000F5D87000EB0110406800F47F40000A56
:100D00009061206800F5D87000EB01104068000C7D
:100D10005061206800F5D87000EB011080681870F1
:100D2000206800F5D87000EB0110806800F47F4067
:100D3000000A5870206800F5D87000EB0110806838
:100D400000F47F0000E03CE0000C9870206800F5A3
:100D5000D87000EB01108068000ED870206800F594
:100D6000D87000EB0110C0681871206800F5D870C9
:100D700000EB0110C06800F47F40000A5871206841
:100D800000F5D87000EB0110C06800F47F00000C83
:100D90009871206800F5D87000EB0110C068000E53
:100DA000D87131B92068C06840F020002668F06032
:100DB00005E02068006940F02000266830610020CE
:100DC0004EE7606A40F480206062012048E72DE928
:100DD000F05F04460025206846692068D0F804903A
:100DE000206887682068D0F80CA02068D0F810B080
:100DF0002068D0F8188006F00100002855D007F0D0
:100E00000100C0B101202168886007F0020018B11C
:100E1000204600F0D6FA0EE007F0040010B145F4C9
:100E2000006508E007F0080010B145F4805502E0C5
:100E3000204600F0C5FA07F48070C8B14FF4807006
:100E40002168886007F4007018B1204600F0BBFAF2
:100E50000EE007F4806010B145F4005508E007F497
:100E6000006010B145F4804502E0204600F0AAFA87
:100E700007F48030C8B14FF480302168886007F4EF
:100E8000003018B1204600F0A0FA0EE007F48020F0
:100E900010B145F4004508E007F4002010B145F416
:100EA000803502E0204600F08FFA06F0080038B1E5
:100EB0000AF0100020B145F4007510202168C860C8
:100EC00006F0040040B10AF0080028B108202168AB
:100ED000C860204600F00EFA06F0020038B1206823
:100EE000C06800F0030010B1204600F005FA06F0DB
:100EF000400038B10BF0100020B145F4806510209F
:100F00002168086106F0200040B10BF0080028B10C
:100F1000082021680861204600F020FA06F0100041
:100F200038B12068006900F0030010B1204600F0DD
:100F300016FA06F4003040B109F0100028B1102074
:100F400021684860204600F00BFA06F4803040B17A
:100F500009F0080028B1082021684860204600F008
:100F600035FA06F4004088B309F0040078B306F4BB
:100F7000807020B108F0010008B145F0010506F4C9
:100F8000007020B108F0020008B145F0020506F437
:100F9000806020B108F0040008B145F0040506F4B3
:100FA0000060A0B108F0700088B108F0700040281F
:100FB00017D006DC10280BD020280CD0302819D1EF
:100FC0000CE0502810D0602814D110E01DE019E08A
:100FD00045F008050FE045F010050CE045F0200550
:100FE00009E045F0400506E045F0800503E045F4E2
:100FF000807500E000BF00BF2068806920F07000AD
:10100000216888610420216848602DB1606A284306
:1010100060622046FFF710FEBDE8F09F70B5044601
:101020000CB9012070BD94F8200010B9204600F0E2
:10103000AFF82068006840F001002168086000F007
:10104000B7FD05460DE000F0B3FD401B0A2808D9A6
:10105000606A40F400306062052084F820000120BE
:10106000E0E72068406800F001000028EBD020682D
:10107000006820F002002168086000F099FD054634
:101080000DE000F095FD401B0A2808D9606A40F485
:1010900000306062052084F820000120C2E720684B
:1010A000406800F002000028EBD1207E012806D124
:1010B0002068006840F080002168086005E0206832
:1010C000006820F0800021680860607E012806D159
:1010D0002068006840F040002168086005E0206852
:1010E000006820F0400021680860A07E012806D139
:1010F0002068006840F020002168086005E0206852
:10110000006820F0200021680860E07E012806D1F8
:101110002068006820F010002168086005E0206861
:10112000006840F0100021680860207F012806D187
:101130002068006840F008002168086005E0206829
:10114000006820F0080021680860607F012806D14F
:101150002068006840F004002168086005E020680D
:10116000006820F0040021680860D4E90201084307
:1011700021690843616908436168491E0843216881
:10118000C86100206062012084F82000002049E747
:1011900010B586B00446142101A8FFF7DDF94F49C8
:1011A0002068884242D14E480068401C4C49086083
:1011B0000846006801280FD100BF00200090494870
:1011C000006840F00070474908600846006800F079
:1011D0000070009000BF00BF00BF00200090414899
:1011E0001038006840F001003E4910390860084698
:1011F000006800F00100009000BF00BF4FF4C05035
:101200000190022002900020039003200490092006
:10121000059001A9344800F0CBFB002207211420DF
:1012200000F08EFD142000F077FD55E02F49206876
:10123000884251D100BF002000902A48006840F049
:101240008060284908600846006800F080600090CF
:1012500000BF00BF22480068401C214908600846C2
:10126000006801280FD100BF002000901D480068D1
:1012700040F000701B4908600846006800F00070EC
:10128000009000BF00BF00BF00200090154810383C
:10129000006840F0020013491039086008460068F1
:1012A00000F00200009000BF00BF4FF440500190DA
:1012B0000220029000200390032004900920059052
:1012C00001A90B4800F074FB00220821402000F027
:1012D00037FD402000F020FD06B010BD0064004046
:1012E0003C000020403802400000024000680040FE
:1012F000000402407047000010B588B00446124850
:1013000084420DD1012011490860114B01AA00212E
:101310000D48FFF792FC0E4901A804F0DFFA00BF68
:101320000C4884420DD10020084908600A4B01AAEC
:1013300000210848FFF781FC074901A805F030FBB0
:1013400000BF08B010BD0000C00100203800002020
:1013500028000020E801002030000020704770477E
:10136000704770B5044694F82000012822D102206D
:1013700084F820002068006820F0010021680860DF
:1013800000F016FC05460DE000F012FC401B0A2898
:1013900008D9606A40F400306062052084F82000BB
:1013A000012070BD2068406800F001000028EBD1EA
:1013B0006062F6E7606A40F4002060620120F0E7B6
:1013C000704770477047704770477047704770B5F7
:1013D0000446A56D00F0ECFB064694F835000228A3
:1013E00008D08020606500BF002084F8340000BF72
:1013F000012070BD2068006820F016002168086098
:101400002068406920F0800021684861206C08B99C
:10141000A06C28B12068006820F0080021680860EE
:101420002068006820F001002168086010E000F0EA
:10143000BFFB801B05280BD920206065032084F8A2
:10144000350000BF002084F8340000BF0320D0E73F
:101450002068006800F001000028E8D194F85C10D2
:101460003F208840A860012084F8350000BF00209C
:1014700084F8340000BF00BFBBE7014691F8350097
:10148000022803D08020486501207047052081F89C
:1014900035000868006820F001000A68106000202C
:1014A000F3E70146486D7047F8B504460020009008
:1014B0008C4800684FF41651B0FBF1F7A56D2E680B
:1014C00094F85C1008208840304098B1206800688B
:1014D00000F0040070B12068006820F0040021686A
:1014E000086094F85C1008208840A860606D40F0A7
:1014F0000100606594F85C1001208840304068B1BC
:101500002068406900F0800040B194F85C10012030
:101510008840A860606D40F00200606594F85C103F
:1015200004208840304068B12068006800F0020064
:1015300040B194F85C1004208840A860606D40F0D1
:101540000400606594F85C1010208840304078B347
:101550002068006800F0080050B394F85C10102078
:101560008840A8602068006800F4802080B120686E
:10157000006800F4002028B9206CC8B12046216C16
:10158000884715E0A06C98B12046A16C88470FE011
:101590002068006800F4807028B92068006820F096
:1015A000080021680860206C10B12046216C884733
:1015B00094F85C10202088403040002865D02068D6
:1015C000006800F0100000285FD094F85C10202024
:1015D0008840A86094F83500052828D12068006864
:1015E00020F01600216808602068406920F0800023
:1015F00021684861206C08B9A06C28B12068006897
:1016000020F008002168086094F85C103F208840B2
:10161000A860012084F8350000BF002084F8340061
:1016200000BF206D10B12046216D8847F8BD2068AD
:10163000006800F4802080B12068006800F4002079
:1016400028B9606C10B12046616C88471DE0E06BE2
:10165000D8B12046E16B884717E02068006800F4A5
:10166000807068B92068006820F010002168086068
:10167000012084F8350000BF002084F8340000BF4A
:10168000E06B10B12046E16B8847606D38B3606D48
:1016900000F00100F0B1052084F8350020680068F2
:1016A00020F001002168086000BF0098401C0090F5
:1016B000B84200D905E02068006800F00100002869
:1016C000F3D100BF012084F8350000BF002084F86A
:1016D000340000BFE06C10B12046E16C884700BFC9
:1016E000A4E700004C0000202DE9F041044600254D
:1016F00000F05EFA074614B90120BDE8F081606A87
:1017000000B100BF022084F8350000BF002084F83B
:10171000340000BF2068006820F0010021680860E4
:101720000AE000F045FAC01B052805D920206065B5
:10173000032084F83500E0E72068006800F001002D
:101740000028EED12068056821480540D4E9010150
:101750000843E16808432169084361690843A169B6
:101760000843E1690843216A08430543606A042885
:1017700003D1D4E90B0108430543206805602068C4
:10178000456925F00705606A0543606A04280DD1A4
:10179000A06A0543E06A48B12046FFF78DF828B1FA
:1017A00040206065012084F83500A6E72068456187
:1017B0002046FFF767F8064694F85C103F20884003
:1017C000B06000206065012084F83500002094E7B7
:1017D0003F8010F02DE9F04704460D4616461F469F
:1017E0004FF00008D4F8589000BF94F83400012856
:1017F00002D10220BDE8F087012084F8340000BF48
:1018000094F83500012825D1022084F83500002005
:1018100060653B46324629462046FFF7A2F894F819
:101820005C103F208840C9F808002068006840F03C
:10183000160021680860206C28B12068006840F01C
:101840000800216808602068006840F001002168F5
:10185000086006E000BF002084F8340000BF4FF0AD
:1018600002084046C6E7000010B50446402C7AD175
:101870003D4800683D4908602006406A3C490968C7
:1018800042F2107202FB01003749086039490860D2
:101890003548008835490988401A37490880374853
:1018A000007801283CD10846008840F6340188427F
:1018B00008DB0120314908700020314908703149A6
:1018C00008703BE02C480088092825DB2A4800885E
:1018D00040F6020188421FDC274800882A49284A2E
:1018E000127821F8120026480078401C244908701C
:1018F00008460078082821DB084600784200224983
:101900002248FEF7AAFD00201C4908701C490870F7
:1019100001201C49087011E00020184908700DE0F2
:101920001548008840F63401884207DB012013493E
:1019300008700020124908701249087004F01CFF5A
:101940001148408940F2A461884203DA002010491E
:10195000087008E00C48408940F2A461884202DD2A
:1019600001200B49087010BDA8000020A400002031
:101970007C00002078000020AE000020AC00002099
:10198000AD00002076000020C8110020E8100020E3
:101990008400002010B5044604480068204020B1AF
:1019A000024804602046FFF75FFF10BD143C014071
:1019B000F8B502460B460025002400200021D6E0A1
:1019C000012606FA01F51E6806EA0504AC4274D148
:1019D0001E7906F00306012E04D01E7906F00306D8
:1019E000022E13D190684F000326BE40B0434F0033
:1019F000DE68BE4030439060506801268E40B043A0
:101A00001E79C6F300168E40304350601E7906F0F2
:101A10000306032E09D0D0684F000326BE40B04312
:101A20004F009E68BE403043D0601E7906F003062A
:101A3000022E13D1CF0802F1200656F827004E07D8
:101A4000F70E0F26BE40B0434F07FF0E1E69BE4083
:101A50003043CF0802F1200646F8270010684F00F7
:101A60000326BE40B0431E7906F003064F00BE4079
:101A7000304310605E6806F44036002E76D000BF1A
:101A8000002600963C4E366846F480463A4F3E604B
:101A90003E46366806F48046009600BF00BF374ECB
:101AA0008F0856F827008E07370F0F26BE40B04329
:101AB000334EB24202D1002624E057E0314EB2420A
:101AC00001D101261EE0304EB24201D1022619E0BA
:101AD0002E4EB24201D1032614E02D4EB24201D166
:101AE00004260FE02B4EB24201D105260AE02A4E11
:101AF000B24201D1062605E0284EB24201D10726A6
:101B000000E008268F073F0FBE4030431B4E8F0872
:101B100046F82700224E3068A0435E6806F480161F
:101B200006B120431E4E3060361D3068A0435E680B
:101B300006F4001606B12043194E361D3060184ECB
:101B4000361F3068A0435E6806F4003606B12043B5
:101B5000134E361F3060361F3068A0435E6806F4AF
:101B6000803606B120430E4E083E3060491C1029D5
:101B7000FFF426AFF8BD00004438024008380140A9
:101B8000000002400004024000080240000C024035
:101B9000001002400014024000180240001C0240E5
:101BA000083C01400AB1816101E00B048361704788
:101BB00001480068704700004000002003480068AA
:101BC0000349097808440149086070474000002033
:101BD0004800002010B50D48006840F400700B4923
:101BE00008600846006840F48060086008460068A5
:101BF00040F480700860032000F0E0F80F2000F04F
:101C000007F800F05FF8002010BD0000003C024023
:101C10002DE9F04188B004460027B84600BF0020F7
:101C200001902348006840F00200214908600846FE
:101C3000006800F00200019000BF00BF02A903A8E5
:101C400000F092F9069F1FB900F0B6F9054602E0D0
:101C500000F0B2F945001748B5FBF0F0A0F101081B
:101C600015481649086040F2E7311448C160C0F8D1
:101C70000480002101618160816100F0BFFC0646A3
:101C800096B90E4800F010FD06466EB91D2000F012
:101C900043F8102C07D2002221461D2000F050F8F6
:101CA0000748046000E00126304608B0BDE8F08136
:101CB0004038024040420F000004004094040020DD
:101CC0004400002008B500BF0020009011480068C3
:101CD00040F480400F4908600846006800F48040E6
:101CE000009000BF00BF00BF00200090081F0068E8
:101CF00040F08050091F08600846006800F08050DE
:101D0000009000BF00BF00220F21901E00F018F8C5
:101D100008BD0000443802400146084600280DDB9B
:101D200000BF00BF00F01F0301229A4043099B003F
:101D300003F1E023C3F8002100BF00BF00BF7047DC
:101D40002DE9F05F80460D461646002702F07EFE24
:101D5000074639462A46334601F00700C0F1070A14
:101D6000BAF1040F02D94FF0040A01E0C0F1070AEA
:101D7000D14600F1040ABAF1070F02D24FF0000A6F
:101D800001E0A0F1030AD4464FF0010A0AFA09FA69
:101D9000AAF1010A0AEA020A0AFA0CFA4FF0010B48
:101DA0000BFA0CFBABF1010B0BEA030B4AEA0B0439
:101DB0002146404602F052FEBDE8F09F00BF00F011
:101DC0000702064B19684FF6FF031940044B0B43FB
:101DD00043EA0221014B196000BF70470CED00E09F
:101DE0000000FA0570B504460D460CB9012070BD1F
:101DF0005848006800F00700A84209D255490D7004
:101E00000846006800F00700A84201D00120EEE774
:101E1000207800F0020002281DD1207800F0040094
:101E2000042805D14C48006840F4E0504A49086055
:101E3000207800F00800082805D14748006840F4E1
:101E40006040454908604448006820F0F000A168FF
:101E5000084341490860207800F00100A8B3606899
:101E6000012807D13C4808380068C0F34040B8B9A1
:101E70000120BCE76068022802D06068032807D10F
:101E8000354808380068C0F3406048B90120AEE723
:101E9000314808380068C0F3400008B90120A6E7BF
:101EA0002D48006820F00300616808432A49086053
:101EB000FFF77EFE064609E0FFF77AFE801B41F23F
:101EC0008831884202D9032091E707E02248006860
:101ED00000F00C006168B0EB810FEDD11D48006887
:101EE00000F00700A84209D91A490D700846006899
:101EF00000F00700A84201D0012078E7207800F028
:101F00000400042807D11448006820F4E050E16878
:101F1000084311490860207800F00800082808D11B
:101F20000D48006820F46040216940EAC1000A4978
:101F3000086000F061F808490968C1F30311074A15
:101F4000515CC8400649086006480068FFF760FE1B
:101F500000204CE7003C024008380240F48E0008A4
:101F60004C000020440000200F2202600D4A12683D
:101F700002F0030242600B4A126802F0F002826033
:101F8000084A126802F4E052C260064A126802F47B
:101F90006042D2080261044A126802F007020A6035
:101FA0007047000008380240003C024001480068C9
:101FB000704700004C00002000B5FFF7F7FF044910
:101FC0000968C1F38221034A515CC84000BD00008A
:101FD00008380240048F000800B5FFF7E7FF044906
:101FE0000968C1F34231034A515CC84000BD00009A
:101FF00008380240048F00082DE9F047002400252E
:102000000026A1462548006800F00C0020B10428F5
:1020100005D008283AD105E0DFF8849039E0DFF8F0
:10202000849036E01D48001F006800F03F041B4804
:10203000001F006800F4800078B11A481749091F92
:102040000968C1F38811A0FB0170014622460023F4
:102050003846FEF78BF905460EE011480F49091F77
:102060000968C1F38811A0FB0170014622460023D4
:102070003846FEF77BF905460848001F0068C0F3A4
:102080000140401C4600B5FBF6F902E0DFF8109075
:1020900000BF00BF4846BDE8F08700000838024096
:1020A0000024F40000127A00F8B504460CB90120AF
:1020B000F8BD207800F00100002874D0F9480068CD
:1020C00000F00C0004280DD0F648006800F00C0069
:1020D000082813D1F348001F006800F48000B0F511
:1020E000800F0BD1EF4808380068C0F3404000284B
:1020F00059D06068002856D10120D9E700BF606838
:10210000B0F5803F08D1E7480838006840F48030D7
:10211000E449083908601EE06068B0F5A02F0DD1D1
:10212000E0480838006840F48020DE49083908603B
:102130000846006840F4803008600CE0D948083850
:10214000006820F48030D7490839086008460068E4
:1021500020F48020086000BF606890B1FFF728FD80
:10216000054606E0FFF724FD401B642801D9032043
:102170009EE7CC4808380068C0F340400028F1D002
:1021800011E0FFF715FD054606E0FFF711FD401BC6
:10219000642801D903208BE7C24808380068C0F3DF
:1021A00040400028F1D1207800F0020002285FD1E1
:1021B000BC48006800F00C0058B1BA48006800F054
:1021C0000C0008281CD1B748001F006800F48000EC
:1021D000B0B9B44808380068C0F3400020B1E068E6
:1021E000012801D0012063E7AE480838006820F0DC
:1021F000F800216940EAC100AA490839086037E0BF
:10220000E06800B30120A8490860FFF7D1FC05464B
:1022100006E0FFF7CDFC401B022801D9032047E769
:10222000A04808380068C0F340000028F1D09D485D
:102230000838006820F0F800216940EAC100994997
:102240000839086014E0002097490860FFF7B0FCE7
:10225000054606E0FFF7ACFC401B022801D903202D
:1022600026E7904808380068C0F340000028F1D104
:10227000207800F0080008282CD16069A8B101205E
:102280008A490860FFF794FC054606E0FFF790FCDA
:10229000401B022801D903200AE782486C300068FD
:1022A000C0F340000028F1D014E000207F4908600E
:1022B000FFF77EFC054606E0FFF77AFC401B02288C
:1022C00001D90320F4E677486C300068C0F3400081
:1022D0000028F1D1207800F00400042870D10027F4
:1022E00070483830006800F0805090B900BF00207E
:1022F00000906C483830006840F0805069493831AF
:1023000008600846006800F08050009000BF00BFE1
:1023100001276748006800F48070B0B9644800681D
:1023200040F4807062490860FFF742FC054606E011
:10233000FFF73EFC401B022801D90320B8E65C48A9
:10234000006800F480700028F2D000BFA068012867
:1023500008D154486830006840F0010051496831A4
:1023600008601DE0A06805280DD14E48683000685F
:1023700040F004004B49683108600846006840F0AE
:10238000010008600CE047486830006820F0010058
:102390004449683108600846006820F0040008607D
:1023A00000BFA068A8B1FFF703FC054609E0FFF7EE
:1023B000FFFB401B41F28831884202D9032077E6B7
:1023C00026E0384868300068C0F340000028EED0AE
:1023D00013E0FFF7EDFB054608E0FFF7E9FB401BC4
:1023E00041F28831884201D9032061E62D486830E6
:1023F0000068C0F340000028EFD1012F07D1294821
:102400003830006820F0805026493831086000BF1D
:10241000A069002845D02348006800F00C00082877
:102420005DD0A069022845D100201F490866FFF74A
:10243000BFFB054606E0FFF7BBFB401B022801D9A6
:10244000032035E6174808380068C0F340600028CC
:10245000F1D1D4E907010843616A40EA8111012200
:10246000A06AC2EB500041EA00412C20005D41EA25
:1024700000600C49091F086001200B490866FFF73E
:1024800097FB054606E0FFF793FB401B022801D9A6
:1024900003200DE6034808380068C0F340600028B8
:1024A000F1D049E00838024000004742800E474220
:1024B00000700040002021490866FFF779FB0546BF
:1024C00006E0FFF775FB401B022801D90320EFE56A
:1024D0001B480068C0F340600028F2D12CE0A069DE
:1024E000012800D1E4E51648001D0668A06901280E
:1024F00020D006F48001E06981421BD106F03F0143
:10250000206A814216D147F6C0703040616AB0EB54
:10251000811F0FD106F440310122A06AC2EB5000A6
:10252000B1EB004F06D106F070612C20005DB1EBDD
:10253000006F01D00120BBE50020B9E50000474253
:10254000003802407047704730B502460B4600BF66
:1025500092F83C00012801D1022030BD012082F810
:102560003C0000BF022082F83D00106844681068FB
:10257000816824F070041868044310684460184DA2
:102580001068A8421BD01068B0F1804F17D0154DCD
:102590001068A84213D0144D1068A8420FD0134DF4
:1025A0001068A8420BD0124D1068A84207D0114DF8
:1025B0001068A84203D0104D1068A84205D121F040
:1025C00080015868014310688160012082F83D0055
:1025D00000BF002082F83C0000BF00BFBDE7000044
:1025E000000001400004004000080040000C0040D2
:1025F00000040140004001400018004010B50446AE
:102600000CB9012010BD94F83D0028B9002084F8D1
:102610003C00204600F026F8022084F83D00211DF1
:10262000206801F071FC012084F8460000BF84F8A6
:102630003E0001213F200155402001554120015518
:1026400000BF00BF012084F8420043200155442010
:1026500001554520015500BF012084F83D000020B0
:10266000D0E7000038B504462068B0F1804F17D19C
:1026700000BF002000900B48006840F001000949AD
:1026800008600846006800F00100009000BF00BF2D
:10269000002205211C20FFF753FB1C20FFF73CFB09
:1026A00038BD000040380240014691F83D00012845
:1026B00001D001207047022081F83D000868C06801
:1026C00040F001000B68D8601A4B086898421BD094
:1026D0000868B0F1804F17D0174B0868984213D0A4
:1026E000164B086898420FD0154B086898420BD0DB
:1026F000144B0868984207D0134B0868984203D0DF
:10270000124B086898420CD10868806800F00702F4
:10271000062A0CD00868006840F001000B681860B9
:1027200005E00868006840F001000B6818600020B0
:10273000C0E7000000000140000400400008004025
:10274000000C00400004014000400140001800401F
:102750002DE9F04104460D46002700BF94F83C00E7
:10276000012802D10220BDE8F081012084F83C005C
:1027700000BF022084F83D002068866826F07706B6
:1027800026F47F46206886602868502833D00CDC09
:10279000202850D004DC00284BD0102851D149E02B
:1027A000302849D040284CD139E060282DD07028FD
:1027B00007D0B0F5805F03D0B0F5005F41D10DE0E8
:1027C00041E0D5E902136A68206801F011FC206835
:1027D000866846F077062068866034E0D5E9021303
:1027E0006A68206801F004FC2068806840F480403A
:1027F0002168886027E0EA686968206801F00CFCBD
:102800005021206801F0FFFB1DE0EA68696820683C
:1028100001F015FC6021206801F0F5FB13E0EA6887
:102820006968206801F0F8FB4021206801F0EBFBAB
:1028300009E000BF00BF00BF2968206801F0E3FB8A
:1028400001E0012700BF00BF012084F83D0000BF68
:10285000002084F83C0000BF384684E7704770B51C
:1028600004462068C5682068066906F00200022850
:1028700019D105F00200022815D1401F2168086116
:10288000012020772068806900F0030018B12046FD
:10289000FFF7E4FF05E0204600F097F8204600F03F
:1028A00095F80020207706F00400042819D105F0DF
:1028B0000400042815D1C043216808610220207754
:1028C0002068806900F4407018B12046FFF7C6FF09
:1028D00005E0204600F079F8204600F077F8002067
:1028E000207706F00800082819D105F0080008280C
:1028F00015D1C04321680861042020772068C06991
:1029000000F0030018B12046FFF7A8FF05E02046BD
:1029100000F05BF8204600F059F80020207706F020
:102920001000102819D105F01000102815D1C0434F
:1029300021680861082020772068C06900F4407091
:1029400018B12046FFF78AFF05E0204600F03DF869
:10295000204600F03BF80020207706F0010048B147
:1029600005F0010030B16FF00100216808612046D8
:1029700000F02EF806F08000802809D105F08000D4
:10298000802805D1C043216808612046FFF7DAFDA1
:1029900006F04000402809D105F04000402805D14C
:1029A000C04321680861204600F05CF806F0200072
:1029B000202809D105F02000202805D1C043216836
:1029C00008612046FFF7BFFD70BD704770470000EB
:1029D00010B504461E492068884202D1FFF7EEF880
:1029E00034E02068B0F1804F30D11A4800681A49AD
:1029F000086018480068401C16490860174800889D
:102A0000401C164908800846008864281ADB00200C
:102A1000088013484088401C114948800846408877
:102A20003C280FDB0020488008468088401C8880B6
:102A3000084680883C2805DB002088800846C0883E
:102A4000401CC880054800880549088010BD00006A
:102A5000000400407C000020800000207400002062
:102A60006C0000207047F8B504460E46174694F8EF
:102A7000420020282ED106B10FB90120F8BD012057
:102A80002063002060633A463146204601F076FD1F
:102A90000546EDB9206B012819D100BF0020009038
:102AA00020680068009020684068009000BF00BF68
:102AB00000BF00BF21680C3151E8001F41F0100039
:102AC00021680C3141E80002002AF3D100E0012521
:102AD0002846D3E70220D1E7704710B5044600BF6F
:102AE00000BF21680C3151E8001F21F4907021686B
:102AF0000C3141E80002002AF3D100BF00BF00BF43
:102B00002168143151E8001F21F0010021681431BF
:102B100041E80002002AF3D100BF206B01280ED14A
:102B200000BF00BF21680C3151E8001F21F01000E8
:102B300021680C3141E80002002AF3D100BF20686F
:102B4000406900F04000402820D100BF00BF21684C
:102B5000143151E8001F21F040002168143141E890
:102B60000002002AF3D100BFE06B78B10020E16BD6
:102B70000865E06BFEF72BFC40B1E06BFEF791FCC3
:102B8000202803D110206064032010BD0020E085C0
:102B9000202084F842000020206300BFF5E70000F9
:102BA00010B50446094884420ED1FFF796FF64220F
:102BB00007490648FFF757FF06480068006820F0FD
:102BC000080004490968086010BD00008C0300205B
:102BD00032060020340400202DE9F84F0446206816
:102BE00005682068C668206847694FF00009CA4632
:102BF00005F00F09B9F1000F0AD105F0200038B136
:102C000006F0200020B1204601F024FBBDE8F88F3B
:102C1000B9F1000F7CD007F0010018B906F49070EC
:102C2000002875D005F0010030B106F4807018B1AD
:102C3000606C40F00100606405F0040030B107F002
:102C4000010018B1606C40F00200606405F0020001
:102C500030B107F0010018B1606C40F0040060640E
:102C600005F0080048B106F0200010B907F0010097
:102C700018B1606C40F008006064606C002846D0B9
:102C800005F0200028B106F0200010B1204601F028
:102C9000E1FA20684069C0F3801A606C00F0080017
:102CA00010B9BAF1000F2DD0204601F07AFA206851
:102CB000406900F04000402820D100BF00BF2168DB
:102CC000143151E8001F21F040002168143141E81F
:102CD0000002002AF3D100BFE06B50B17748E16BEE
:102CE0000865E06BFEF7C9FB88B1E06B016D8847B2
:102CF0000DE02046FFF754FF09E009E02046FFF70A
:102D00004FFF04E02046FFF74BFF002060647DE7A3
:102D1000206B012878D105F01000002874D006F04F
:102D200010000028FAD000BF002000902068006842
:102D3000009020684068009000BF00BF2068406994
:102D400000F04000402860D1E06B006840681FFA46
:102D500080F8B8F1000F56D0A08D404553DDA4F89F
:102D60002E80E06BC069B0F5807F43D000BF00BF0C
:102D700021680C3151E8001F21F4807021680C316A
:102D800041E80002002AF3D100BF00BF00BF216864
:102D9000143151E8001F21F001002168143141E88D
:102DA0000002002AF3D100BF00BF00BF2168143128
:102DB00051E8001F21F040002168143141E8000271
:102DC000002AF3D100BF202084F8420000202063B5
:102DD00000BF00BF21680C3151E8001F21F0100036
:102DE00021680C3141E80002002AF3D100BFE06BFA
:102DF000FEF7EDFA02206063A08DE28D801A81B2A9
:102E00002046FFF769FE01E742E0A08DE18D401A00
:102E10001FFA80F8E08DD0B3B8F1000F37D000BFB3
:102E200000BF21680C3151E8001F21F49070216827
:102E30000C3141E80002002AF3D100BF00BF00BFFF
:102E40002168143151E8001F21F00100216814317C
:102E500041E80002002AF3D100BF202084F842009C
:102E60000020206300BF00BF21680C3151E8001F23
:102E700021F0100021680C3141E80002002AF3D152
:102E800000BF0220606341462046FFF725FEBDE6F5
:102E900005F0800030B106F0800018B1204601F046
:102EA000F1FBB3E605F0400030B106F0400018B188
:102EB000204601F0ACF9A9E600BFA7E6674000088C
:102EC00010B504460CB9012010BDA06900B100E0A6
:102ED00000BF94F8410028B9002084F84000204643
:102EE00000F02AF8242084F841002068C06820F40B
:102EF00000502168C860204601F02AFA2068006965
:102F000020F49040216808612068406920F02A0080
:102F1000216848612068C06840F400502168C8609A
:102F200000206064202084F8410084F842000020E2
:102F3000606300BFC8E7000010B586B004461421E6
:102F400001A8FDF709FBC0492068884231D100BFC4
:102F500000200090BD48006840F40020BB49086094
:102F60000846006800F40020009000BF00BF00BFCA
:102F700000200090B5481038006840F00400B349C4
:102F8000103908600846006800F00400009000BF97
:102F900000BF4FF440600190022002900020039097
:102FA000032004900820059001A9A948FEF700FD20
:102FB00048E1A849206888423BD100BF002000902A
:102FC000A248001D006840F01000A049091D0860DB
:102FD0000846006800F01000009000BF00BF00BF6E
:102FE0000020009099481038006840F0010097498F
:102FF000103908600846006800F00100009000BF2A
:1030000000BF4FF4C06001900220029000200390A6
:10301000032004900720059001A98F48FEF7C8FC03
:10302000002204212520FEF78BFE2520FEF774FEEA
:1030300008E18A492068884255D100BF00200090ED
:103040008248006840F40030804908600846006803
:1030500000F40030009000BF00BF00BF00200090CF
:103060007A481038006840F0080078491039086044
:103070000846006800F00800009000BF00BF602014
:10308000019002200290002003900320049007206A
:10309000059001A97248FEF78BFC724872490860DE
:1030A0004FF00060486000216F488160C1604FF4BC
:1030B00080610161002141618161C1610162416200
:1030C000FEF712FB08B1FDF768FC00BF6648E0633D
:1030D000846300BF002203212620FEF731FE262054
:1030E000FEF71AFEAEE061492068884257D100BF62
:1030F000002000905548006840F480205349086043
:103100000846006800F48020009000BF00BF00BFA8
:10311000002000904D481038006840F002004B49F4
:10312000103908600846006800F00200009000BFF7
:1031300000BF00BF002000900846006840F0080073
:1031400008600846006800F00800009000BF00BF5B
:103150004FF4984001900220029000200390032039
:1031600004900720059001A94148FEF721FC4FF487
:103170000060019002200290002003900320049040
:103180000720059001A93648FEF712FC0022052110
:103190002720FEF7D5FD2720FEF7BEFD52E035497A
:1031A000206888424ED100BF002000902748001DB3
:1031B000006840F020002549091D086008460068A5
:1031C00000F02000009000BF00BF00BF0020009072
:1031D0001E481038006840F040001C491039086053
:1031E0000846006800F04000009000BF00BF4FF4A8
:1031F000844001900220029000200390032004905C
:103200000820059001A91C48FEF7D2FB1B481C4969
:10321000086080054860002119488160C1604FF452
:1032200080610161002141618161C161016241628E
:10323000FEF75AFA08B1FDF7B0FB00BF1048E06393
:10324000846300BF06B010BD004C0040403802400F
:10325000000802400010014000000240004400400D
:10326000000C024088600240D40300200048004067
:10327000000402400014014000180240286402408B
:103280003404002070B504460D46164694F84200FA
:1032900020280BD105B10EB9012070BD002020639C
:1032A00032462946204601F0CDF9F6E70220F4E740
:1032B0002DE9F041064600240C4D0D4F10E055F865
:1032C00024004168B1420AD10268017A126890472D
:1032D00055F82410012230460831FFF7D3FF641C53
:1032E00078688442EBDBBDE8F08100008860002054
:1032F0005401002070472DE9F84F04460E4617464A
:1033000099464FF0000A94F84100202850D106B1A8
:1033100017B90120BDE8F88F00206064212084F8EF
:103320004100FEF745FC8246A784E784A068B0F51B
:10333000805F04D1206910B90025B04602E035460F
:103340004FF000081EE05346002280212046CDF8B1
:10335000009001F0C7F920B1202084F8410003203B
:10336000D8E745B9B8F80000C0F308002168486004
:1033700008F1020803E02878216848606D1CE08CA1
:10338000401EE084E08C0028DDD15346002240211D
:103390002046CDF8009001F0A5F920B1202084F856
:1033A00041000320B6E7202084F841000020B1E767
:1033B0000220AFE7704700BFFEE700009FED0C0A58
:1033C00080ED000A9FED0B0A80ED010A9FED090ACE
:1033D00080ED020AB7EE000A80ED030A9FED060AAF
:1033E00080ED040AB1EE040A80ED050A7047000082
:1033F0000AD7A33C000000000AD7233C10B51348AD
:103400001349086003204860002111488160C160B1
:103410004FF4002101614FF4401141610021017618
:1034200001214176002181760121C17600210177B9
:103430004177FDF7F3FD08B1FDF7AFFAFDF77AF933
:1034400002210348FDF7ACFA10BD00000064004003
:10345000C001002010B512481249086003204860DE
:10346000002110488160C1604FF4002101614FF4D8
:1034700040114161002101760121417600218176D0
:10348000C17601774177FDF7C9FD08B1FDF785FAEF
:10349000FDF78EF902210348FDF782FA10BD000006
:1034A00000680040E801002008B500BF002000903F
:1034B0001648006840F40010144908600846006887
:1034C00000F40010009000BF00BF00BF002000907B
:1034D0000846006840F4800008600846006800F470
:1034E0008000009000BF00BF002207211020FEF7DF
:1034F00027FC1020FEF710FC002205213920FEF7E2
:103500001FFC3920FEF708FC08BD000030380240DF
:1035100010B50E4A00210E4802F0F2FA0D4908607B
:103520000D4A00210D4802F0EBFA0D4908600D4AE2
:1035300000210D4802F0E4FA0C4908600C4A002111
:103540000C4802F0DDFA0C49086010BD388E000806
:10355000FD3D0008140000205C8E000821390008A1
:1035600018000020808E0008D93D00081C000020B3
:10357000A48E0008AD3D00082000002000B587B0F3
:10358000142102A8FCF7E8FF00BF002001907B484F
:10359000006840F00400794908600846006800F0BF
:1035A0000400019000BF00BF00BF0020019008464A
:1035B000006840F0200008600846006800F0200025
:1035C000019000BF00BF00BF0020019008460068C6
:1035D00040F0800008600846006800F0800001901C
:1035E00000BF00BF00BF002001900846006840F007
:1035F000010008600846006800F00100019000BF6B
:1036000000BF00BF002001900846006840F0100095
:1036100008600846006800F01000019000BF00BF7D
:1036200000BF002001900846006840F002000860DA
:103630000846006800F00200019000BF00BF00BF14
:10364000002001900846006840F008000860084625
:10365000006800F00800019000BF00BF00BF00201C
:1036600001900846006840F0400008600846006885
:1036700000F04000019000BF00BF002280214048C0
:10368000FEF790FA01224FF4C1713E48FEF78AFA24
:103690000122D1023C48FEF785FA012210213B4865
:1036A000FEF780FA402002904FF48810039000202B
:1036B000049002A93248FEF77BF980200290012095
:1036C000039002200490059002A92D48FEF770F99E
:1036D00001200290002003900120049002A92948B3
:1036E000FEF766F94FF4C170029001200390049038
:1036F000059002A92348FEF75BF94FF400600290A1
:10370000012003900490059002A91F48FEF750F98C
:103710004FF400400290002003900120049002A981
:103720001A48FEF745F94FF48040029000200390BC
:103730000120049002A91648FEF73AF94FF40070F0
:103740000290002003900120049002A91148FEF786
:103750002FF910200290012003900490059002A9F7
:103760000A48FEF725F9002211461720FEF7E8FA6D
:103770001720FEF7D1FA07B000BD00003038024034
:103780000014024000000240001002400004024009
:10379000000C02400008024000B587B000200390F2
:1037A000049005900690019002904FF080401449DB
:1037B00008605320486000211148816042F2107176
:1037C000C1600021016180218161FEF717FF08B10E
:1037D000FDF7E3F84FF48050039003A90848FEF783
:1037E000B7FF08B1FDF7D9F800200190029001A9B8
:1037F0000348FEF7A9FE08B1FDF7CFF807B000BDFA
:103800001002002010B50B480B4908604FF4E1305E
:103810004860002108488160C16001610C2141615C
:1038200000218161C161FFF74BFB08B1FDF7B5F8DD
:1038300010BD0000004C00406C02002010B50B4889
:103840000B4908604FF4E13048600021084881606E
:10385000C16001610C21416100218161C161FFF7FB
:103860002FFB08B1FDF799F810BD000000100140D2
:10387000B402002010B50B480B4908604FF4E1304A
:103880004860002108488160C16001610C214161EC
:1038900000218161C161FFF713FB08B1FDF77DF8DD
:1038A00010BD000000440040FC02002010B50B4891
:1038B0000B4908604FF4E1304860002108488160FE
:1038C000C16001610C214161890181610021C161F7
:1038D000FFF7F6FA08B1FDF760F810BD00480040A8
:1038E0004403002010B50B480B4908604FF41650F4
:1038F0004860002108488160C16001610C2141617C
:1039000000218161C161FFF7DBFA08B1FDF745F8DD
:1039100010BD0000001401408C03002000BFFEE732
:1039200000BF154890ED030A144880ED000A1448C2
:1039300090ED030A114880ED010A1248B0F9900099
:1039400000EE100AB8EEC00A0C4880ED020A0D48DD
:10395000B0F9D40000EE100AB8EEC00A074880EDB6
:10396000030A084890ED050A044880ED040A0A207D
:1039700003F03CFAD5E70000B411002074010020E8
:10398000681000200C09002010B52DED028B4E4868
:1039900090ED180A4D4880ED030A4B4890ED070A58
:1039A0004B4880ED030A484890ED290AB1EE400AE1
:1039B000484880ED030A4448B0F94C0000EE900AF4
:1039C000F8EEE00AB0EE600A404800F0DBF8B0EE36
:1039D000408A02F0BFFE3C49A1F850000846B0F909
:1039E000080000EE900AF8EEE00AB0EE600A3848EF
:1039F00000F0C8F8B0EE408A02F0ACFE324988818F
:103A00000846B0F9900000EE900AF8EEE00AB0EE39
:103A1000600A304800F0B6F8B0EE408A02F09AFE34
:103A20002949A1F894002C48B0F9080000EE900A4A
:103A3000F8EEE00AB0EE600A284800F0A3F8B0EE15
:103A4000408A02F087FE244988810846B0F94C007C
:103A500000EE900AF8EEE00AB0EE600A204800F0AE
:103A600091F8B0EE408A02F075FE1B49A1F85000B3
:103A70000846B0F9900000EE900AF8EEE00AB0EEC9
:103A8000600A184800F07EF8B0EE408A02F062FE4C
:103A90001149A1F894000846B0F9D40000EE900A4C
:103AA000F8EEE00AB0EE600A0F4800F06BF8B0EEF6
:103AB000408A02F04FFE0849A1F8D80001F0E0FC6E
:103AC000BDEC028B10BD0000EC060020C40E0020EF
:103AD000000F00203C0F00200C090020780F002070
:103AE000B40F0020F00F00202C10002010B5F7EECE
:103AF000002A9FED172AF0EE001A9FED161ADFED4F
:103B0000160A9FED160A164800F02EF9DFED152A69
:103B10009FED0F2AF2EE041AB6EE001ADFED120A3C
:103B2000B7EE080A114800F01FF9DFED0E2A9FEDED
:103B3000082ADFED0F1AB0EE081AF6EE000A9FED24
:103B40000D0A0D4800F010F901200C49086110BD64
:103B5000000000008FC2753D0AD7A33CCDCC4C3E7F
:103B6000F01200200AD7A33B9A99993EB812002080
:103B7000000096436666864028130020B41100209A
:103B800000BFFEE7F0EE400A90ED030A30EE600A57
:103B900080ED0E0A90ED0E0A90ED0C1AB4EEC10AFB
:103BA000F1EE10FA0AD290ED0E0AB5EEC00AF1EE6F
:103BB00010FA03DD9FED540A80ED0E0A90ED0E0A17
:103BC00090ED0C1AB1EE411AB4EEC10AF1EE10FA02
:103BD0000ADD90ED0E0AB5EEC00AF1EE10FA03D23E
:103BE0009FED490A80ED0E0A90ED000A90ED0E1A45
:103BF00020EE010A80ED060A90ED070A90ED0E1AFC
:103C000030EE010A80ED070A90ED0E0A90ED0D1AD4
:103C1000B4EEC10AF1EE10FA03DD9FED3B0A80ED30
:103C2000070A90ED0E0A90ED0D1AB1EE411AB4EEAE
:103C3000C10AF1EE10FA03D29FED330A80ED070AB4
:103C400090ED070A90ED0A1AB4EEC10AF1EE10FAEF
:103C500003DD90ED0A0A80ED070A90ED070A90ED6A
:103C60000A1AB1EE411AB4EEC10AF1EE10FA05D209
:103C700090ED0A0AB1EE400A80ED070A90ED010AC4
:103C800090ED071A20EE010A80ED040A90ED0E0A6D
:103C900090ED081A30EE410A90ED021A20EE010A6A
:103CA00080ED050A90ED0E0A80ED080A90ED060AF7
:103CB00090ED041A30EE010A90ED051A30EE010A7B
:103CC00080ED090A90ED090A90ED0B1AB4EEC10AD5
:103CD000F1EE10FA04DD90ED0B0A80ED090A10E018
:103CE00090ED090A90ED0B1AB1EE411AB4EEC10A3B
:103CF000F1EE10FA05D290ED0B0AB1EE400A80ED1C
:103D0000090A90ED090A70470000000080ED000AE2
:103D1000C0ED010A80ED021ADFED123AC0ED033A60
:103D2000DFED103AC0ED043ADFED0E3AC0ED063A91
:103D3000DFED0C3AC0ED053ADFED0A3AC0ED073A87
:103D4000DFED083AC0ED083ADFED063AC0ED093A7A
:103D5000C0ED0A1A80ED0B2AC0ED0C2A80ED0D3A59
:103D6000704700000000000080ED082AC0ED0A1A2C
:103D700080ED000AC0ED010A80ED021A9FED0A3ABB
:103D800080ED0B3A80ED033A80ED043A80ED093A7C
:103D900080ED073A80ED053A80ED063A012180F882
:103DA0003010C0ED0D2A70470000000000BF094828
:103DB0000088B0F5487F06DA40F2DC5005490880FB
:103DC0004880C8808880FFF7DFFD012003F00EF8EF
:103DD000EDE70000C811002000BF07480068401C44
:103DE0000549086004F0E0F802F0F6FC02F0E0FC9F
:103DF000052002F0FBFFF0E70400002000BF00BF39
:103E00000A2002F0F3FFFBE710B54FF0E020006955
:103E100003F074FE012801D003F0BEFA10BD0000CB
:103E200000B593B0302107A8FCF796FB142102A837
:103E3000FCF792FB00BF002001902448006840F08E
:103E40008050224908600846006800F080500190C8
:103E500000BF00BF00BF002001901D48006840F473
:103E600080401B4908600846006800F480400190CB
:103E700000BF00BF012007900004089002200D90B1
:103E800041050E9108210F914FF4A8711091022164
:103E900011910421129107A8FEF706F908B1FCF769
:103EA0007CFD0F20029002200390002004904FF42C
:103EB000A05005904FF480500690052102A8FDF710
:103EC00091FF08B1FCF769FD13B000BD4038024016
:103ED000007000400348006840F470000149086029
:103EE0007047000088ED00E010B50248FEF7B7FC0F
:103EF00010BD00001002002010B50248FEF7AFFC14
:103F000010BD00009404002010B502682D4B9842AB
:103F10000ED0B0F1804F0BD02B4B984208D02B4BDA
:103F2000984205D02A4B984202D02A4B984203D19E
:103F300022F070024B681A43224B984220D0B0F115
:103F4000804F1DD0204B98421AD0204B984217D05A
:103F50001F4B984214D01F4B984211D01E4B9842D1
:103F60000ED01E4B98420BD01D4B984208D01D4BD3
:103F7000984205D01C4B984202D01C4B984203D16A
:103F800022F44072CB681A4322F080034C6943EA62
:103F9000040202608B68C3620B688362094B98421B
:103FA00002D00C4B984201D10B690363012343619A
:103FB000036903F001031BB1036923F001030361EB
:103FC00010BD000000000140000400400008004057
:103FD000000C00400004014000400140004401404A
:103FE0000048014000180040001C00400020004034
:103FF00030B50C46816821F47F4142EA0325254310
:104000002943816030BD0A46816821F0700142F089
:10401000070319438160704730B50B461446026AA6
:10402000056A25F001050562816921F0F00141EA88
:10403000041122F00A021A438161026230BD30B5D8
:104040000B461446026A056A25F01005056281696F
:1040500021F4704141EA043122F0A00242EA031245
:104060008161026230BD70B50546AC6B0020E08511
:10407000E0842046FEF794FD70BD70B5064600252D
:10408000B46B20684069C0F3C01594F84100212842
:1040900005D125B10020E084204600F0C8F8206852
:1040A0004069C0F3801594F84200222805D125B15B
:1040B0000020E085204600F074F8606C40F01000AD
:1040C00060642046FEF76CFD70BD70B50546AC6BB4
:1040D0002868006800F48070002842D1E08500BFA5
:1040E00000BF21680C3151E8001F21F48070216865
:1040F0000C3141E80002002AF3D100BF00BF00BF2D
:104100002168143151E8001F21F0010021681431A9
:1041100041E80002002AF3D100BF00BF00BF2168C0
:10412000143151E8001F21F040002168143141E8AA
:104130000002002AF3D100BF202084F84200206B47
:1041400001280ED100BF00BF21680C3151E8001FCB
:1041500021F0100021680C3141E80002002AF3D15F
:1041600000BF00206063206B012804D1A18D204690
:10417000FEF7B2FC02E02046FFF79AF870BD70B57A
:104180000546AC6B01206063206B012805D1A08D32
:1041900041082046FEF7A0FC02E02046FFF7AAF8FF
:1041A00070BD00BF00BF02680C3252E8002F22F43D
:1041B000907102680C3242E80013002BF3D100BF6B
:1041C00000BF00BF0268143252E8002F22F0010144
:1041D0000268143242E80013002BF3D100BF016BD8
:1041E00001290ED100BF00BF02680C3252E8002F37
:1041F00022F0100102680C3242E80013002BF3D1C8
:1042000000BF202180F8421000210163704710B5E3
:1042100004462068C06820F040002168C860202063
:1042200084F841002046FFF7C5F8002010BD00BF0C
:1042300000BF02680C3252E8002F22F0C001026871
:104240000C3242E80013002BF3D100BF202180F88C
:1042500041107047F8B5044694F84200222875D101
:10426000A068B0F5805F0CD1206950B90025A66A1E
:1042700020684068C0F308003080A06A801CA062FB
:1042800015E0A56A0026A068B0F5805F03D0A0689D
:1042900028B9206918B920684068287004E02068AF
:1042A000406800F07F002870A06A401CA062E08D8A
:1042B000401E80B2E085002846D12068C06820F00A
:1042C00020002168C8602068C06820F480702168E0
:1042D000C8602068406920F0010021684861202002
:1042E00084F8420000206063206B012826D1002062
:1042F000206300BF00BF21680C3151E8001F21F08E
:10430000100021680C3141E80002002AF3D100BFFF
:104310002068006800F0100010280AD100BF0020BB
:10432000009020680068009020684068009000BFFE
:1043300000BFA18D2046FEF7CFFB02E02046FEF72E
:10434000B7FF0020F8BD01E00020FBE70220F9E7FD
:104350002DE9F84F04462068006920F44050E168D8
:104360000843216808612169A0680843616908431E
:10437000E169084300902068C06849F20C618843F5
:10438000009908432168C8602068406920F44070A3
:10439000A16908432168486176492068884203D0B2
:1043A00075492068884203D1FDF716FE814602E078
:1043B000FDF702FE8146E069B0F5004F6CD10220A6
:1043C0006168A0FB015003461920A9FB007001465B
:1043D0002A463846FBF7CAFF6421B0FBF1F04FEAEA
:1043E000001A02206168A0FB01510B461920A9FBAD
:1043F00000712A463846FBF7B9FF83460220616800
:10440000A0FB015003461920A9FB00712A4638463B
:10441000FBF7ACFF6421B0FBF1F000EBC00101EB56
:104420000010ABEB8000322101EBC0006421B0FB37
:10443000F1F000F0F8000AEB400A02206168A0FBEE
:10444000015003461920A9FB007001462A46384650
:10445000FBF78CFF834602206168A0FB01500346F6
:104460001920A9FB00712A463846FBF77FFF64211B
:10447000B0FBF1F000EBC00101EB0010ABEB8000F2
:10448000322101EBC0006421B0FBF1F000F0070025
:104490005044216888606AE004206168A0FB0150F4
:1044A00003461920A9FB007001462A463846FBF74F
:1044B0005DFF824604206168A0FB0150034619207D
:1044C000A9FB007001462A463846FBF74FFF6421DE
:1044D000B0FBF1F000EBC00101EB0010AAEB800093
:1044E000322101EB00106421B0FBF1F000F0F00A82
:1044F00004206168A0FB017003461920A9FB00514C
:104500003A462846FBF732FF6421B0FBF1F00AEB94
:10451000001A04206168A0FB01510B461920A9FB79
:1045200000712A463846FBF721FF83460420616864
:10453000A0FB015003461920A9FB007001462A4642
:104540003846FBF713FF6421B0FBF1F000EBC0012C
:1045500001EB0010ABEB8000322101EB0010642175
:10456000B0FBF1F000F00F00504421688860BDE816
:10457000F88F0000001001400014014077B581B0B1
:10458000044615460298A062A5850020606422209A
:1045900084F842002848E16BC8632848E16B08644E
:1045A0002748E16BC8640020E16B086502AE326801
:1045B0002368191D2B46E06BFDF70CF900BF0020A6
:1045C000009020680068009020684068009000BF5C
:1045D00000BF206970B100BF00BF21680C3151E8F5
:1045E000001F41F4807021680C3141E80002002A6C
:1045F000F3D100BF00BF00BF2168143151E8001F94
:1046000041F001002168143141E80002002AF3D191
:1046100000BF00BF00BF2168143151E8001F41F006
:1046200040002168143141E80002002AF3D100BFA4
:10463000002004B070BD0000CB4000087F4100089E
:104640007B40000810B5034699629A85DA85002000
:104650005864222083F84200186928B11868C0689D
:1046600040F480701C68E0601868406940F0010008
:104670001C6860611868C06840F020001C68E06039
:10468000002010BD014691F84100212828D18868FA
:10469000B0F5805F0BD1086948B90A6A1088C0F389
:1046A00008000B685860086A801C086205E00B6A05
:1046B000581C086218780B685860C88C401E80B27D
:1046C000C88458B90868C06820F080000B68D860BA
:1046D0000868C06840F040000B68D8600020704750
:1046E0000220FCE72DE9F84304460D46174698469C
:1046F000089E31E0701C70B3FDF75AFAA0EB080079
:10470000B04200D816B90320BDE8F8832068C0681D
:1047100000F00400F8B1802D1ED0402D1CD0206880
:104720000068C0F3C000B0B100BF00200090206856
:104730000068009020684068009000BF00BF2046DD
:10474000FFF72FFD0820606400BF002084F84000C0
:1047500000BF0120D8E7FFE7206800682840A84292
:1047600001D1012000E00020B842C3D00020CBE7F7
:1047700010B50248FEF730FA10BD0000B402002068
:1047800010B50248FEF728FA10BD0000FC02002018
:1047900010B50248FEF720FA10BD000044030020C7
:1047A00000BFFEE710B504460C2084F85801142021
:1047B0009FED1F0A086084ED680AFC2084F8A402BB
:1047C000FB2084F8A50294F85B0184F8A60294F813
:1047D000580184F8A702002005E02118401C91F838
:1047E000A02181F8A82294F858118142F5DCC9B2C1
:1047F00004F5D070FCF71EF8A4F8A00294F8582134
:1048000004F52A7094F8A012115494F85821401C11
:1048100094F8A112115494F85821401CFD21115410
:1048200094F85821401CFE211154C01F10BD0000F7
:104830000040424470B5044690F8EE221230002544
:10484000092A67D2DFE802F0050C13161B282C3268
:104850003A00FC2903D1012084F8EE02617370BD97
:10486000FB2957D1022084F8EE02A17370BDE173D9
:10487000032018E0217384F8EC52042013E094F82C
:10488000EC22531C84F8EC32115494F8EC02217B96
:104890008842EBD3052006E084F85411062002E09C
:1048A00084F85511072084F8EE0270BDFD2931D13E
:1048B000082084F8EE0284F8561170BDFE2929D133
:1048C00084F8571194F8ED12B9B1217BFBF7B2FFD0
:1048D0002082B4F8541188420CD1002005E0211840
:1048E000401C8A7C81F85420C0B2217B8142F6D8DA
:1048F00084F8EE5294F8ED0260B9002005E021182A
:10490000401C8A7C81F85420C0B2217B8142F6D8B9
:1049100084F8EE5284F8EE5270BD000010B51C46CB
:1049200000F066F804490160002180F8EC1280F87C
:10493000ED4280F8EE1210BD38930008044A034B94
:10494000516843F82100491C51607047886000207D
:104950005401002008B5114D114E002416E055F801
:104960002400417A89B10021009101684A686946B2
:104970009047010009D0009838B182B255F8240060
:104980004FF0FF334068FEF7B6FC641C7068844249
:10499000E5DB052002F02AFADFE70000886000204E
:1049A000540100201CB50948017800290DD10121CE
:1049B000017000F108011820CDE9000100234FF437
:1049C000007203A1054803F009F81CBD5401002042
:1049D00053656E645461736B000000005549000814
:1049E000436800F1080101221846FEF74BBC0000A5
:1049F00010B504460748C4E90001074862724068E0
:104A00000A2802DA2046FFF799FFFFF7CBFF20467E
:104A100010BD0000489300085401002003B4019821
:104A20004100009850EAC12018BF04204A0D18BF69
:104A300040F0010040F2FF72B2EB515F08BF40F05E
:104A40000200012808BF052002B070470248006834
:104A5000C0F30220704700000CED00E010B5002804
:104A600004DB0A07130E054A135406E00A07140E66
:104A7000034A00F00F031B1FD45410BD00E400E0F4
:104A800018ED00E00020FBF7AEBDEFF305807047A6
:104A900010B52F499FED2C1B2DED020B84B005980E
:104AA00020F000408842D8BF9DED040B2DDD294940
:104AB000884209D1049840B94FF00100FBF78DFD01
:104AC00000F0A2FC06B010BD05DB9DED040B00F06C
:104AD0008FFC06B010BD68469DED040B00F0A0F8F9
:104AE00010F0030004BF9DED021B9DED000B0CD0E8
:104AF00001280ED09DED021B9DED000B022817D062
:104B0000012000F0DDFB06B010BD00F0A5FA06B0F4
:104B100010BD9DED021B9DED000B012000F0D0FBB0
:104B200051EC100B03F080FC06B041EC100B10BDF3
:104B300000F092FA51EC100B03F076FC06B041EC59
:104B4000100B10BD0000000000000000000000007D
:104B5000FB21E93F0000F07F10B52F499FED2C1B92
:104B60002DED020B84B0059820F000408842DCBF98
:104B700000209DED040B32DD2849884209D10498BC
:104B800040B94FF00100FBF728FD00F03DFC06B0F6
:104B900010BD05DB9DED040B00F02AFC06B010BD36
:104BA00068469DED040B00F03BF810F0030011D0B7
:104BB000012818D09DED021B9DED000B02281AD094
:104BC00000F04AFA51EC100B03F02EFC06B041EC59
:104BD000100B10BD9DED021B9DED000B012000F0A0
:104BE0006FFB06B010BD9DED021B9DED000B00F0AC
:104BF00033FA06B010BD012000F062FB51EC100B3F
:104C000003F012FC06B041EC100B10BD00000000D8
:104C10000000000000000000FB21E93F0000F07FE1
:104C20002DE9F14F04462DED020B2DED088B8AB0D6
:104C30009FEDE70B80ED020B139EE74826F0004541
:104C400085420ADC9DED120B002084ED000B0AB0BA
:104C5000BDEC088B03B0BDE8F08FE0489FEDE0AB02
:104C60009FEDE1BBA84247DDE14F9FEDE39B9FED48
:104C7000E48B9DED120B53EC1A2B51EC100B002E14
:104C80001CDD03F073FF41EC100BBD4208D053EC68
:104C90001B2B51EC100B03F069FFC4E900010BE082
:104CA00053EC192B51EC100B03F060FF53EC182B55
:104CB00003F05CFFC4E900010120C8E703F0F2FB48
:104CC00041EC100BBD4208D053EC1B2B51EC100BE8
:104CD00003F0E8FBC4E900010BE053EC192B51ECA5
:104CE000100B03F0DFFB53EC182B03F0DBFBC4E9E4
:104CF00000014FF0FF30AAE7C348A84279DB9DEDE1
:104D0000120B51EC100B00F08DFC41EC180B9FEDD9
:104D1000C00B53EC102B03F01FFE9FEDBF1B53EC99
:104D2000112B03F0BFFB03F0BDFD074603F0E9FDC7
:104D300041EC190B53EC1A2B03F00EFE53EC182B1D
:104D400003F008FF41EC180B53EC1B2B51EC190B33
:104D500003F002FEDFF8C8A241EC100B4FEA155831
:104D60000125FA4453EC102B51EC180B03F0FEFE16
:104D7000032DC4E900013DD0C1F30A5005EB4511F4
:104D8000A8EB00001139814234DA0AEB051BB0EEC2
:104D900048AA9BED000BF0EE68AA53EC102B51ECE7
:104DA000190B03F0D9FD41EC1B0B51EC1A0B53EC22
:104DB0001B2B03F0DBFE41EC180B51EC1A0B53ECF0
:104DC000182B03F0D3FE53EC1B2B03F0CFFE9BED0F
:104DD000020B41EC1A0B53EC102B51EC190B03F0A6
:104DE000BBFD53EC1A2B03F0C1FE41EC100B6D1C04
:104DF000B8E70EE0002EA8BF3846BFF628AF94ED06
:104E0000000B51EC100B03F00FFBC4E900017842DA
:104E10001DE7C6F3130040F4801EC6F30A50A0F24B
:104E2000F530471100F01F05C5F12000DDF848B04E
:104E300008900020069007900520EC467949002D47
:104E400007EB0002794408BF51F8221009D051F84D
:104E5000223001EB8201AB404A68089922FA01F145
:104E60001943A1FB0E26A1FB0B131A449A4234BF2F
:104E70000123002303EB06080CEB8003D3E901A612
:104E80000E448E4234BF0121002192448A4411B164
:104E9000924502D903E0924501D2012100E00021B0
:104EA000C3E901A641444CF82010011EA0F1010005
:104EB000C4DC029800F10050850F0298DDE9036719
:104EC0008000DDF8148003F01CFD41EC1A0B304625
:104ED00003F02EFD9FED541B53EC112B03F03CFD12
:104EE00041EC1B0B384603F023FD9FED511B53ECA7
:104EF000112B03F031FD41EC180B404603F018FD77
:104F00009FED4D1B53EC112B03F026FD41EC190BCB
:104F100051EC180B53EC192B03F0C4FA53EC1B2B78
:104F200003F0C0FA53EC1A2B03F0BCFACDE90801E8
:104F3000002008909DED080B53EC1A2B51EC100B40
:104F400003F014FE53EC1B2B03F010FE53EC182B54
:104F500003F00CFE53EC192B03F0FCFD9FED381B06
:104F600053EC112B03F0F8FC9FED370B41EC180BC1
:104F700053EC102B9DED080B51EC100B03F0ECFCE7
:104F800053EC182B03F08EFA9FED310B41EC180B0C
:104F900053EC102B9DED080B51EC100B03F0DCFCD7
:104FA00053EC182B03F07EFA41EC100B139810F021
:104FB000004F06D06D4251EC100B03F035FA41EC76
:104FC000100B284684ED000B41E6000000000000B5
:104FD0000000000000000000FB21E93F7CD90240F6
:104FE00000004054FB21F93F3163621A61B4D03DA7
:104FF000FB21F93F000000000000601A61B4D03DC1
:105000007370032E8A19A33BFB2139410000000075
:1050100083C8C96D305FE43F000000000000E03F3E
:10502000DA44000028440000000000000000103EA8
:10503000000000000000103C000000000000103ADA
:10504000182D4454FB21F93D3326A611460B113C83
:1050500000000054FB21F93D10B52DED040B2DEDA2
:10506000088B82B0B0EE419AF0EE619A0B9820F076
:1050700000449FED4BABB4F1795F11DA9DED0A0B63
:1050800051EC100B03F00EFC002801BFB0EE4A0AF1
:10509000F0EE6A0A02B0BDEC088B04BF04B010BD8C
:1050A0009DED0A0B53EC102B51EC100B03F054FC4C
:1050B00041EC180B3C480621B0EE480AF0EE680AB5
:1050C000784400F081F853EC182B51EC100B03F0EE
:1050D00043FC9DED0A0B41EC1B0B53EC192B51ECDF
:1050E000100B03F039FC41EC190B53EC1B2B51EC6A
:1050F000180B03F031FC53EC192B03F037FD9FED37
:105100002C0B41EC190B53EC102B51EC180B03F04A
:1051100023FC41EC100B2848844210DA53EC192B85
:1051200051EC100B03F022FD53EC1A2B03F012FD8F
:1051300041EC100B02B0BDEC088B04B010BD1F4851
:10514000A042BCBF9FED1E1B8DED001B06DBA4F52E
:1051500000100190002000909DED001B51EC100B01
:1051600053EC112B03F002FD9DED000B41EC180BED
:1051700053EC102B51EC1A0B03F0F8FC41EC1A0B1A
:1051800053EC192B51EC180B03F0F0FC53EC1A2BD9
:1051900003F0E0FC41EC100BCCE700000000000045
:1051A000000000000000F03F4C4100000000000043
:1051B000000000000000E03F3333D33F0000E93F30
:1051C000000000000000D23F70B504462DED028BB8
:1051D0004D1E00EBC500B0EE408AF0EE608A90ED07
:1051E000000B35F0060017D053EC182B51EC100BC8
:1051F00003F0B2FB41EC100B6D1E04EBC50090ED0B
:10520000001B51EC100B53EC112B03F04BF941EC4C
:10521000100B35F00600E7D1022D36D0042D1CD03E
:10522000062D1CBFBDEC028B70BD53EC182B51EC4E
:10523000100B03F091FB94ED0A1B53EC112B03F0C0
:1052400031F953EC182B03F087FB94ED081B53EC5A
:10525000112B03F027F941EC100B53EC182B51ECF8
:10526000100B03F079FB94ED061B53EC112B03F0AC
:1052700019F953EC182B03F06FFB94ED040B53EC6E
:10528000102B03F00FF941EC100B53EC182B51ECE1
:10529000100B03F061FB94ED021B53EC112B03F098
:1052A00001F953EC182B03F057FB94ED001B53EC62
:1052B000112B03F0F7F8BDEC028B41EC100B70BD25
:1052C00031B504462DED040B2DED0A8BB0EE41BA3D
:1052D000F0EE61BA0B989DED0A0B20F00040B0F1A2
:1052E000795F0DDA51EC100BFFF798FB042808BF2B
:1052F00000F09AF89DED0A0BBDEC0A8B05B030BDAD
:1053000053EC102B51EC100B03F026FB41EC180B67
:105310009DED0A0B53EC182B51EC100B03F01CFB0A
:1053200041EC190B2C48B0EE480AF0EE680A052152
:105330007844FFF749FF9FED2ACBB0EE40AAF0EE8C
:1053400060AA9CB353EC1C2B51EC190B03F004FB2B
:1053500041EC1C0B53EC1A2B51EC190B03F0FCFA2B
:105360009FED210B41EC190B53EC102B51EC1B0B57
:1053700003F0F2FA53EC192B03F0F8FB53EC182B63
:1053800003F0EAFA53EC1B2B03F0F0FB53EC1C2B5D
:1053900003F0ECFB9DED0A1B53EC112B03F0DAFB41
:1053A000BDEC0A8B05B041EC100B30BDFFE753ECB0
:1053B0001A2B51EC180B03F0CFFA53EC1C2B03F013
:1053C00071F853EC192B03F0C7FA9DED0A1B53EC4F
:1053D000112B03F067F8E3E7D43F00000000000062
:1053E000495555555555C5BF000000000000E03F28
:1053F00010B553EC102B51EC100B03F053F841ECAB
:10540000100B10BD000000009FED050B10B553EC14
:10541000102B51EC100B03F0EDF841EC100B10BD0C
:1054200000000000000000009FED050B10B553ECDC
:10543000102B51EC100B03F08FFA41EC100B10BD48
:10544000000000000000001001231A460149024834
:10545000FFF764BAFC020020985D00209FED060A69
:10546000064880ED0E0A9FED040A80ED0A0A9FEDC2
:10547000020A80ED090A70470000000010110020A8
:1054800000B58FB000200B900C9008200D900020EC
:105490008DF838004FF40070099033488089000A75
:1054A000324908703048007B48702F48B0F85000EF
:1054B000000A88702C4890F85000C8702A48B0F84C
:1054C0009400000A0871284890F894004871264812
:1054D000B0F8D800000A8871234890F8D800C87145
:1054E00008AB0A4609A92248FBF76FFA10B1012060
:1054F00020490870002004900590082006900020A4
:105500008DF81C004FF4007002901B488089000A3F
:105510001A4908701848007B48701748B0F85000C6
:10552000000A8870144890F85000C8701248B0F80B
:105530009400000A0871104890F8940048710E48D1
:10554000B0F8D800000A88710B4890F8D800C871EC
:1055500001AB0A4602A90A48FBF737FA10B101204D
:10556000044908700FB000BDEC0600205000002078
:10557000C0010020580000200C0900205900002024
:10558000E801002010B50348FFF72AFABDE81040F3
:1055900000F086BA985D002070B548B10C783CB92F
:1055A0001468641C5D1C94FBF5F605FB164414603E
:1055B000087070BD50B10A7842B9054A1278002AC5
:1055C00004DD034A1278521E014B1A7008707047AE
:1055D000CC00002050B10A7842B9054A1278022A5C
:1055E00004DA034A1278521C014B1A700870704793
:1055F000CC00002070B578B10C786CB91468641CCC
:105600005D1C94FBF5F605FB16441460034C94ED09
:10561000030A034C84ED000A087070BDB411002029
:10562000B800002082B0CDE9000121F000400190D7
:105630009DED000B02B051EC100B704710B501202E
:105640007A4908710121794880F8481080F88C1057
:105650000120764908604864C1F888009FED743ADB
:10566000F1EE042A9FED732ADFED731A9FED731A92
:10567000DFED730A9FED730A7348FEF747FB9FED5A
:105680006C3AF1EE042A9FED6B2ADFED701A9FED64
:10569000701ADFED700A9FED700A7048FEF736FB56
:1056A0009FED633AF1EE042A9FED622ADFED621A64
:1056B0009FED6B1ADFED6B0A9FED6B0A6B48FEF7EF
:1056C00025FB9FED6B3AF1EE042A9FED5A2ADFEDA0
:1056D0005A1A9FED681AF5EE000A9FED670A6748AF
:1056E000FEF714FB9FED623AF1EE042A9FED512A7A
:1056F000DFED511A9FED621AF5EE000A9FED5A0A8E
:105700006048FEF703FB9FED5A3AF1EE042A9FED45
:10571000492ADFED491A9FED5C1ADFED5C0AB3EE12
:10572000000A5B48FEF7F2FA9FED513AF1EE042AC7
:105730009FED402ADFED401A9FED561ADFED560A25
:105740009FED560A5648FEF7E1FAB6EE003ADFED55
:10575000552AB1EE042ADFED541A9FED541ADFEDFD
:10576000540AB1EE0C0A5348FEF7D0FAFEEE002AB6
:105770009FED302ADFED2F1A9FED4F1ADFED4F0A14
:10578000B2EE080A4E48FEF7EFFAFEEE002A9FED51
:10579000292ADFED281A9FED481ADFED4A0A9FED0E
:1057A0004A0A47483830FEF7DFFAFEEE002A9FED3E
:1057B000212ADFED201A9FED401AF7EE080A9FED2F
:1057C000430A3F487030FEF7CFFADFED412A9FEDE4
:1057D000412ADFED401A9FED361ADFED350A9FEDC5
:1057E000340A3D48FEF7C0FADFED392A9FED392A29
:1057F000DFED381A9FED2E1ADFED2D0A9FED2C0AF2
:1058000035483830FEF7B0FADFED312A9FED312A06
:10581000DFED301A9FED261ADFED250A9FED240AF1
:105820002D487030FEF7A0FA10BD0000EC060020F5
:105830000000704400409C460024744914AE374078
:105840007B142E3E9A998141C40E00208096184BFD
:105850009A9919403D0A573E9A998541000F0020B8
:1058600066662640EC51383E000084413C0F002023
:1058700000803B44F628FC3FCDCC8441780F0020CB
:1058800048E1FA3FB40F00207B14EE3FAE47613E83
:10589000F00F0020666606401F856B3E66668641F7
:1058A0002C1000200AD7233C0050C3473333333F2A
:1058B0000000000068100020CDCCCC3D3333B33F56
:1058C0002C0B0020CDCC8C3F295C3F41333343412E
:1058D000CDCC4C3D00C0DA45EC0C00200268A2F2B1
:1058E0000122062A79D2DFE802F0031830486079F5
:1058F0004A780B7842EA0322464BDA80CA788B78E2
:1059000042EA032212B2434B1A814A790B7942EAE6
:10591000032212B23F4B5A8179E04A780B7842EA6F
:1059200003233C4AA2F84A30CA788B7842EA032221
:1059300013B2384AA2F84C304A790B7942EA032272
:1059400013B2344AA2F84E3061E04A780B7842EA4A
:105950000323304AA2F88E30CA788B7842EA0322B9
:1059600013B22C4AA2F890304A790B7942EA03220A
:1059700013B2284AA2F8923049E04A780B7842EAFA
:105980000323244AA2F8D230CA788B7842EA032251
:1059900013B2204AA2F8D4304A790B7942EA0322A2
:1059A00013B21C4AA2F8D63031E04A780B7842EAAA
:1059B0000323184AA2F81631CA788B7842EA0322E8
:1059C00013B2144AA2F818314A790B7942EA032239
:1059D00013B2104AA2F81A3119E017E04A780B788E
:1059E00042EA03230B4AA2F85A31CA788B7842EA7A
:1059F000032213B2074AA2F85C314A790B7942EAD2
:105A0000032213B2034AA2F85E3100E000BF00BFD8
:105A100070470000EC060020FCF7DCF8FEF700FA07
:105A2000FDF7ACFDFDF740FDFDF7E8FCFDF706FFD7
:105A3000FDF710FDFDF7B0FEFDF738FFFDF7E2FEC4
:105A4000FDF718FFFDF74EFF0848FCF72DFEFEF7A7
:105A50004DF8FFF7F3FD0648FDF7B0FC00F00AF83B
:105A6000FDF756FDFFF78EFD00BFFEE71002002098
:105A7000B810002010B5FFF708F810B16FF005045A
:105A800009E00648006820B90120044908600024A4
:105A900001E04FF0FF34204610BD0000240100203B
:105AA00070B5FEF7F2FF10B16FF005041FE011486A
:105AB0000068012819D100BF801F0021002804DBE5
:105AC0000A07130E0C4A135406E00A07150E0B4A78
:105AD00000F00F031B1FD55400BF00BF0220054973
