:020000040800F2
:10000000386500205D0200089D550008AF3E0008DD
:1000100085520008090C0008E16800080000000093
:100020000000000000000000000000009D0100082A
:10003000270E000800000000F9010008495B0008D5
:1000400077020008770200087702000877020008AC
:10005000770200087702000877020008770200089C
:10006000770200087702000877020008770200088C
:10007000770200087702000877020008770200087C
:10008000FD0C00087702000877020008AD0C00089C
:100090007D0C00088D0C00089D0C0008290E00083E
:1000A000770200087702000877020008770200084C
:1000B000295C0008395C0008770200087702000814
:1000C000770200087702000877020008770200082C
:1000D000770200080D6500081D65000839650008F5
:1000E000770200087702000877020008770200080C
:1000F00077020008770200087702000877020008FC
:1001000077020008770200087702000877020008EB
:10011000A95D00087702000877020008770200084E
:10012000770200080D0D000877020008770200082A
:10013000770200087702000877020008ED0C00083B
:10014000BD0C0008CD0C0008DD0C0008770200088B
:100150007702000877020008770200084965000866
:10016000770200087702000877020008770200088B
:1001700077020008770200087702000800000000FC
:100180007702000877020008DFF80CD000F0F8FBD7
:1001900000480047D5860008386500202C4B1968B8
:1001A0000868B0E8F04F80F30988BFF36F8F4FF015
:1001B000000080F3118870470000000008480068C4
:1001C000006880F308884FF0000080F3148862B65E
:1001D00061B6BFF34F8FBFF36F8F00DF00BF00BF6B
:1001E00008ED00E0DFF80C00016841F470010160E7
:1001F000704700BF88ED00E0EFF30980BFF36F8F19
:10020000134B1A681EF0100F08BF20ED108A20E96A
:10021000F04F106009B44FF0500080F31188BFF325
:100220004F8FBFF36F8F0BF0DDFA4FF0000080F3BC
:10023000118809BC19680868B0E8F04F1EF0100F6B
:1002400008BFB0EC108A80F30988BFF36F8F704746
:1002500080040020EFF305807047000006488047C7
:1002600006480047FEE7FEE7FEE7FEE7FEE7FEE79B
:10027000FEE7FEE7FEE7FEE7155C000889010008DF
:100280002DE9F05F0546002092469B4688460646CB
:10029000814640241BE0284641464746224600F05E
:1002A00050FA53465A46C01A914110D31146184687
:1002B000224600F037FA2D1A67EB01084F46224616
:1002C0000120002100F02EFA17EB00094E41201EFC
:1002D000A4F10104DFDC484631462A464346BDE826
:1002E000F09F40EA01039B0703D009E008C9121FF1
:1002F00008C0042AFAD203E011F8013B00F8013BE0
:10030000521EF9D27047D2B201E000F8012B491E0B
:10031000FBD270470022F6E710B513460A460446A2
:100320001946FFF7F0FF204610BD2DE9FE4F80462D
:1003300081EA0300C00F0C46009021F0004123F039
:100340000045B8EB0200A94105D24046214690463F
:100350001C460B46024623F00040104347D0270DB1
:10036000C7F30A00C3F30A510290401A01904028D3
:100370006BDAC3F3130040F4801B0098924620B15F
:100380000023D2EB030A63EB0B0B01985946C0F133
:100390004002504600F0C6F906460D465046594602
:1003A000019A00F0DEF910EB08006141002487EAB1
:1003B000115284EAE7731A4340D0009A62B3019A5B
:1003C000012A4FEA075215DC001B61EB02014FF0D6
:1003D000004202EA0752CDE90042001C41F58011BB
:1003E00032462B4600F015FA03B0BDE8F08F4046C8
:1003F0002146F9E7001B61EB0201001C41F5801367
:1004000000185B412018A2F5001747EB030140EAF2
:10041000D570B6196D4111E06D084FEA360645EA10
:10042000C0754FEA0752001B61EB0201001C41F549
:10043000801149084FEA30000019514132462B46DD
:1004400003B0BDE8F04F00F0D5B90098012240009C
:100450000023D0EB020263EBE073009821464FEAE1
:10046000E074B8EB000061EB0401E9E783F00043BE
:100470005BE781F0004158E72DE9FE4F81EA030474
:1004800004F0004421F0004100944FF0000B23F0F1
:10049000004350EA01045ED052EA03045BD0C3F388
:1004A0000A54C1F30A552C44A4F2F3340194A0FB7E
:1004B0000254C1F3130141F48011C3F3130343F455
:1004C000801301FB024400FB034E840A970A44EAAE
:1004D000815447EA8357A4FB076802958D0A05FB00
:1004E00007854FEA932C04FB0C542705029D4FEA25
:1004F000065847EA1637B5EB08056EEB070C870E72
:10050000920E47EA811742EA8312A7FB0201B6EB7B
:100510000B0164EB00042B0D43EA0C335E1844EB33
:100520001C50DA465146E7FB0201C5F313044FEABB
:100530000B3343EA14534FEA0432019C43EA0603A7
:10054000A4F10C040294009CCDE900B400F061F920
:1005500003B0BDE8F08F00200146F9E72DE9F04D2A
:1005600081EA030404F0004B21F0004514464FF0EB
:10057000000A23F0004150EA050220D054EA0102AB
:100580001DD0C5F30A570246C5F31303C1F3130088
:10059000C1F30A5640F4801543F48013A7EB060814
:1005A000101BD64608F2FD3873EB050002D308F1A4
:1005B000010801E092185B41B8F1000F03DA002056
:1005C0000146BDE8F08D00204FF4801106468446B8
:1005D0000EE0171B73EB050705D3121B63EB050336
:1005E00006434CEA010C49084FEA300092185B417F
:1005F00050EA0107EDD152EA030012D082EA04006A
:1006000083EA0501084305D0101BAB4106D2012245
:10061000002306E000224FF0004302E06FF00102E9
:1006200053101AEB06004CEB085110EB0A0041EB9B
:100630000B01BDE8F04D00F0DDB800F0004230F0F5
:1006400000400AD0C10D01F56071C0F3160042EA06
:100650000151C2084007114370470020014670470E
:1006600030B5041E71F1000404DB4FF00044404239
:1006700064EB0101141E73F1000405DB1C464FF00E
:100680000043524263EB04038B4208BF824230BDF9
:1006900030B5041E71F1000404DB4FF00044404209
:1006A00064EB0101141E73F1000405DB1C464FF0DE
:1006B0000043524263EB0403994208BF904230BDAD
:1006C00001F0004330B421F0004150EA010206D0AD
:1006D0000A0DA2F56072C1F31301002A02DC30BCDE
:1006E00000207047440F44EAC104C100E01830BC48
:1006F00000EBC25000F047B830B50B460146002071
:100700002022012409E021FA02F59D4205D303FAD3
:1007100002F5491B04FA02F52844151EA2F1010254
:10072000F1DC30BD202A04DB203A00FA02F100207F
:1007300070479140C2F1200320FA03F3194390401F
:100740007047202A04DB203A21FA02F0002170478A
:1007500021FA02F3D040C2F1200291400843194629
:100760007047202A06DBCB17203A41FA02F043EA11
:10077000E07306E041FA02F3D040C2F1200291405A
:100780000843194670470029A8BF7047401C49001C
:1007900008BF20F00100704710B4B0FA80FC00FAE6
:1007A0000CF050EA010404BF10BC704749B1CCF111
:1007B000200421FA04F411FA0CF118BF012121439D
:1007C0000843A3EB0C01CB1D4FEA00614FEA102058
:1007D00042BF002010BC704700EBC35010440029FA
:1007E000A4BF10BC7047401C490008BF20F00100A6
:1007F00010BC704710B5141E73F1000408DA401CD9
:1008000041F1000192185B411A4301D120F001002F
:1008100010BD2DE9F04D92469B4611B1B1FA81F21F
:1008200002E0B0FA80F220329046FFF77BFF0446E8
:100830000F4640EA0A0041EA0B0153465A46084374
:1008400013D0114653EA010019D0C8F140025046B6
:10085000FFF777FF05460E46504659464246FFF7DA
:1008600061FF084305D0012004E020463946BDE879
:10087000F08D0020054346EAE0762C4337430A9882
:100880006305E40AA0EB08000022FD0A44EA47548D
:100890000A3002D500200146E9E701051019694137
:1008A000DDE9084500196941BDE8F04DA2E72DE9F1
:1008B000F04D00231A461B1A8A4103DB0020014633
:1008C000BDE8F08DC1F30A52C1F3130141F4801564
:1008D0004FF0000BD10702D100186D41521E0027C6
:1008E000044640F2FF11384601EB620A3E4680465C
:1008F000024600204FF48011FFF723FFC219714117
:10090000BB1846EB0100B4EB030C75EB000C04D3F1
:10091000E41A65EB000517460E46241908F101009C
:100920006D4180463428E3DDF91946EB0600091BCA
:10093000A84103D24FF0FF32134601E000221346D4
:100940001BEB070046EB0A51BDE8F04DFFF752BF25
:10095000C1F30A52C1F3130140F2FF3341F4801195
:100960009A4202DA00200146704740F233439A422D
:10097000A2F2334202DC5242FFF7E3BEFFF7D2BEDF
:10098000064C074D06E0E06840F0010394E80700DC
:1009900098471034AC42F6D3FFF7FAFB7CC8000846
:1009A0009CC800080EB5C10F80EAE0700844CA0771
:1009B000002140F233438DE80E000A460B46FFF754
:1009C00028FF03B000BD0EB540F233410291002173
:1009D000CDE900110A460B46FFF71BFF03B000BD2F
:1009E00070B5C1F30A5201F000450024C1F31301B0
:1009F00040F2FF3341F480119A4201DA002070BDC9
:100A000040F233439A42A2F2334203DC5242FFF7F0
:100A100098FE00E090402C43F1D0404270BD70B58C
:100A20008C1810F8015B15F0070301D110F8013B99
:100A30002A1106D110F8012B03E010F8016B01F820
:100A4000016B5B1EF9D12B0705D40023521E0DD478
:100A500001F8013BFAE710F8013BCB1A921C03E0C6
:100A600013F8015B01F8015B521EF9D5A142D8D3FE
:100A7000002070BD10B508480068B0F57A7F0ADD27
:100A80000648007838B900220221054801F0B6FC7A
:100A900001200249087010BD840000207C04002061
:100AA0000000024010B5FFF7E5FF0348007810B1E1
:100AB00001200249088010BD9F0100209C010020F8
:100AC00010B52448C088A0F2DC5000EE100AB8EE41
:100AD000C00ADFED210A20EE200A204880ED010A3D
:100AE0001C488088A0F2DC5000EE100AB8EEC00A64
:100AF000DFED190A20EE200A184880ED000A15489B
:100B00000088A0F2DC5000EE100AB8EEC00ADFED5B
:100B1000140A20EE200A114880ED020A0D48C08810
:100B20000C498988884201D1012000E0002080B969
:100B30009FED0C0A0C4805F03FFF9FED0A0A0A489A
:100B4000383005F039FF9FED070A0748703005F08F
:100B500033FF10BD0816002017B7D13950160020FA
:100B600052499D3900000000080F002010B50122F5
:100B70000249034803F016F810BD00009000002061
:100B8000E40A002010B504461B480078401C1A49AE
:100B9000087008460078642828DA94ED000ADFED32
:100BA000170AB4EEE00AF1EE10FA0BDD94ED000A3C
:100BB000DFED130A30EE600A84ED000A2046FFF7ED
:100BC000E1FF13E094ED000ADFED0E0AB4EEE00A57
:100BD000F1EE10FA0AD294ED000ADFED090A30EEC8
:100BE000200A84ED000A2046FFF7CCFF0248007877
:100BF000401E0149087010BD680100200000344308
:100C00000000B443000034C300BFFEE700B58BB062
:100C100000200690079001200890002001900420F9
:100C200002900020039004900590012009900E206E
:100C30000A9001A90F4800F08DFA08B100F05CF9A4
:100C40000C4800F0DAFE08B100F056F9022109481C
:100C500000F0C6F908B100F04FF9002006494860DD
:100C6000042088600020C860082008610020087502
:100C70000BB000BD040A0020EC09002010B50248AA
:100C800000F0C5FB10BD0000040A002010B50248AA
:100C900000F0BDFB10BD0000040A002010B50248A2
:100CA00000F0B5FB10BD0000040A002010B502489A
:100CB00000F0ADFB10BD0000040A002010B5024892
:100CC00000F0A5FB10BD00002C0A002010B5024862
:100CD00000F09DFB10BD00002C0A002010B502485A
:100CE00000F095FB10BD00002C0A002010B5024852
:100CF00000F08DFB10BD00002C0A002010B502484A
:100D000000F01EFF10BD0000040C002010B50248CA
:100D100000F016FF10BD0000640C002001460878AA
:100D200010381823B0FBF3F20848805CC865032A2A
:100D300005D908686FF30900001D886503E008689D
:100D40006FF309008865886D7047000004C70008CC
:100D5000014600208A6A8B69CBB932B1012A0DD0D5
:100D6000022A03D0032A10D10EE000BFCB6A03F0A1
:100D70008073B3F1807F00D1012007E0CB6AB3F12B
:100D8000C07F00D1012001E000E000BF34E08B69AA
:100D9000B3F5005F1AD132B1012A07D0022A03D07D
:100DA000032A11D10AE000BF01200EE0CB6A03F054
:100DB0008073B3F1807F00D1012006E0CB6AB3F1EC
:100DC000C07F00D1012000E000BF15E032B1012A50
:100DD00005D0022A04D0032A0CD103E000BF00BFD3
:100DE000012008E0CB6A03F08073B3F1807F00D16B
:100DF000012000E000BF00BF704730B504682468E0
:100E000024F4802405682C60046863608468402CA6
:100E100004D10468A2600468E16003E00468A16092
:100E20000468E26030BD704710B5402001F0D6F98B
:100E300010BD000010B502220021252001F0ACFBFE
:100E4000252001F095FB24480068C06840F0600050
:100E500021490968C86002220021272001F09CFB7B
:100E6000272001F085FB1D480068C06840F0600045
:100E70001A490968C86001221949184802F092FE0F
:100E800001220021342001F087FB342001F070FBA7
:100E900014480068C06840F0600012490968C860E2
:100EA00011480068C06840F010000F490968C86028
:100EB0000E480068C06840F010000C490968C8601E
:100EC0000C220B49084802F0FAF90C22094907489C
:100ED00002F0F5F910BD0000E40A0020740B0020B8
:100EE000100000209C0A00202C0B0020BC0B0020CE
:100EF000D80E0020E40E002072B600BFFEE700000E
:100F000030B50021002300249FED321AB0EE410AD3
:100F100000200EE0304D2D5C3D2D01D1451CE9B285
:100F20002D4D2D5C212D02D1451EEBB203E0451C59
:100F3000E8B2C828EEDB00BF2748405C2D2802D16C
:100F4000481CC1B201240022084607E0224D2D5C56
:100F50002E2D01D1024603E0451CE8B29842F5DD92
:100F600000BF084611E01C4D2D5C01EE105AB8EE92
:100F7000411AF2EE041A00EE211ADFED181A31EED2
:100F8000611AB0EE410A451CE8B29042EBDBF2EE8A
:100F9000040A551CE8B214E00F4D2D5C303D01EE03
:100FA000105AF8EEC11A81EEA01A31EE001AB0EE16
:100FB000410AB2EE041A20EE811AF0EE410A451CF5
:100FC000E8B29842E8DD012C03D1B1EE401AB0EE50
:100FD000410A30BD000000006014002000004042C3
:100FE00010B5024692F82030012B01D0022B06D119
:100FF00010684069084314686061002010BD506AA1
:1010000040F4802050620120F8E7F0B504460D4618
:101010001E4694F8207020688368A86800B900E034
:1010200000BF012F01D0022F7DD103F0806030B9C5
:1010300003F0006018B903F0805000287ED0C3F39D
:101040000161012088403060A86860B9B5F800C02F
:10105000E86840EA4C5C206800F5C07000EB0110C5
:10106000C0F800C00FE0D5E901C040EACC00D5F8D7
:101070000CC040EA0C00D4F800C00CF5C07C0CEBAE
:10108000011CCCF80000D5F810C0206800F5C07035
:1010900000EB0110C0F804C0287D01280ED12068A3
:1010A00000F5C07000EB0110406840F4807C2068BF
:1010B00000F5C07000EB0110C0F804C0D079000644
:1010C00092F806C040EA0C4092F805C040EA0C20B5
:1010D00092F804C040EA0C00D4F800C00CF5C07CC3
:1010E0000CEB011CCCF80C00D078000692F802C082
:1010F00040EA0C4092F801C040EA0C2092F800C08F
:1011000040EA0C00D4F800C00CF5C07C0CEB011CCC
:10111000CCF80800206800F5C07000EB01100068F2
:1011200040F0010C01E00FE008E0206800F5C0701D
:1011300000EB0110C0F800C00020F0BD606A40F470
:10114000001060620120F8E7606A40F4802060626D
:101150000120F2E7F0B504460A46216894F82050D1
:10116000012D01D0022D7ED1424901F500710868A0
:1011700040F001000860086820F47C5008600868AE
:10118000566A40EA06200860107D00F01F06012024
:1011900000FA06F3C8699843C861A1F50071D069E7
:1011A000C8B9D1F80C029843C1F80C02908880B2FB
:1011B000968940EA064601F51070576940F8376095
:1011C000108880B2168940EA064601F5107057690A
:1011D00000EBC7004660D069012819D1D1F80C0294
:1011E0001843C1F80C02908880B2168840EA06467F
:1011F00001F51070576940F83760908980B2168900
:1012000040EA064601F51070576900EBC7004660DA
:10121000906928B9D1F804029843C1F8040204E0A7
:10122000D1F804021843C1F80402106928B9D1F8B2
:1012300014029843C1F8140204E0D1F814021843D0
:10124000C1F81402106A012804D1D1F81C02184315
:10125000C1F81C02D1F8000220F00100C1F8000220
:101260000020F0BDFFE7606A40F48020606201204A
:10127000F7E7000000640040704770B5044694F83A
:101280002050012D01D0022D7DD151B92068C068B8
:1012900000F0030080B9606A40F400106062012031
:1012A00070BD2068006900F0030028B9606A40F44E
:1012B000001060620120F3E7206800F5D87000EBB1
:1012C0000110006800F004009060906840B9206848
:1012D00000F5D87000EB01100068400D106007E0C9
:1012E000206800F5D87000EB01100068C00850605D
:1012F000206800F5D87000EB0110006800F00200D3
:10130000D060206800F5D87000EB0110406800F054
:101310000F00082802D30820106108E0206800F5BB
:10132000D87000EB0110406800F00F0010612068D9
:1013300000F5D87000EB0110406800F47F40000A0F
:101340009061206800F5D87000EB01104068000C37
:101350005061206800F5D87000EB011080681870AB
:10136000206800F5D87000EB0110806800F47F4021
:10137000000A5870206800F5D87000EB01108068F2
:1013800000F47F0000E03CE0000C9870206800F55D
:10139000D87000EB01108068000ED870206800F54E
:1013A000D87000EB0110C0681871206800F5D87083
:1013B00000EB0110C06800F47F40000A58712068FB
:1013C00000F5D87000EB0110C06800F47F00000C3D
:1013D0009871206800F5D87000EB0110C068000E0D
:1013E000D87131B92068C06840F020002668F060EC
:1013F00005E02068006940F0200026683061002088
:101400004EE7606A40F480206062012048E72DE9E1
:10141000F05F04460025206846692068D0F80490F3
:10142000206887682068D0F80CA02068D0F810B039
:101430002068D0F8188006F00100002855D007F089
:101440000100C0B101202168886007F0020018B1D6
:10145000204600F002FB0EE007F0040010B145F456
:10146000006508E007F0080010B145F4805502E07F
:10147000204600F0F1FA07F48070C8B14FF4807094
:101480002168886007F4007018B1204600F0E7FA80
:101490000EE007F4806010B145F4005508E007F451
:1014A000006010B145F4804502E0204600F0D6FA15
:1014B00007F48030C8B14FF480302168886007F4A9
:1014C000003018B1204600F0CCFA0EE007F480207E
:1014D00010B145F4004508E007F4002010B145F4D0
:1014E000803502E0204600F0BBFA06F0080038B173
:1014F0000AF0100020B145F4007510202168C86082
:1015000006F0040040B10AF0080028B10820216864
:10151000C860204600F03EFA06F0020038B12068AC
:10152000C06800F0030010B1204600F035FA06F064
:10153000400038B10BF0100020B145F48065102058
:101540002168086106F0200040B10BF0080028B1C6
:10155000082021680861204600F04CFA06F01000CF
:1015600038B12068006900F0030010B1204600F097
:1015700042FA06F4003040B109F0100028B1102002
:1015800021684860204600F037FA06F4803040B108
:1015900009F0080028B1082021684860204600F0C2
:1015A00061FA06F4004088B309F0040078B306F449
:1015B000807020B108F0010008B145F0010506F483
:1015C000007020B108F0020008B145F0020506F4F1
:1015D000806020B108F0040008B145F0040506F46D
:1015E0000060A0B108F0700088B108F070004028D9
:1015F00017D006DC10280BD020280CD0302819D1A9
:101600000CE0502810D0602814D110E01DE019E043
:1016100045F008050FE045F010050CE045F0200509
:1016200009E045F0400506E045F0800503E045F49B
:10163000807500E000BF00BF2068806920F0700066
:10164000216888610420216848602DB1606A2843C0
:1016500060622046FFF710FEBDE8F09F70B50446BB
:101660000CB9012070BD94F8200010B9204600F09C
:10167000AFF82068006840F001002168086000F0C1
:10168000C3FE05460DE000F0BFFE401B0A2808D946
:10169000606A40F400306062052084F82000012078
:1016A000E0E72068406800F001000028EBD02068E7
:1016B000006820F002002168086000F0A5FE0546E1
:1016C0000DE000F0A1FE401B0A2808D9606A40F432
:1016D00000306062052084F820000120C2E7206805
:1016E000406800F002000028EBD1207E012806D1DE
:1016F0002068006840F080002168086005E02068EC
:10170000006820F0800021680860607E012806D112
:101710002068006840F040002168086005E020680B
:10172000006820F0400021680860A07E012806D1F2
:101730002068006840F020002168086005E020680B
:10174000006820F0200021680860E07E012806D1B2
:101750002068006820F010002168086005E020681B
:10176000006840F0100021680860207F012806D141
:101770002068006840F008002168086005E02068E3
:10178000006820F0080021680860607F012806D109
:101790002068006840F004002168086005E02068C7
:1017A000006820F0040021680860D4E902010843C1
:1017B00021690843616908436168491E084321683B
:1017C000C86100206062012084F82000002049E701
:1017D00010B586B00446142101A8FEF79BFD6749A9
:1017E000206888425AD166480068401C64490860F5
:1017F0000846006801280FD100BF00200090614812
:10180000006840F000705F4908600846006800F01A
:101810000070009000BF00BF00BF0020009059483A
:101820001038006840F00100564910390860084639
:10183000006800F00100009000BF00BF4FF4C050EE
:1018400001900220029000200390032004900920C0
:10185000059001A94C4800F0CFFC00220221132082
:1018600000F09AFE132000F083FE002202211420D3
:1018700000F092FE142000F07BFE002202211520D1
:1018800000F08AFE152000F073FE002202211620CF
:1018900000F082FE162000F06BFE6DE03B492068F0
:1018A000884269D100BF002000903648006840F0AF
:1018B0008060344908600846006800F0806000904D
:1018C00000BF00BF2E480068401C2D490860084634
:1018D000006801280FD100BF00200090294800684F
:1018E00040F00070274908600846006800F000706A
:1018F000009000BF00BF00BF0020009021481038BA
:10190000006840F002001F4910390860084600686E
:1019100000F00200009000BF00BF4FF44050019063
:1019200002200290002003900320049009200590DB
:1019300001A9174800F060FC002205213F2000F0BB
:101940002BFE3F2000F014FE00220521402000F075
:1019500023FE402000F00CFE00220521412000F073
:101960001BFE412000F004FE00220521422000F071
:1019700013FE422000F0FCFD06B010BD00640040E4
:101980004C00002040380240000002400068004047
:10199000000402407047000010B588B004461048AB
:1019A00084420DD101200F4908600F4B01AA00218C
:1019B0000B48FFF762FC0C4901A806F0EFFD00BFE1
:1019C0000A48844209D1002006490860084B01AA50
:1019D00000210648FFF751FC00BF08B010BD000011
:1019E000040A002048000020380000202C0A0020B3
:1019F0004000002070477047704770B5044694F867
:101A00002000012822D1022084F8200020680068EC
:101A100020F001002168086000F0F6FC05460DE0AA
:101A200000F0F2FC401B0A2808D9606A40F400303C
:101A30006062052084F82000012070BD20684068A5
:101A400000F001000028EBD16062F6E7606A40F424
:101A5000002060620120F0E77047704770477047D0
:101A600070477047704770B50446A56D00F0CCFC18
:101A7000064694F83500022808D08020606500BF33
:101A8000002084F8340000BF012070BD2068006889
:101A900020F01600216808602068406920F080006E
:101AA00021684861206C08B9A06C28B120680068E2
:101AB00020F00800216808602068006820F001001C
:101AC0002168086010E000F09FFC801B05280BD9FE
:101AD00020206065032084F8350000BF002084F8D2
:101AE000340000BF0320D0E72068006800F0010048
:101AF0000028E8D194F85C103F208840A8600120BD
:101B000084F8350000BF002084F8340000BF00BF17
:101B1000BBE7014691F83500022803D080204865D4
:101B200001207047052081F835000868006820F022
:101B300001000A6810600020F3E70146486D704715
:101B4000F8B50446002000908C4800684FF4165108
:101B5000B0FBF1F7A56D2E6894F85C100820884062
:101B6000304098B12068006800F0040070B120682F
:101B7000006820F004002168086094F85C100820D8
:101B80008840A860606D40F00100606594F85C10CA
:101B900001208840304068B12068406900F0800032
:101BA00040B194F85C1001208840A860606D40F05E
:101BB0000200606594F85C1004208840304068B1F1
:101BC0002068006800F0020040B194F85C10042026
:101BD0008840A860606D40F00400606594F85C1077
:101BE00010208840304078B32068006800F008007A
:101BF00050B394F85C1010208840A86020680068FA
:101C000000F4802080B12068006800F4002028B92A
:101C1000206CC8B12046216C884715E0A06C98B1B3
:101C20002046A16C88470FE02068006800F48070AF
:101C300028B92068006820F0080021680860206C3E
:101C400010B12046216C884794F85C102020884011
:101C50003040002865D02068006800F0100000289F
:101C60005FD094F85C1020208840A86094F835007C
:101C7000052828D12068006820F016002168086037
:101C80002068406920F0800021684861206C08B914
:101C9000A06C28B12068006820F008002168086066
:101CA00094F85C103F208840A860012084F835003B
:101CB00000BF002084F8340000BF206D10B1204622
:101CC000216D8847F8BD2068006800F4802080B14D
:101CD0002068006800F4002028B9606C10B120462C
:101CE000616C88471DE0E06BD8B12046E16B884706
:101CF00017E02068006800F4807068B92068006808
:101D000020F0100021680860012084F8350000BF31
:101D1000002084F8340000BFE06B10B12046E16B76
:101D20008847606D38B3606D00F00100F0B10520A8
:101D300084F835002068006820F001002168086000
:101D400000BF0098401C0090B84200D905E0206810
:101D5000006800F001000028F3D100BF012084F8E2
:101D6000350000BF002084F8340000BFE06C10B1E3
:101D70002046E16C884700BFA4E700005C0000201B
:101D80002DE9F0410446002500F03EFB074614B95A
:101D90000120BDE8F081606A00B100BF022084F834
:101DA000350000BF002084F8340000BF20680068C0
:101DB00020F00100216808600AE000F025FBC01B4C
:101DC000052805D920206065032084F83500E0E768
:101DD0002068006800F001000028EED12068056846
:101DE00021480540D4E901010843E168084321691D
:101DF000084361690843A1690843E1690843216A0E
:101E000008430543606A042803D1D4E90B01084361
:101E10000543206805602068456925F00705606A6C
:101E20000543606A04280DD1A06A0543E06A48B101
:101E30002046FEF78DFF28B140206065012084F820
:101E40003500A6E7206845612046FEF767FF064695
:101E500094F85C103F208840B0600020606501204D
:101E600084F83500002094E73F8010F02DE9F0471A
:101E700004460D4616461F464FF00008D4F8589009
:101E800000BF94F83400012802D10220BDE8F08799
:101E9000012084F8340000BF94F83500012825D1D2
:101EA000022084F83500002060653B463246294612
:101EB0002046FEF7A2FF94F85C103F208840C9F846
:101EC00008002068006840F0160021680860206C57
:101ED00028B12068006840F0080021680860206888
:101EE000006840F001002168086006E000BF0020A3
:101EF00084F8340000BF4FF002084046C6E70000F7
:101F000070B5044600F080FA06462546681C10B1FC
:101F100004480078054400BF00F076FA801BA84210
:101F2000FAD370BD5800002010B50446402C7CD177
:101F3000A0480068A04908602006406A9F490968D7
:101F400042F2107202FB01009A4908609C49086045
:101F50009848008898490988401A9A4908809A4800
:101F6000007801283AD10846008840F634018842BA
:101F700009DB012094490870002094490870012071
:101F80009349087038E08F480088092822DB8D4883
:101F9000008840F6020188421CDC8A4800888D498E
:101FA0008A4A127821F8120088480078401C874934
:101FB00008700846007809281EDB084600784200B1
:101FC00084498548FEF78DF900207F4908707F49D4
:101FD000087011E000207C4908700DE07948008805
:101FE00040F63401884207DB012077490870002061
:101FF00076490870764908707648C08840F2AA5140
:10200000884209DD7348C08840F20E61884203DAD5
:1020100040F2DC506F49C8806E48808840F2AA5177
:1020200088420BDD6B48808800E0C1E040F20E6121
:10203000884203DA40F2DC506649888065480088AF
:10204000B0F5AF6F08DD63480088B0F5C86F03DAFC
:1020500040F2DC505F4908805E48408840F2AA5157
:10206000884209DD5B48008840F20E61884203DA4D
:1020700040F2DC505749488056480089B0F5617FEE
:1020800009DD5448008940F24C41884203DA4FF49C
:102090007A70504908814F48008940F26C7188423B
:1020A00009DD4C48008940F63401884203DA4FF4D8
:1020B000FA60484908814748C089B0F5617F09DD69
:1020C0004448C08940F24C41884203DA4FF47A70A8
:1020D0004049C8813F48C08940F26C71884209DD9F
:1020E0003C48C08940F63401884203DA4FF4FA6074
:1020F0003849C88137484089B0F5617F09DD3548E6
:10210000408940F24C41884203DA4FF47A703149F9
:1021100048813048408940F2AA51884209DD2D4863
:10212000408940F20E61884203DA40F2DC502949CE
:1021300048812848408940F26C71884209DD254871
:10214000408940F63401884203DA4FF4FA602149AD
:10215000488120488089B0F5617F09DD1D4880896C
:1021600040F24C41884203DA4FF47A701949888171
:102170001848808940F2AA51884209DD15488089B3
:1021800040F20E61884203DA40F2DC501149888146
:102190001048808940F26C71884209DD0D488089C1
:1021A00040F63401884203DA4FF4FA600949888125
:1021B00010BD0000D8000020D4000020B000002096
:1021C000AC000020DE000020DC000020DD0000204C
:1021D000AA000020081600206C15002010B5044647
:1021E00004480068204020B1024804602046FFF700
:1021F0009BFE10BD143C0140F8B502460B4600257D
:10220000002400200021D6E0012606FA01F51E6810
:1022100006EA0504AC4274D11E7906F00306012ECD
:1022200004D01E7906F00306022E13D190684F00E9
:102230000326BE40B0434F00DE68BE40304390608E
:10224000506801268E40B0431E79C6F300168E40BA
:10225000304350601E7906F00306032E09D0D06883
:102260004F000326BE40B0434F009E68BE4030433F
:10227000D0601E7906F00306022E13D1CF0802F1BA
:10228000200656F827004E07F70E0F26BE40B04333
:102290004F07FF0E1E69BE403043CF0802F12006F3
:1022A00046F8270010684F000326BE40B0431E7951
:1022B00006F003064F00BE40304310605E6806F42F
:1022C0004036002E76D000BF002600963C4E366881
:1022D00046F480463A4F3E603E46366806F48046F5
:1022E000009600BF00BF374E8F0856F827008E07B4
:1022F000370F0F26BE40B043334EB24202D1002604
:1023000024E057E0314EB24201D101261EE0304EAA
:10231000B24201D1022619E02E4EB24201D103266B
:1023200014E02D4EB24201D104260FE02B4EB242F2
:1023300001D105260AE02A4EB24201D1062605E067
:10234000284EB24201D1072600E008268F073F0F32
:10235000BE4030431B4E8F0846F82700224E30689F
:10236000A0435E6806F4801606B120431E4E30601E
:10237000361D3068A0435E6806F4001606B120439F
:10238000194E361D3060184E361F3068A0435E6807
:1023900006F4003606B12043134E361F3060361F58
:1023A0003068A0435E6806F4803606B120430E4EC6
:1023B000083E3060491C1029FFF426AFF8BD00002C
:1023C0004438024008380140000002400004024046
:1023D00000080240000C02400010024000140240BD
:1023E00000180240001C0240083C014002461369EC
:1023F0000B400BB1012000E0002070470AB1816161
:1024000001E00B04836170470148006870470000D9
:102410005000002003480068034909780844014936
:1024200008607047500000205800002010B50D488B
:10243000006840F400700B4908600846006840F4EA
:10244000806008600846006840F4807008600320DF
:1024500000F0E0F80F2000F007F800F05FF800202F
:1024600010BD0000003C02402DE9F04188B0044658
:102470000027B84600BF002001902348006840F0C4
:102480000200214908600846006800F0020001903F
:1024900000BF00BF02A903A800F092F9069F1FB970
:1024A00000F0B6F9054602E000F0B2F94500174821
:1024B000B5FBF0F0A0F1010815481649086040F29C
:1024C000E7311448C160C0F80480002101618160D7
:1024D000816100F0BFFC064696B90E4800F010FD81
:1024E00006466EB91D2000F043F8102C07D20022DA
:1024F00021461D2000F050F80748046000E0012646
:10250000304608B0BDE8F0814038024040420F003C
:1025100000040040C40C00205400002008B500BF97
:10252000002000901148006840F480400F49086086
:102530000846006800F48040009000BF00BF00BF64
:1025400000200090081F006840F08050091F0860BC
:102550000846006800F08050009000BF00BF0022D5
:102560000F21901E00F018F808BD0000443802400A
:102570000146084600280DDB00BF00BF00F01F0326
:1025800001229A4043099B0003F1E023C3F8002194
:1025900000BF00BF00BF70472DE9F05F80460D46C9
:1025A0001646002704F028FB074639462A463346DC
:1025B00001F00700C0F1070ABAF1040F02D94FF089
:1025C000040A01E0C0F1070AD14600F1040ABAF199
:1025D000070F02D24FF0000A01E0A0F1030AD4462F
:1025E0004FF0010A0AFA09FAAAF1010A0AEA020AF4
:1025F0000AFA0CFA4FF0010B0BFA0CFBABF1010BD2
:102600000BEA030B4AEA0B042146404604F0FCFAAD
:10261000BDE8F09F00BF00F00702064B19684FF6B7
:10262000FF031940044B0B4343EA0221014B19609D
:1026300000BF70470CED00E00000FA0570B50446DD
:102640000D460CB9012070BD5848006800F0070025
:10265000A84209D255490D700846006800F00700ED
:10266000A84201D00120EEE7207800F00200022805
:102670001DD1207800F00400042805D14C480068E2
:1026800040F4E0504A490860207800F0080008282B
:1026900005D14748006840F4604045490860444817
:1026A000006820F0F000A1680843414908602078E4
:1026B00000F00100A8B36068012807D13C48083841
:1026C0000068C0F34040B8B90120BCE76068022848
:1026D00002D06068032807D1354808380068C0F385
:1026E000406048B90120AEE7314808380068C0F3BF
:1026F000400008B90120A6E72D48006820F003003B
:10270000616808432A490860FFF77EFE064609E033
:10271000FFF77AFE801B41F28831884202D90320FC
:1027200091E707E02248006800F00C006168B0EB18
:10273000810FEDD11D48006800F00700A84209D9BB
:102740001A490D700846006800F00700A84201D041
:10275000012078E7207800F00400042807D114480D
:10276000006820F4E050E1680843114908602078CF
:1027700000F00800082808D10D48006820F46040E7
:10278000216940EAC1000A49086000F061F808497F
:102790000968C1F30311074A515CC8400649086043
:1027A00006480068FFF760FE00204CE7003C02404E
:1027B000083802400CC700085C00002054000020CC
:1027C0000F2202600D4A126802F0030242600B4AB7
:1027D000126802F0F0028260084A126802F4E052C5
:1027E000C260064A126802F46042D2080261044ADA
:1027F000126802F007020A607047000008380240C1
:10280000003C024001480068704700005C00002066
:1028100000B5FFF7F7FF04490968C1F38221034AB5
:10282000515CC84000BD0000083802401CC70008C9
:1028300000B5FFF7E7FF04490968C1F34231034AD5
:10284000515CC84000BD0000083802401CC70008A9
:102850002DE9F047002400250026A1462548006800
:1028600000F00C0020B1042805D008283AD105E07A
:10287000DFF8849039E0DFF8849036E01D48001FCF
:10288000006800F03F041B48001F006800F480004F
:1028900078B11A481749091F0968C1F38811A0FBCC
:1028A00001700146224600233846FDF7E9FC054643
:1028B0000EE011480F49091F0968C1F38811A0FBF8
:1028C00001700146224600233846FDF7D9FC054633
:1028D0000848001F0068C0F30140401C4600B5FBDB
:1028E000F6F902E0DFF8109000BF00BF4846BDE8EF
:1028F000F0870000083802400024F40000127A003B
:10290000F8B504460CB90120F8BD207800F00100AC
:10291000002874D0F948006800F00C0004280DD09D
:10292000F648006800F00C00082813D1F348001F97
:10293000006800F48000B0F5800F0BD1EF48083834
:102940000068C0F34040002859D06068002856D184
:102950000120D9E700BF6068B0F5803F08D1E748A3
:102960000838006840F48030E449083908601EE007
:102970006068B0F5A02F0DD1E0480838006840F439
:102980008020DE49083908600846006840F480303D
:1029900008600CE0D9480838006820F48030D74936
:1029A000083908600846006820F48020086000BFED
:1029B000606890B1FFF728FD054606E0FFF724FDAB
:1029C000401B642801D903209EE7CC4808380068E2
:1029D000C0F340400028F1D011E0FFF715FD054697
:1029E00006E0FFF711FD401B642801D903208BE7A7
:1029F000C24808380068C0F340400028F1D1207870
:102A000000F0020002285FD1BC48006800F00C0012
:102A100058B1BA48006800F00C0008281CD1B7482B
:102A2000001F006800F48000B0B9B448083800689E
:102A3000C0F3400020B1E068012801D0012063E725
:102A4000AE480838006820F0F800216940EAC1006B
:102A5000AA490839086037E0E06800B30120A849B6
:102A60000860FFF7D1FC054606E0FFF7CDFC401BF0
:102A7000022801D9032047E7A04808380068C0F3BE
:102A800040000028F1D09D480838006820F0F80088
:102A9000216940EAC10099490839086014E0002022
:102AA00097490860FFF7B0FC054606E0FFF7ACFC6D
:102AB000401B022801D9032026E790480838006807
:102AC000C0F340000028F1D1207800F00800082869
:102AD0002CD16069A8B101208A490860FFF794FCF5
:102AE000054606E0FFF790FC401B022801D90320B1
:102AF0000AE782486C300068C0F340000028F1D03B
:102B000014E000207F490860FFF77EFC054606E0E0
:102B1000FFF77AFC401B022801D90320F4E677482E
:102B20006C300068C0F340000028F1D1207800F03C
:102B30000400042870D1002770483830006800F085
:102B4000805090B900BF002000906C483830006879
:102B500040F080506949383108600846006800F04C
:102B60008050009000BF00BF01276748006800F454
:102B70008070B0B96448006840F4807062490860B1
:102B8000FFF742FC054606E0FFF73EFC401B02282B
:102B900001D90320B8E65C48006800F48070002882
:102BA000F2D000BFA068012808D1544868300068FE
:102BB00040F001005149683108601DE0A068052817
:102BC0000DD14E486830006840F004004B49683130
:102BD00008600846006840F0010008600CE04748C3
:102BE0006830006820F001004449683108600846F8
:102BF000006820F00400086000BFA068A8B1FFF7DB
:102C000003FC054609E0FFF7FFFB401B41F288315A
:102C1000884202D9032077E626E038486830006809
:102C2000C0F340000028EED013E0FFF7EDFB0546AF
:102C300008E0FFF7E9FB401B41F28831884201D9E7
:102C4000032061E62D4868300068C0F3400000288A
:102C5000EFD1012F07D129483830006820F080508B
:102C600026493831086000BFA069002845D02348B4
:102C7000006800F00C0008285DD0A069022845D14A
:102C800000201F490866FFF7BFFB054606E0FFF777
:102C9000BBFB401B022801D9032035E61748083842
:102CA0000068C0F340600028F1D1D4E9070108436F
:102CB000616A40EA81110122A06AC2EB500041EA38
:102CC00000412C20005D41EA00600C49091F0860AA
:102CD00001200B490866FFF797FB054606E0FFF762
:102CE00093FB401B022801D903200DE60348083856
:102CF0000068C0F340600028F1D049E00838024085
:102D000000004742800E47420070004000202149E9
:102D10000866FFF779FB054606E0FFF775FB401BE9
:102D2000022801D90320EFE51B480068C0F340608A
:102D30000028F2D12CE0A069012800D1E4E5164872
:102D4000001D0668A069012820D006F48001E06912
:102D500081421BD106F03F01206A814216D147F61D
:102D6000C0703040616AB0EB811F0FD106F4403172
:102D70000122A06AC2EB5000B1EB004F06D106F071
:102D800070612C20005DB1EB006F01D00120BBE52C
:102D90000020B9E500004742003802407047704704
:102DA00030B502460B4600BF92F83C00012801D125
:102DB000022030BD012082F83C0000BF022082F8D2
:102DC0003D00106844681068816824F07004186839
:102DD000044310684460184D1068A8421BD0106866
:102DE000B0F1804F17D0154D1068A84213D0144D84
:102DF0001068A8420FD0134D1068A8420BD0124D96
:102E00001068A84207D0114D1068A84203D0104D99
:102E10001068A84205D121F080015868014310686C
:102E20008160012082F83D0000BF002082F83C0054
:102E300000BF00BFBDE700000000014000040040EB
:102E400000080040000C0040000401400040014028
:102E50000018004010B504460CB9012010BD94F8CC
:102E60003D0028B9002084F83C00204600F026F8F8
:102E7000022084F83D00211D206802F0E5FE0120BB
:102E800084F8460000BF84F83E0001213F20015530
:102E9000402001554120015500BF00BF012084F8AA
:102EA000420043200155442001554520015500BFF3
:102EB000012084F83D000020D0E7000038B504462A
:102EC0002068B0F1804F17D100BF002000900B4860
:102ED000006840F00100094908600846006800F0F9
:102EE0000100009000BF00BF002205211C20FFF759
:102EF00053FB1C20FFF73CFB38BD0000403802406C
:102F0000014691F83D00012801D0012070470220C0
:102F100081F83D000868C06840F001000B68D86087
:102F20001A4B086898421BD00868B0F1804F17D040
:102F3000174B0868984213D0164B086898420FD078
:102F4000154B086898420BD0144B0868984207D07C
:102F5000134B0868984203D0124B086898420CD172
:102F60000868806800F00702062A0CD0086800682C
:102F700040F001000B68186005E00868006840F048
:102F800001000B6818600020C0E70000000001404D
:102F90000004004000080040000C00400004014014
:102FA00000400140001800402DE9F04104460D4664
:102FB000002700BF94F83C00012802D10220BDE8A0
:102FC000F081012084F83C0000BF022084F83D001D
:102FD0002068866826F0770626F47F46206886609B
:102FE0002868502833D00CDC202850D004DC00287E
:102FF0004BD0102851D149E0302849D040284CD13D
:1030000039E060282DD0702807D0B0F5805F03D05C
:10301000B0F5005F41D10DE041E0D5E902136A68E7
:10302000206802F085FE2068866846F077062068F2
:10303000866034E0D5E902136A68206802F078FE01
:103040002068806840F480402168886027E0EA6852
:103050006968206802F080FE5021206802F073FE4B
:103060001DE0EA686968206802F089FE6021206836
:1030700002F069FE13E0EA686968206802F06CFEFD
:103080004021206802F05FFE09E000BF00BF00BFE2
:103090002968206802F057FE01E0012700BF00BF49
:1030A000012084F83D0000BF002084F83C0000BFF0
:1030B000384684E7704770B504462068C5682068C4
:1030C000066906F00200022819D105F00200022864
:1030D00015D1401F21680861012020772068806990
:1030E00000F0030018B12046FFF7E4FF05E020469A
:1030F00000F097F8204600F095F80020207706F0C1
:103100000400042819D105F00400042815D1C04397
:1031100021680861022020772068806900F44070EF
:1031200018B12046FFF7C6FF05E0204600F079F809
:10313000204600F077F80020207706F008000828E5
:1031400019D105F00800082815D1C043216808618D
:10315000042020772068C06900F0030018B12046E1
:10316000FFF7A8FF05E0204600F05BF8204600F0DE
:1031700059F80020207706F01000102819D105F02A
:103180001000102815D1C04321680861082020775D
:103190002068C06900F4407018B12046FFF78AFF2C
:1031A00005E0204600F03DF8204600F03BF8002006
:1031B000207706F0010048B105F0010030B16FF052
:1031C000010021680861204600F02EF806F080001A
:1031D000802809D105F08000802805D1C0432168EE
:1031E00008612046FFF7DAFD06F04000402809D1CB
:1031F00005F04000402805D1C04321680861204601
:1032000000F05CF806F02000202809D105F020002D
:10321000202805D1C043216808612046FFF7BFFD83
:1032200070BD70477047000010B504461E49206805
:10323000884202D1FFF7EEF834E02068B0F1804F09
:1032400030D11A4800681A49086018480068401CC4
:103250001649086017480088401C1649088008462F
:10326000008864281ADB0020088013484088401C2E
:1032700011494880084640883C280FDB00204880E0
:1032800008468088401C8880084680883C2805DBEA
:10329000002088800846C088401CC88005480088F7
:1032A0000549088010BD000000040040B000002067
:1032B000B4000020A8000020A00000207047F8B54E
:1032C00004460E46174694F8420020282ED106B137
:1032D0000FB90120F8BD01202063002060633A4649
:1032E0003146204603F018F80546EDB9206B012859
:1032F00019D100BF0020009020680068009020686D
:103300004068009000BF00BF00BF00BF21680C31C3
:1033100051E8001F41F0100021680C3141E8000223
:10332000002AF3D100E001252846D3E70220D1E7A7
:1033300070B504460D461648844212D1062215493E
:10334000154806F07BFC642213491148FFF7B7FFCC
:1033500012480068006820F00800104909680860F9
:1033600014E00F48844211D102220A490D4806F0A8
:1033700065FC64220B490A48FFF7A1FF0A48006870
:10338000006820F0080008490968086070BD000066
:10339000BC0B00201C160020E40E0020640C002052
:1033A0002C0B0020D80E0020040C002010B5044681
:1033B00000BF00BF21680C3151E8001F21F490705C
:1033C00021680C3141E80002002AF3D100BF00BFA0
:1033D00000BF2168143151E8001F21F0010021686D
:1033E000143141E80002002AF3D100BF206B01280C
:1033F0000ED100BF00BF21680C3151E8001F21F041
:10340000100021680C3141E80002002AF3D100BF0E
:103410002068406900F04000402820D100BF00BF74
:103420002168143151E8001F21F040002168143157
:1034300041E80002002AF3D100BFE06B78B1002020
:10344000E16B0865E06BFEF70EFB40B1E06BFEF749
:1034500074FB202803D110206064032010BD0020DD
:10346000E085202084F842000020206300BFF5E7BB
:1034700010B50446124884420FD1FFF797FF64222B
:1034800010490F48FFF71BFF0F480068006820F045
:1034900008000D490968086011E00C4884420ED10B
:1034A000FFF784FF64220A490848FFF708FF09482C
:1034B0000068006820F0080006490968086010BD2F
:1034C000BC0B0020620E0020640C00202C0B00209E
:1034D000860D0020040C00202DE9F84F04462068DA
:1034E00005682068C668206847694FF00009CA4629
:1034F00005F00F09B9F1000F0AD105F0200038B12D
:1035000006F0200020B1204602F071FDBDE8F88FE2
:10351000B9F1000F7CD007F0010018B906F49070E3
:10352000002875D005F0010030B106F4807018B1A4
:10353000606C40F00100606405F0040030B107F0F9
:10354000010018B1606C40F00200606405F00200F8
:1035500030B107F0010018B1606C40F00400606405
:1035600005F0080048B106F0200010B907F001008E
:1035700018B1606C40F008006064606C002846D0B0
:1035800005F0200028B106F0200010B1204602F01E
:103590002EFD20684069C0F3801A606C00F00800BE
:1035A00010B9BAF1000F2DD0204602F0C7FC2068F8
:1035B000406900F04000402820D100BF00BF2168D2
:1035C000143151E8001F21F040002168143141E816
:1035D0000002002AF3D100BFE06B50B17748E16BE5
:1035E0000865E06BFEF795FA88B1E06B016D8847DE
:1035F0000DE02046FFF73CFF09E009E02046FFF719
:1036000037FF04E02046FFF733FF002060647DE7CA
:10361000206B012878D105F01000002874D006F046
:1036200010000028FAD000BF002000902068006839
:10363000009020684068009000BF00BF206840698B
:1036400000F04000402860D1E06B006840681FFA3D
:1036500080F8B8F1000F56D0A08D404553DDA4F896
:103660002E80E06BC069B0F5807F43D000BF00BF03
:1036700021680C3151E8001F21F4807021680C3161
:1036800041E80002002AF3D100BF00BF00BF21685B
:10369000143151E8001F21F001002168143141E884
:1036A0000002002AF3D100BF00BF00BF216814311F
:1036B00051E8001F21F040002168143141E8000268
:1036C000002AF3D100BF202084F8420000202063AC
:1036D00000BF00BF21680C3151E8001F21F010002D
:1036E00021680C3141E80002002AF3D100BFE06BF1
:1036F000FEF7B9F902206063A08DE28D801A81B2D5
:103700002046FFF715FE01E742E0A08DE18D401A4B
:103710001FFA80F8E08DD0B3B8F1000F37D000BFAA
:1037200000BF21680C3151E8001F21F4907021681E
:103730000C3141E80002002AF3D100BF00BF00BFF6
:103740002168143151E8001F21F001002168143173
:1037500041E80002002AF3D100BF202084F8420093
:103760000020206300BF00BF21680C3151E8001F1A
:1037700021F0100021680C3141E80002002AF3D149
:1037800000BF0220606341462046FFF7D1FDBDE641
:1037900005F0800030B106F0800018B1204602F03C
:1037A0003FFEB3E605F0400030B106F0400018B12E
:1037B000204602F0F9FBA9E600BFA7E6015E00087B
:1037C00010B504460CB9012010BDA06900B100E09D
:1037D00000BF94F8410028B9002084F8400020463A
:1037E00000F02AF8242084F841002068C06820F402
:1037F00000502168C860204602F078FC206800690B
:1038000020F49040216808612068406920F02A0077
:10381000216848612068C06840F400502168C86091
:1038200000206064202084F8410084F842000020D9
:10383000606300BFC8E7000010B586B004461421DD
:1038400001A8FCF767FDC8492068884239D100BF4C
:1038500000200090C548006840F40020C34908607B
:103860000846006800F40020009000BF00BF00BFC1
:1038700000200090BD481038006840F00400BB49AB
:10388000103908600846006800F00400009000BF8E
:1038900000BF4FF44060019002200290002003908E
:1038A000032004900820059001A9B148FEF7A4FC6C
:1038B000002205213420FEF76FFE3420FEF758FE6B
:1038C00050E1AC49206888423BD100BF0020009005
:1038D000A648001D006840F01000A449091D0860BA
:1038E0000846006800F01000009000BF00BF00BF55
:1038F000002000909D481038006840F001009B496E
:10390000103908600846006800F00100009000BF10
:1039100000BF4FF4C060019002200290002003908D
:10392000032004900720059001A99348FEF764FC4A
:10393000002205212520FEF72FFE2520FEF718FE88
:1039400010E18E492068884255D100BF00200090C8
:103950008648006840F400308449086008460068E2
:1039600000F40030009000BF00BF00BF00200090B6
:103970007E481038006840F008007C491039086023
:103980000846006800F00800009000BF00BF6020FB
:103990000190022002900020039003200490072051
:1039A000059001A97648FEF727FC7648764908601D
:1039B0004FF000604860002173488160C1604FF49F
:1039C00080610161002141618161C16101624162E7
:1039D000FEF7D6F908B1FDF78FFA00BF6A48E06339
:1039E000846300BF002205212620FEF7D5FD262096
:1039F000FEF7BEFDB6E065492068884257D100BF9A
:103A0000002000905948006840F480205749086021
:103A10000846006800F48020009000BF00BF00BF8F
:103A20000020009051481038006840F002004F49D3
:103A3000103908600846006800F00200009000BFDE
:103A400000BF00BF002000900846006840F008005A
:103A500008600846006800F00800009000BF00BF42
:103A60004FF4984001900220029000200390032020
:103A700004900720059001A94548FEF7BDFB4FF4CF
:103A80000060019002200290002003900320049027
:103A90000720059001A93A48FEF7AEFB0022052158
:103AA0002720FEF779FD2720FEF762FD5AE039490D
:103AB0002068884256D100BF002000902B48001D8E
:103AC000006840F020002949091D08600846006888
:103AD00000F02000009000BF00BF00BF0020009059
:103AE00022481038006840F0400020491039086032
:103AF0000846006800F04000009000BF00BF4FF48F
:103B00008440019002200290002003900320049042
:103B10000820059001A92048FEF76EFB1F482049A8
:103B200008608005486000211D488160C1604FF435
:103B300080610161002141618161C1610162416275
:103B4000FEF71EF908B1FDF7D7F900BF1448E0638E
:103B5000846300BF002205214720FEF71DFD47209A
:103B6000FEF706FD06B010BD004C00404038024094
:103B700000080240001001400000024000440040E4
:103B8000000C024088600240040C00200048004005
:103B90000004024000140140001802402864024062
:103BA000640C002070B504460D46164694F8420099
:103BB00020280BD105B10EB9012070BD0020206373
:103BC00032462946204602F00BFCF6E70220F4E7D5
:103BD00070B504466D48844232D16D480088401C5F
:103BE0006B4908806B48017869480088401E6A4A22
:103BF00011546848007821281BD16548018867A0C6
:103C000002F0D2FF002506E06348425D294666A027
:103C100002F0CAFF6D1C5E4800888542F4DB01207B
:103C200002F0A0FCC8215C48FCF774FB0020584956
:103C3000088000205749087001225448FFF7B2FF5E
:103C40006048844270D160480068401C5E4908604A
:103C50005E4800785E4908705E480078052857D2B3
:103C6000DFE800F00311263D4B00594800780D288D
:103C700005D158480078401C5649087002E00020E1
:103C80005449087048E0524800780A2808D10020BA
:103C9000514908704F480078401C4E49087006E0B2
:103CA0004B4800780D2802D000204A49087033E0C4
:103CB000474800784949484A12788854464800786D
:103CC000401C4549087008460078182806DB00208B
:103CD000087040480078401C3E4908701CE03C4891
:103CE00000780A2805D13B480078401C3949087003
:103CF00002E00020374908700EE0354800780D28B2
:103D000002D1364802F0E2FC00203249087003E09C
:103D100000203049087000BF00BF00202B49087008
:103D200001222848FFF73EFF2D4884422CD12D4B1D
:103D30001A1F111F081F07F0CBF901222A49284832
:103D4000FFF730FF01F092FE25480068406940F01F
:103D5000010023490968486100BF0020204981F81B
:103D6000400000BF801E096808606FF002001C4917
:103D7000096808606FF004001949096808606FF06D
:103D8000080017490968086070BD0000E40A0020B7
:103D900092000020900000206014002052584C65D2
:103DA0006E3D25640D0A0000554152542044617453
:103DB00061427566665B25645D203D2025630D0AC2
:103DC00000000000740B0020840000201000002080
:103DD00088000020890000208A000020F00E0020CA
:103DE0009C0A0020441800202C04002070472DE974
:103DF000F84F04460E46174699464FF0000A94F8CD
:103E00004100202850D106B117B90120BDE8F88F34
:103E100000206064212084F84100FEF7F5FA824614
:103E2000A784E784A068B0F5805F04D1206910B949
:103E30000025B04602E035464FF000081EE053462C
:103E4000002280212046CDF8009002F019FB20B11D
:103E5000202084F841000320D8E745B9B8F80000D5
:103E6000C0F308002168486008F1020803E02878E0
:103E7000216848606D1CE08C401EE084E08C0028C6
:103E8000DDD15346002240212046CDF8009002F0BB
:103E9000F7FA20B1202084F841000320B6E7202063
:103EA00084F841000020B1E70220AFE7704700BF6F
:103EB000FEE700009FED0C0A80ED000A9FED0B0A63
:103EC00080ED010A9FED090A80ED020AB7EE000AB3
:103ED00080ED030A9FED060A80ED040AB1EE040AA4
:103EE00080ED050A704700000AD7A33C00000000DF
:103EF0000AD7233C0FB410B52DED108B82B09FED87
:103F0000C90AB0EE408AC8480078F8B9C74890EDB1
:103F1000020AB1EE400A10EE101A0846FCF78DFBBB
:103F200041EC1C0B9FEDC20B53EC102BFCF7A4FAD9
:103F300041EC1B0B9FEDC00B53EC102BFCF70EFB61
:103F400041EC1A0BFCF7BCFB08EE100A9DED140ABD
:103F500010EE101A0846FCF770FB41EC1C0BB84839
:103F600090ED000A30EE080A10EE101A0846FCF731
:103F700064FB41EC1E0BB0EE4E0AF0EE6E0A02F04E
:103F8000BFFEB0EE40DAF0EE60DA53EC1C2B51ECE1
:103F90001D0BFCF771FA41EC1F0B9DED150A10EE9D
:103FA000101A0846FCF749FB41EC1C0BA44890EDA5
:103FB000000A30EE080A10EE101A0846FCF73DFB26
:103FC00041EC1E0BB0EE4E0AF0EE6E0A02F034FE2B
:103FD000B0EE40DAF0EE60DA53EC1C2B51EC1D0B26
:103FE000FCF74AFA41EC1B0B53EC1F2BFCF79DF935
:103FF00041EC1A0BFCF764FB08EE900A9DED140AE5
:1040000010EE101A0846FCF718FB41EC1C0B8C480C
:1040100090ED000A30EE080A10EE101A0846FCF780
:104020000CFB41EC1E0BB0EE4E0AF0EE6E0A02F0F5
:1040300003FEB0EE40DAF0EE60DA53EC1C2B51ECEC
:104040001D0BFCF719FA41EC1B0B9DED150A10EE48
:10405000101A0846FCF7F1FA41EC1C0B784890ED79
:10406000000A30EE080A10EE101A0846FCF7E5FACE
:1040700041EC1F0BB0EE4F0AF0EE6F0A02F040FE6B
:10408000B0EE40EAF0EE60EA51EC1E0B81F0004128
:1040900041EC1D0B53EC1C2BFCF7EEF953EC1B2BE6
:1040A000CDE900019DED000B51EC100BFCF73DF943
:1040B00041EC1A0BFCF704FB04469DED160AB1EE29
:1040C000409A2046FCF7B9FA41EC1D0B9FED5D0BC1
:1040D00053EC102BFCF7D0F941EC1B0B18EE900AB7
:1040E000FCF7ABFA41EC1E0B9FED580B53EC102B79
:1040F000FCF7C2F941EC1F0B19EE100AFCF79DFA10
:1041000041EC1E0B9FED530B53EC102BFCF7B4F955
:1041100041EC1D0B53EC1F2BFCF707F941EC1C0B7A
:1041200053EC1B2BFCF7A2F941EC1A0BFCF7C8FA75
:1041300009EE900AB0EE690A07F09CFBB1EE400A66
:10414000464880ED120A2046FCF777FA41EC1D0B39
:104150009FED3C0B53EC102BFCF78EF941EC1B0B45
:1041600018EE900AFCF769FA41EC1E0B9FED370B35
:1041700053EC102BFCF780F941EC1D0B19EE100AE3
:10418000FCF75BFA41EC1E0B9FED320B53EC102B4E
:10419000FCF772F941EC1F0B53EC1D2BFCF7C5F833
:1041A00041EC1C0B53EC1B2BFCF7BFF841EC1A0B3A
:1041B000FCF786FA09EE900AB0EE690A07F05AFB9E
:1041C000B1EE400A254880ED200A19EE100AFCF7EE
:1041D00034FA41EC1D0B9FED1F0B53EC102BFCF739
:1041E0004BF941EC1B0BB1EE680A10EE100AFCF71C
:1041F00024FA41EC1C0B53EC1B2BFCF796F841EC1A
:104200001A0BFCF75DFA09EE900AB0EE690A07F0A6
:1042100031FB124880ED040A02B0BDEC108B10BCDB
:104220005DF814FB00000000B1010020F81500202B
:104230004AD8124DFB210940000000000080664072
:10424000980000204772F90FE9B7E73F0A68226C2F
:10425000787AE53FC381902C6002D13F080F00209F
:1042600001B586B0FE48007801287CD10698132855
:104270007AD008DC07280FD00A2854D00D2874D033
:1042800010284FD1E4E0162870D019286FD01C28D0
:104290006ED01F28F5D14BE2F24890ED020AF248A9
:1042A000D0ED020A30EE200A8DED010A0198FCF7EC
:1042B000C4F99FEDEE0B53EC102BCDE902019DEDFF
:1042C000020B51EC100BFCF7D7F8CDE904019DED82
:1042D000040B51EC100BFCF7F3F9E6498862E24855
:1042E00090ED020ADF48D0ED020A30EE600A8DED53
:1042F000010A0198FCF7A1F99FEDDC0B53EC102BA0
:10430000CDE902019DED020B51EC100BFCF7B4F866
:10431000CDE904019DED040B51EC100BFCF7D0F935
:10432000D449C8624BE2CF4890ED030ACE48D0EDA5
:10433000030A30EE200A8DED010A0198FCF77DF9A1
:104340009FEDCA0B53EC102BCDE902019DED020B42
:1043500051EC100BFCF790F8CDE904019DED040B36
:1043600051EC100B05E02BE2B9E02AE0FEE044E15D
:1043700097E1FCF7A5F9BF498862BB4890ED030AB5
:10438000B848D0ED030A30EE600A8DED010A0198BD
:10439000FCF753F99FEDB50B53EC102BCDE902015F
:1043A0009DED020B51EC100BFCF766F8CDE9040112
:1043B0009DED040B51EC100BFCF782F9AD49C8627E
:1043C000FDE1A84890ED040AA748D0ED040A30EEBC
:1043D000200A8DED010A0198FCF72FF99FEDA30B40
:1043E00053EC102BCDE902019DED020B51EC100BAB
:1043F000FCF742F8CDE904019DED040B51EC100BE4
:10440000FCF75EF99B498862974890ED040A95484D
:10441000D0ED040A30EE600A8DED010A0198FCF738
:104420000CF99FED920B53EC102BCDE902019DEDA1
:10443000020B51EC100BFCF71FF8CDE904019DEDC8
:10444000040B51EC100BFCF73BF98A49C862B6E14A
:10445000844890ED050A8448D0ED050A30EE200A24
:104460008DED010A0198FCF7E8F89FED800B53EC05
:10447000102BCDE902019DED020B51EC100BFBF767
:10448000FBFFCDE904019DED040B51EC100BFCF793
:1044900017F978498862744890ED050A7148D0EDA3
:1044A000050A30EE600A8DED010A0198FCF7C5F8A7
:1044B0009FED6E0B53EC102BCDE902019DED020B2D
:1044C00051EC100BFBF7D8FFCDE904019DED040B77
:1044D00051EC100BFCF7F4F86649C8626FE16148D3
:1044E00090ED060A6048D0ED060A30EE200A8DED08
:1044F000010A0198FCF7A1F89FED5C0B53EC102B1F
:10450000CDE902019DED020B51EC100BFBF7B4FF5E
:10451000CDE904019DED040B51EC100BFCF7D0F834
:1045200054498862504890ED060A4E48D0ED060A7C
:1045300030EE600A8DED010A0198FCF77EF89FEDE0
:104540004B0B53EC102BCDE902019DED020B51EC0E
:10455000100BFBF791FFCDE904019DED040B51EC2D
:10456000100BFCF7ADF84349C86228E13D4890EDD7
:10457000070A3D48D0ED070A30EE200A8DED010A0A
:104580000198FCF75AF89FED390B53EC102BCDE94D
:1045900002019DED020B51EC100BFBF76DFFCDE915
:1045A00004019DED040B51EC100BFCF789F8314927
:1045B00088622D4890ED070A2A48D0ED070A30EEB0
:1045C000600A8DED010A0198FCF737F89FED270B83
:1045D00053EC102BCDE902019DED020B51EC100BB9
:1045E000FBF74AFFCDE904019DED040B51EC100BE4
:1045F000FCF766F81F49C862E1E01A4890ED080A26
:104600001948D0ED080A30EE200A8DED010A019814
:10461000FCF713F89FED150B53EC102BCDE90201BD
:104620009DED020B51EC100BFBF726FFCDE90401C9
:104630009DED040B51EC100BFCF742F80D4988621C
:10464000094890ED080A0748D0ED080A30EE600AE4
:104650008DED010A0198FBF7F0FF9FED040B0BE0D5
:10466000AD0100201802002048020020654018B06B
:10467000DA1886409415002053EC102BCDE9020186
:104680009DED020B51EC100BFBF7F6FECDE904019A
:104690009DED040B51EC100BFCF712F8FE49C862BB
:1046A0008DE0FE4890ED090AFD48D0ED090A30EE94
:1046B000200A8DED010A0198FBF7BFFF1FED150BD6
:1046C00053EC102BCDE902019DED020B51EC100BC8
:1046D000FBF7D2FECDE904019DED040B51EC100B6C
:1046E000FBF7EEFFEC498862ED4890ED090AEB48D4
:1046F000D0ED090A30EE600A8DED010A0198FBF752
:104700009CFF1FED260B53EC102BCDE902019DED14
:10471000020B51EC100BFBF7AFFECDE904019DED50
:10472000040B51EC100BFBF7CBFFDB49C86246E0F2
:10473000DA4890ED0A0ADA48D0ED0A0A30EE200A8B
:104740008DED010A0198FBF778FF1FED380B53EC54
:10475000102BCDE902019DED020B51EC100BFBF784
:104760008BFECDE904019DED040B51EC100BFBF722
:10477000A7FFC9498862CA4890ED0A0AC748D0ED28
:104780000A0A30EE600A8DED010A0198FBF755FF29
:104790001FED4A0B53EC102BCDE902019DED020BEE
:1047A00051EC100BFBF768FECDE904019DED040B05
:1047B00051EC100BFBF784FFB749C86200BFADE2B4
:1047C000B84800780228FAD1069813287ED008DC71
:1047D00007280FD00A2854D00D2878D010284FD1A0
:1047E000E3E0162874D0192873D01C2872D01F2833
:1047F000F5D14BE2AC4890ED020AAC48D0ED020A8C
:1048000030EE600A8DED010A0198FBF716FF1FEDEF
:10481000690B53EC102BCDE902019DED020B51EC1D
:10482000100BFBF729FECDE904019DED040B51ECC3
:10483000100BFBF745FF984988629B4890ED020AF0
:104840009A48D0ED020A30EE200A8DED010A019857
:10485000FBF7F3FE1FED7B0B53EC102BCDE90201B0
:104860009DED020B51EC100BFBF706FECDE90401A8
:104870009DED040B51EC100BFBF722FF8649C8623B
:104880004BE2894890ED030A8848D0ED030A30EEE8
:10489000600A8DED010A0198FBF7CFFE1FED8D0B2D
:1048A00053EC102BCDE902019DED020B51EC100BE6
:1048B000FBF7E2FDCDE904019DED040B51EC100B7B
:1048C000FBF7FEFE74498862774804E0B4E025E017
:1048D00007E14DE193E190ED030A7448D0ED030A3E
:1048E00030EE200A8DED010A0198FBF7A6FE1FEDC0
:1048F000A10B53EC102BCDE902019DED020B51EC05
:10490000100BFBF7B9FDCDE904019DED040B51EC53
:10491000100BFBF7D5FE6049C862FEE1624890EDDE
:10492000040A6248D0ED040A30EE600A8DED010AF7
:104930000198FBF782FE1FEDB30B53EC102BCDE972
:1049400002019DED020B51EC100BFBF795FDCDE93B
:1049500004019DED040B51EC100BFBF7B1FE4E4929
:104960008862514890ED040A5048D0ED040A30EEB8
:10497000200A8DED010A0198FBF75FFE1FEDC50BC4
:1049800053EC102BCDE902019DED020B51EC100B05
:10499000FBF772FDCDE904019DED040B51EC100B0A
:1049A000FBF78EFE3C49C862B7E13F4890ED050A2F
:1049B0003E48D0ED050A30EE600A8DED010A0198FF
:1049C000FBF73BFE1FEDD70B53EC102BCDE902019B
:1049D0009DED020B51EC100BFBF74EFDCDE90401F0
:1049E0009DED040B51EC100BFBF76AFE2A4988621F
:1049F0002D4890ED050A2D48D0ED050A30EE200A2D
:104A00008DED010A0198FBF718FE1FEDE80B53EC42
:104A1000102BCDE902019DED020B51EC100BFBF7C1
:104A20002BFDCDE904019DED040B51EC100BFBF7C0
:104A300047FE1949C86270E11B4890ED060A1B4801
:104A4000D0ED060A30EE600A8DED010A0198FBF701
:104A5000F4FD1FEDFA0B53EC102BCDE902019DED97
:104A6000020B51EC100BFBF707FDCDE904019DEDA6
:104A7000040B51EC100BFBF723FE074988620A4830
:104A800090ED060A0948D0ED060A30EE200A8DEDB9
:104A9000010A01980CE00000941500201802002083
:104AA00048020020AD0100203803002068030020E8
:104AB000FBF7C3FD9FED9C0B53EC102BCDE90201DE
:104AC0009DED020B51EC100BFBF7D6FCCDE9040178
:104AD0009DED040B51EC100BFBF7F2FD9449C862FD
:104AE0001BE1944890ED070A9348D0ED070A30EE99
:104AF000600A8DED010A0198FBF79FFD9FED8A0B7F
:104B000053EC102BCDE902019DED020B51EC100B83
:104B1000FBF7B2FCCDE904019DED040B51EC100B49
:104B2000FBF7CEFD82498862824890ED070A8248F1
:104B3000D0ED070A30EE200A8DED010A0198FBF74F
:104B40007CFD9FED790B53EC102BCDE902019DED1F
:104B5000020B51EC100BFBF78FFCCDE904019DED2E
:104B6000040B51EC100BFBF7ABFD7149C862D4E0AC
:104B7000704890ED080A7048D0ED080A30EE600ADF
:104B80008DED010A0198FBF758FD9FED670B53EC83
:104B9000102BCDE902019DED020B51EC100BFBF740
:104BA0006BFCCDE904019DED040B51EC100BFBF700
:104BB00087FD5F4988625F4890ED080A5E48D0ED46
:104BC000080A30EE200A8DED010A0198FBF735FD49
:104BD0009FED550B53EC102BCDE902019DED020B1F
:104BE00051EC100BFBF748FCCDE904019DED040BE3
:104BF00051EC100BFBF764FD4D49C8628DE04D4848
:104C000090ED090A4C48D0ED090A30EE600A8DEDAE
:104C1000010A0198FBF711FD9FED430B53EC102B9C
:104C2000CDE902019DED020B51EC100BFBF724FCCA
:104C3000CDE904019DED040B51EC100BFBF740FD99
:104C40003B4988623B4890ED090A3B48D0ED090A90
:104C500030EE200A8DED010A0198FBF7EEFC9FED86
:104C6000320B53EC102BCDE902019DED020B51EC00
:104C7000100BFBF701FCCDE904019DED040B51EC99
:104C8000100BFBF71DFD2A49C86246E0294890ED4C
:104C90000A0A2948D0ED0A0A30EE600A8DED010AB1
:104CA0000198FBF7CAFC9FED200B53EC102BCDE9CC
:104CB00002019DED020B51EC100BFBF7DDFBCDE982
:104CC00004019DED040B51EC100BFBF7F9FC1849A6
:104CD0008862184890ED0A0A1748D0ED0A0A30EEAB
:104CE000200A8DED010A0198FBF7A7FC9FED0E0B42
:104CF00053EC102BCDE902019DED020B51EC100B92
:104D0000FBF7BAFBCDE904019DED040B51EC100B50
:104D1000FBF7D6FC0649C86200BF00BF07490698EA
:104D2000086007B000BD0000654018B0DA18864082
:104D3000941500203803002068030020640100203F
:104D40001CB50F48007801280AD10E480E490F4BB8
:104D50000F4ACDE900100F490F4803F0F3FC0DE0B6
:104D600007480078022809D10C480D490D4B0E4A1E
:104D7000CDE900100D490E4803F0E4FC1CBD000015
:104D8000AD0100204802002018020020A8020020E7
:104D900078020020E8010020B8010020680300200C
:104DA00038030020C80300209803002008030020D7
:104DB000D802002010B5134813490860032048604A
:104DC000002111488160C1604FF4002101614FF45E
:104DD0004011416100210176012141760021817657
:104DE0000121C176002101774177FCF737FC08B13A
:104DF000FCF782F8FBF70AFF02210348FCF7F0F802
:104E000010BD000000640040040A002010B50F48E7
:104E10000F4908600320486000210D488160C1608F
:104E20004FF4002101614FF44011416100210176EE
:104E30000121417600218176C17601774177FCF727
:104E40000DFC08B1FCF758F810BD000000680040E8
:104E50002C0A002008B500BF00200090164800680A
:104E600040F40010144908600846006800F400107F
:104E7000009000BF00BF00BF0020009008460068FF
:104E800040F4800008600846006800F4800000904C
:104E900000BF00BF002205211020FDF77DFB102080
:104EA000FDF766FB002205213920FDF775FB39204F
:104EB000FDF75EFB08BD00003038024010B50E4A19
:104EC00000210E4804F05EFE0D4908600D4A0021E5
:104ED0000D4804F057FE0D4908600D4A00210D48A9
:104EE00004F050FE0C4908600C4A00210C4804F004
:104EF00049FE0C49086010BD74C60008395B000803
:104F00002800002098C60008895200082C000020C4
:104F1000BCC600081D5B000830000020E0C6000889
:104F20000D5B00083400002000B587B0142102A8F2
:104F3000FBF7F0F900BF002001906B48006840F0DB
:104F40001000694908600846006800F010000190F0
:104F500000BF00BF00BF002001900846006840F07D
:104F6000040008600846006800F00400019000BFDB
:104F700000BF00BF002001900846006840F080009C
:104F800008600846006800F08000019000BF00BF84
:104F900000BF002001900846006840F00100086052
:104FA0000846006800F00100019000BF00BF00BF8C
:104FB000002001900846006840F0020008600846A2
:104FC000006800F00200019000BF00BF00BF002099
:104FD00001900846006840F0080008600846006834
:104FE00000F00800019000BF00BF00BF002001904A
:104FF0000846006840F0400008600846006800F07D
:105000004000019000BF00BF01224FF4C17137483A
:10501000FDF7F4F90122D1023548FDF7EFF901223D
:1050200010213448FDF7EAF9402002904FF488102F
:1050300003900220049002A92D48FDF7DDF801201D
:105040000290002003900120049002A92748FDF758
:10505000D3F84FF4C17002900120039004900590A2
:1050600002A92248FDF7C8F84FF400600290012021
:1050700003900490059002A91D48FDF7BDF84FF478
:1050800000400290002003900120049002A91948DA
:10509000FDF7B2F84FF48040029000200390012009
:1050A000049002A91448FDF7A7F84FF4007002908D
:1050B000002003900120049002A91048FDF79CF8FD
:1050C00010200290012003900490059002A9094845
:1050D000FDF792F8002202211720FDF75DFA172054
:1050E000FDF746FA07B000BD30380240000002402C
:1050F0000010024000040240000C02400008024080
:1051000000B587B0002003900490059006900190B0
:1051100002904FF0804014490860532048600021FD
:105120001148816042F21071C1600021016180214B
:105130008161FDF78FFE08B1FBF7DEFE4FF4805072
:10514000039003A90848FDF72FFF08B1FBF7D4FE31
:1051500000200190029001A90348FDF721FE08B14B
:10516000FBF7CAFE07B000BD540A002010B50B487B
:105170000B4908604FF4E130486000210848816025
:10518000C16001610C21416100218161C161FEF7B3
:1051900017FB08B1FBF7B0FE10BD0000004C00404B
:1051A0009C0A002010B50B480B4908604FF4E13011
:1051B0004860002108488160C16001610C214161A3
:1051C00000218161C161FEF7FBFA08B1FBF794FE93
:1051D00010BD000000100140E40A002010B50B488B
:1051E0000B4908604FF41650486000210848816060
:1051F000C16001610C21416100218161C161FEF743
:10520000DFFA08B1FBF778FE10BD00000044004053
:105210002C0B002010B50B480B4908604FF4E1300F
:105220004860002108488160C16001610C21416132
:10523000890181610021C161FEF7C2FA08B1FBF763
:105240005BFE10BD00480040740B002010B50B48F9
:105250000B4908604FF416504860002108488160EF
:10526000C16001610C21416100218161C161FEF7D2
:10527000A7FA08B1FBF740FE10BD00000014014082
:10528000BC0B002000BFFEE700BF05F039FBFFF7B5
:1052900057FD00F035FB0A2006F0C4F9F5E70000E1
:1052A00010B5002481E0C4EBC400774901EBC000D5
:1052B0000079032800D17BE0C4EBC400724951F8A7
:1052C0003000012843D0022804D0032861D00428EC
:1052D00068D15FE0C4EBC4016C4A02EBC10191EDFF
:1052E000091AF0EE410AC4EBC401674A02EBC1019E
:1052F000B1F9081001EE101AB8EEC11AB0EE410A69
:10530000C4EBC401624A02EBC10000F05DF9C4EBDA
:10531000C4015D4A02EBC101B1F90E1001EE101A91
:10532000B8EEC11AF0EE410AC4EBC40102EBC101B0
:10533000C98801EE101AB8EE411AB0EE410AC4EB6A
:10534000C401524A02EBC10000F0DEF92BE0C4EBCD
:10535000C4014D4A02EBC10191ED041AF0EE410A7D
:10536000C4EBC40102EBC101B1F9081001EE101A3F
:10537000B8EEC11AB0EE410AC4EBC401444A02EBD4
:10538000C10000F021F943480068401C4149086011
:1053900009E008E00020C4EBC4013B4A02EBC10174
:1053A000888100E000BF00BF641C082CFFF67BAFC3
:1053B00000BF002009E0C0EBC001334A02EBC1018D
:1053C0000979032900D102E0401C0828F3DB00BF63
:1053D000002053E0C0EBC0012B4A52F831100329E2
:1053E0004BD0C0EBC00102EBC101097901291AD1F0
:1053F000C0EBC001264A02EBC10191ED090ADFEDC5
:10540000260A20EE200ADFED250A80EE201ABDEEE6
:10541000C10A10EE101A09B2C0EBC0021A4B03EB1E
:10542000C202918129E0C0EBC001174A02EBC10121
:10543000097902291AD1C0EBC001154A02EBC1015A
:1054400091ED090ADFED160A20EE200ADFED140ABD
:1054500080EE201ABDEEC10A10EE101A09B2C0EBA0
:10546000C002094B03EBC202918106E00021C0EBB0
:10547000C002054B03EBC2029181401C0828A9DB46
:1054800002F04AFF10BD0000080F00208812002023
:10549000C81000208C0000200000804600409C4680
:1054A00000401C4600B589B01348C068012802D0EE
:1054B00002281DD111E01148007818B19FED100AA3
:1054C00001F086FA24220F496846FAF70AFF0D48D0
:1054D00010380FC8FEF70EFD0AE02422094968467D
:1054E000FAF7FFFE074810380FC8FEF703FD00BFAC
:1054F00000BF09B000BD0000F8150020B101002078
:10550000000000006016002010B5F7EE002A9FEDA5
:10551000172AF0EE001A9FED161ADFED160A9FED1E
:10552000160A164800F0CEF8DFED152A9FED0F2A77
:10553000F2EE041AB6EE001ADFED120AB7EE080A10
:10554000114800F0BFF8DFED0E2A9FED082ADFEDCD
:105550000F1AB0EE081AF6EE000A9FED0D0A0D487C
:1055600000F0B0F801200C49C86010BD0000000038
:105570008FC2753D0AD7A33CCDCC4C3E64170020AA
:105580000AD7A33B9A99993E2C1700200000964316
:10559000666686409C170020F815002000BFFEE7D5
:1055A000B4EEE00AF1EE10FA01DDB0EE600AB1EE01
:1055B000601AB4EEC10AF1EE10FA03D2B1EE601A2D
:1055C000B0EE410A7047000000B5F0EE401AB0EEB0
:1055D000602A32EE610A80ED050A90ED050AD0EDF1
:1055E000040A30EE600A80ED060A90ED011AD0ED53
:1055F000052A21EE221AB0EE410A90ED081AF0EECB
:10560000410AFFF7CDFFD0ED000A90ED061A00EE3B
:10561000810AD0ED050A90ED031A70EE810A90ED33
:10562000041AF0EE002A42EEC10A90ED021A01EED1
:10563000200AD0ED090A30EE200A80ED090A90ED2B
:10564000090AD0ED0A0AB4EEE00AF1EE10FA03DD21
:1056500090ED0A0A80ED090A90ED090AD0ED0A0AD8
:10566000F1EE600AB4EEE00AF1EE10FA05D290ED28
:105670000A0AB1EE400A80ED090A90ED040A80EDB5
:10568000030A90ED050A80ED040A90ED050AB5EED7
:10569000C00AF1EE10FA02DD90ED050A03E090ED8C
:1056A000050AB1EE400AD0ED0D0AB4EEE00AF1EEC3
:1056B00010FA03D29FED020A80ED090A00BD000036
:1056C0000000000080ED082AC0ED0A1A80ED000AF3
:1056D000C0ED010A80ED021A9FED0A3A80ED0B3A07
:1056E00080ED033A80ED043A80ED093A80ED073A07
:1056F00080ED053A80ED063A012180F83010C0EDCA
:105700000D2A70470000000000B5F0EE401AB0EE20
:10571000602A90F8301001290AD132EE610A80ED3A
:10572000040A32EE610A80ED030A002180F830108D
:1057300032EE610A80ED050A90ED070AD0ED050A08
:1057400030EE200A80ED070A90ED050AD0ED040A3C
:1057500030EE600A80ED060A90ED011AD0ED072ABE
:1057600021EE221AB0EE410A90ED081AF0EE410A3D
:10577000FFF716FFD0ED000A90ED051A00EE810A42
:10578000D0ED020A90ED061A00EE810A80ED090ABA
:1057900090ED090AD0ED0A0AB4EEE00AF1EE10FA33
:1057A00003DD90ED0A0A80ED090A90ED090AD0EDBB
:1057B0000A0AF1EE600AB4EEE00AF1EE10FA05D240
:1057C00090ED0A0AB1EE400A80ED090A90ED050A53
:1057D00080ED040A90ED050AB5EEC00AF1EE10FA6C
:1057E00002DD90ED050A03E090ED050AB1EE400AF6
:1057F000D0ED0D0AB4EEE00AF1EE10FA03D29FEDFF
:10580000020A80ED090A00BD0000000000B5F0EEBC
:10581000401A90F83010012906D1C0ED041AC0EDED
:10582000031A002180F83010C0ED051A90ED070A28
:10583000D0ED050A30EE200A80ED070A90ED050A4A
:10584000D0ED040A30EE600A80ED060A90ED011AF0
:1058500090ED072A21EE021AB0EE410A90ED081AE7
:10586000F0EE410AFFF79CFED0ED000A90ED051A1C
:1058700000EE810AD0ED020A90ED061A00EE810AD0
:1058800080ED090A90ED090AD0ED0A0AB4EEE00AAB
:10589000F1EE10FA03DD90ED0A0A80ED090A90EDB1
:1058A000090AD0ED0A0AF1EE600AB4EEE00AF1EE60
:1058B00010FA05D290ED0A0AB1EE400A80ED090A0D
:1058C00090ED050A80ED040A90ED050AB5EEC00AD8
:1058D000F1EE10FA02DD90ED050A03E090ED050A05
:1058E000B1EE400AD0ED0D0AB4EEE00AF1EE10FA86
:1058F00003D29FED020A80ED090A00BD00000000FE
:1059000010B54C480078032829D101204A49087075
:105910004A480078012840D1C1034948FCF766FD98
:10592000F0B99FED480A484880ED000A9FED450A0E
:1059300080ED010A02209FED431AF7EE000A9FED69
:10594000430A00F0CFFF4FF4FA70FCF7D9FA404851
:105950000068401C3E49086001203649087068E034
:105960009FED380A384880ED010A9FED3A0A80ED34
:10597000000A4FF400713848FCF738FD002858D170
:105980009FED300A304880ED000A9FED2E0A80ED31
:10599000010A0820274908704BE0284800780228AF
:1059A00004D02E48C089B0F5FA6F42D14FF480413F
:1059B0002B48FCF71BFD30BB4FF4FA602949086007
:1059C0009FED200A204880ED000A9FED1E0A80ED21
:1059D000010A02209FED1B1AF7EE000A9FED1B0A39
:1059E00000F080FF1A480068FEF73AFC4FF4FA70A6
:1059F000FCF786FA16480068401C1549086001202B
:105A00000C49087015E09FED130A0F4880ED000A5D
:105A100001211548FCF7EAFC58B99FED0A0A0A482B
:105A200080ED000A9FED070A80ED010A0820014978
:105A3000087010BDAC010020B1010020AD010020B4
:105A40000004024000000000501600200000024345
:105A500094010020CDCC4CBE000802400816002066
:105A6000000C0240800100200000024010B51D48DB
:105A7000007802280AD11C4890ED020ABDEEC00A47
:105A80001A4880ED000A0620194908701648C068B7
:105A9000082825D1144890ED020ABCEEC00A10EE89
:105AA000100A144908700846007801280AD100221B
:105AB00080211148FCF7A2FC9FED100A104880EDF0
:105AC000000A0DE00B480078022809D100221021BD
:105AD0000C48FCF793FC9FED0C0A094880ED000A86
