:020000040800F2
:10000000C8590020790200080D320008C52D0008EB
:1000100009320008D9060008E53600080000000093
:100020000000000000000000000000008132000815
:10003000E50700080000000011320008A5320008A2
:10004000930200089302000893020008930200083C
:10005000930200089302000893020008930200082C
:10006000930200089302000893020008930200081C
:10007000930200089302000893020008930200080C
:10008000CD070008930200089302000893020008BD
:10009000DD0600089302000893020008E907000843
:1000A00093020008930200089302000893020008DC
:1000B000853300089133000893020008930200087A
:1000C00093020008930200089302000893020008BC
:1000D00093020008C1360008CD360008D936000862
:1000E000930200089302000893020008930200089C
:1000F000930200089302000893020008930200088C
:10010000930200089302000893020008930200087B
:10011000930200089302000893020008930200086B
:1001200093020008D9070008930200089302000810
:10013000930200089302000893020008930200084B
:10014000E9060008930200089302000893020008E1
:10015000930200089302000893020008930200082B
:10016000930200089302000893020008930200081B
:1001700093020008930200089302000800000000A8
:10018000930200089302000800F002F800F064F8FF
:1001900014A696E8000CB244B344DA4501D100F04D
:1001A0005BF8BAE80F000FA696E83000A5EB04054F
:1001B00004EB0607AAEB0704A7F101074FEA1515A0
:1001C0004FEA3414A4F10104AC4201D300F044F826
:1001D00013F0010F18BFFB1A43F0010300F001F800
:1001E000DBE7184774610000946100000A4410F8CE
:1001F000014B14F00F0508BF10F8015B240908BF7C
:1002000010F8014B6D1E05D010F8013B6D1E01F872
:10021000013BF9D1641E03D0641E01F8015BFBD1E0
:100220009142E4D37047000070470000002300248F
:1002300000250026103A28BF78C1FBD8520728BFF6
:1002400030C148BF0B6070471FB505F02FFF00F0AD
:1002500045F91FBD10B510BD00F0CAF91146FFF7F2
:10026000F3FF03F0F9FF00F0E8F903B4FFF7F2FF42
:1002700003BC00F0B3F90000094880470948004773
:10028000FEE7FEE7FEE7FEE7FEE7FEE7FEE7FEE746
:10029000FEE7FEE704480549054A064B70470000A3
:1002A0007133000889010008C8530020C859002094
:1002B000C8550020C855002053EA020C00F06980A0
:1002C0002DE9F04B4FF00006002B1FBFB3FA83F56A
:1002D00003FA05F424FA05F65E4012BF1643B2FA9B
:1002E00082F502FA05F4C5F120051EBF22FA05FCCD
:1002F00044EA0C04203556EA044C4FEA144418BF73
:10030000641C4FF000084FF00009904271EB030CA1
:1003100039D3002919BFB1FA81F701FA07F6B0FA0B
:1003200080F700FA07F6C7F120071EBF20FA07FC86
:1003300046EA0C062037B6FBF4FCA7EB0507103F96
:1003400007F01F0BCBF120062CFA06F60CFA0BFB7C
:1003500044BFB3460026202FA4BF5E464FF0000BDB
:100360005BEA060C08BF4FF0010B19EB0B0948EBD9
:100370000608ABFB027C06FB02CC0BFB03CCC01BCC
:1003800071EB0C01C1E70B46024641464846BDE809
:10039000F08B13B5084318BF4FF0FF300146AFF3A1
:1003A0000080BDE81C407047032A40F2308010F006
:1003B000030C00F0158011F8013BBCF1020F624400
:1003C00098BF11F801CB00F8013B38BF11F8013B91
:1003D000A2F1040298BF00F801CB38BF00F8013B3E
:1003E00011F0030300F0B780083AC0F0088051F81C
:1003F000043B083A51F804CBA0E80810F5E7121DB9
:100400005CBF51F8043B40F8043BAFF30080D207D7
:1004100024BF11F8013B11F801CB48BF11F8012BA3
:1004200024BF00F8013B00F801CB48BF00F8012BC6
:10043000704702F0FF0343EA032242EA024200F05F
:1004400024B84FF000020429C0F0128010F0030C11
:1004500000F01B80CCF1040CBCF1020F18BF00F8B7
:10046000012BA8BF20F8022BA1EB0C0100F00DB866
:100470005FEAC17C24BF00F8012B00F8012B48BFC4
:1004800000F8012B70474FF0000200B51346944668
:100490009646203922BFA0E80C50A0E80C50B1F1DC
:1004A0002001BFF4F7AF090728BFA0E80C5048BFF0
:1004B0000CC05DF804EB890028BF40F8042B08BF8E
:1004C000704748BF20F8022B11F0804F18BF00F88A
:1004D000012B7047704770477047000008487CB593
:1004E0007844009007487844009C0546019004E059
:1004F0002046016808448047241DAC42F8D17CBDE9
:10050000945E0000925E000070B50446051F00F086
:1005100055F80068002C14BF446870BD002C18BF4B
:10052000AC423CBF20466468F8D301680A18AA426E
:1005300018BF456003D12A68054611440160286848
:100540004119A1421CBF6C6070BD6168696021687F
:100550000844286070BD10B5203AC0F00B80B1E8A7
:100560001850A0E81850B1E81850A0E81850203AE8
:10057000BFF4F5AF5FEA027C24BFB1E81850A0E8F1
:10058000185044BF18C918C0BDE810405FEA827C0B
:1005900024BF51F8043B40F8043B08BF7047D20722
:1005A00028BF31F8023B48BF11F8012B28BF20F8C3
:1005B000023B48BF00F8012B70470000004870471D
:1005C0003004002010B5002000F040F8FFF742FE94
:1005D000BDE81040012000F001B8000001491820DA
:1005E000ABBEFEE72600020000487047280400204A
:1005F0007546FFF7F9FFAE4605006946534620F001
:100600000700854618B020B5FFF744FEBDE820403E
:100610004FF000064FF000074FF000084FF0000BBE
:10062000AC46ACE8C009ACE8C009ACE8C009ACE82D
:10063000C00921F007018D46704710B50446AFF39D
:1006400000802046BDE81040FFF70FBE10B500F057
:100650000BF8BDE8104000F001B87047002801D049
:10066000FFF7BCBF7047000010B5002102A000F0EA
:1006700013F8012010BD0000534947414252543A3B
:100680002041626E6F726D616C207465726D696E6F
:100690006174696F6E00000070B505460C460A2053
:1006A00000E06D1C00F011F835B128780028F8D171
:1006B00002E0641C00F009F814B120780028F8D199
:1006C000BDE870400A20AFF3008008B569468DF898
:1006D00000000320ABBE08BDFEE7000040F2C4509E
:1006E000C2F2000000F09CB940F2EC50C2F20000EF
:1006F00000F096B979B1F0B546F2DE0201F0030CD4
:100700000429C0F6000209D24FF0000E0021BCF10E
:10071000000F36D155E0002188B2704701F0FC018E
:10072000C1F1000E431C00216FF003041D19EE7887
:100730008FB286EA172632F816602F7986EA0121F1
:1007400089B287EA112132F811106F7981EA062601
:10075000B6B287EA162632F81660AD7986EA01212C
:1007600089B285EA112132F8111004340EEB040528
:10077000043581EA0621D9D104F1040EBCF1000F41
:100780001FD010F80E408BB284EA132332F81340C6
:10079000BCF1010F84EA012113D07044437889B27F
:1007A00083EA112132F81130BCF1020F83EA0421EF
:1007B00007D0807889B280EA112032F8100080EAF0
:1007C0000321BDE8F04088B27047000040F2146099
:1007D000C2F2000000F028BC40F27460C2F20000D7
:1007E00000F022BC70470000402000F0A1BD0000D6
:1007F00072B600BFFEE7000090F82020013A012AFF
:1008000004D8006800F11402002004E000F1240282
:1008100001204FF4802113681943116070470000D4
:1008200090F82020013A012A30D8B0B546F2006095
:10083000C4F20000026842F001020260026822F481
:100840007C520260D1F814E0CC694A6A0368012C3A
:1008500043EA022202600EF01F024FF0010303FA86
:1008600002F2C3696FEA020C23EA0203C36113D0E8
:100870002CBBC36803EA0C03C360CB688C8844EAD2
:10088000034300EBCE0423640B4611E0416A41F4BC
:100890008021416201207047C3681343C3600B6825
:1008A0008C8844EA034300EBCE04236401F10C037B
:1008B0008C681B8843EA044300EBCE0463644368FE
:1008C0008D6943EA0204D1F810E0096A002D08BFDF
:1008D00003EA0C0444604369BEF1000F43EA0204DA
:1008E00008BF03EA0C040129446102D1C169114324
:1008F000C161016821F0010101600020B0BD00006C
:100900007047000010B590F82040013C012C77D8CA
:10091000D0F800C000290CBFDCF80C40DCF8104017
:10092000A40773D00CEB011CDCF8B0410CF5D87EA9
:1009300014F004049460DCF8B04119BFE40854607A
:10094000640D1460DEF800400CF5DA7E04F0020459
:10095000D460DCF8B44124075ABFDEF8004004F04C
:100960000F0408241461DEF800400029C4F30724B2
:100970009461DEF800404FEA14445461DCF8B82179
:100980001A70026802EB0112D2F8B8214FEA122263
:100990005A70026802EB0112D2F8B8214FEA1242F3
:1009A0009A70026802EB0112D2F8B8214FEA126283
:1009B000DA70026802EB0112D2F8BC211A710268E7
:1009C00002EB0112D2F8BC214FEA12225A710268DE
:1009D00002EB0112D2F8BC214FEA12429A7102686E
:1009E00002EB0112D2F8BC214FEA1262DA71006800
:1009F0000CBF00F10C0100F11001002020220AE0E0
:100A000000F1240101204FF4802204E000F12401D0
:100A100001204FF400120B681A430A6010BD000059
:100A20002DE9F04F81B0044600684669D0F8049083
:100A30008768D0F80CB0D0F810A0D0F81880F10773
:100A400003D1002530071CD423E0F90710D0012181
:100A5000BA07816009D4780700F1AA80380700F14D
:100A6000B080204600F07EFA02E0204600F07CFADA
:100A70000025F80500F18480F80300F1AA80300712
:100A800007D51BF0100004D0206845F40075102134
:100A9000C160700708D51BF0080005D02068082148
:100AA000C160204600F0F4F9B00706D52068C068A0
:100AB000800702D0204600F0EDF9700607D51AF045
:100AC000100004D0206845F4806510210161B00653
:100AD00008D51AF0080005D02068082101612046D9
:100AE00000F00CFAF00606D520680069800702D0F5
:100AF000204600F005FAB00308D519F0100005D023
:100B0000206810214160204600F0FCF9F00308D570
:100B100019F0080005D0206808214160204600F047
:100B20002DFA300440F18F805FEA497040F18880EF
:100B300006F4807008EA102028435FEA88710146B5
:100B400048BF41F00201B20558BF01465FEA487054
:100B50000D4648BF45F00405700558BF0D463005E9
:100B60006ED518F070006BD010380009052862D8D7
:100B7000DFE800F0035356595C5F45F008055AE082
:100B800020684FF48071BA0581600AD4780512D4C8
:100B9000380519D4204600F0E9F9F8037FF56FAF66
:100BA00017E0204600F0E4F9F8037FF568AF10E0A5
:100BB0004FF400655DE705F50055F8037FF55FAF7D
:100BC00007E04FF4805554E705F58045F8037FF5BD
:100BD00056AF20684FF48031BA0381600AD478039D
:100BE0000FD4380313D4204600F0C4F930073FF582
:100BF00048AF4EE7204600F0BFF930073FF541AF60
:100C000047E705F5004530073FF53BAF41E705F500
:100C1000803530073FF535AF3BE745F010050AE07A
:100C200045F0200507E045F0400504E045F080056B
:100C300001E045F480752068816921F070018161CF
:100C40002068042141604DB1606A40EA05012046F8
:100C5000616201B0BDE8F04FFFF752BE01B0BDE8E0
:100C6000F08F0000002804BF01207047B0B5044693
:100C700090F8200010B9204600F06EF82068016856
:100C800041F00101016000F035FC05462068416833
:100C9000C90705D100F02EFC401B0B28F6D310E04D
:100CA000016821F00201016000F024FC054600BF4C
:100CB0002068416889070DD500F01CFC401B0B28FB
:100CC000F6D3606A052140F400306062012084F8A8
:100CD0002010B0BD217E0268012922F0800208BFE9
:100CE00080320260617E0268012922F0400208BF62
:100CF00040320260A17E0268012922F0200208BF72
:100D000020320260E17E0268012922F0100218BF41
:100D100010320260217F0268012922F0080208BF18
:100D200008320260617F0268012922F0040208BFD4
:100D300004320260D4E901C2D4E9033561691A437F
:100D40002A431143ACF101021143C161002001218A
:100D5000606284F82010B0BD10B586B0006846F619
:100D60000002C4F2000200219042CDE90411CDE955
:100D70000211019140D046F20041C4F200018842C4
:100D800040F0848040F22C51C2F200010A6843F620
:100D90004000C4F20200531C0B6052B900210091C4
:100DA000016841F000710160016801F0007100917B
:100DB00000990021009150F8102C42F0010240F8F7
:100DC000102C50F8100C00F00100009000984FF427
:100DD000C05001900220CDE90201032004900920B7
:100DE00005900020C4F2020001A900F0ADFA142021
:100DF00007210022142444E043F64000C4F202001C
:100E00000091016841F080610160016801F080613A
:100E10000091009940F22C51C2F200010A68531C63
:100E20000B6052B900210091016841F0007101602E
:100E3000016801F00071009100990021009150F8C3
:100E4000102C42F0020240F8102C50F8100C00F068
:100E50000200009000984FF4405001900220CDE92C
:100E6000020103200490092005900020C4F2020032
:100E700000F5806001A900F067FA402008210022F7
:100E8000402400F0F3FB204600F0DEFB06B010BD6E
:100E90007047000080B588B040F2C451C2F2000132
:100EA000884207D040F2EC51C2F20001884212D0D1
:100EB00008B080BD40F20000C2F2000001210160D4
:100EC00040F2C45040F23453C2F20000C2F20003B8
:100ED00001AA00210EE040F20000C2F20000002151
:100EE000016040F2EC5040F23C53C2F20000C2F20A
:100EF000000301AAFFF706FD08B080BD704700009F
:100F00007047000070470000B0B5044690F820001C
:100F100001281DD1022084F820002068016821F0FA
:100F20000101016000F0E6FA054600BF2068406854
:100F3000C00713D000F0DEFA401B0B28F6D3606A1E
:100F400040F400306062052084F820000120B0BD2C
:100F5000606A40F4002060620120B0BD0020606241
:100F6000B0BD0000704700007047000070470000EF
:100F70007047000070470000704700007047000095
:100F800070B5866D044600F0B5FA94F83510022964
:100F900025D105462068216C026822F01602026005
:100FA000426922F08002426109B9A16C19B101685D
:100FB00021F008010160016821F00101016000BF1A
:100FC00020680068C0070ED000F094FA401B062885
:100FD000F6D320206065032084F835000CE08020E3
:100FE0006065012008E0E06D3F2101FA00F0B0608B
:100FF000012084F835000020002184F8341070BDF1
:1010000090F83510022909D1052180F835100068C3
:10101000016821F0010101600020704780214165D5
:1010200001207047406D7047F0B581B00446002044
:10103000009040F20400C2F200000268D4E9166099
:1010400048F2B51337680821C1F64E338140394262
:10105000A2FB03250CD0226813685B0708D5136830
:1010600023F004031360B160616D41F0010161651B
:1010700001218140394208D022685269120604D504
:10108000B160616D41F00201616504218140394226
:1010900008D022681268920704D5B160616D41F0F2
:1010A0000401616510218140394215D02068026831
:1010B000120711D5B16002680168520306D4C90550
:1010C00006D4016821F00801016001E008033FD463
:1010D000216C09B120468847E16D202000FA01F219
:1010E0003A4241D020680368DB063DD5B26094F8EF
:1010F00035300268052B1BD122F0160202604269CE
:1011000022F080024261226C0AB9A26C1AB1026814
:1011100022F0080202603F208840B060012084F87D
:101120003500216D0020002984F8340052D156E0AA
:101130000168520310D4C90512D4016821F01001CE
:101140000160012084F83500002084F8340007E0B5
:10115000A16C0029BED1BFE7080301D4616C00E097
:10116000E16B09B120468847606DC0B3606DC00770
:101170002ED0052084F835002068A90A026822F0E4
:1011800001020260009A01328A4200921AD8026873
:10119000D20717D0009A01328A42009212D8026810
:1011A000D2070FD0009A01328A4200920AD8026810
:1011B000D20707D0009A01328A42009202D8026810
:1011C000D207DFD1012084F83500002084F83400F4
:1011D000E16C21B1204601B0BDE8F040084701B004
:1011E000F0BD00002DE9F041044600F083F9C4B1E0
:1011F0000546022084F835000020216884F8340078
:10120000086820F00100086021680868C0070BD05A
:1012100000F070F9401B0528F6D903252023032090
:1012200064E00120BDE8F081086848F23F02CFF297
:101230001002D4E9013500EA020C04F10C0898E828
:10124000C10143EA0C032B431843D4E9072E304372
:1012500038431043626A40EA0E00042A40EA080359
:101260001CD1206BD4E90A2E40EA0E001843086016
:101270004869BEF1000F20F0030040EA020040F090
:10128000040C11D0B8F5005F35D0B8F1000F42D191
:10129000022A43D0012A38D032B93FE00B604869B6
:1012A00020F0070040EA020C01F0F8004AF6AB22F9
:1012B0001038CAF6AA22A0FB02231A0946F25033BC
:1012C000C1F814C0C0F600039A5C40F2FF335F28F7
:1012D0004FF03F0021EA030100FA02F088BF043119
:1012E000C4E916128860002301250020636584F894
:1012F0003550BDE8F081032AD6D8012540230120CE
:10130000DFE802F0020C0203F0E7AEF1C070B0FAC1
:1013100080F0400904E0032A04D3C5D1CEF3006075
:101320000028C1D0012540230120DFE770470000DD
:1013300043F61441C4F201010A68024214BF086076
:101340007047FFF7F3BF00002DE9F04F82B000F1C6
:101350003E4707F1FF77860546EA972741F60046A4
:10136000C4F20206082243F6004EB04208BF07222C
:10137000C4F2010E072F38BF3A46002600274FF06F
:101380000008009209E000BF08F101080237B8F137
:10139000100F06F1040600F0A3800D68012202FA86
:1013A00008F415EA0409EFD0D1F804B003220BF0D9
:1013B000030CACF10105BA40012D6FEA020A0FD807
:1013C0008268CD6802EA0A02BD402A438260426810
:1013D000A243CBF3001404FA08F42243426005E070
:1013E000BCF1030F02D14FF0030C1EE0C2688C6801
:1013F00002EA0A02BC402243BCF1020FC26014D1CF
:101400006FF0030202EA58020244D2F820C006F04C
:101410001C040F230D69A3402CEA0303A5402B43B2
:101420001362D1F804B00BF0030C02680CFA07F356
:1014300002EA0A021A431BF4403F0260A4D00022D1
:1014400043F644030192C4F202031A684FF6084CB3
:1014500042F480421A601A68CFF6FF7C02F48042A0
:101460000192019A28F00302724452F80C3006F0FF
:101470000C050F24AC40A343009C04FA05F52B4354
:1014800042F80C30DEF808204B6842EA090543F6C2
:101490000C4CDC0258BF22EA0905CEF80850C4F211
:1014A000010CDCF800209C0242EA090558BF22EA40
:1014B0000905CCF80050DEF804209C0342EA090537
:1014C00058BF22EA0905CEF80450DEF80020DB03FD
:1014D00042EA090558BF22EA0905CEF8005053E751
:1014E00002B0BDE8F08F0000002A08BF0904816146
:1014F0007047000044F6EC30C2F20000006870470C
:1015000040F2184044F6EC31C2F20000C2F2000191
:1015100000780A68104408607047000080B543F600
:101520000040C4F20200016841F4007101600168EA
:1015300041F480610160016841F480710160032021
:1015400000F0C0F80F2000F005F800F05BF8002074
:1015500080BD000070B586B0002543F640010195BE
:10156000C4F202010A68044642F002020A600968F5
:1015700001A801F0020101910199694600F062F9A8
:10158000049E002E18BF012600F07CF94DF6836101
:10159000B040C4F21B31A0FB01014FF0FF3000EB63
:1015A000914140F21C7040F20042C2F20000C4F2CD
:1015B000000240F2E733C0E90021C0E902530561AF
:1015C000856100F0D7FB0546C8B940F21C70C2F235
:1015D000000000F01FFC054688B91D2000F034F81B
:1015E0000F2C0BD81D2021460022002500F03EF8CC
:1015F00040F21C40C2F20000046000E001252846D1
:1016000006B070BD82B0002043F640010190C4F2E4
:1016100002014A6842F480424A604A6802F4804209
:101620000192019A00900868002240F08050086002
:1016300008680F2100F08050009000986FF00100C2
:1016400002B000F013B80000002848BF704700F057
:101650001F01012202FA01F11C2202EAD0004EF21F
:101660000012CEF2000281507047000010B54EF615
:101670000C5CCEF2000CDCF80030C3F3022E8EF0CE
:101680000704042C28BF0424BEF103034FF0FF3EDF
:101690000EFA04F438BF0023A14399400EFA03F375
:1016A0009A43114300F00F0200F160430901043A2C
:1016B00003F564436244002848BF02F10C0319702B
:1016C00010BD00004EF60C51CEF200010A684FF634
:1016D000FF031A4060F30A2242F0806040F0FD7080
:1016E00008607047002804BF012070472DE9F041D1
:1016F00043F60808C4F202080446D8F8F8030D4679
:1017000000F00700884207D288F8F853D8F8F803A9
:1017100000F00700A84276D12068810717D541075D
:1017200005D5D8F8001041F4E051C8F800100107C1
:1017300005D5D8F8001041F46041C8F80010D8F879
:101740000010A26821F0F0011143C8F80010C00792
:101750003FD1D8F8F80300F00700A84207D988F86D
:10176000F853D8F8F80300F00700A8424BD12068DE
:10177000410707D5D8F80010E26821F4E051114381
:10178000C8F80010000708D5D8F80000216920F437
:10179000604040EAC100C8F8000000F09BF8D8F8AB
:1017A000001046F2C602C1F30311C0F60002515CFC
:1017B00040F2040220FA01F140F21C40C2F20000A3
:1017C0000068C2F200021160FFF7C4FE0020BDE80D
:1017D000F0816068811E022907D258F8081C89012F
:1017E0005CBF0120BDE8F08110E0012807D158F866
:1017F000081C89035CBF0120BDE8F08106E058F8B1
:10180000081C890702D40120BDE8F081D8F8001037
:1018100021F003010843C8F80000FFF76BFE0646FD
:1018200041F28837D8F80000616800F00C00B0EB96
:10183000810F8ED0FFF75EFE801BB842F2D90320E5
:10184000BDE8F0810F22026043F60802C4F20202F2
:10185000136803F003034360136803F0F00383602D
:10186000136803F4E053C360D2F800C04FF4E053B0
:1018700003EADC030361D2F8F80300F00700086014
:101880007047000040F2040043F60801C2F2000075
:10189000C4F202010068096846F2D602C1F382214F
:1018A000C0F60002515CC8407047000040F20400DE
:1018B00043F60801C2F20000C4F2020100680968A0
:1018C00046F2D602C1F34231C0F60002515CC84074
:1018D0007047000010B543F60404C4F202046068C7
:1018E00000F00C0142F200400829C0F2F40007D0D9
:1018F000042918BF10BD41F20020C0F27A0010BDCB
:10190000216801F03F02216823684902C3F388116E
:1019100005D4A1FB00010023FEF7CEFC06E041F256
:101920000020C0F27A004843B0FBF2F021680222A6
:10193000C1F3014102EB4101B0FBF1F010BD000029
:10194000002804BF012070472DE9F04182B0044611
:10195000007843F60006C007C4F202060BD0B06858
:1019600000F00C00042878D13068800303D560684B
:10197000002800F05181207880071AD5B06810F057
:101980000C0F08D0B06800F00C00082840F07F80F1
:10199000706840027BD43068800703D5E068012876
:1019A00040F03A813068216920F0F80040EAC10037
:1019B00030602078000713D42078400727D4A56929
:1019C000002D00F02581B06800F00C00082840F0E0
:1019D0009180012D40F0F980012002B0BDE8F08136
:1019E0006069002840F20000C4F2472072D0012153
:1019F000C0F8801EFFF77EFD054600BF706F8007B0
:101A0000DAD4FFF777FD401B0228F7D9D9E0306C14
:101A10005FEAC0080AD400200190306C40F080508A
:101A20003064306C00F080500190019847F200075C
:101A3000C4F200073868C0053ED4386840F48070AE
:101A40003860FFF757FD05463868C00534D4FFF706
:101A500051FD401B0228F7D9B3E0B06800F00C003C
:101A6000082803D1706840023FF57EAF6068B0F58A
:101A7000803F07D0B0F5A02F40F08D80306840F453
:101A800080203060306840F4803030608DE0E06865
:101A9000002852D00020C4F2472001210160FFF746
:101AA00029FD0546306880073FF57CAFFFF722FD32
:101AB000401B0228F6D984E0A068012805D005283B
:101AC00050D1306F40F004003067306F40F00100BB
:101AD000306751E00021C0F8801EFFF70BFD05467E
:101AE000706F80077FF568AFFFF704FD401B022889
:101AF000F6D966E00027C4F2472700203866FFF7D2
:101B0000F9FC022D05460DD13068800140F1888036
:101B1000FFF7F0FC401B02284FF00300F4D902B09D
:101B2000BDE8F0813068800172D5FFF7E3FC401B0F
:101B300002284FF00300F5D9F1E70020C4F2472056
:101B400000210160FFF7D6FC054600BF3068800722
:101B50007FF52FAFFFF7CEFC401B02284FF00300AC
:101B6000F4D9DCE7316F002821F001013167316FD2
:101B700021F00401316774D0FFF7BCFC054641F247
:101B8000883700BF306F80077BD4FFF7B3FC401B62
:101B9000B842F7D915E03168002821F4803131606E
:101BA000316821F48021316074D0FFF7A3FC054631
:101BB000306880033FF5DFAEFFF79CFC401B6428D4
:101BC000F6D9032002B0BDE8F0817068E16900F445
:101BD00080028A4220D1216A00F03F028A421BD152
:101BE00047F6C071626A0140B1EB821F14D1A16A4D
:101BF0004FF6FF73C903994300F44032A1F58031D9
:101C00008A4209D1E16A00F07060B0EB016F03D144
:101C1000002002B0BDE8F081012002B0BDE8F081F3
:101C200004F11C052FCD084340EA8210D9034FF67A
:101C3000FF729143A1F5803140EA0560084370606E
:101C400001203866FFF756FC044600BF306880016B
:101C5000DED4FFF74FFC001B02284FF00300F5D93C
:101C60005DE7FFF747FC054641F28837306F800794
:101C700007D5FFF73FFC401BB8424FF00300F5D9F2
:101C80004DE7B8F1000F3FF59AAE306C20F0805070
:101C9000306494E6FFF72EFC054600BF30688003F1
:101CA0007FF569AEFFF726FC401B64284FF0030068
:101CB000F4D934E7704700007047000090F83C20EA
:101CC000012A4FF0020252D010B580F83D20026880
:101CD000D2F804E0D2F808C00C682EF07003234359
:101CE00041F2FF74C4F20004A24253600DDC40F2E2
:101CF000FF73C4F200039A4215DCB2F1804F29D081
:101D000040F20043C4F2000322E040F2FF33C4F289
:101D100001039A4212DC41F60003C4F200039A4226
:101D200018D0002312E040F60003C4F200039A42E8
:101D300010D040F60043C4F2000309E044F200036F
:101D4000C4F201039A4205D040F20043C4F20103F9
:101D50009A4204D149682CF0800319439160012113
:101D6000002280F83D1080F83C20BDE8104010466D
:101D700070470000002804BF0120704710B50446DA
:101D800090F83D0028B9002084F83C00204600F07F
:101D90001FF8022084F83D002068211D01F0FEFAA2
:101DA000012084F8460084F83E0084F83F0084F85F
:101DB000400084F8410084F8420084F8430084F82D
:101DC000440084F8450084F83D00002010BD000068
:101DD0000068B0F1804F18BF704780B582B0002016
:101DE000019043F64000C4F202000168002241F075
:101DF000010101600068052100F0010001900198D7
:101E00001C20FFF733FC1C2002B0BDE88040FFF728
:101E10001BBC000090F83D1001291CBF0120704739
:101E2000022180F83D10006841F2FF72C168C4F2DF
:101E30000002904241F00101C1600DDC40F2FF71EF
:101E4000C4F20001884215DCB0F1804F29D040F285
:101E50000041C4F2000122E040F2FF31C4F201016E
:101E6000884212DC41F60001C4F20001884218D019
:101E7000002112E040F60001C4F20001884210D0B7
:101E800040F60041C4F2000109E044F20001C4F24E
:101E90000101884205D040F20041C4F201018842AC
:101EA00006D1816801F00701062904BF00207047B0
:101EB000016841F0010101600020704790F83C206A
:101EC000012A4FF0020200F0C38080B580F83D2067
:101ED000D0F800C04FF67772DCF8083023EA02022F
:101EE000CCF808200B684F2B28DC1F2B44DD202B5F
:101EF00045D0302B43D0402B40F0AC80D1F804E0EB
:101F0000C968DCF82030DCF8202022F00102CCF88F
:101F10002020DCF8182022F0F00242EA011123F020
:101F20000A0242EA0E02CCF81810CCF82020DCF8A5
:101F3000081041F0470121F030017EE06F2B26DDD3
:101F4000B3F5005F47D0B3F5805F78D0702B40F0D9
:101F50008180D1E901E3C968DCF8082043EA0E0377
:101F600022F47F4243EA01211143CCF80810DCF847
:101F7000081041F0770160E00BB1102B6AD1DCF85A
:101F8000081021F07001194341F0070155E0502B72
:101F900034D0602B5ED1D1F804E0C968DCF8203081
:101FA000DCF8202022F01002CCF82020DCF81820E9
:101FB00022F4704242EA013123F0A00242EA0E12FA
:101FC000CCF81810CCF82020DCF8081041F067019C
:101FD00021F0100131E0D1E901E3C968DCF8082003
:101FE00043EA0E0322F47F4243EA01211143CCF875
:101FF0000810DCF8081041F480411EE0D1F804E03C
:10200000C968DCF82030DCF8202022F00102CCF88E
:102010002020DCF8182022F0F00242EA011123F01F
:102020000A0242EA0E02CCF81810CCF82020DCF8A4
:10203000081041F0570121F02001CCF808100022CF
:10204000012180F83D10002180F83C10BDE880405F
:10205000104670470122F3E77047000070B5044650
:102060000068C5680669B10716D515F0020113D0DE
:102070006FF002010161012121778069800703D09F
:102080002046FFF7E9FF05E0204600F08DF82046E6
:1020900000F08CF800202077700718D515F00400A8
:1020A00015D020686FF00401016102212177806959
:1020B00010F4407F03D02046FFF7CEFF05E0204616
:1020C00000F072F8204600F071F800202077300709
:1020D00017D515F0080014D020686FF008010161D1
:1020E00004212177C069800703D02046FFF7B4FFA1
:1020F00005E0204600F058F8204600F057F8002090
:102100002077F00618D515F0100015D020686FF074
:102110001001016108212177C06910F4407F03D0CC
:102120002046FFF799FF05E0204600F03DF82046E5
:1021300000F03CF800202077F00718BF15F00100F0
:1021400002D1300609D412E020686FF0010101616C
:10215000204600F02DF8300609D515F0800006D095
:1021600020686FF0800101612046FFF7A3FD700633
:1021700009D515F0400006D020686FF040010161DC
:10218000204600F01FF8B00658BF70BD15F02000C3
:1021900008D021686FF0200220460A61BDE8704037
:1021A000FFF78ABD70BD0000704700007047000057
:1021B000006840F20041C4F20001884218BF704735
:1021C000FFF79EB9704700007047000010B5044645
:1021D000206850E8030F216820F4907041E8030262
:1021E000BAB3206850E8030F216820F4907041E8EA
:1021F000030272B3206850E8030F216820F4907046
:1022000041E803022AB3206850E8030F216820F454
:10221000907041E80302002ADAD11AE0206850E801
:10222000050F216820F0010041E80502DAB12068BD
:1022300050E8050F216820F0010041E8050292B145
:10224000206850E8050F216820F0010041E80502F0
:102250004AB1206850E8050F216820F0010041E8EC
:102260000502002ADAD1206B012824D1206850E829
:10227000030F216820F0100041E80302DAB1206862
:1022800050E8030F216820F0100041E8030292B1EA
:10229000206850E8030F216820F0100041E8030295
:1022A0004AB1206850E8030F216820F0100041E88F
:1022B0000302002ADAD120684069400635D500BF04
:1022C000206850E8050F216820F0400041E8050231
:1022D000DAB1206850E8050F216820F0400041E89D
:1022E000050292B1206850E8050F216820F04000F7
:1022F00041E805024AB1206850E8050F216820F046
:10230000400041E80502002ADAD1E06B68B1002103
:102310000165FEF735FE40B1E06BFEF783FE202835
:1023200003D110206064032010BD00202021E0852F
:1023300084F84210206310BD40F68401C2F200010F
:10234000884218BF704780B540F68400C2F2000092
:10235000FFF73CFF40F27460C2F2000000680168C1
:1023600021F008010160BDE880407047B0B582B03F
:10237000044600680168C368426901F02F05202DFA
:1023800003F0200506D12DB1204602B0BDE8B040D3
:1023900001F0A4B85FEA017C1EBF02F0010E03F455
:1023A000907212EB0E0242D1226BCD0618D5012A93
:1023B00016D113F0100213D0002101910168019190
:1023C000416801910199406940063AD4A08DE18DA0
:1023D000E28D002A18BF884240F0ED8102B0B0BD06
:1023E0000A0640F1E28013F0800200F0DE8094F8EB
:1023F00041102129F2D1A168B1F5805F03D1216993
:10240000002900F05D82216A4A1C2262097841603D
:10241000E18C01390A04E184E0D1C16821F0800136
:10242000C160C16841F04001C16002B0B0BDCA07DF
:1024300018BF13F4807240F0CC804A0700F1CF80BF
:10244000D4E0E06B016849688AB2002AC6D0A38D47
:102450009A42C3D2E185C069B0F5807F00F09D80CB
:10246000206850E8030F216820F4807041E80302DF
:10247000DAB1206850E8030F216820F4807041E849
:10248000030292B1206850E8030F216820F48070A5
:1024900041E803024AB1206850E8030F216820F4A4
:1024A000807041E80302002ADAD1206850E8050F65
:1024B000216820F0010041E80502BAB3206850E825
:1024C000050F216820F0010041E8050272B3206881
:1024D00050E8050F216820F0010041E805022AB309
:1024E000206850E8050F216820F0010041E805024E
:1024F000002ADAD11AE0206850E8050F216820F0A0
:10250000400041E80502DAB1206850E8050F216873
:1025100020F0400041E8050292B1206850E8050F24
:10252000216820F0400041E805024AB1206850E8E7
:10253000050F216820F0400041E80502002ADAD1A9
:10254000202084F8420000202063206850E8030F18
:10255000216820F0100041E80302DAB1206850E859
:10256000030F216820F0100041E8030292B12068B7
:1025700050E8030F216820F0100041E803024AB13F
:10258000206850E8030F216820F0100041E80302A2
:10259000002ADAD1E06BFEF7F3FC02206063A08D25
:1025A000E18D401A81B220467FE149067FF516AFE2
:1025B00013F040013FF412AFC16821F04001C16047
:1025C0002021204684F8411002B0BDE8B04000F060
:1025D000F7BB626C42F0010262644A0706D5BEF1A5
:1025E000000F03D0626C42F0020262648A0706D5D3
:1025F000BEF1000F03D0626C42F004026264BCF1D1
:10260000000F06D55EEA050203D0626C42F00802B4
:102610006264626C002A3FF4E1AE890604D51DB104
:10262000204600F05BFF20684069616C00F04000CC
:1026300001F00801401800F0B78000BF206850E8A2
:10264000030F216820F4907041E80302BAB32068B8
:1026500050E8030F216820F4907041E8030272B340
:10266000206850E8030F216820F4907041E80302CD
:102670002AB3206850E8030F216820F4907041E8E5
:102680000302002ADAD11AE0206850E8050F216819
:1026900020F0010041E80502DAB1206850E8050F9A
:1026A000216820F0010041E8050292B1206850E85D
:1026B000050F216820F0010041E805024AB12068B9
:1026C00050E8050F216820F0010041E80502002ACA
:1026D000DAD1206B012824D1206850E8030F21684B
:1026E00020F0100041E80302DAB1206850E8030F3F
:1026F000216820F0100041E8030292B1206850E800
:10270000030F216820F0100041E803024AB120685D
:1027100050E8030F216820F0100041E80302002A6E
:10272000DAD1202084F8420000202063206840692C
:10273000400640F1BF80206850E8050F216820F076
:10274000400041E80502DAB1206850E8050F216831
:1027500020F0400041E8050292B1206850E8050FE2
:10276000216820F0400041E805024AB1206850E8A5
:10277000050F216820F0400041E80502002ADAD167
:10278000E06B002800F0968043F2D141C0F60001D2
:102790000165FEF735FC00283FF420AEE06B016DCB
:1027A00002B0BDE8B04008472046FFF7C5FD002055
:1027B000606402B0B0BD401A216851E8031F22686E
:1027C00021F4907142E80313BBB3216851E8031F61
:1027D000226821F4907142E8031373B3216851E831
:1027E000031F226821F4907142E803132BB3216880
:1027F00051E8031F226821F4907142E80313002B73
:10280000DAD11AE0216851E8051F226821F00101A0
:1028100042E80513DBB1216851E8051F226821F069
:10282000010142E8051393B1216851E8051F2268B0
:1028300021F0010142E805134BB1216851E8051F61
:10284000226821F0010142E80513002BDAD1202192
:1028500084F8421000212163216851E8031F226897
:1028600021F0100142E80313DBB1216851E8031F96
:10287000226821F0100142E8031393B1216851E866
:10288000031F226821F0100142E803134BB12168B5
:1028900051E8031F226821F0100142E80313002BC6
:1028A000DAD1022281B22046626302B0BDE8B040B4
:1028B000FFF78ABC204602B0BDE8B040FFF73CBD40
:1028C000216A31F8022B6FF35F22426021629FE59B
:1028D000002804BF0120704710B5044690F841005D
:1028E00028B9002084F84000204600F021F8242078
:1028F00084F841002068C16821F40051C16020467D
:1029000000F06AFE2068016921F49041016141698B
:1029100021F02A014161C16841F40051C1600020E9
:102920002021606484F8411084F84210606310BD77
:102930002DE9F04387B00446006844F6FF31C4F245
:10294000000188424FF000010691CDE90411CDE964
:10295000021143DD41F20041C4F20101884200F05E
:10296000978041F20001C4F20101884200F0DF804B
:1029700044F60041C4F20001884240F0D5800020B6
:1029800043F630010190C4F202010A6942F40022C8
:102990000A610A6902F400220192019A01900A6810
:1029A00042F004020A60096801F0040101910199F2
:1029B0004FF4406102910221CDE9031003200590FC
:1029C0000820069040F60040C4F20200A0F58060A6
:1029D00002A9FEF7B9FC07B0BDE8F08344F200415C
:1029E000C4F20001884200F0D58044F60001C4F230
:1029F0000001884240F09880002643F6300001969E
:102A0000C4F20200016940F6004441F480210161F2
:102A10000169C4F2020401F4802101910199019637
:102A2000016802AD41F00201016001684FF0020847
:102A300001F0020101910199019601684FF003092B
:102A400041F0080101600068072700F008000190CC
:102A500001984FF498400290A4F500602946CDE912
:102A60000386CDF814900697FEF76EFC4FF40060D5
:102A7000CDE9020820462946CDE904690697FEF70C
:102A800063FC272005210022FEF7F0FD2720CEE081
:102A9000002643F630000196C4F20200416941F07D
:102AA00020014161416901F02001019101990196E4
:102AB000016841F040010160006802A900F0400097
:102AC000019001984FF4844002900220CDE9030662
:102AD000032005900820069040F60040C4F2020052
:102AE00000F54060FEF730FC46F28800C4F20200B8
:102AF00040F2746500F56870C2F200054FF0206185
:102B00004FF4806285E843002846C5E90362C5E9C1
:102B10000566C5E907666E62FEF764FB002818BF0C
:102B2000FDF766FEE563AC6307B0BDE8F083002007
:102B300043F630010190C4F202014A6942F01002EA
:102B40004A614A6902F010020192019A01900A68F2
:102B500042F001020A60096801F001010191019946
:102B60004FF4C06102910221CDE9031003200590CA
:102B70000720069040F60040C4F20200A0F5406035
:102B800002A9FEF7E1FB252005210022FEF76EFDDC
:102B900025204CE0002643F630000196C4F20200E6
:102BA000016941F400310161016901F400310191D1
:102BB00001990196016841F008010160006802A9CD
:102BC00000F0080001900198602002900220CDE9F9
:102BD0000306032005900720069040F60040C4F24B
:102BE0000200FEF7B1FB40F2146546F28800C2F223
:102BF0000005C4F202004FF000614FF4806285E8E6
:102C000043002846C5E90362C5E90566C5E90766CC
:102C10006E62FEF7E7FA002818BFFDF7E9FD2620EF
:102C200005210022E563AC63FEF720FD2620FEF7B8
:102C30000BFD07B0BDE8F08390F84230202B07D1A0
:102C400000294FF0010318BF002A04D1184670472D
:102C50000223184670470023036381622221828584
:102C6000C285436480F842100169006819B1C168E7
:102C700041F48071C160416941F001014161C16865
:102C800041F02001C160184670470000F0B581B0E6
:102C900040F28455C2F20005296801291CDB40F28C
:102CA0005C5704460026C2F2000702E001368E425D
:102CB00012DA57F826004268A242F7D10268017A78
:102CC0001268904757F82600012200F108012046BB
:102CD000FFF7B2FF2968E9E701B0F0BD2DE9F04345
:102CE00081B0044690F8410020281CD18946002973
:102CF0004FF0010061D01646002A5ED000206064CB
:102D000021201D4684F84100FEF7F4FBA684E684EA
:102D1000A1680646B1F5805F01D1206938B1C84687
:102D20004FF0000905E0022001B0BDE8F0834FF04C
:102D30000008E18C206829B36F1C0BE0B8F1000F8C
:102D400019D018F8011B4160E18C0139E184E18C54
:102D5000C1B100BF01680906F0D4002FFAD0FEF718
:102D6000C9FB01464FF0030025B3891BA94221D8B6
:102D70002068C168EEE739F8021B4FF000086FF3D6
:102D80005F21E0E70168490613D46F1C03E000BF30
:102D9000016849060DD4002FFAD0FEF7ABFB0146BF
:102DA0004FF0030035B1891BA94203D82068C168E0
:102DB000EEE70020202184F8411001B0BDE8F08347
:102DC00070470000FEE7000010B540F2C45046F224
:102DD0000041C2F20000C4F20001032200234FF0C0
:102DE000012480E80E0000F10C014FF4002C4FF498
:102DF000401E81E8085084618383FDF733FF00287B
:102E000008BF10BDBDE81040FDF7F2BC80B540F230
:102E1000EC5046F60001C2F20000C4F200010322A9
:102E2000002380E80E0000F10C014FF4002C4FF459
:102E3000401E81E808504FF480710183C0F81A30B9
:102E4000FDF710FF002808BF80BDBDE88040FDF7FA
:102E5000CFBC000080B582B0002043F63001019065
:102E6000C4F202010A6842F400120A600A6802F41D
:102E700000120192019A00900868002240F480003C
:102E800008600868072100F4800000900098102076
:102E9000FEF7ECFB1020FEF7D7FB392005210022BE
:102EA000FEF7E4FB392002B0BDE88040FEF7CCBB62
:102EB0002DE9F04F87B0002443F63000CDE90544FA
:102EC0000194C4F20200016840F2000941F00401DB
:102ED00001600168C4F2020901F004010191019945
:102EE0000194016809F5A05541F0200101600168D5
:102EF000002201F0200101910199019401684FF035
:102F0000800B41F080010160016801F080010191B6
:102F100001990194016841F001010160016801F02B
:102F20000101019101990194016841F010010160D2
:102F3000016801F01001019101990194016841F0CB
:102F400002010160016801F00201019101990194FF
:102F5000016841F008010160016801F00801019178
:102F600001990194016841F04001016000688021ED
:102F700000F04000019001982846FEF7B5FA484657
:102F80004FF4C17101220127FEF7AEFA09F5805A0C
:102F900050464FF400610122FEF7A6FA09F5806859
:102FA000404610210122FEF79FFA402002904FF484
:102FB000881002AECDE9030428463146FEF7C4F975
:102FC0000220CDE9040028463146CDE902B7FEF7DC
:102FD000BBF948463146CDE902740497FEF7B4F9CF
:102FE0004FF4C170CDE9020748463146CDE9047778
:102FF000FEF7AAF94FF40060CDE9020750463146CA
:10300000CDE90477FEF7A0F94FF4004002A991C181
:1030100040463146FEF798F94FF4804002A991C12D
:1030200009F540603146FEF78FF94FF4007002A9B0
:1030300091C109F500603146FEF786F91020CDE90F
:10304000020740463146CDE90477FEF77DF91720A7
:1030500000210022FEF70AFB1720FEF7F5FA07B061
:10306000BDE8F08F80B586B040F2D4600021C2F296
:10307000000042F2107C0591CDE90311CDE9001169
:103080004FF080425323C0E9021C01618021C0E956
:1030900000238161FEF76EFE002818BFFDF7A8FB34
:1030A0004FF48050029040F2D460C2F2000002A9B6
:1030B000FEF704FF002818BFFDF79AFB40F2D4602A
:1030C000C2F200006946FEF7F9FD002818BFFDF7BF
:1030D0008FFB06B080BD000080B540F63C0044F692
:1030E0000041C2F20000C4F2000100234FF00C0CBA
:1030F0004FF4E13280E80E00C0E90333C0E905C3B4
:10310000C361FFF7E5FB002808BF80BDBDE8804034
:10311000FDF76EBB80B540F2647041F20001C2F26F
:103120000000C4F2010100234FF00C0C4FF4E13217
:1031300080E80E00C0E90333C0E905C3C361FFF7AF
:10314000C7FB002808BF80BDBDE88040FDF750BB2D
:1031500080B540F2AC7044F20041C2F20000C4F20B
:10316000000100234FF00C0C4FF4E13280E80E0018
:10317000C0E90333C0E905C3C361FFF7A9FB002819
:1031800008BF80BDBDE88040FDF732BB80B540F28E
:10319000F47044F60001C2F20000C4F20001002302
:1031A0004FF00C0C4FF4407E4FF4E13280E80E00FB
:1031B000C0E90333C0E905CEC361FFF789FB0028EE
:1031C00008BF80BDBDE88040FDF712BB80B540F66A
:1031D000840041F20041C2F20000C4F20101002368
:1031E0004FF00C0C4FF4165280E80E00C0E9033388
:1031F000C0E905C3C361FFF76BFB002808BF80BDB2
:10320000BDE88040FDF7F4BAFEE70000FEE70000ED
:10321000EFF30980BFF36F8F154B1A681EF0100F84
:1032200008BF20ED108A20E9F04F10602DE9090059
:103230004FF0500080F31188BFF34F8FBFF36F8FB3
:1032400002F03EF84FF0000080F31188BDE809005D
:1032500019680868B0E8F04F1EF0100F08BFB0EC16
:10326000108A80F30988BFF36F8F704700BF00BFDB
:10327000CC09002000000000000000000000000059
:10328000074B19680868B0E8F04F80F30988BFF36E
:103290006F8F4FF0000080F31188704700BF00BFB0
:1032A000CC09002080B54EF21000CEF2000000687C
:1032B00002F0C4FC012808BF80BDBDE8804002F0D8
:1032C00027B90000B0B592B0002443F64000CDE924
:1032D0000A44CDE908440594CDE90344CDE901440D
:1032E0000094C4F202000168022541F0805101609F
:1032F000006800F080500090009847F200000094B1
:10330000C4F20000016841F480410160006800F4EB
:10331000804000900098012006904FF48030079084
:103320004FF480000D9008200E904FF4A870CDE966
:103330000F050420119006A80C95FEF701FB10B1B3
:1033400072B600BFFEE70F20CDE901054FF4A05093
:1033500004904FF48050059001A805210394FEF7D6
:10336000C1F910B172B600BFFEE712B0B0BD0000E7
:103370004EF68850CEF20000016841F47001016001
:103380007047000040F2D460C2F20000FEF766BE53
:1033900040F21C70C2F20000FEF760BE10B540F6AD
:1033A000FF3E0368C4F2000E40F2004C7045C4F2C8
:1033B000010C0FDCB0F1804F19D040F20042C4F292
:1033C0000002904213D040F60002C4F20002904284
:1033D0000DD010E040F60042C4F20002904206D048
:1033E000604504D00022C4F20102904203D14A6831
:1033F00023F07003134341F6FF72C4F200029042BF
:103400000DDC70451FDCB0F1804F41D040F200422E
:10341000C4F2000290423BD040F6000221E043F6A5
:10342000FF72C4F20102904220DC42F20002C4F2B8
:10343000000290422CD00022C4F20102904227D018
:10344000604525D028E040F60042C4F200029042D8
:103450001ED041F60002C4F20002904218D041F69C
:103460000042C4F20002904212D015E044F2000281
:10347000C4F2010290420BD044F60002C4F20102F1
:10348000904205D044F20042C4F20102904203D1BE
:10349000CA6823F44073134323F080024B69D1F8C8
:1034A00000E08C681A430260C46240F48062C0F895
:1034B00028E0624504BF0969016301214161016996
:1034C000C90708BF10BD016921F00101016110BDEC
:1034D000806B0021C185C184FEF72EBF81B090F8BA
:1034E0004210222920D183680246B3F5805F08D1BB
:1034F00052F8281F52F8183C002B61D003685B6813
:1035000009E052F8281F13B90369002BF6D00368AD
:103510005B6803F07F030B70116801311160C18D8E
:1035200001390A04C18501D001B070470168CA6839
:1035300022F02002CA60CA6822F48072CA604A6916
:1035400022F001024A61202180F8421000214163EB
:10355000026B012A3CD10163016851E8031F026834
:1035600021F0100142E80313DBB1016851E8031FA9
:10357000026821F0100142E8031393B1016851E899
:10358000031F026821F0100142E803134BB10168E8
:1035900051E8031F026821F0100142E80313002BD9
:1035A000DAD101680A68D20606D5002200920A68BC
:1035B0000092496800910099818D01B0FEF704BE28
:1035C000026852686FF35F2221F8022B8162A6E73E
:1035D00001B0FFF75BBB000010B504460068D4E9FA
:1035E00002C22369016921F44051114301616269FA
:1035F00043EA0C01E3691143C268194349F20C63C1
:103600009A431143C1604169A26921F4407141F2BA
:103610000043114340F48062C4F201039A424161C5
:1036200002D1FEF743F901E0FEF72CF9E169636886
:103630001922B1F5004FA0FB020120D15A00DB0F87
:10364000FCF73AFE48F21F51C5F2EB11A0FB012333
:103650005A094FF69C73C0F6FF7303F1805302FBC7
:103660000300322303EBC000A0FB01014FF4F8700C
:1036700000EA111000EB0210C1F342111CE09A00A5
:103680009B0FFCF719FE48F21F51C5F2EB11A0FB8E
:1036900001235A094FF69C73C0F6FF7302FB030027
:1036A000322303EB0010A0FB0101F02000EA5110CF
:1036B00000EB0210C1F3431108442168886010BD7B
:1036C00040F26470C2F20000FEF750BE40F2AC70EF
:1036D000C2F20000FEF74ABE40F2F470C2F20000EF
:1036E000FEF744BEFEE7000080B540F6446040F2BD
:1036F000AC71C2F20000C2F20001012200F022FA15
:103700009FED130A40F2884040F2F471C2F20000CB
:10371000C2F20001F0EE400A00F0E4FB40F6E47073
:10372000C2F2000000F0AAFA40F2B050C2F200006B
:1037300000F08CF840F6CC0040F2C452C2F2000017
:10374000C2F2000200210123BDE8804000F0FEBB70
:10375000000000007047000080B58AB000200422FD
:10376000CDE9050001210090CDE90120CDE903005C
:1037700040F2C45007910891C2F200006946FDF77B
:103780004FF8002818BFFDF733F840F2C450C2F2DA
:103790000000FDF7B9FB002818BFFDF729F840F23B
:1037A000C450C2F200000221FDF726F8002818BF1D
:1037B000FDF71EF840F24450C2F20000002104223E
:1037C0000823C0E90112C0E9031301750AB080BDE6
:1037D00080B58AB00E200122059000210423CDE996
:1037E000082040F2EC5006910091CDE90131CDE97D
:1037F0000311C2F2000069460792FDF711F8002894
:1038000018BFFCF7F5FF40F2EC50C2F20000FDF7E4
:103810007BFB002818BFFCF7EBFF40F2EC50C2F234
:1038200000000221FCF7E8FF002818BFFCF7E0FFCA
:1038300040F24450C2F20000002104220823C0E9F3
:103840000112C0E9031301750AB080BD10B504462A
:10385000302020710020C4F80500C4F80900C4F825
:103860000D00206146F2E020C0F600000830206024
:10387000FFF772FFFFF7ACFF40F2C450C2F2000046
:103880000221FCF7B9FF40F2EC50C2F20000022125
:10389000FCF7B2FF204610BD142100F0A8BC0000C8
:1038A000F0B581B0054600F59C774FF6FC3095F8F1
:1038B000AC10A5F8380195F8AF0085F83A0185F805
:1038C0003B1119B3042901F0030001D200220BE0DF
:1038D00001F0FC03002200BFAE18D6F8F440043219
:1038E0009342C6F83C41F7D180B105F1F404A65CDF
:1038F0005319012883F83C6108D0224456780228E5
:1039000083F83D611CBF907883F83E0105F1F40017
:10391000FCF7F0FE95F8AC10A5F834016E1886F8A7
:103920003C01000A86F83D0168684FF6FD6539469E
:1039300048224FF0FF33A6F83E5101B0BDE8F040F9
:10394000FFF7CCB92DE9F04381B0044690F89C0113
:10395000082800F2F180DFE800F005101C2027366F
:103960003A3E4A00FC293FD1012084F89C01FC200A
:1039700084F8210001B0BDE8F083FB2940F0DC8031
:10398000022084F89C01FB2084F8220001B0BDE8ED
:10399000F08384F823100320CFE0002084F8201067
:1039A00084F880010420C8E0204610F8202F90F809
:1039B00060315F1CFEB280F86071184496428171DC
:1039C00012D30520B9E084F8A8100620B5E084F8E9
:1039D000A9100720B1E0FD2940F0AE80082084F84E
:1039E0009C01FD2084F8AA0001B0BDE8F083FE2907
:1039F00040F0A28094F8812194F82010FE20002A43
:103A000084F8AB0055D004F12600FCF773FEB4F83F
:103A1000A810A084884246D194F8201021B304292C
:103A200001F0030001D2002109E001F0FC020021B5
:103A30006318D3F8267004318A429F66F8D198B192
:103A4000631893F8263004F16802012853540BD010
:103A50004B1CE71897F826700228D75404D0881C0E
:103A6000211891F826101154D4F89811012917DB68
:103A700094F8238004F1680604F5C279002502E079
:103A800001358D420CDA59F825000028F8D001687C
:103A900032468F6841463346B847D4F89811EFE76D
:103AA000002084F89C0194F88101002844D194F806
:103AB000201029B3042901F0030001D200210AE0FB
:103AC00001F0FC02002100BF6318D3F82670043116
:103AD0008A429F66F8D198B1631893F8263004F1B2
:103AE0006802012853540BD04B1CE71897F8267036
:103AF0000228D75404D0881C211891F8261011549C
:103B0000D4F89811012917DB94F8238004F1680692
:103B100004F5C279002502E001358D420CDA59F82E
:103B200025000028F8D0016832468F6841463346A8
:103B3000B847D4F89811EFE7002084F89C0101B051
:103B4000BDE8F08370B51546044600F029F9302031
:103B5000207446F2F420C0F6000000F10801203085
:103B600000262160E06004F168004021C4F8116083
:103B7000C4F81560C4F81960E66184F8206084F820
:103B80002360A684FCF77FFC04F1F400402184F854
:103B9000AC6084F8AF60A4F8B060FCF774FC204619
:103BA00084F8806184F88151C4E96166C4E9636680
:103BB000C4E9656684F89C6170BD00004FF4D07163
:103BC00000F015BB7047000040F20801C2F200018E
:103BD000682200FB021044F6D35900F1600400F1A2
:103BE0000C0500F110064FF47A78C1F2620907E083
:103BF000286800FB08F0A0FB0901880901F02EFAF3
:103C000021680129F4DB002703E000BF01378F4260
:103C1000EEDA56F827000028F8D0016809688847CE
:103C20002168F3E710B582B0092914D840F2080ED4
:103C3000C2F2000E682001FB00EC0B46614651F811
:103C4000600F132807DC0CEB80042261DCF80020F5
:103C5000013008600AB102B010BD682003FB00E02B
:103C6000B0F86420C47A011D43F6C930C0F60000E4
:103C7000CDE9004C01F076FF02B010BD80B540F2F6
:103C80000801C2F2000143F25F020A8143F25F12AF
:103C9000A1F8702043F25F22A1F8D82043F25F32EE
:103CA000A1F8402143F25F42A1F8A82143F25F52FC
:103CB000A1F8102243F25F62A1F8782243F25F720A
:103CC000A1F8E02243F65F02A1F8482343F65F1211
:103CD000A1F8B023052246F27413CA724FF0040E05
:103CE000C1F8DC20C1F844210222C6F6733381F802
:103CF00073E081F8DBE04FF0030E81F8132281F8C6
:103D00007B220F224B604FF0000CCB66C1F8D43001
:103D1000C1F83C31C1F8A431C1F80C32C1F8743299
:103D2000C1F8DC32C1F84433C1F8AC33012381F867
:103D300043E181F8ABE14FF00A0EC1F87C22C1F8F3
:103D4000E422142281F80AC081F872C081F8DAC036
:103D500081F842C181F8AAC181F812C281F87AC201
:103D600081F8E2C281F84AC381F8B2C3CB604B67E5
:103D7000C1F8ACE1C1F814E281F8E33281F84B33C9
:103D8000C1F84C2381F8B3C3C1F8B42380BD00004F
:103D9000426800F1080110460122FEF74DBF000005
:103DA00080B540F2845EC2F2000E46F2203CDEF89E
:103DB0000020C0F6000C0CF10803092AC0E900310C
:103DC000C8BF80BD511CCEF8001040F25C51C2F259
:103DD000000141F8220080BD70470000827A042A69
:103DE00000F27C80DFE802F00375071418000D294B
:103DF00076D1012173E0C27A00EB020C0132D3B21A
:103E0000182BC2728CF8441038BF7047032166E04B
:103E10000A2963D1042162E00D295FD190F8441092
:103E2000D0F8452080F86010D0F84910C0F8612023
:103E3000D0F84D20C0F86510D0F85110C0F86920B6
:103E4000D0F85520C0F86D10C0F8712090ED060A2A
:103E500090ED082A90ED184A90ED1B5A90ED071A44
:103E600090ED0C3A90ED1C6A35EE407A80ED030A35
:103E700034EE420A76EE410A80ED041A80ED0B0A18
:103E800030EE030A90ED0D1A80ED0C0AB1EE400AF7
:103E900080ED220A37EE010A90ED0E1AB0F85910A3
:103EA00090F85B2080ED0D0A30EE810AA0F87510C5
:103EB00080F8772080ED052A80ED065A80ED076AAC
:103EC00080ED084A80ED097AC0ED0A0A80ED0E0AFD
:103ED00004E00A2902BF022141817047002181725A
:103EE00070470000B0B52DED048BB0EE608AB0EEE7
:103EF000409A0446FFF754FF46F22C30C0F600000B
:103F0000083020600020C4E91800C4E91A00C4E9A0
:103F10001C00A4F8780004F17C00282104F10905B4
:103F2000FCF7B1FA28465521FCF78BFA84ED0F9A7D
:103F3000204684ED108ABDEC048BB0BD70470000B4
:103F4000704700000C2070470C2070472DE9F04F9F
:103F500046F23837C0F6000708370029C0E900727A
:103F60000172437278D140F2C457C2F20007BA42DC
:103F700072D140F2A85CC2F2000CDCF800A0BAF1E9
:103F8000030F69DC40F2885BBAF1010FC2F2000B4B
:103F9000D6465BDBDBF800506D7A9D4204D94FF0CA
:103FA000000EF2451CDC51E0BAF1010FD6464DD0AF
:103FB000DBF804506D7A9D4204D94FF0010EF245B2
:103FC0000EDC43E0BAF1020FD6463FD0DBF80850D2
:103FD000D6466D7A9D4239D94FF0020EF24535DD55
:103FE000AAEB0E066FEA0E070AEB070816F00307A6
:103FF000564617D0AAF101065BF82690012F4BF820
:104000002A900FD0AAF102095BF82940022F4BF841
:10401000264001D14E4605E0AAF103065BF8267062
:104020004BF82970B8F1030F10D30BEB8607083F4C
:10403000D7E90054043EC7E9015457E902547645D4
:104040003C6047F8045CA7F11007F1DC0AF10107B6
:104050004BF82E00CCF80070002969D140F2EC51E9
:10406000C2F200018A4263D140F2AC51C2F20001B7
:104070000D68032DC8BFBDE8F08F40F2985C012D9C
:10408000C2F2000C2A464FDBDCF80020527A9A423A
:1040900003D90022954218DC46E0012D2A4643D080
:1040A000DCF80420527A9A4203D9012295420CDCB2
:1040B0003AE0022D2A4637D0DCF80820527A9A429C
:1040C0002A4631D9022295422EDDAB1AD7432F441E
:1040D00013F003062B4614D06B1E5CF82340012E10
:1040E0004CF825400DD0AC1E5CF824E0022E4CF8B4
:1040F00023E001D1234604E0EB1E5CF823604CF87A
:104100002460032F10D30CEB8307083FD7E9004648
:10411000043BC7E9014657E9024693423E6047F82F
:10412000044CA7F11007F1DC4CF822006A1C0A606D
:10413000BDE8F08F2DE9F0410546A0F10C0600F531
:1041400096784FF6FC3095F8A010A5F82C0195F85C
:10415000A30085F82E0185F82F1119B3042901F069
:10416000030001D200220BE001F0FC03002200BF9B
:10417000AC18D4F8E87004329342C4F83071F7D127
:1041800080B105F1E804A75C9319012883F83C711C
:1041900008D022445778022883F83D711CBF9078DC
:1041A00083F83E0105F1E800FCF7A4FA95F8A010A9
:1041B000A5F82801771887F83C01000A87F83D0127
:1041C00055F8080C4FF6FD66414648224FF0FF3384
:1041D000A7F83E61BDE8F041FEF780BD0C384FF412
:1041E000D07100F004B800007047FCF78DB9FFF7FC
:1041F000FCBF000001A000F011F800BF507572650F
:10420000207669727475616C2066756E6374696F6F
:104210006E2063616C6C656421000000FCF7D2F9CC
:1042200010B540F64464C2F200042046FFF7B0FD2A
:1042300040F28840C2F20000FFF7AAFD40F6E470A9
:1042400004F10C02C2F200000021FFF7EBFCBDE814
:10425000104000F039B80000FDF760F9FFF732F8C0
:10426000FEF726FEFEF7F6FDFEF7AEFDFEF752FF67
:10427000FEF7CCFDFEF7F6FEFEF788FFFEF72CFFFB
:10428000FEF766FFFEF7A2FF40F2D460C2F2000024
:10429000FDF7C0FD00F004F8FFF7C2FFFEE70000E5
:1042A000EFF3058000281CBF6FF00500704740F257
:1042B0003050C2F200000168002911BF4FF0FF30FA
:1042C000012101600020704710B5EFF30580002840
:1042D0001CBF6FF0050010BD40F23050C2F200006C
:1042E000016801291CBF4FF0FF3010BD4EF61F5171
:1042F000CEF2000100240C700221016000F054FF96
:10430000204610BDF0B581B00D4645F2B83140F6FB
:10431000CC16C2F20001C2F200060F6831680446F2
:10432000081D00F0EFFC601C0BD155B13068011D79
:1043300045F29030C2F2000001B0BDE8F04000F05C
:104340004FBD3068E41944600BD340F6DC10C2F274
:10435000000000683168043101B0BDE8F04000F0B1
:104360000FBD40F6D410C2F200000068316804317D
:1043700000F006FD45F21C30C2F2000001688C42DC
:1043800038BF046001B0F0BD2DE9F047044600F0ED
:104390003FFD44F6F030C2F20000016840F6CC1751
:1043A00001310160C2F20007396845F2843A40F6F3
:1043B000E416C2F2000AC2F2000651B1DAF80000B7
:1043C00000283ED13868E16AC06A884298BF3C60E4
:1043D00037E03C600068012833D10025701900F0F7
:1043E000BFFC1435B5F58C6FF8D145F2E828C2F260
:1043F0000008404600F0B4FC45F2FC29C2F2000976
:10440000484600F0ADFC45F23030C2F2000000F04A
:10441000A7FC45F2A430C2F2000000F0A1FC45F276
:104420009030C2F2000000F09BFC40F6D410C2F2C3
:104430000000C0F8008040F6DC10C2F20000C0F8B6
:10444000009044F6FC30C2F20000016801310160C6
:10445000616444F60041C2F20001E06A0A689042D9
:1044600088BF086000EB800006EB8000211D00F093
:10447000B7FC00F0F1FCDAF8000088B13868E16AB6
:10448000C06A884228BFBDE8F0874EF60450CEF2DD
:1044900000004FF080510160BFF34F8FBFF36F8F6B
:1044A000BDE8F08770B582B000F0B2FC45F2BC36D2
:1044B000C2F20006306850BB45F2BC24C2F20004D0
:1044C000204600F04DFC45F2D025C2F200052846FA
:1044D00000F046FC40F6D010C2F20000046040F646
:1044E000E010C2F2000040F6D80240F678130560F2
:1044F0000025C2F20002C2F200030A20102100953A
:1045000001F01EF8306010B103A100F049FD02B0C7
:10451000BDE8704000F0A0BC546D72510000000076
:1045200044F6F43540F6E41A4EF6045845F2A43742
:1045300044F6F036C2F20005C2F2000ACEF20008DC
:104540004FF08059C2F20007C2F2000603E000BF3C
:10455000204600F099FC2868C8B100F059FCF868C2
:10456000C468201D00F0CEFB306801383060286838
:104570000138286000F070FC94F859000228EAD055
:104580000128E5D070B9206B00F07EFCE0E7DAF896
:1045900000000228DFD3C8F80090BFF34F8FBFF3AD
:1045A0006F8FD8E74FF0500080F31188BFF36F8F03
:1045B000BFF34F8FFEE700002DE9F0470A9C8246CB
:1045C000206B16460F46DDE908599100A522984652
:1045D000FBF72FFF206B002F00EB8600A0F10400FB
:1045E00020F0070655D0387884F834003878002851
:1045F0004BD0787884F835007878002845D0B878A2
:1046000084F83600B87800283FD0F87884F837006E
:10461000F878D0B3387984F838003879A8B3787945
:1046200084F83900787980B3B87984F83A00B87999
:1046300058B3F87984F83B00F87930B3387A84F8C5
:104640003C00387A08B3787A84F83D00787AE0B193
:10465000B87A84F83E00B87AB8B1F87A84F83F00A6
:10466000F87A90B1387B84F84000387B68B1787B69
:1046700084F84100787B40B1B87B84F84200B87B75
:1046800000281CBFF87B84F84300002084F8430016
:1046900002E0002084F834000027201D372D28BFB9
:1046A0003725E562C4E9135700F066FB04F11800F2
:1046B00000F062FBC5F13800A06130465146424629
:1046C00024616462676584F8587000F009FBB9F1F1
:1046D000000F206018BFC9F80040BDE8F087000057
:1046E00008480068006880F308884FF0000080F3F5
:1046F000148862B661B6BFF34F8FBFF36F8F00DFD0
:1047000000BF000008ED00E02DE9F04F85B08246C3
:1047100001F0A8FA40F6C819C2F20009D9F8001051
:104720000546884243D240F6D014C2F20004206805
:10473000016800293DD045F2BC3BC2F2000B08E005
:104740007860206831463F6100F01AFB20680168FC
:1047500079B3C068C768D0F800803E1D304600F0CD
:10476000D1FA396A3846884797F828004007EDD5CE
:10477000B86940444045E3D8DBF8000070B1002040
:10478000CDE90108039701F059FADBF8000001A90F
:104790000022002300F042FF0028D7D14FF0500044
:1047A00080F31188BFF36F8FBFF34F8FFEE70020B8
:1047B00007E040F6E011C2F200010A68086001203B
:1047C0002260CAF800002846C9F8005005B0BDE8CC
:1047D000F08F000081B00020009040F22040C2F233
:1047E000000000684FF0500181F31188BFF36F8F14
:1047F000BFF34F8F013007D0FEE700BF009830B9FC
:10480000009820B9009810B900980028F6D001B09F
:10481000704700008AB040F6D01A40F6E01645F224
:10482000BC38C2F2000A02ACC2F20006C2F20008B2
:104830000DF10409DAF8000007681FB1C068D0F86C
:1048400000B001E04FF0000B00F032FD2046FFF712
:104850005BFF029911B101F055FB6AE00546A7B173
:104860005D4512D301F04EFBDAF80000C068C7685E
:104870003E1D304600F046FA97F82800410707D45D
:1048800000F0FE0087F8280046E0B7B1002219E0EA
:10489000B8693F6100EB0B017960A942514607D826
:1048A000A5EB0B01814240F6E011C2F200011ED2DD
:1048B0000868314600F064FA2EE030680068B0FA0B
:1048C00080F04209D8F80000ABEB050100F0A2FB34
:1048D00001F018FB68BB4EF60450CEF200004FF01A
:1048E00080510160BFF34F8FBFF36F8F21E0D8F885
:1048F0000000002800F0B1800020CDE9060B0897E9
:1049000001F09CF9D8F8000006A90022002300F06D
:1049100085FE002800F0A180396A3846884740F6B5
:10492000E016C2F2000604E0504600BF006800F046
:1049300027FAD8F800002146002200F0BBFF00282B
:104940003FF478AF0298B0F1FF3F06DCDDE90320C9
:104950000599904702980028EBD4049F786910B11C
:10496000381D00F0CFF94846FFF7CEFE029909291D
:10497000DFD8DFE801F00505053B3E5105053B3E6C
:1049800097F82810039ABD6941F0010187F82810B3
:10499000AB18394641F8043F83423F6105D9904244
:1049A000C2D29342504604D2C0E7801AA842304691
:1049B000BCD3396A3846884797F828004007B8D5ED
:1049C000D8F80000A8B30398B969089708440021F3
:1049D000CDE9061001F032F9D8F8000006A900224E
:1049E000002300F01BFE0028A3D122E097F8280046
:1049F0001AE097F8281041F00102039987F828205F
:104A0000B96101B30A1839468242304641F8042F91
:104A10003F6188BF504689E797F82800810703D493
:104A2000384600F031FA84E700F0FE0087F82800ED
:104A30007FE74FF0500080F31188BFF36F8FBFF313
:104A40004F8F00BFFEE74FF0500080F31188BFF397
:104A50006F8FBFF34F8F00BFFEE74FF0500080F322
:104A60001188BFF36F8FBFF34F8F00BFFEE70000C9
:104A7000F0B581B0044600F0CBF994F94560012E01
:104A80000FDB04F1240500BF286850B1284601F06F
:104A9000F1F9002818BF00F043FB70B2013E012875
:104AA000F2DCFF2684F8456000F0D6F900F0B0F99A
:104AB00094F94470012F0EDB04F11005286850B101
:104AC000284601F0D7F9002818BF00F029FB78B27A
:104AD000013F0128F2DC84F8446001B0BDE8F040F9
:104AE00000F0BAB92DE9F041044600F0E1FB40F6D0
:104AF000D811C2F20001086845F2E428C2F20008A9
:104B000030B198F80000002818BF4FF000402BE0AB
:104B100040F6E570C2F20000C21D430700F5705375
:104B200018BF22F0070045F28832C2F200020027C7
:104B3000C2E9000723F00702A2F108030B6042E973
:104B400002771A1A0B68C0E9003245F21830C2F237
:104B50000000026045F21030C2F200000260012045
:104B600088F800004FF00040002C4FF0000500F0E6
:104B7000A780204040F0A48024F0070045F2103EBA
:104B800000F110056007C2F2000E08BF04F108052D
:104B9000DEF800006A1E824241D245F28833C2F23A
:104BA000000318684468AC4223D202680AB3064680
:104BB0005468AC4213D217688FB17C68AC4211D2F2
:104BC0003B687BB15C68AC420FD21E686EB1746802
:104BD000AC420DD232683046002AE9D109E01046D5
:104BE000334606E03846134603E018463B4600E0ED
:104BF00030460A68904212D0D3F800C00668621BA3
:104C0000112A1E603CD3441963070AD04FF05000AC
:104C100080F31188BFF36F8FBFF34F8FFEE700253E
:104C20004EE045F28833C2F200036260456000BF87
:104C30001A68A2420AD21368A3420AD21A68A24290
:104C400004D213681546A342F2D303E01D4613466F
:104C500000E015466E686268AF19A74202D132447F
:104C60002C466A60A6189E4206D109688B4203D082
:104C7000D3E9003111446160A542236018BF2C6064
:104C800045F218324168DEF80030C2F200021468C2
:104C90005B1AA342CEF8003038BF136098F80020AA
:104CA00045F22433C2F20003002A18BF41F000414C
:104CB0001F6800220CF10805C0E90021781C18606B
:104CC00001F020F9680708D04FF0500080F31188F8
:104CD000BFF36F8FBFF34F8FFEE72846BDE8F0812B
:104CE000034644F2D57021F00101C0F600004FF0F8
:104CF000807C03E903106FF00201A3F1440043E953
:104D000009127047D0E9013201699A60D1F804C0F4
:104D100082688445536008BF4A60002202610868C7
:104D2000013808600868704744F60463C2F2000363
:104D3000036044F60440C2F2000008608020106066
:104D40007047000045F26023C2F20003036044F69E
:104D50006060C2F2000008604FF48070106070471D
:104D60004FF0FF31024642F8081F00214260C0E9BF
:104D700003220160704700000021016170470000BC
:104D800010B5D1F800E01EF1010213D000F10804C3
:104D900062681368734511D853681C68744510D84D
:104DA0005A68146874450ED854682368A44673453D
:104DB000EED90AE00269D2F804C006E09446224621
:104DC00003E09C4601E094461A46C1F804C0CCF8C2
:104DD00008108A605160086101680131016010BDEE
:104DE000D0F800C0436808619A684B608A609A688E
:104DF000996051600CF1010101607047DFF80C000F
:104E0000016841F4700101607047000088ED00E026
:104E10004FF0500080F31188BFF36F8FBFF34F8FB7
:104E200040F22040C2F2000001684A1C026001B159
:104E300070474EF60450CEF200000068000608BF2E
:104E400070474FF0500080F31188BFF36F8FBFF3AE
:104E50004F8F00BFFEE7000040F22040C2F200008A
:104E6000016839B10139016018BF7047002080F333
:104E7000118870474FF0500080F31188BFF36F8F97
:104E8000BFF34F8FFEE70000B0B5002808BFB0BDEC
:104E9000044645F2E420C2F20000007854F8041CF5
:104EA000002818BF4FF0004008420CD0A4F10805BC
:104EB0002A6892B14FF0500080F31188BFF36F8FD2
:104EC000BFF34F8FFEE74FF0500080F31188BFF320
:104ED0006F8FBFF34F8F00BFFEE721EA000044F859
:104EE000040C00F0E5F945F21030C2F2000054F86D
:104EF000041C02680A44026045F28830C2F20000D5
:104F00000368AB420AD21868A8420AD20368AB42CF
:104F100004D218681A46A842F2D303E002461846A3
:104F200000E01A465368D418AC4202D11944154621
:104F300051606B1883420AD140F6D813C2F20003C5
:104F40001B68984203D0D0E90003194469602860C7
:104F500045F22830AA4218BF1560C2F2000001686D
:104F600001310160BDE8B04000F0CCBF4EF210004E
:104F7000CEF2000000210160816040F20401C2F223
:104F80000001096844F6D352C1F26202A1FB021289
:104F90004FF0FF3101EB9211416007210160704732
:104FA00045F2443CC2F2000CDCF80020FAB1634642
:104FB00053F8082FF2B1634653F8102FE2B163465D
:104FC00053F8182FD2B1634653F8202FC2B163466D
:104FD00053F8282FB2B1634653F8302FA2B163467D
:104FE00053F8382F002A18BF704707220DE000221F
:104FF00063460AE0012208E0022206E0032204E000
:10500000042202E0052200E0062219600CEBC20136
:105010004860704770B515460E460446FFF7F8FE27
:1050200094F84400FF2804BF002084F8440094F85A
:105030004500FF2804BF002084F84500FFF70CFF5F
:10504000A06B28B904F1240031462A4600F08CF800
:105050002046BDE87040FFF70BBD000070B500288A
:1050600043D0044644F6F830C2F20000016841B172
:105070004FF0500080F31188BFF36F8FBFF34F8F55
:10508000FEE7016840F6CC150131016045F2B83009
:10509000C2F20000C2F20005066828680430FFF77B
:1050A00031FE2868A419446009D340F6DC10C2F22E
:1050B0000000006829680431FFF762FE10E040F646
:1050C000D410C2F20000006829680431FFF758FECE
:1050D00045F21C30C2F2000001688C4238BF046007
:1050E00000F010FF002818BF70BD4EF60450CEF23D
:1050F00000004FF080510160BFF34F8FBFF36F8FFF
:1051000070BD000045F22031C2F200010968016063
:1051100045F2B831C2F200010968416070470000F1
:1051200045F2C430C2F20000012101607047000066
:1051300078B110B50C4640F6CC11C2F200010968F6
:105140001831FFF71DFE20460121BDE81040FFF792
:10515000D9B84FF0500080F31188BFF36F8FBFF3C1
:105160004F8F00BFFEE70000A0B1B0B50D4640F67E
:10517000CC11C2F20001096814461831FFF730FE65
:10518000002C18BF4FF0FF3528462146BDE8B0403F
:10519000FFF7B8B84FF0500080F31188BFF36F8F5E
:1051A000BFF34F8FFEE7000010B588B00020CDE9B7
:1051B000050006A805A904AAFFF7B6FD0598002872
:1051C00049D0069C002C50D05C21049A0791079985
:1051D0005C2954D107992063022084F8590007A85C
:1051E0000021CDE9001044F22150C0F600002EA1AC
:1051F00000230294FFF7E0F92046FFF7C5F807986F
:1052000045F21431C2F20001086010B300F014FF3F
:10521000411C3ED001281CD14FF0500080F3118872
:10522000BFF36F8FBFF34F8F45F21C30C2F2000007
:105230004FF0FF31016045F28430C2F200000121DD
:10524000016045F2B830C2F200000021016000F0B8
:1052500099F808B010BD4FF0500080F31188BFF3EB
:105260006F8FBFF34F8F00BFFEE74FF0500080F30A
:105270001188BFF36F8FBFF34F8F00BFFEE74FF072
:10528000500080F31188BFF36F8FBFF34F8F00BFC3
:10529000FEE74FF0500080F31188BFF36F8FBFF32C
:1052A0004F8F00BFFEE700BF49444C45000000009F
:1052B00044F6F830C2F20000016801310160704725
:1052C00044F6F830C2F20000006830B145F2C43054
:1052D000C2F2000001210160704745F2C430C2F201
:1052E0000000002144F6004C0160C2F2000CDCF822
:1052F000001040F6E41201EB8103C2F2000252F802
:105300002300A8B101EB810002EB800353F8040FE6
:105310004268181D82421A6001D152681A60D06832
:1053200040F6CC12C2F200021060CCF800107047B8
:1053300002EB8300A0F12803A1B15869D8B9012973
:1053400010D01868C8B902290CD053F8140CB0B9A1
:10535000032907D053F8280C04390028A3F150037F
:10536000EAD0CFE74FF0500080F31188BFF36F8F82
:10537000BFF34F8FFEE70139C4E70239C2E70339B3
:10538000C0E70000B0B584B04EF2004CCEF2000C85
:105390004CF27021C4F20F11DCF800294B1C9A4228
:1053A00009D14FF0500080F31188BFF36F8FBFF326
:1053B0004F8F00BFFEE7DCF800298A4209D14FF089
:1053C000500080F31188BFF36F8FBFF34F8F00BF82
:1053D000FEE79CF8001044F6E5320291FF218CF8BC
:1053E00000109CF80010C2F200028DF807109DF822
:1053F000071001F05001117044F6E831C2F20001CB
:1054000007220A609DF90720B2F1FF3F69DC032201
:10541000D31C0B609DF8070040008DF807009DF934
:105420000700B0F1FF3F24DC931C0B609DF80700E0
:1054300040008DF807009DF90700B0F1FF3F18DC30
:10544000531C0B609DF8070040008DF807009DF984
:105450000700B0F1FF3F0CDC0A609DF80700043A3A
:1054600040008DF807009DF90700B0F1FF3FCFDD48
:10547000131D032B35D14FF44070086002988CF84F
:105480000000DCF8200940F47000CCF82009DCF8BA
:10549000200940F07040CCF82009FFF767FD40F28A
:1054A0002044C2F2000400252560FFF7A7FC4EF659
:1054B0003470CEF20000016841F040410160FFF716
:1054C0000FF9FFF7FDFE039520684FF0500181F3BF
:1054D0001188BFF36F8FBFF34F8F013011D000BF22
:1054E000FEE74FF0500080F31188BFF36F8FBFF3DA
:1054F0004F8F00BFFEE7039830B9039820B9039897
:1055000010B903980028F6D0002004B0B0BD000008
:1055100080B54FF0500080F31188BFF36F8FBFF359
:105520004F8F00F0A5FB30B14EF60450CEF20000D4
:105530004FF080510160002080F3118880BD000091
:1055400070B582B068B11C46ABB1F1B9EAB14FF0A9
:10555000500080F31188BFF36F8FBFF34F8F00BFF0
:10556000FEE74FF0500080F31188BFF36F8FBFF359
:105570004F8F00BFFEE74FF0500080F31188BFF35C
:105580006F8FBFF34F8F00BFFEE751B14AB94FF0A5
:10559000500080F31188BFF36F8FBFF34F8F00BFB0
:1055A000FEE750230193019B502B2DD1019B069EBA
:1055B000012384F84630002908BF22462260C4E94E
:1055C0000F01FFF725FC2068D4E90F12002502FB2C
:1055D0000103013901FB0201A563C4E90103FF20B6
:1055E000E16084F8440084F8450004F11000FFF7FE
:1055F000B7FB04F12400FFF7B3FBFFF72DFC2046B7
:1056000084F84C6002B070BD4FF0500080F31188F8
:10561000BFF36F8FBFF34F8FFEE700002DE9F04F10
:1056200083B00292B8B11D4617460E460446E1B15A
:10563000022D02D1E06B012853D100F0FFFA00BB2C
:10564000FFB14FF0500080F31188BFF36F8FBFF3AD
:105650004F8F00BFFEE74FF0500080F31188BFF37B
:105660006F8FBFF34F8F00BFFEE7206C0028DFD0A5
:105670004FF0500080F31188BFF36F8FBFF34F8F4F
:10568000FEE7FFF7C5FBA06B022D60D0E16B8842FF
:105690005DD30298002800F006816846FFF732FDCE
:1056A000FFF7DAFBFFF704FEFFF7B2FB94F84400C4
:1056B000FF2804BF002084F8440094F84500FF2828
:1056C00004BF002084F84500FFF7C6FB684602A926
:1056D00000F002FA78B12046FFF7CAF900F012FC98
:1056E000E3E04FF0500080F31188BFF36F8FBFF3FA
:1056F0004F8F00BFFEE704F11008FFF789FBD4F8D5
:105700003890E76BFFF7A8FBB94515D102994046E1
:10571000FFF70EFD2046FFF7ABF900F0F3FB80B971
:105720004EF60450CEF200004FF080510160BFF3FE
:105730004F8FBFF36F8F04E02046FFF799F900F019
:10574000E1FBFFF765FBA06BE16B88425BD2A76BC7
:10575000226CD2B115B3E0683146FAF725FEE16854
:10576000206C2268091A9142E16003D2A16840428C
:105770000844E060A81EB0FA80F040093946002FC6
:1057800018BF012108403F1A15E02068002598B98C
:10579000A06800F025FBA56005460DE06068314675
:1057A000FAF702FED4E90101226C104488426060DD
:1057B00001D3206860600025781CA06354F8240F92
:1057C00078B1204600F056FBB8B14EF60450CEF248
:1057D00000004FF080510160BFF34F8FBFF36F8F18
:1057E0000BE055B14EF60450CEF200004FF0805160
:1057F0000160BFF34F8FBFF36F8FFFF72DFB0120C9
:1058000003B0BDE8F08FE94602AF0BE02046FFF79A
:105810002FF900F077FBFFF7FBFAA06BE16B8842F2
:10582000FFF495AF029800283DD0FFF715FBFFF776
:105830003FFDFFF7EDFA94F84400FF2804BF002075
:1058400084F8440094F84500FF2804BF002084F841
:105850004500FFF701FB4846394600F03DF90028B6
:105860007FF439AFFFF7D4FAD4F838A0D4F83CB0BD
:10587000FFF7F2FADA45C9D102994046FFF758FC22
:105880002046FFF7F5F800F03DFB0028C3D14EF6A7
:105890000450CEF200004FF080510160BFF34F8FF3
:1058A000BFF36F8FB7E7FFF7D7FA002003B0BDE86B
:1058B000F08F00002DE9F04F83B0029288B11646B8
:1058C0000D460446002946D000F0B8F998B996B1C3
:1058D0004FF0500080F31188BFF36F8FBFF34F8FED
:1058E000FEE74FF0500080F31188BFF36F8FBFF3D6
:1058F0004F8F00BFFEE7FFF78BFAD4F838A0BAF15C
:10590000000F34D0226C52B1D4E902011144E1609D
:10591000814224BF2168E1602846FAF745FDAAF1DB
:105920000100A06354F8100F70B1204600F0A2FAF5
:1059300050B14EF60450CEF200004FF0805101609D
:10594000BFF34F8FBFF36F8F0124FFF785FA204617
:1059500003B0BDE8F08F206C0028B5D04FF05000A8
:1059600080F31188BFF36F8FBFF34F8FFEE702986C
:10597000002800F0AF806846FFF7C4FBFFF76CFA21
:10598000FFF796FCFFF744FA94F8440004F124086A
:10599000FF2804BF002084F8440094F84500FF2845
:1059A00004BF002084F84500FFF756FA684602A9B4
:1059B00000F092F860B12046FFF75AF800F0A2FA22
:1059C000FFF726FAA66BFFF747FA16BB0024BEE7DF
:1059D000FFF71EFAA66BFFF73FFA2EB12046FFF73E
:1059E00047F800F08FFA14E002994046FFF7A0FB59
:1059F0002046FFF73DF800F085FA50B94EF6045006
:105A0000CEF200004FF080510160BFF34F8FBFF323
:105A10006F8FFFF7FDF9D4F838A0BAF1000F7FF4CB
:105A200071AF4FF00009EB4602AE13E02046FFF7DE
:105A30001FF800F067FAFFF7EBF9A76BFFF70CFA16
:105A4000002FC3D0FFF7E4F9D4F838A0BAF1000F63
:105A50007FF458AF029800283CD0FFF7FDF9FFF71C
:105A600027FCFFF7D5F994F84400FF2808BF84F815
:105A7000449094F84500FF2808BF84F84590FFF74C
:105A8000EBF95846314600F027F80028CED1FFF751
:105A9000BFF9A76BFFF7E0F92FB12046FEF7E8FF4B
:105AA00000F030FACEE702994046FFF741FB20466E
:105AB000FEF7DEFF00F026FA0028C3D14EF60450B0
:105AC000CEF200004FF080510160BFF34F8FBFF363
:105AD0006F8FB7E7002438E770B530B30D4671B368
