:020000040800F2
:10000000C8680020F9020008193A0008873400087F
:100010008139000837090008554400080000000035
:10002000000000000000000000000000390200088D
:10003000970B00080000000095020008BD3A000878
:100040001303000813030008130300081303000838
:100050001303000813030008130300081303000828
:100060001303000813030008130300081303000818
:100070001303000813030008130300081303000808
:100080006D0A000813030008130300081303000897
:10009000A90900081303000813030008990B0008BE
:1000A00013030008130300081303000813030008D8
:1000B0009D3B0008AD3B0008130300081303000834
:1000C00013030008130300081303000813030008B8
:1000D000130300082544000835440008454400087F
:1000E0001303000813030008130300081303000898
:1000F0001303000813030008130300081303000888
:100100001303000813030008130300081303000877
:100110001303000813030008130300081303000867
:10012000130300087D0A00081303000813030008E6
:100130001303000813030008130300081303000847
:100140002D0A000813030008130300081303000816
:100150001303000813030008130300081303000827
:100160001303000813030008130300081303000817
:100170001303000813030008130300080000000025
:10018000130300081303000800F002F800F045F81C
:100190000AA090E8000C82448344AAF10107DA45E2
:1001A00001D100F03AF8AFF2090EBAE80F0013F0EF
:1001B000010F18BFFB1A43F0010318472C7400000D
:1001C0004C740000103A24BF78C878C1FAD852079E
:1001D00024BF30C830C144BF04680C6070470000C1
:1001E0000023002400250026103A28BF78C1FBD840
:1001F000520728BF30C148BF0B6070471FB506F0DB
:10020000BDFF9DE8030000F057FA00F023FA1FBD80
:1002100010B5002000F086FA10BD00F016FB114664
:10022000FFF7ECFF04F044FF00F034FB03B4FFF7EA
:10023000EFFF03BC00F002FB2C4B19680868B0E824
:10024000F04F80F30988BFF36F8F4FF0000080F309
:10025000118870470000000008480068006880F3BB
:1002600008884FF0000080F3148862B661B6BFF3CF
:100270004F8FBFF36F8F00DF00BF00BF08ED00E0BE
:10028000DFF80C00016841F470010160704700BFA5
:1002900088ED00E0EFF30980BFF36F8F134B1A680E
:1002A0001EF0100F08BF20ED108A20E9F04F1060FB
:1002B00009B44FF0500080F31188BFF34F8FBFF3A4
:1002C0006F8F06F057F84FF0000080F3118809BCDB
:1002D00019680868B0E8F04F1EF0100F08BFB0ECC6
:1002E000108A80F30988BFF36F8F70477000002079
:1002F000EFF3058070470000094880470948004730
:10030000FEE7FEE7FEE7FEE7FEE7FEE7FEE7FEE7C5
:10031000FEE7FEE704480549054A064B7047000022
:10032000893B000889010008C8620020C8680020D5
:10033000C8640020C864002070B5064600F09CF92F
:10034000056806F10B0020F00704B4429CBF0020B2
:1003500070BD2B466A68BAB11068A04210D304F190
:10036000080188423CBF5068586007D35168101993
:1003700041601168091B016058601460101D70BD58
:1003800013465268002AE7D12146284600F080F93A
:100390000028DED170BD70B50446051F00F06CF971
:1003A0000068002C14BF446870BD002C18BFAC421C
:1003B0003CBF20466468F8D301680A18AA4218BFF7
:1003C000456003D12A680546114401602868411937
:1003D000A1421CBF6C6070BD6168696021680844FF
:1003E000286070BD53EA020C00F069802DE9F04BE3
:1003F0004FF00006002B1FBFB3FA83F503FA05F494
:1004000024FA05F65E4012BF1643B2FA82F502FAEC
:1004100005F4C5F120051EBF22FA05FC44EA0C04D0
:10042000203556EA044C4FEA144418BF641C4FF0C0
:1004300000084FF00009904271EB030C39D30029FA
:1004400019BFB1FA81F701FA07F6B0FA80F700FA9E
:1004500007F6C7F120071EBF20FA07FC46EA0C0684
:100460002037B6FBF4FCA7EB0507103F07F01F0B86
:10047000CBF120060CFA0BFB2CFA06F644BFB34670
:100480000026202FA4BF5E464FF0000B5BEA060C4F
:1004900008BF4FF0010B19EB0B09ABFB027C48EBDB
:1004A0000608C01B06FB02CC0BFB03CC71EB0C0156
:1004B000C1E70B46024641464846BDE8F08B13B5FE
:1004C0004FF000004FF00001AFF30080BDE81C408A
:1004D00070472DE9F041074615460E461020FFF7FC
:1004E0002BFF04000AD06760C4E9026500F0C8F879
:1004F0000168216004600020BDE8F0810120FBE775
:10050000032A40F2308010F0030C00F0158011F83F
:10051000013BBCF1020F624498BF11F801CB00F817
:10052000013B38BF11F8013BA2F1040298BF00F86B
:1005300001CB38BF00F8013B11F0030300F0258028
:10054000083AC0F0088051F8043B083A51F804CB4F
:10055000A0E80810F5E7121D5CBF51F8043B40F815
:10056000043BAFF30080D20724BF11F8013B11F820
:1005700001CB48BF11F8012B24BF00F8013B00F864
:1005800001CB48BF00F8012B704710B5203AC0F0EE
:100590000B80B1E81850203AA0E81850B1E8185084
:1005A000A0E81850BFF4F5AF5FEA027C24BFB1E8C1
:1005B0001850A0E8185044BF18C918C0BDE8104032
:1005C0005FEA827C24BF51F8043B40F8043B08BF3B
:1005D0007047D20728BF31F8023B48BF11F8012B02
:1005E00028BF20F8023B48BF00F8012B704702F0FB
:1005F000FF0343EA032242EA024200F0BDB84FF093
:10060000000200B5134694469646203922BFA0E862
:100610000C50A0E80C50B1F12001BFF4F7AF09076E
:1006200028BFA0E80C5048BF0CC05DF804EB89005F
:1006300028BF40F8042B08BF704748BF20F8022BA2
:1006400011F0804F18BF00F8012B704770477047BA
:100650007047000070B5064C7C44064D7D4403E0B5
:10066000206820448047241DAC42F9D170BD0000B1
:10067000AC6F0000B06F000000487047706200204F
:1006800000487047A062002070477047704770476D
:1006900038B504460A4600206946AFF300800028BA
:1006A00008BF38BD02460099204600F089F80120B5
:1006B00038BD012000F0A3B8F8B5AFF300800546BF
:1006C00000200C46102000BF0646A819A0420DD9F4
:1006D000324669460020AFF30080070008BF00F0F3
:1006E0008EF80098A04218BF0546C419FFF7C4FF52
:1006F00005600746F01D20F007004619284600F067
:100700000AF8B44208BFF8BDA21B31463868BDE8FC
:10071000F84000F055B800210160C0E901107047B1
:10072000102070472DE9F0410646FFF7A9FF8046EB
:10073000454613E016B1E068B0420ED1206828604B
:10074000D4E90101D8F8007088472046FFF723FE5E
:10075000D8F80000B842EBD100E025462C68002C08
:10076000E8D1BDE8F08110B500F050F8BDE81040C8
:1007700000F040B84FF000020429C0F0128010F0E1
:10078000030C3FF43EAFCCF1040CBCF1020F18BFD8
:1007900000F8012BA8BF20F8022BA1EB0C01FFF7FA
:1007A00030BF5FEAC17C24BF00F8012B00F8012BA9
:1007B00048BF00F8012B704700487047686200206E
:1007C000034640688C46002818BF88423CBF034659
:1007D0004068F8D318681844884207D00CF1030029
:1007E00020F00700001D411A521A0146081D0A6038
:1007F000FFF7D1BD002801D000F020B8704710B538
:1008000000F06AF8BDE81040FFF7F4BF10B5002112
:1008100002A000F048F8012010BD000053494750E5
:1008200056464E3A2050757265207669727475612D
:100830006C20666E2063616C6C6564000149182051
:10084000ABBEFEE72600020070477546FFF7B4FF17
:10085000AE4605006946534620F00700854618B0AD
:1008600020B5FFF757FDBDE820404FF000064FF0E0
:1008700000074FF000084FF0000B21F00701AC46D5
:10088000ACE8C009ACE8C009ACE8C009ACE8C009F4
:100890008D46704710B50446AFF300802046BDE892
:1008A0001040FFF7C3BC70B505460C460A2000E0B7
:1008B0006D1C00F039F835B128780028F8D102E035
:1008C000641C00F031F814B120780028F8D1BDE89C
:1008D00070400A2000F028B810B5012805D000218A
:1008E00003A0FFF7E0FF012010BD09A1F8E7000019
:1008F00053494752544D454D3A204F7574206F6609
:100900002068656170206D656D6F72790000000070
:100910003A2048656170206D656D6F727920636F54
:10092000727275707465640008B569468DF80000D0
:100930000320ABBE08BD00BFFEE7000000B58BB0D2
:1009400000200690079001200890002001900420CC
:10095000029000200390049005900120099001A9C5
:100960000F4800F037F908B100F01BF90C4800F00F
:1009700058FD08B100F015F90221094800F014F9FA
:1009800008B100F00EF90020064948600420886094
:100990000020C86008200861002008750BB000BD69
:1009A000280100201001002010B5024800F06FFA65
:1009B00010BD00002801002000B58BB00E2006906D
:1009C0000020079001200890002001900420029050
:1009D0000020039004900590012009900E200A90B9
:1009E00001A9104800F0F6F808B100F0DAF80D4857
:1009F00000F017FD08B100F0D4F80221094800F01A
:100A0000D3F808B100F0CDF8002007494860042071
:100A100088600020C86008200861002008750BB0BD
:100A200000BD0000500100201001002010B5024858
:100A300000F02DFA10BD00005001002030B5024634
:100A40000B46002000210BE0545C84EA2024E4B231
:100A5000054D35F8144084EA0024A0B24C1CE1B2E4
:100A60009942F1DB30BD0000A671000810B50248C4
:100A700000F07AFD10BD00003C03002010B50248D4
:100A800000F072FD10BD00009C03002001460878B4
:100A900010381823B0FBF3F20848805CC865032ABD
:100AA00005D908686FF30900001D886503E0086830
:100AB0006FF309008865886D704700008671000833
:100AC000014600208A6A8B69CBB932B1012A0DD068
:100AD000022A03D0032A10D10EE000BFCB6A03F034
:100AE0008073B3F1807F00D1012007E0CB6AB3F1BE
:100AF000C07F00D1012001E000E000BF34E08B693D
:100B0000B3F5005F1AD132B1012A07D0022A03D00F
:100B1000032A11D10AE000BF01200EE0CB6A03F0E6
:100B20008073B3F1807F00D1012006E0CB6AB3F17E
:100B3000C07F00D1012000E000BF15E032B1012AE2
:100B400005D0022A04D0032A0CD103E000BF00BF65
:100B5000012008E0CB6A03F08073B3F1807F00D1FD
:100B6000012000E000BF00BF704730B50468246872
:100B700024F4802405682C60046863608468402C39
:100B800004D10468A2600468E16003E00468A16025
:100B90000468E26030BD704710B5402000F05AFF95
:100BA00010BD72B600BFFEE710B5024692F82030C5
:100BB000012B01D0022B06D110684069084314684C
:100BC0006061002010BD506A40F480205062012016
:100BD000F8E70000F0B504460A46216894F8205072
:100BE000012D01D0022D7ED1424901F50071086826
:100BF00040F001000860086820F47C500860086834
:100C0000566A40EA06200860107D00F01F060120A9
:100C100000FA06F3C8699843C861A1F50071D0696C
:100C2000C8B9D1F80C029843C1F80C02908880B280
:100C3000968940EA064601F51070576940F837601A
:100C4000108880B2168940EA064601F5107057698F
:100C500000EBC7004660D069012819D1D1F80C0219
:100C60001843C1F80C02908880B2168840EA064604
:100C700001F51070576940F83760908980B2168985
:100C800040EA064601F51070576900EBC700466060
:100C9000906928B9D1F804029843C1F8040204E02D
:100CA000D1F804021843C1F80402106928B9D1F838
:100CB00014029843C1F8140204E0D1F81402184356
:100CC000C1F81402106A012804D1D1F81C0218439B
:100CD000C1F81C02D1F8000220F00100C1F80002A6
:100CE0000020F0BDFFE7606A40F4802060620120D0
:100CF000F7E7000000640040704770B5044694F8C0
:100D00002050012D01D0022D7DD151B92068C0683D
:100D100000F0030080B9606A40F4001060620120B6
:100D200070BD2068006900F0030028B9606A40F4D3
:100D3000001060620120F3E7206800F5D87000EB36
:100D40000110006800F004009060906840B92068CD
:100D500000F5D87000EB01100068400D106007E04E
:100D6000206800F5D87000EB01100068C0085060E2
:100D7000206800F5D87000EB0110006800F0020058
:100D8000D060206800F5D87000EB0110406800F0DA
:100D90000F00082802D30820106108E0206800F541
:100DA000D87000EB0110406800F00F00106120685F
:100DB00000F5D87000EB0110406800F47F40000A95
:100DC0009061206800F5D87000EB01104068000CBD
:100DD0005061206800F5D87000EB01108068187031
:100DE000206800F5D87000EB0110806800F47F40A7
:100DF000000A5870206800F5D87000EB0110806878
:100E000000F47F0000E03CE0000C9870206800F5E2
:100E1000D87000EB01108068000ED870206800F5D3
:100E2000D87000EB0110C0681871206800F5D87008
:100E300000EB0110C06800F47F40000A5871206880
:100E400000F5D87000EB0110C06800F47F00000CC2
:100E50009871206800F5D87000EB0110C068000E92
:100E6000D87131B92068C06840F020002668F06071
:100E700005E02068006940F020002668306100200D
:100E80004EE7606A40F480206062012048E72DE967
:100E9000F05F04460025206846692068D0F8049079
:100EA000206887682068D0F80CA02068D0F810B0BF
:100EB0002068D0F8188006F00100002855D007F00F
:100EC0000100C0B101202168886007F0020018B15C
:100ED000204600F0D6FA0EE007F0040010B145F409
:100EE000006508E007F0080010B145F4805502E005
:100EF000204600F0C5FA07F48070C8B14FF4807046
:100F00002168886007F4007018B1204600F0BBFA31
:100F10000EE007F4806010B145F4005508E007F4D6
:100F2000006010B145F4804502E0204600F0AAFAC6
:100F300007F48030C8B14FF480302168886007F42E
:100F4000003018B1204600F0A0FA0EE007F480202F
:100F500010B145F4004508E007F4002010B145F455
:100F6000803502E0204600F08FFA06F0080038B124
:100F70000AF0100020B145F4007510202168C86007
:100F800006F0040040B10AF0080028B108202168EA
:100F9000C860204600F00EFA06F0020038B1206862
:100FA000C06800F0030010B1204600F005FA06F01A
:100FB000400038B10BF0100020B145F480651020DE
:100FC0002168086106F0200040B10BF0080028B14C
:100FD000082021680861204600F020FA06F0100081
:100FE00038B12068006900F0030010B1204600F01D
:100FF00016FA06F4003040B109F0100028B11020B4
:1010000021684860204600F00BFA06F4803040B1B9
:1010100009F0080028B1082021684860204600F047
:1010200035FA06F4004088B309F0040078B306F4FA
:10103000807020B108F0010008B145F0010506F408
:10104000007020B108F0020008B145F0020506F476
:10105000806020B108F0040008B145F0040506F4F2
:101060000060A0B108F0700088B108F0700040285E
:1010700017D006DC10280BD020280CD0302819D12E
:101080000CE0502810D0602814D110E01DE019E0C9
:1010900045F008050FE045F010050CE045F020058F
:1010A00009E045F0400506E045F0800503E045F421
:1010B000807500E000BF00BF2068806920F07000EC
:1010C000216888610420216848602DB1606A284346
:1010D00060622046FFF710FEBDE8F09F70B5044641
:1010E0000CB9012070BD94F8200010B9204600F022
:1010F000AFF82068006840F001002168086000F047
:10110000B7FD05460DE000F0B3FD401B0A2808D9E5
:10111000606A40F400306062052084F820000120FD
:10112000E0E72068406800F001000028EBD020686C
:10113000006820F002002168086000F099FD054673
:101140000DE000F095FD401B0A2808D9606A40F4C4
:1011500000306062052084F820000120C2E720688A
:10116000406800F002000028EBD1207E012806D163
:101170002068006840F080002168086005E0206871
:10118000006820F0800021680860607E012806D198
:101190002068006840F040002168086005E0206891
:1011A000006820F0400021680860A07E012806D178
:1011B0002068006840F020002168086005E0206891
:1011C000006820F0200021680860E07E012806D138
:1011D0002068006820F010002168086005E02068A1
:1011E000006840F0100021680860207F012806D1C7
:1011F0002068006840F008002168086005E0206869
:10120000006820F0080021680860607F012806D18E
:101210002068006840F004002168086005E020684C
:10122000006820F0040021680860D4E90201084346
:1012300021690843616908436168491E08432168C0
:10124000C86100206062012084F82000002049E786
:1012500010B586B00446142101A8FFF7D0F94F4914
:101260002068884242D14E480068401C4C490860C2
:101270000846006801280FD100BF002000904948AF
:10128000006840F00070474908600846006800F0B8
:101290000070009000BF00BF00BF002000904148D8
:1012A0001038006840F001003E49103908600846D7
:1012B000006800F00100009000BF00BF4FF4C05074
:1012C0000190022002900020039003200490092046
:1012D000059001A9344800F0CBFB0022072114201F
:1012E00000F08EFD142000F077FD55E02F492068B6
:1012F000884251D100BF002000902A48006840F089
:101300008060284908600846006800F0806000900E
:1013100000BF00BF22480068401C21490860084601
:10132000006801280FD100BF002000901D48006810
:1013300040F000701B4908600846006800F000702B
:10134000009000BF00BF00BF00200090154810387B
:10135000006840F002001349103908600846006830
:1013600000F00200009000BF00BF4FF44050019019
:101370000220029000200390032004900920059091
:1013800001A90B4800F074FB00220821402000F066
:1013900037FD402000F020FD06B010BD0064004085
:1013A0001400002040380240000002400068004065
:1013B000000402407047000010B588B0044612488F
:1013C00084420DD1012011490860114B01AA00216E
:1013D0000D48FFF792FC0E4901A803F0CBFD00BFBA
:1013E0000C4884420DD10020084908600A4B01AA2C
:1013F00000210848FFF781FC074901A804F0B4FC6C
:1014000000BF08B010BD000028010020100000201F
:1014100000000020500100200800002070477047A5
:10142000704770B5044694F82000012822D10220AC
:1014300084F820002068006820F00100216808601E
:1014400000F016FC05460DE000F012FC401B0A28D7
:1014500008D9606A40F400306062052084F82000FA
:10146000012070BD2068406800F001000028EBD129
:101470006062F6E7606A40F4002060620120F0E7F5
:10148000704770477047704770477047704770B536
:101490000446A56D00F0ECFB064694F835000228E2
:1014A00008D08020606500BF002084F8340000BFB1
:1014B000012070BD2068006820F0160021680860D7
:1014C0002068406920F0800021684861206C08B9DC
:1014D000A06C28B12068006820F00800216808602E
:1014E0002068006820F001002168086010E000F02A
:1014F000BFFB801B05280BD920206065032084F8E2
:10150000350000BF002084F8340000BF0320D0E77E
:101510002068006800F001000028E8D194F85C1011
:101520003F208840A860012084F8350000BF0020DB
:1015300084F8340000BF00BFBBE7014691F83500D6
:10154000022803D08020486501207047052081F8DB
:1015500035000868006820F001000A68106000206B
:10156000F3E70146486D7047F8B504460020009047
:101570008C4800684FF41651B0FBF1F7A56D2E684A
:1015800094F85C1008208840304098B120680068CA
:1015900000F0040070B12068006820F004002168A9
:1015A000086094F85C1008208840A860606D40F0E6
:1015B0000100606594F85C1001208840304068B1FB
:1015C0002068406900F0800040B194F85C10012070
:1015D0008840A860606D40F00200606594F85C107F
:1015E00004208840304068B12068006800F00200A4
:1015F00040B194F85C1004208840A860606D40F011
:101600000400606594F85C1010208840304078B386
:101610002068006800F0080050B394F85C101020B7
:101620008840A8602068006800F4802080B12068AD
:10163000006800F4002028B9206CC8B12046216C55
:10164000884715E0A06C98B12046A16C88470FE050
:101650002068006800F4807028B92068006820F0D5
:10166000080021680860206C10B12046216C884772
:1016700094F85C10202088403040002865D0206815
:10168000006800F0100000285FD094F85C10202063
:101690008840A86094F83500052828D120680068A3
:1016A00020F01600216808602068406920F0800062
:1016B00021684861206C08B9A06C28B120680068D6
:1016C00020F008002168086094F85C103F208840F2
:1016D000A860012084F8350000BF002084F83400A1
:1016E00000BF206D10B12046216D8847F8BD2068ED
:1016F000006800F4802080B12068006800F40020B9
:1017000028B9606C10B12046616C88471DE0E06B21
:10171000D8B12046E16B884717E02068006800F4E4
:10172000807068B92068006820F0100021680860A7
:10173000012084F8350000BF002084F8340000BF89
:10174000E06B10B12046E16B8847606D38B3606D87
:1017500000F00100F0B1052084F835002068006831
:1017600020F001002168086000BF0098401C009034
:10177000B84200D905E02068006800F001000028A8
:10178000F3D100BF012084F8350000BF002084F8A9
:10179000340000BFE06C10B12046E16C884700BF08
:1017A000A4E70000240000202DE9F04104460025B4
:1017B00000F05EFA074614B90120BDE8F081606AC6
:1017C00000B100BF022084F8350000BF002084F87B
:1017D000340000BF2068006820F001002168086024
:1017E0000AE000F045FAC01B052805D920206065F5
:1017F000032084F83500E0E72068006800F001006D
:101800000028EED12068056821480540D4E901018F
:101810000843E16808432169084361690843A169F5
:101820000843E1690843216A08430543606A0428C4
:1018300003D1D4E90B010843054320680560206803
:10184000456925F00705606A0543606A04280DD1E3
:10185000A06A0543E06A48B12046FFF731F928B194
:1018600040206065012084F83500A6E720684561C6
:101870002046FFF70BF9064694F85C103F2088409D
:10188000B06000206065012084F83500002094E7F6
:101890003F8010F02DE9F04704460D4616461F46DE
:1018A0004FF00008D4F8589000BF94F83400012895
:1018B00002D10220BDE8F087012084F8340000BF87
:1018C00094F83500012825D1022084F83500002045
:1018D00060653B46324629462046FFF746F994F8B4
:1018E0005C103F208840C9F808002068006840F07C
:1018F000160021680860206C28B12068006840F05C
:101900000800216808602068006840F00100216834
:10191000086006E000BF002084F8340000BF4FF0EC
:1019200002084046C6E7000010B50446402C7AD1B4
:101930003D4800683D4908602006406A3C49096806
:1019400042F2107202FB0100374908603949086011
:101950003548008835490988401A37490880374892
:10196000007801283CD10846008840F634018842BE
:1019700008DB0120314908700020314908703149E5
:1019800008703BE02C480088092825DB2A4800889D
:1019900040F6020188421FDC274800882A49284A6D
:1019A000127821F8120026480078401C244908705B
:1019B00008460078082821DB0846007842002249C2
:1019C0002248FEF79DFD00201C4908701C49087044
:1019D00001201C49087011E00020184908700DE032
:1019E0001548008840F63401884207DB012013497E
:1019F00008700020124908701249087004F098F924
:101A00001148408940F2A461884203DA002010495D
:101A1000087008E00C48408940F2A461884202DD69
:101A200001200B49087010BD6800002064000020F0
:101A30003C000020380000206E0000206C000020D8
:101A40006D000020360000203011002050100020D2
:101A50004400002010B5044604480068204020B12E
:101A6000024804602046FFF75FFF10BD143C0140B0
:101A7000F8B502460B460025002400200021D6E0E0
:101A8000012606FA01F51E6806EA0504AC4274D187
:101A90001E7906F00306012E04D01E7906F0030617
:101AA000022E13D190684F000326BE40B0434F0072
:101AB000DE68BE4030439060506801268E40B043DF
:101AC0001E79C6F300168E40304350601E7906F032
:101AD0000306032E09D0D0684F000326BE40B04352
:101AE0004F009E68BE403043D0601E7906F003066A
:101AF000022E13D1CF0802F1200656F827004E0718
:101B0000F70E0F26BE40B0434F07FF0E1E69BE40C2
:101B10003043CF0802F1200646F8270010684F0036
:101B20000326BE40B0431E7906F003064F00BE40B8
:101B3000304310605E6806F44036002E76D000BF59
:101B4000002600963C4E366846F480463A4F3E608A
:101B50003E46366806F48046009600BF00BF374E0A
:101B60008F0856F827008E07370F0F26BE40B04368
:101B7000334EB24202D1002624E057E0314EB24249
:101B800001D101261EE0304EB24201D1022619E0F9
:101B90002E4EB24201D1032614E02D4EB24201D1A5
:101BA00004260FE02B4EB24201D105260AE02A4E50
:101BB000B24201D1062605E0284EB24201D10726E5
:101BC00000E008268F073F0FBE4030431B4E8F08B2
:101BD00046F82700224E3068A0435E6806F480165F
:101BE00006B120431E4E3060361D3068A0435E684B
:101BF00006F4001606B12043194E361D3060184E0B
:101C0000361F3068A0435E6806F4003606B12043F4
:101C1000134E361F3060361F3068A0435E6806F4EE
:101C2000803606B120430E4E083E3060491C102914
:101C3000FFF426AFF8BD00004438024008380140E8
:101C4000000002400004024000080240000C024074
:101C5000001002400014024000180240001C024024
:101C6000083C01400AB1816101E00B0483617047C7
:101C70000148006870470000180000200348006811
:101C8000034909780844014908607047180000209A
:101C90002000002010B50D48006840F400700B498A
:101CA00008600846006840F48060086008460068E4
:101CB00040F480700860032000F0E0F80F2000F08E
:101CC00007F800F05FF8002010BD0000003C024063
:101CD0002DE9F04188B004460027B84600BF002037
:101CE00001902348006840F002002149086008463E
:101CF000006800F00200019000BF00BF02A903A825
:101D000000F092F9069F1FB900F0B6F9054602E00F
:101D100000F0B2F945001748B5FBF0F0A0F101085A
:101D200015481649086040F2E7311448C160C0F810
:101D30000480002101618160816100F0BFFC0646E2
:101D400096B90E4800F010FD06466EB91D2000F051
:101D500043F8102C07D2002221461D2000F050F835
:101D60000748046000E00126304608B0BDE8F08175
:101D70004038024040420F0000040040FC030020B5
:101D80001C00002008B500BF00200090114800682A
:101D900040F480400F4908600846006800F4804025
:101DA000009000BF00BF00BF00200090081F006827
:101DB00040F08050091F08600846006800F080501D
:101DC000009000BF00BF00220F21901E00F018F805
:101DD00008BD0000443802400146084600280DDBDB
:101DE00000BF00BF00F01F0301229A4043099B007F
:101DF00003F1E023C3F8002100BF00BF00BF70471C
:101E00002DE9F05F80460D461646002702F0E2FEFF
:101E1000074639462A46334601F00700C0F1070A53
:101E2000BAF1040F02D94FF0040A01E0C0F1070A29
:101E3000D14600F1040ABAF1070F02D24FF0000AAE
:101E400001E0A0F1030AD4464FF0010A0AFA09FAA8
:101E5000AAF1010A0AEA020A0AFA0CFA4FF0010B87
:101E60000BFA0CFBABF1010B0BEA030B4AEA0B0478
:101E70002146404602F0B6FEBDE8F09F00BF00F0EC
:101E80000702064B19684FF6FF031940044B0B433A
:101E900043EA0221014B196000BF70470CED00E0DE
:101EA0000000FA0570B504460D460CB9012070BD5E
:101EB0005848006800F00700A84209D255490D7043
:101EC0000846006800F00700A84201D00120EEE7B4
:101ED000207800F0020002281DD1207800F00400D4
:101EE000042805D14C48006840F4E0504A49086095
:101EF000207800F00800082805D14748006840F421
:101F00006040454908604448006820F0F000A1683E
:101F1000084341490860207800F00100A8B36068D8
:101F2000012807D13C4808380068C0F34040B8B9E0
:101F30000120BCE76068022802D06068032807D14E
:101F4000354808380068C0F3406048B90120AEE762
:101F5000314808380068C0F3400008B90120A6E7FE
:101F60002D48006820F00300616808432A49086092
:101F7000FFF77EFE064609E0FFF77AFE801B41F27E
:101F80008831884202D9032091E707E0224800689F
:101F900000F00C006168B0EB810FEDD11D480068C6
:101FA00000F00700A84209D91A490D7008460068D8
:101FB00000F00700A84201D0012078E7207800F067
:101FC0000400042807D11448006820F4E050E168B8
:101FD000084311490860207800F00800082808D15B
:101FE0000D48006820F46040216940EAC1000A49B8
:101FF000086000F061F808490968C1F30311074A55
:10200000515CC8400649086006480068FFF760FE5A
:1020100000204CE7003C0240083802408E71000866
:10202000240000201C0000200F2202600D4A1268CC
:1020300002F0030242600B4A126802F0F002826072
:10204000084A126802F4E052C260064A126802F4BA
:102050006042D2080261044A126802F007020A6074
:102060007047000008380240003C02400148006808
:10207000704700002400002000B5FFF7F7FF044977
:102080000968C1F38221034A515CC84000BD0000C9
:10209000083802409E71000800B5FFF7E7FF0449C9
:1020A0000968C1F34231034A515CC84000BD0000D9
:1020B000083802409E7100082DE9F04700240025F1
:1020C0000026A1462548006800F00C0020B1042835
:1020D00005D008283AD105E0DFF8849039E0DFF830
:1020E000849036E01D48001F006800F03F041B4844
:1020F000001F006800F4800078B11A481749091FD2
:102100000968C1F38811A0FB017001462246002333
:102110003846FEF767F905460EE011480F49091FDA
:102120000968C1F38811A0FB017001462246002313
:102130003846FEF757F905460848001F0068C0F307
:102140000140401C4600B5FBF6F902E0DFF81090B4
:1021500000BF00BF4846BDE8F087000008380240D5
:102160000024F40000127A00F8B504460CB90120EE
:10217000F8BD207800F00100002874D0F94800680C
:1021800000F00C0004280DD0F648006800F00C00A8
:10219000082813D1F348001F006800F48000B0F550
:1021A000800F0BD1EF4808380068C0F3404000288A
:1021B00059D06068002856D10120D9E700BF606877
:1021C000B0F5803F08D1E7480838006840F4803017
:1021D000E449083908601EE06068B0F5A02F0DD111
:1021E000E0480838006840F48020DE49083908607B
:1021F0000846006840F4803008600CE0D948083890
:10220000006820F48030D749083908600846006823
:1022100020F48020086000BF606890B1FFF728FDBF
:10222000054606E0FFF724FD401B642801D9032082
:102230009EE7CC4808380068C0F340400028F1D041
:1022400011E0FFF715FD054606E0FFF711FD401B05
:10225000642801D903208BE7C24808380068C0F31E
:1022600040400028F1D1207800F0020002285FD120
:10227000BC48006800F00C0058B1BA48006800F093
:102280000C0008281CD1B748001F006800F480002B
:10229000B0B9B44808380068C0F3400020B1E06825
:1022A000012801D0012063E7AE480838006820F01B
:1022B000F800216940EAC100AA490839086037E0FE
:1022C000E06800B30120A8490860FFF7D1FC05468B
:1022D00006E0FFF7CDFC401B022801D9032047E7A9
:1022E000A04808380068C0F340000028F1D09D489D
:1022F0000838006820F0F800216940EAC1009949D7
:102300000839086014E0002097490860FFF7B0FC26
:10231000054606E0FFF7ACFC401B022801D903206C
:1023200026E7904808380068C0F340000028F1D143
:10233000207800F0080008282CD16069A8B101209D
:102340008A490860FFF794FC054606E0FFF790FC19
:10235000401B022801D903200AE782486C3000683C
:10236000C0F340000028F1D014E000207F4908604D
:10237000FFF77EFC054606E0FFF77AFC401B0228CB
:1023800001D90320F4E677486C300068C0F34000C0
:102390000028F1D1207800F00400042870D1002733
:1023A00070483830006800F0805090B900BF0020BD
:1023B00000906C483830006840F0805069493831EE
:1023C00008600846006800F08050009000BF00BF21
:1023D00001276748006800F48070B0B9644800685D
:1023E00040F4807062490860FFF742FC054606E051
:1023F000FFF73EFC401B022801D90320B8E65C48E9
:10240000006800F480700028F2D000BFA0680128A6
:1024100008D154486830006840F0010051496831E3
:1024200008601DE0A06805280DD14E48683000689E
:1024300040F004004B49683108600846006840F0ED
:10244000010008600CE047486830006820F0010097
:102450004449683108600846006820F004000860BC
:1024600000BFA068A8B1FFF703FC054609E0FFF72D
:10247000FFFB401B41F28831884202D9032077E6F6
:1024800026E0384868300068C0F340000028EED0ED
:1024900013E0FFF7EDFB054608E0FFF7E9FB401B03
:1024A00041F28831884201D9032061E62D48683025
:1024B0000068C0F340000028EFD1012F07D1294860
:1024C0003830006820F0805026493831086000BF5D
:1024D000A069002845D02348006800F00C000828B7
:1024E0005DD0A069022845D100201F490866FFF78A
:1024F000BFFB054606E0FFF7BBFB401B022801D9E6
:10250000032035E6174808380068C0F3406000280B
:10251000F1D1D4E907010843616A40EA811101223F
:10252000A06AC2EB500041EA00412C20005D41EA64
:1025300000600C49091F086001200B490866FFF77D
:1025400097FB054606E0FFF793FB401B022801D9E5
:1025500003200DE6034808380068C0F340600028F7
:10256000F1D049E00838024000004742800E47425F
:1025700000700040002021490866FFF779FB0546FE
:1025800006E0FFF775FB401B022801D90320EFE5A9
:102590001B480068C0F340600028F2D12CE0A0691D
:1025A000012800D1E4E51648001D0668A06901284D
:1025B00020D006F48001E06981421BD106F03F0182
:1025C000206A814216D147F6C0703040616AB0EB94
:1025D000811F0FD106F440310122A06AC2EB5000E6
:1025E000B1EB004F06D106F070612C20005DB1EB1D
:1025F000006F01D00120BBE50020B9E50000474293
:10260000003802407047704730B502460B4600BFA5
:1026100092F83C00012801D1022030BD012082F84F
:102620003C0000BF022082F83D001068446810683A
:10263000816824F070041868044310684460184DE1
:102640001068A8421BD01068B0F1804F17D0154D0C
:102650001068A84213D0144D1068A8420FD0134D33
:102660001068A8420BD0124D1068A84207D0114D37
:102670001068A84203D0104D1068A84205D121F07F
:1026800080015868014310688160012082F83D0094
:1026900000BF002082F83C0000BF00BFBDE7000083
:1026A000000001400004004000080040000C004011
:1026B00000040140004001400018004010B50446ED
:1026C0000CB9012010BD94F83D0028B9002084F811
:1026D0003C00204600F026F8022084F83D00211D31
:1026E000206801F06BFA012084F8460000BF84F8EE
:1026F0003E0001213F200155402001554120015558
:1027000000BF00BF012084F842004320015544204F
:1027100001554520015500BF012084F83D000020EF
:10272000D0E7000038B504462068B0F1804F17D1DB
:1027300000BF002000900B48006840F001000949EC
:1027400008600846006800F00100009000BF00BF6C
:10275000002205211C20FFF753FB1C20FFF73CFB48
:1027600038BD000040380240014691F83D00012884
:1027700001D001207047022081F83D000868C06840
:1027800040F001000B68D8601A4B086898421BD0D3
:102790000868B0F1804F17D0174B0868984213D0E3
:1027A000164B086898420FD0154B086898420BD01A
:1027B000144B0868984207D0134B0868984203D01E
:1027C000124B086898420CD10868806800F0070234
:1027D000062A0CD00868006840F001000B681860F9
:1027E00005E00868006840F001000B6818600020F0
:1027F000C0E7000000000140000400400008004065
:10280000000C00400004014000400140001800405E
:102810002DE9F04104460D46002700BF94F83C0026
:10282000012802D10220BDE8F081012084F83C009B
:1028300000BF022084F83D002068866826F07706F5
:1028400026F47F46206886602868502833D00CDC48
:10285000202850D004DC00284BD0102851D149E06A
:10286000302849D040284CD139E060282DD070283C
:1028700007D0B0F5805F03D0B0F5005F41D10DE027
:1028800041E0D5E902136A68206801F00BFA20687C
:10289000866846F077062068866034E0D5E9021342
:1028A0006A68206801F0FEF92068806840F4804082
:1028B0002168886027E0EA686968206801F006FA04
:1028C0005021206801F0F9F91DE0EA686968206884
:1028D00001F00FFA6021206801F0EFF913E0EA68D7
:1028E0006968206801F0F2F94021206801F0E5F9FB
:1028F00009E000BF00BF00BF2968206801F0DDF9D2
:1029000001E0012700BF00BF012084F83D0000BFA7
:10291000002084F83C0000BF384684E7704770B55B
:1029200004462068C5682068066906F0020002288F
:1029300019D105F00200022815D1401F2168086155
:10294000012020772068806900F0030018B120463C
:10295000FFF7E4FF05E0204600F097F8204600F07E
:1029600095F80020207706F00400042819D105F01E
:102970000400042815D1C043216808610220207793
:102980002068806900F4407018B12046FFF7C6FF48
:1029900005E0204600F079F8204600F077F80020A6
:1029A000207706F00800082819D105F0080008284B
:1029B00015D1C04321680861042020772068C069D0
:1029C00000F0030018B12046FFF7A8FF05E02046FD
:1029D00000F05BF8204600F059F80020207706F060
:1029E0001000102819D105F01000102815D1C0438F
:1029F00021680861082020772068C06900F44070D1
:102A000018B12046FFF78AFF05E0204600F03DF8A8
:102A1000204600F03BF80020207706F0010048B186
:102A200005F0010030B16FF0010021680861204617
:102A300000F02EF806F08000802809D105F0800013
:102A4000802805D1C043216808612046FFF7DAFDE0
:102A500006F04000402809D105F04000402805D18B
:102A6000C04321680861204600F05CF806F02000B1
:102A7000202809D105F02000202805D1C043216875
:102A800008612046FFF7BFFD70BD7047704700002A
:102A900010B504461E492068884202D1FFF7EEF8BF
:102AA00034E02068B0F1804F30D11A4800681A49EC
:102AB000086018480068401C1649086017480088DC
:102AC000401C164908800846008864281ADB00204C
:102AD000088013484088401C1149488008464088B7
:102AE0003C280FDB0020488008468088401C8880F6
:102AF000084680883C2805DB002088800846C0887E
:102B0000401CC880054800880549088010BD0000A9
:102B1000000400403C000020400000203400002061
:102B20002C0000207047F8B504460E46174694F86E
:102B3000420020282ED106B10FB90120F8BD012096
:102B40002063002060633A463146204601F070FB66
:102B50000546EDB9206B012819D100BF0020009077
:102B600020680068009020684068009000BF00BFA7
:102B700000BF00BF21680C3151E8001F41F0100078
:102B800021680C3141E80002002AF3D100E0012560
:102B90002846D3E70220D1E7704710B5044600BFAE
:102BA00000BF21680C3151E8001F21F490702168AA
:102BB0000C3141E80002002AF3D100BF00BF00BF82
:102BC0002168143151E8001F21F0010021681431FF
:102BD00041E80002002AF3D100BF206B01280ED18A
:102BE00000BF00BF21680C3151E8001F21F0100028
:102BF00021680C3141E80002002AF3D100BF2068AF
:102C0000406900F04000402820D100BF00BF21688B
:102C1000143151E8001F21F040002168143141E8CF
:102C20000002002AF3D100BFE06B78B10020E16B15
:102C30000865E06BFEF72BFC40B1E06BFEF791FC02
:102C4000202803D110206064032010BD0020E085FF
:102C5000202084F842000020206300BFF5E7000038
:102C600010B50446094884420ED1FFF796FF64224E
:102C700007490648FFF757FF06480068006820F03C
:102C8000080004490968086010BD0000F402002033
:102C90009A0500209C0300202DE9F84F0446206887
:102CA00005682068C668206847694FF00009CA4671
:102CB00005F00F09B9F1000F0AD105F0200038B175
:102CC00006F0200020B1204601F01EF9BDE8F88F83
:102CD000B9F1000F7CD007F0010018B906F490702C
:102CE000002875D005F0010030B106F4807018B1ED
:102CF000606C40F00100606405F0040030B107F042
:102D0000010018B1606C40F00200606405F0020040
:102D100030B107F0010018B1606C40F0040060644D
:102D200005F0080048B106F0200010B907F00100D6
:102D300018B1606C40F008006064606C002846D0F8
:102D400005F0200028B106F0200010B1204601F067
:102D5000DBF820684069C0F3801A606C00F008005E
:102D600010B9BAF1000F2DD0204601F074F8206898
:102D7000406900F04000402820D100BF00BF21681A
:102D8000143151E8001F21F040002168143141E85E
:102D90000002002AF3D100BFE06B50B17748E16B2D
:102DA0000865E06BFEF7C9FB88B1E06B016D8847F1
:102DB0000DE02046FFF754FF09E009E02046FFF749
:102DC0004FFF04E02046FFF74BFF002060647DE7E3
:102DD000206B012878D105F01000002874D006F08F
:102DE00010000028FAD000BF002000902068006882
:102DF000009020684068009000BF00BF20684069D4
:102E000000F04000402860D1E06B006840681FFA85
:102E100080F8B8F1000F56D0A08D404553DDA4F8DE
:102E20002E80E06BC069B0F5807F43D000BF00BF4B
:102E300021680C3151E8001F21F4807021680C31A9
:102E400041E80002002AF3D100BF00BF00BF2168A3
:102E5000143151E8001F21F001002168143141E8CC
:102E60000002002AF3D100BF00BF00BF2168143167
:102E700051E8001F21F040002168143141E80002B0
:102E8000002AF3D100BF202084F8420000202063F4
:102E900000BF00BF21680C3151E8001F21F0100075
:102EA00021680C3141E80002002AF3D100BFE06B39
:102EB000FEF7EDFA02206063A08DE28D801A81B2E8
:102EC0002046FFF769FE01E742E0A08DE18D401A40
:102ED0001FFA80F8E08DD0B3B8F1000F37D000BFF3
:102EE00000BF21680C3151E8001F21F49070216867
:102EF0000C3141E80002002AF3D100BF00BF00BF3F
:102F00002168143151E8001F21F0010021681431BB
:102F100041E80002002AF3D100BF202084F84200DB
:102F20000020206300BF00BF21680C3151E8001F62
:102F300021F0100021680C3141E80002002AF3D191
:102F400000BF0220606341462046FFF725FEBDE634
:102F500005F0800030B106F0800018B1204601F085
:102F6000EBF9B3E605F0400030B106F0400018B1CF
:102F7000204600F0A6FFA9E600BFA7E61B3D00081B
:102F800010B504460CB9012010BDA06900B100E0E5
:102F900000BF94F8410028B9002084F84000204682
:102FA00000F02AF8242084F841002068C06820F44A
:102FB00000502168C860204601F024F820680069AC
:102FC00020F49040216808612068406920F02A00C0
:102FD000216848612068C06840F400502168C860DA
:102FE00000206064202084F8410084F84200002022
:102FF000606300BFC8E7000010B586B00446142126
:1030000001A8FDF7FCFAC0492068884231D100BF11
:1030100000200090BD48006840F40020BB490860D3
:103020000846006800F40020009000BF00BF00BF09
:1030300000200090B5481038006840F00400B34903
:10304000103908600846006800F00400009000BFD6
:1030500000BF4FF4406001900220029000200390D6
:10306000032004900820059001A9A948FEF700FD5F
:1030700048E1A849206888423BD100BF0020009069
:10308000A248001D006840F01000A049091D08601A
:103090000846006800F01000009000BF00BF00BFAD
:1030A0000020009099481038006840F001009749CE
:1030B000103908600846006800F00100009000BF69
:1030C00000BF4FF4C06001900220029000200390E6
:1030D000032004900720059001A98F48FEF7C8FC43
:1030E000002204212520FEF78BFE2520FEF774FE2A
:1030F00008E18A492068884255D100BF002000902D
:103100008248006840F40030804908600846006842
:1031100000F40030009000BF00BF00BF002000900E
:103120007A481038006840F0080078491039086083
:103130000846006800F00800009000BF00BF602053
:1031400001900220029000200390032004900720A9
:10315000059001A97248FEF78BFC7248724908601D
:103160004FF00060486000216F488160C1604FF4FB
:1031700080610161002141618161C161016241623F
:10318000FEF712FB08B1FDF70CFD00BF6648E063D7
:10319000846300BF002203212620FEF731FE262093
:1031A000FEF71AFEAEE061492068884257D100BFA1
:1031B000002000905548006840F480205349086082
:1031C0000846006800F48020009000BF00BF00BFE8
:1031D000002000904D481038006840F002004B4934
:1031E000103908600846006800F00200009000BF37
:1031F00000BF00BF002000900846006840F00800B3
:1032000008600846006800F00800009000BF00BF9A
:103210004FF4984001900220029000200390032078
:1032200004900720059001A94148FEF721FC4FF4C6
:10323000006001900220029000200390032004907F
:103240000720059001A93648FEF712FC002205214F
:103250002720FEF7D5FD2720FEF7BEFD52E03549B9
:10326000206888424ED100BF002000902748001DF2
:10327000006840F020002549091D086008460068E4
:1032800000F02000009000BF00BF00BF00200090B1
:103290001E481038006840F040001C491039086092
:1032A0000846006800F04000009000BF00BF4FF4E7
:1032B000844001900220029000200390032004909B
:1032C0000820059001A91C48FEF7D2FB1B481C49A9
:1032D000086080054860002119488160C1604FF492
:1032E00080610161002141618161C16101624162CE
:1032F000FEF75AFA08B1FDF754FC00BF1048E0632E
:10330000846300BF06B010BD004C0040403802404E
:10331000000802400010014000000240004400404C
:10332000000C0240886002403C030020004800403E
:1033300000040240001401400018024028640240CA
:103340009C03002070B504460D46164694F84200D2
:1033500020280BD105B10EB9012070BD00202063DB
:1033600032462946204600F0C7FFF6E70220F4E780
:1033700070B5054600241CE0104850F82400406851
:10338000A84215D10D4850F82400067A0B4951F88F
:10339000240051F8241009680A683146904707480C
:1033A00050F8240000F1080101222846FFF7CAFF67
:1033B000641C034800688442DEDB70BDFC5F0020B3
:1033C000F000002070472DE9F84F04460E461746DE
:1033D00099464FF0000A94F84100202850D106B1D8
:1033E00017B90120BDE8F88F00206064212084F81F
:1033F0004100FEF73DFC8246A784E784A068B0F553
:10340000805F04D1206910B90025B04602E035463E
:103410004FF000081EE05346002280212046CDF8E0
:10342000009000F0B9FF20B1202084F84100032073
:10343000D8E745B9B8F80000C0F308002168486033
:1034400008F1020803E02878216848606D1CE08CD0
:10345000401EE084E08C0028DDD15346002240214C
:103460002046CDF8009000F097FF20B1202084F88E
:1034700041000320B6E7202084F841000020B1E796
:103480000220AFE7704700BFFEE700009FED0C0A87
:1034900080ED000A9FED0B0A80ED010A9FED090AFD
:1034A00080ED020AB7EE000A80ED030A9FED060ADE
:1034B00080ED040AB1EE040A80ED050A70470000B1
:1034C0000AD7A33C000000000AD7233C10B51348DC
:1034D0001349086003204860002111488160C160E1
:1034E0004FF4002101614FF4401141610021017648
:1034F00001214176002181760121C17600210177E9
:103500004177FDF7EBFD08B1FDF74BFBFDF716FA30
:1035100002210348FDF748FB10BD00000064004095
:103520002801002010B512481249086003204860A5
:10353000002110488160C1604FF4002101614FF407
:1035400040114161002101760121417600218176FF
:10355000C17601774177FDF7C1FD08B1FDF721FB89
:10356000FDF72AFA02210348FDF71EFB10BD0000FB
:10357000006800405001002008B500BF0020009006
:103580001648006840F400101449086008460068B6
:1035900000F40010009000BF00BF00BF00200090AA
:1035A0000846006840F4800008600846006800F49F
:1035B0008000009000BF00BF002207211020FEF70E
:1035C0001FFC1020FEF708FC002205213920FEF721
:1035D00017FC3920FEF700FC08BD0000303802401F
:1035E00000B587B0142102A8FDF709F800BF00203C
:1035F00001907B48006840F0040079490860084663
:10360000006800F00400019000BF00BF00BF002070
:1036100001900846006840F02000086008460068F5
:1036200000F02000019000BF00BF00BF002001900B
:103630000846006840F0800008600846006800F016
:103640008000019000BF00BF00BF0020019008462D
:10365000006840F0010008600846006800F00100C2
:10366000019000BF00BF00BF002001900846006825
:1036700040F0100008600846006800F0100001905B
:1036800000BF00BF00BF002001900846006840F066
:10369000020008600846006800F00200019000BFC8
:1036A00000BF00BF002001900846006840F00800FD
:1036B00008600846006800F00800019000BF00BFE5
:1036C00000BF002001900846006840F040000860FC
:1036D0000846006800F04000019000BF00BF0022D3
:1036E00080214048FEF7BEFA01224FF4C1713E48E6
:1036F000FEF7B8FA0122D1023C48FEF7B3FA0122E4
:1037000010213B48FEF7AEFA402002904FF488109B
:1037100003900020049002A93248FEF7A9F9802006
:1037200002900120039002200490059002A92D48E8
:10373000FEF79EF9012002900020039001200490E2
:1037400002A92948FEF794F94FF4C17002900120B4
:1037500003900490059002A92348FEF789F94FF4DD
:1037600000600290012003900490059002A91F4878
:10377000FEF77EF94FF400400290002003900120F4
:10378000049002A91A48FEF773F94FF480400290A2
:10379000002003900120049002A91648FEF768F962
:1037A0004FF400700290002003900120049002A9C1
:1037B0001148FEF75DF9102002900120039004905B
:1037C000059002A90A48FEF753F900221146172076
:1037D000FEF716FB1720FEF7FFFA07B000BD00004A
:1037E0003038024000140240000002400010024045
:1037F00000040240000C02400008024000B587B0FF
:1038000000200390049005900690019002904FF0E4
:1038100080401449086053204860002111488160AD
:1038200042F21071C1600021016180218161FEF7C7
:1038300045FF08B1FDF7B5F94FF48050039003A997
:103840000848FEF7E5FF08B1FDF7ABF9002001904D
:10385000029001A90348FEF7D7FE08B1FDF7A1F9D0
:1038600007B000BD7801002010B50B480B49086077
:103870004FF4E1304860002108488160C160016177
:103880000C21416100218161C161FFF779FB08B121
:10389000FDF787F910BD0000004C0040D401002066
:1038A00010B50B480B4908604FF4E1304860002127
:1038B00008488160C16001610C2141610021816182
:1038C000C161FFF75DFB08B1FDF76BF910BD0000AA
:1038D000001001401C02002010B50B480B49086085
:1038E0004FF4E1304860002108488160C160016107
:1038F0000C21416100218161C161FFF741FB08B1E9
:10390000FDF74FF910BD00000044004064020020A4
:1039100010B50B480B4908604FF4E13048600021B6
:1039200008488160C16001610C21416189018161A8
:103930000021C161FFF724FB08B1FDF732F910BD8A
:1039400000480040AC02002010B50B480B4908604D
:103950004FF416504860002108488160C160016141
:103960000C21416100218161C161FFF709FB08B1B0
:10397000FDF717F910BD000000140140F40200200B
:1039800000BFFEE710B5F7EE002A9FED172AF0EE14
:10399000001A9FED161ADFED160A9FED160A16485B
:1039A00000F06AF8DFED152A9FED0F2AF2EE041AF7
:1039B000B6EE001ADFED120AB7EE080A114800F061
:1039C0005BF8DFED0E2A9FED082ADFED0F1AB0EE4F
:1039D000081AF6EE000A9FED0D0A0D4800F04CF8AB
:1039E00001200C49086110BD000000008FC2753D28
:1039F0000AD7A33CCDCC4C3E581200200AD7A33B9B
:103A00009A99993E201200200000964366668640EF
:103A1000901200201C11002000BFFEE780ED000A7C
:103A2000C0ED010A80ED021ADFED123AC0ED033A53
:103A3000DFED103AC0ED043ADFED0E3AC0ED063A84
:103A4000DFED0C3AC0ED053ADFED0A3AC0ED073A7A
:103A5000DFED083AC0ED083ADFED063AC0ED093A6D
:103A6000C0ED0A1A80ED0B2AC0ED0C2A80ED0D3A4C
:103A7000704700000000000080ED082AC0ED0A1A1F
:103A800080ED000AC0ED010A80ED021A9FED0A3AAE
:103A900080ED0B3A80ED033A80ED043A80ED093A6F
:103AA00080ED073A80ED053A80ED063A012180F875
:103AB0003010C0ED0D2A70470000000010B54FF027
:103AC000E020006903F004F9012801D002F04EFD66
:103AD00010BD000000B593B0302107A8FCF78FFDA2
:103AE000142102A8FCF78BFD00BF002001902448A0
:103AF000006840F08050224908600846006800F0E5
:103B00008050019000BF00BF00BF002001901D4801
:103B1000006840F480401B4908600846006800F4D3
:103B20008040019000BF00BF012007900004089072
:103B300002200D9041050E9108210F914FF4A871BC
:103B40001091022111910421129107A8FEF70CFB9C
:103B500008B1FDF726F80F20029002200390002004
:103B600004904FF4A05005904FF48050069005212A
:103B700002A8FEF797F908B1FDF713F813B000BDDE
:103B800040380240007000400348006840F4700074
:103B9000014908607047000088ED00E010B5024858
:103BA000FEF7BDFE10BD00007801002010B50248F0
:103BB000FEF7B5FE10BD0000FC03002010B5026842
:103BC0002D4B98420ED0B0F1804F0BD02B4B98422A
:103BD00008D02B4B984205D02A4B984202D02A4B52
:103BE000984203D122F070024B681A43224B98424C
:103BF00020D0B0F1804F1DD0204B98421AD0204BDE
:103C0000984217D01F4B984214D01F4B984211D0A6
:103C10001E4B98420ED01E4B98420BD01D4B984223
:103C200008D01D4B984205D01C4B984202D01C4B2B
:103C3000984203D122F44072CB681A4322F08003E9
:103C40004C6943EA040202608B68C3620B688362BA
:103C5000094B984202D00C4B984201D10B69036387
:103C600001234361036903F001031BB1036923F0DE
:103C70000103036110BD000000000140000400408A
:103C800000080040000C00400004014000400140DA
:103C9000004401400048014000180040001C004062
:103CA0000020004030B50C46816821F47F4142EA93
:103CB000032525432943816030BD0A46816821F0F0
:103CC000700142F0070319438160704730B50B461D
:103CD0001446026A056A25F001050562816921F032
:103CE000F00141EA041122F00A021A4381610262E2
:103CF00030BD30B50B461446026A056A25F0100542
:103D00000562816921F4704141EA043122F0A00288
:103D100042EA03128161026230BD70B50546AC6BA8
:103D20000020E085E0842046FEF79AFF70BD70B564
:103D300006460025B46B20684069C0F3C01594F8AE
:103D40004100212805D125B10020E084204600F063
:103D5000C8F820684069C0F3801594F84200222812
:103D600005D125B10020E085204600F074F8606C94
:103D700040F0100060642046FEF772FF70BD70B521
:103D80000546AC6B2868006800F48070002842D1BA
:103D9000E08500BF00BF21680C3151E8001F21F40D
:103DA000807021680C3141E80002002AF3D100BF85
:103DB00000BF00BF2168143151E8001F21F001004D
:103DC0002168143141E80002002AF3D100BF00BF8E
:103DD00000BF2168143151E8001F21F04000216824
:103DE000143141E80002002AF3D100BF202084F8FA
:103DF0004200206B01280ED100BF00BF21680C31AA
:103E000051E8001F21F0100021680C3141E8000248
:103E1000002AF3D100BF00206063206B012804D189
:103E2000A18D2046FEF7B8FE02E02046FFF7A0FA7B
:103E300070BD70B50546AC6B01206063206B012836
:103E400005D1A08D41082046FEF7A6FE02E02046DF
:103E5000FFF7B8FA70BD00BF00BF02680C3252E82D
:103E6000002F22F4907102680C3242E80013002BFC
:103E7000F3D100BF00BF00BF0268143252E8002F28
:103E800022F001010268143242E80013002BF3D142
:103E900000BF016B01290ED100BF00BF02680C32C8
:103EA00052E8002F22F0100102680C3242E80013A1
:103EB000002BF3D100BF202180F8421000210163C4
:103EC000704710B504462068C06820F040002168A3
:103ED000C860202084F841002046FFF7D3FA002074
:103EE00010BD00BF00BF02680C3252E8002F22F064
:103EF000C00102680C3242E80013002BF3D100BF6E
:103F0000202180F841107047F8B5044694F842002B
:103F1000222875D1A068B0F5805F0CD1206950B916
:103F20000025A66A20684068C0F308003080A06AB7
:103F3000801CA06215E0A56A0026A068B0F5805F2D
:103F400003D0A06828B9206918B920684068287093
:103F500004E02068406800F07F002870A06A401CE0
:103F6000A062E08D401E80B2E085002846D1206826
:103F7000C06820F020002168C8602068C06820F474
:103F800080702168C8602068406920F001002168C5
:103F90004861202084F8420000206063206B0128E3
:103FA00026D10020206300BF00BF21680C3151E8FA
:103FB000001F21F0100021680C3141E80002002AA6
:103FC000F3D100BF2068006800F0100010280AD16B
:103FD00000BF0020009020680068009020684068C2
:103FE000009000BF00BFA18D2046FEF7D5FD02E086
:103FF0002046FFF7BDF90020F8BD01E00020FBE7F7
:104000000220F9E72DE9F84F04462068006920F402
:104010004050E1680843216808612169A0680843AD
:1040200061690843E169084300902068C06849F26B
:104030000C618843009908432168C8602068406982
:1040400020F44070A16908432168486176492068DE
:10405000884203D075492068884203D1FEF71CF8D6
:10406000814602E0FEF708F88146E069B0F5004FAE
:104070006CD102206168A0FB015003461920A9FB06
:10408000007001462A463846FCF7ACF96421B0FBC3
:10409000F1F04FEA001A02206168A0FB01510B46C3
:1040A0001920A9FB00712A463846FCF79BF9834684
:1040B00002206168A0FB015003461920A9FB007192
:1040C0002A463846FCF78EF96421B0FBF1F000EB8C
:1040D000C00101EB0010ABEB8000322101EBC0000E
:1040E0006421B0FBF1F000F0F8000AEB400A022076
:1040F0006168A0FB015003461920A9FB007001462E
:104100002A463846FCF76EF9834602206168A0FB18
:10411000015003461920A9FB00712A463846FCF7D6
:1041200061F96421B0FBF1F000EBC00101EB00107C
:10413000ABEB8000322101EBC0006421B0FBF1F059
:1041400000F007005044216888606AE0042061683C
:10415000A0FB015003461920A9FB007001462A4626
:104160003846FCF73FF9824604206168A0FB015005
:1041700003461920A9FB007001462A463846FCF781
:1041800031F96421B0FBF1F000EBC00101EB00104C
:10419000AAEB8000322101EB00106421B0FBF1F0AA
:1041A00000F0F00A04206168A0FB017003461920AA
:1041B000A9FB00513A462846FCF714F96421B0FBEC
:1041C000F1F00AEB001A04206168A0FB01510B46D4
:1041D0001920A9FB00712A463846FCF703F98346EB
:1041E00004206168A0FB015003461920A9FB007060
:1041F00001462A463846FCF7F5F86421B0FBF1F099
:1042000000EBC00101EB0010ABEB8000322101EBB1
:1042100000106421B0FBF1F000F00F005044216861
:104220008860BDE8F88F00000010014000140140D4
:1042300077B581B0044615460298A062A585002096
:104240006064222084F842002848E16BC863284853
:10425000E16B08642748E16BC8640020E16B0865E6
:1042600002AE32682368191D2B46E06BFDF712FB86
:1042700000BF00200090206800680090206840681F
:10428000009000BF00BF206970B100BF00BF21686F
:104290000C3151E8001F41F4807021680C3141E875
:1042A0000002002AF3D100BF00BF00BF2168143113
:1042B00051E8001F41F001002168143141E800027B
:1042C000002AF3D100BF00BF00BF2168143151E8BC
:1042D000001F41F040002168143141E80002002A2B
:1042E000F3D100BF002004B070BD00007F3D000886
:1042F000333E00082F3D000810B5034699629A85A9
:10430000DA8500205864222083F84200186928B119
:104310001868C06840F480701C68E06018684069E4
:1043200040F001001C6860611868C06840F020001F
:104330001C68E060002010BD014691F84100212872
:1043400028D18868B0F5805F0BD1086948B90A6A3E
:104350001088C0F308000B685860086A801C086267
:1043600005E00B6A581C086218780B685860C88C06
:10437000401E80B2C88458B90868C06820F0800028
:104380000B68D8600868C06840F040000B68D860CF
:10439000002070470220FCE72DE9F84304460D4653
:1043A00017469846089E31E0701C70B3FDF760FC1C
:1043B000A0EB0800B04200D816B90320BDE8F8838E
:1043C0002068C06800F00400F8B1802D1ED0402D98
:1043D0001CD020680068C0F3C000B0B100BF00204E
:1043E000009020680068009020684068009000BF3E
:1043F00000BF2046FFF72FFD0820606400BF0020AB
:1044000084F8400000BF0120D8E7FFE7206800687B
:104410002840A84201D1012000E00020B842C3D0CA
:104420000020CBE710B50248FEF736FC10BD0000B7
:104430001C02002010B50248FEF72EFC10BD000043
:104440006402002010B50248FEF726FC10BD0000F3
:10445000AC02002000BFFEE710B50446FC2084F843
:104460003801FB2140F239100155AF20015D4FF4B6
:104470009D70015594F8AC10401C0155002007E0D8
:1044800004F1F4010B5C011D04F59C725354401CB3
:1044900094F8AC108142F3DC94F8AC1004F1F40011
:1044A000FCF7CCFAA4F8340194F8342194F8AC0069
:1044B000001D04F59C710A5494F8352194F8AC0061
:1044C000401D0A54FD2294F8AC00801D0A54FE22BF
:1044D00094F8AC00C01D0A544FF0FF3348226068C6
:1044E000FEF771FF10BD70B504460D4694F89C01AF
:1044F00009287DD2DFE800F0050D191F283A404653
:104500005200FC2D04D1012084F89C012120055586
:1045100094E0FB2D05D1022084F89C0184F8225000
:1045200002E0002084F89C0188E023200555032048
:1045300084F89C0182E084F82050002084F88001F7
:10454000042084F89C0179E094F88011481C84F8D8
:10455000800104F12600455494F8800194F820105D
:10456000884202DB052084F89C0167E084F8A850AB
:10457000062084F89C0161E084F8A950072084F8A3
:104580009C015BE0FD2D05D1082084F89C0184F896
:10459000AA5002E0002084F89C014FE0FE2D45D196
:1045A00084F8AB5094F8810128B394F8201004F1FA
:1045B0002600FCF743FAA084A18CB4F8A80081423D
:1045C00019D1002006E004F126010A5C42310A54A8
:1045D000411CC8B294F820108142F4DC2320015D14
:1045E00004F168031A46204600F02AF8002000E093
:1045F00020E084F89C0194F88101B8B9002006E01D
:1046000004F126010A5C42310A54411CC8B294F8F4
:1046100020108142F4DC2320015D04F168031A4676
:10462000204600F00DF8002084F89C01002084F85A
:104630009C0103E0002084F89C0100BF00BF70BD16
:104640002DE9F04104460E4617469846002512E033
:1046500004F5C27050F8250060B104F5C27151F83C
:10466000250051F82510096843463A46D1F808C09C
:104670003146E0476D1CD4F89801A842E8DCBDE85B
:10468000F08100002DE9F04104460E461546314602
:10469000204600F085F9044619491A4FE1608ECF93
:1046A000194810348EC4203C20601830E06004F1BA
:1046B000200000F089F9A0F1200404F1AC0000F022
:1046C00083F9A0F1AC04002084F8800184F88151C2
:1046D00014220E4904F5C270FBF757FF0020C4F8FE
:1046E000980184F89C0100BF05E0002204F5C27126
:1046F00041F82020401C0528F7DB2046BDE8F0816A
:10470000D0750008F874000898750008487500080E
:1047100070470000064634463CE0002521E004EBEB
:10472000840000EBC4001C4901EBC000103050F8BD
:104730002500A8B104EB840202EBC4020B4603EB94
:10474000C202103252F8250004EB840202EBC402CC
:1047500003EBC202103252F8252012681168884714
:104760006D1C04EB840000EBC4000B4901EBC0009E
:10477000006EA842D3DC04EB840000EBC40001EB24
:10478000C000C0684FF47A714843B0FBF1F5284689
:1047900001F010FDC1E70000EC5B00207CB506468F
:1047A0000C461546002C0BDB0A2C09DA04EB8400BE
:1047B00000EBC4002B4901EBC000006E142800DBA5
:1047C0007CBD04EB840000EBC400264901EBC00073
:1047D000103004EB840101EBC401224A02EBC10159
:1047E000096E40F8215004EB840000EBC400114630
:1047F00001EBC000006E401C04EB840101EBC4011E
:1048000002EBC101086604EB840000EBC400114612
:1048100051F8300018BB04EB840000EBC40001EB3E
:10482000C00004EB840101EBC40102EBC101C97AB1
:10483000CDE9001004EB840000EBC400134603EB49
:10484000C000B0F8640082B204EB840000EBC40046
:1048500003EBC000011D2346034802F0A9F900BF85
:10486000AEE70000EC5B00201547000810B50146DC
:1048700000203BE0742200EB800303EBC0033B4CC1
:1048800004EBC3031A71612300EB800202EBC00248
:1048900004EBC2025371732300EB800202EBC002EF
:1048A00004EBC20293716B2300EB800202EBC002A7
:1048B00004EBC202D3715F2300EB800202EBC00263
:1048C00004EBC202137200F13002D3B200EB80029B
:1048D00002EBC00204EBC2025372002300EB800221
:1048E00002EBC00204EBC2029372401C0A28C1DB37
:1048F00005201E4AD0720120D06004221B4880F897
:10490000732001224267042280F8DB200522C0F8D0
:10491000DC20032280F843210522C0F84421032231
:1049200080F8AB210A22C0F8AC21022280F81322C1
:104930000A22C0F81422022280F87B220F22C0F83B
:104940007C22012280F8E3220F22C0F8E422012217
:1049500080F84B231422C0F84C23002280F8B323A4
:104960001422C0F8B423084610BD0000EC5B002000
:1049700004490A680968491C024B1960024941F858
:1049800022007047F0000020FC5F002010B50446B4
:10499000012204F108016068FEF7D4FC10BD00009C
:1049A00030B504460D46064820606560054800683D
:1049B0000A2802DA2046FFF7DBFF204630BD000060
:1049C000C4750008F000002070B504460020207077
:1049D000E070A08004F14805402204492846FBF716
:1049E000D4FDA5F14804204670BD000008750008FC
:1049F00010B50246807A002305282ED2DFE800F0A9
:104A000003070D191D000D2906D101200FE00A2909
:104A100023D102209072D37210BDD07A02F14404E7
:104A2000431CD3720155D07A1828F5D30320907215
:104A300010BD0A2911D10420F9E70D290DD100205C
:104A40001118401C11F8444FC0B20C771828F7D346
:104A500002F16001104600F002F8937210BD90ED73
:104A6000062A80ED032A90ED070A80ED040AD0EDB6
:104A7000080AC0ED050A91ED001A80ED081AD1ED83
:104A8000032A71EE600AC0ED062AD1ED041A32EE57
:104A9000C22AC0ED071A31EEC00A80ED092A80ED66
:104AA0000A0AC0ED0B0A90ED0C1A71EE200AC0ED57
:104AB0000C0AF1EE600AC0ED220AD0ED0D0A70EE8C
:104AC000820AC0ED0D0AD0ED0E0A30EE800A80EDAC
:104AD0000E0A704770B52DED048BB0EE609AF0EEC3
:104AE000408AFFF75DFF2B4901600021417281720E
:104AF0000446C1720C309FED288A182280ED008A8E
:104B000080ED018A80ED028A80ED038A80ED048ABF
:104B100080ED058A80ED068A80ED078A80ED088A9F
:104B200080ED098A80ED0A8A80ED0B8A84ED0F8A78
:104B300004F1440084ED108A05461849FBF725FD71
:104B4000164E1822361F06F11C013088288305F105
:104B50001C00FBF71AFD7088A88684ED1F8A84ED7F
:104B6000208A84ED218A84ED228A84ED238A84EDD3
:104B7000248A84ED258A84ED268A84ED278A84EDB3
:104B8000288AC4ED0F8A84ED109A2046BDEC048B70
:104B900070BD0000E47500080000000060750008AA
:104BA00010B5044600202060E0725022044904F150
:104BB0001000FBF7EAFC4FF400706066204610BD61
:104BC000A874000810B504460C3C2046FFF744FCCE
:104BD00010BD000002480068C0F3022070470000CA
:104BE0000CED00E010B5002804DB0A07130E054A9F
:104BF000135406E00A07140E034A00F00F031B1FAC
:104C0000D45410BD00E400E018ED00E02DE9F041BF
:104C10001C4617460E00804607D0054602E028468F
:104C2000B0473D442046641EF9D24046BDE8F081BD
:104C30000020FBF798BDEFF30580704710B5012207
:104C40000A490B48FFF71EFD0A4A0B49FBF741FCD6
:104C50009FED0A0A0A490B48F0EE400AFFF73AFFB7
:104C6000BDE810400848FFF701BE000064020020C4
:104C70002460002000000008114700080000000028
:104C8000AC020020C4610020F900002010B50A2306
:104C9000682202490248FFF7B9FF10BDA14B000886
:104CA000EC5B002010B50848FFF770FE0748FFF7DF
:104CB0006DFE054A00210C320548FFF76FFDBDE887
:104CC000104000F037BA000024600020C4610020CA
:104CD000F900002010B501207A49087101217948B6
:104CE00080F8481080F88C100120764908604864EC
:104CF000C1F888009FED743AF1EE042A9FED732A03
:104D0000DFED731A9FED731ADFED730A9FED730ADF
:104D10007348FEF783FE9FED6C3AF1EE042A9FED97
:104D20006B2ADFED701A9FED701ADFED700A9FEDB0
:104D3000700A7048FEF772FE9FED633AF1EE042AA6
:104D40009FED622ADFED621A9FED6B1ADFED6B0AB1
:104D50009FED6B0A6B48FEF761FE9FED6B3AF1EE3B
:104D6000042A9FED5A2ADFED5A1A9FED681AF5EED4
:104D7000000A9FED670A6748FEF750FE9FED623A12
:104D8000F1EE042A9FED512ADFED511A9FED621AD0
:104D9000F5EE000A9FED5A0A6048FEF73FFE9FEDD0
:104DA0005A3AF1EE042A9FED492ADFED491A9FEDA8
:104DB0005C1ADFED5C0AB3EE000A5B48FEF72EFEDC
:104DC0009FED513AF1EE042A9FED402ADFED401AA3
:104DD0009FED561ADFED560A9FED560A5648FEF72C
:104DE0001DFEB6EE003ADFED552AB1EE042ADFEDE6
:104DF000541A9FED541ADFED540AB1EE0C0A5348D1
:104E0000FEF70CFEFEEE002A9FED302ADFED2F1A92
:104E10009FED4F1ADFED4F0AB2EE080A4E48FEF73B
:104E20002BFEFEEE002A9FED292ADFED281A9FEDCA
:104E3000481ADFED4A0A9FED4A0A47483830FEF724
:104E40001BFEFEEE002A9FED212ADFED201A9FEDCA
:104E5000401AF7EE080A9FED430A3F487030FEF70C
:104E60000BFEDFED412A9FED412ADFED401A9FED59
:104E7000361ADFED350A9FED340A3D48FEF7FCFD9A
:104E8000DFED392A9FED392ADFED381A9FED2E1A12
:104E9000DFED2D0A9FED2C0A35483830FEF7ECFD8A
:104EA000DFED312A9FED312ADFED301A9FED261A12
:104EB000DFED250A9FED240A2D487030FEF7DCFD5A
:104EC00010BD0000540600200000704400409C46C5
:104ED0000024744914AE37407B142E3E9A998141C8
:104EE0002C0E00208096184B9A9919403D0A573E87
:104EF0009A998541680E002066662640EC51383E3E
:104F000000008441A40E002000803B44F628FC3FB2
:104F1000CDCC8441E00E002048E1FA3F1C0F002078
:104F20007B14EE3FAE47613E580F00206666064098
:104F30001F856B3E66668641940F00200AD7233C8E
:104F40000050C3473333333F00000000D00F002030
:104F5000CDCCCC3D3333B33F940A0020CDCC8C3F35
:104F6000295C3F4133334341CDCC4C3D00C0DA4551
:104F7000540C00200268A2F20122062A79D2DFE84E
:104F800002F00318304860794A780B7842EA03222D
:104F9000464BDA80CA788B7842EA032212B2434B3E
:104FA0001A814A790B7942EA032212B23F4B5A81A5
:104FB00079E04A780B7842EA03233C4AA2F84A3067
:104FC000CA788B7842EA032213B2384AA2F84C30EE
:104FD0004A790B7942EA032213B2344AA2F84E30DE
:104FE00061E04A780B7842EA0323304AA2F88E3017
:104FF000CA788B7842EA032213B22C4AA2F8903086
:105000004A790B7942EA032213B2284AA2F8923075
:1050100049E04A780B7842EA0323244AA2F8D230C6
:10502000CA788B7842EA032213B2204AA2F8D4301D
:105030004A790B7942EA032213B21C4AA2F8D6300D
:1050400031E04A780B7842EA0323184AA2F8163175
:10505000CA788B7842EA032213B2144AA2F81831B4
:105060004A790B7942EA032213B2104AA2F81A31A4
:1050700019E017E04A780B7842EA03230B4AA2F8BA
:105080005A31CA788B7842EA032213B2074AA2F84F
:105090005C314A790B7942EA032213B2034AA2F83F
:1050A0005E3100E000BF00BF7047000054060020E2
:1050B000FCF7F0FDFEF70EFDFEF792FAFEF75CFA44
:1050C000FEF704FAFEF7ECFBFEF72CFAFEF796FB70
:1050D000FEF71EFCFEF7C8FBFEF7FEFBFEF734FCF6
:1050E0000748FDF741FBFEF74DFCFFF7F3FD0548D0
:1050F000FEF7CCF900F008F8FFF7D4FD00BFFEE79B
:10510000780100202010002010B5FFF794FD10B1A9
:105110006FF0050409E00648006820B90120044941
:105120000860002401E04FF0FF34204610BD00006D
:10513000C000002070B5FFF77EFD10B16FF00504D0
:105140001FE011480068012819D100BF801F00210D
:10515000002804DB0A07130E0C4A135406E00A0762
:10516000150E0B4A00F00F031B1FD55400BF00BFE4
:1051700002200549086001F099F8002401E04FF091
:10518000FF34204670BD0000C000002000E400E0B5
:1051900018ED00E02DE9F04105460E461648076877
:1051A00016480068001D00F07DFE681C38B936B155
:1051B00012480168091D124800F0CAFE1AE07C1965
:1051C0000E4800684460BC4207D20C480168091DC3
:1051D0000C48006800F0A2FE0CE008480168091DB8
:1051E0000948006800F09AFE08480068844201D22D
:1051F00006480460BDE8F0818400002070000020B3
:10520000081800207800002074000020A000002072
:1052100010B5044600F0A8FE24480068401C23494D
:1052200008602348006840B92148046008460068C7
:1052300001280DD100F0FCF90AE01E48006838B9D9
:105240001B480068C06AE16A884201D818480460B7
:1052500019480068401C18490860084600686064E6
:105260001649E06A0968884202D91449E06A086070
:10527000E16A01EB8101124A02EB8100211D00F07D
:1052800067FE00F09BFE0B48006868B108480068A4
:10529000C06AE16A884207D24FF08050094908602D
:1052A000BFF34F8FBFF36F8F10BD00008000002051
:1052B000700000208C0000209C000020880000204E
:1052C0005813002004ED00E008B500F04DFE124830
:1052D0000068E8B9114800F011FE114800F00EFE18
:1052E0000E48104908600E480F49086000200F4B17
:1052F0000F4A102100900A2001F052F90649086077
:105300000846006820B10BA10348006800F016FFB2
:1053100000F054FE08BD0000B40000201C1800205E
:1053200030180020AC000020B000002044180020FD
:1053300094180020546D72510000000010B516E062
:1053400000F012FE0C48C068C468201D00F0AAFDE1
:105350000A480068401E0949086009480068401E64
:105360000749086000F02AFE204600F05FF8044874
:1053700000680028E4D110BDF41700208000002050
:105380007C00002070B504460D46206C70B1216C85
:10539000E0680144E160D4E90210884201D3216849
:1053A000E1602846226CE168FBF7AAF870BD2DE9A0
:1053B000F04104460F4615464FF00008A66B206CDE
:1053C00048B9206800282CD1A06801F039FD80463A
:1053D0000020A06025E07DB93946226C6068FBF7AB
:1053E0008FF8216C606808446060D4E9010188424C
:1053F00017D32068606014E03946226CE068FBF740
:105400007FF8216CE068411AE1602168E068884219
:1054100003D2216CA068411AE160022D01D106B1CE
:10542000761E701CA0634046BDE8F08110B50446AE
:1054300094F8590030B9206B00F0DEFD204600F0F2
:10544000DBFD1AE094F85900012803D1204600F052
:10545000D3FD12E094F85900022801D1012000E0A8
:10546000002050B900BF502080F31188BFF34F8F48
:10547000BFF36F8F00BF00BFFEE710BD0146084AB3
:10548000126812680AB9012200E000220A600A6864
:1054900022B9034A1268D268106800E00020704701
:1054A000AC00002030B54FF47053174800F00704EB
:1054B0002CB1C01D20F00700134C041B1B1B02461F
:1054C000124C22600024114D6C60D018083820F076
:1054D00007000F4C206000240D4D2D686C600C4DB2
:1054E0002D682C601146441A4C60094C24680C60ED
:1054F000084D4C682C60084D4C682C604FF00044FF
:10550000064D2C6030BD0000EC1F0020C4000020C0
:10551000CC000020D4000020D0000020E0000020BB
:1055200000BFFFF70BFF064800680128F9D94FF0CC
:10553000805004490860BFF34F8FBFF36F8FF0E7CF
:105540005813002004ED00E02DE9F04106460D4619
:1055500017469846069C0DB9246000E02760E66374
:1055600025640121204601F08BF884F84C80BDE8C9
:10557000F0812DE9F05F82460E4690469B460A9FD9
:105580000C9C4FEA8801A522206BFBF730F8A8F1AC
:105590000100216B01EB800929F0070909F00700E0
:1055A00008B9012000E0002050B900BF502080F36E
:1055B0001188BFF34F8FBFF36F8F00BF00BFFEE7AF
:1055C00086B1002507E0715D04F134004155705D3E
:1055D00000B902E06D1C102DF5D300BF002143205F
:1055E000015502E0002084F83400382F00D337271B
:1055F000E762E76400202065201D00F08CFC04F1C8
:10560000180000F088FC2461C7F13800A0616462D2
:105610000020606584F858005A465146484600F01C
:1056200071FB20600B9808B10B980460BDE8F09FF7
:1056300010B5002407E004EB84010F4A02EB81005F
:1056400000F05CFC641C382CF5D30C4800F056FCD0
:105650000B4800F053FC0B4800F050FC0A4800F0E7
:105660004DFC0A4800F04AFC044809490860044817
:105670000849086010BD000058130020B81700202A
:10568000CC170020E0170020F41700200818002095
:10569000740000207800002010B50146164800E094
:1056A000006803688B42FBD30246436813448B4275
:1056B00004D143684C682344436001460A464B6862
:1056C00013440468A34211D10C4C03682468A3421C
:1056D00008D04B680468646823444B6003681B6807
:1056E0000B6005E0054B1B680B6001E003680B6075
:1056F000884200D0016010BDC4000020CC00002012
:105700002DE9F04104460D4616461F464FF00008AD
:1057100065602461B5420CD8F01BA169884202D3B0
:105720004FF0010811E0211D0948006800F0F6FB68
:105730000BE0BE4204D2BD4202D34FF0010804E0A8
:10574000211D0448006800F0E9FB4046BDE8F081F7
:10575000B0000020AC00002070B5054600F004FC4D
:10576000A86B08B9012400E0002400F027FC2046C3
:1057700070BD70B5054600F0F7FBA86BE96B884279
:1057800001D1012400E0002400F018FC204670BD87
:10579000F8B505460F461A480068C068C468201D61
:1057A00000F080FB94F8280000F00400E8B1A06944
:1057B00041192B463A462046FFF7A2FFD8B10020F8
:1057C00003462A4601460090204601F095FC064615
:1057D00056B900BF502080F31188BFF34F8FBFF33D
:1057E0006F8F00BF00BFFEE705E094F8280020F0AF
:1057F000010084F828002046216A8847F8BD00008F
:10580000AC000020F0B587B0A0E00398002811DAC2
:1058100004AE56B900BF502080F31188BFF34F8FFC
:10582000BFF36F8F00BF00BFFEE7D6E90020B1686D
:10583000904700BF03980028E6DB059C606908B923
:10584000012000E0002010B9201D00F02BFB02A871
:1058500000F0DEF8054603980A2875D2DFE800F06C
:1058600009050739416306083A4200BF00BF00BF7F
:1058700000BF94F8280040F0010084F82800049844
:10588000A269811803462A462046FFF739FFF8B17E
:105890002046216A884794F8280000F00400B8B137
:1058A000002000900498A169421800231946204660
:1058B00001F022FC074657B900BF502080F3118841
:1058C000BFF34F8FBFF36F8F00BF00BFFEE700BF76
:1058D0003BE000BF94F8280020F0010084F8280085
:1058E00033E000BF94F8280040F0010084F828005D
:1058F0000498A061A06908B1012000E0002050B91F
:1059000000BF502080F31188BFF34F8FBFF36F8F1C
:1059100000BF00BFFEE7A06941192B462A4620467A
:10592000FFF7EEFE11E094F8280000F0020018B92D
:10593000204600F061FB05E094F8280020F001000B
:1059400084F8280001E0FFE700BF00BF002203A9A0
:105950000448006801F032F800287FF456AF07B021
:10596000F0BD0000B4000020F8B505460C4600F07C
:10597000F9FC684600F04CF80646009820BB44B994
:10598000B54206D801F0FAFA31462846FFF700FF83
:105990001CE03CB10E480068006808B9012000E036
:1059A00000200446A91B22460A48006800F0DCFBE0
:1059B00001F0E4FA50B94FF0805007490860BFF396
:1059C0004F8FBFF36F8F01E001F0D8FAF8BD0000F0
:1059D000B0000020B400002004ED00E00A4909688E
:1059E000096809B9012100E0002121B14FF0FF3120
:1059F000064A116006E004490968C968C868034A94
:105A0000416811607047000074000020A000002071
:105A100070B5044601F06CF90546074800688542F8
:105A200004D200F00BF80120206001E0002020608B
:105A300001480560284670BDBC0000202DE9F843F0
:105A400034E025480068C068056823480068C068DD
:105A5000C468201D00F026FA2046216A884794F881
:105A6000280000F0040008B3A0694619AE4207D927
:105A700066602461211D1848006800F04FFA15E0A7
:105A8000002003462A4601460090204601F034FBE0
:105A9000074657B900BF502080F31188BFF34F8FDE
:105AA000BFF36F8F00BF00BFFEE700BF0A4800686A
:105AB000006808B9012000E000200028C1D0064895
:105AC000D0F8008005480068034908600348C0F822
:105AD0000080BDE8F8830000AC000020B00000208A
