:020000040800F2
:10000000E06B00206102000819400008FF3700087B
:10001000813D000835090008654E00080000000019
:10002000000000000000000000000000A101000826
:10003000930B000800000000FD010008A942000821
:100040007B0200087B0200087B0200087B0200089C
:100050007B0200087B0200087B0200087B0200088C
:100060007B0200087B0200087B0200087B0200087C
:100070007B0200087B0200087B0200087B0200086C
:10008000690A00087B0200087B0200087B02000866
:10009000A50900087B0200087B020008950B0008F8
:1000A0007B0200087B0200087B0200087B0200083C
:1000B00089430008994300087B0200087B0200087E
:1000C0007B0200087B0200087B0200087B0200081C
:1000D0007B020008314C00087B020008414C0008FC
:1000E0007B0200087B0200087B0200087B020008FC
:1000F0007B0200087B0200087B0200087B020008EC
:100100007B0200087B0200087B0200087B020008DB
:10011000094500087B0200087B0200087B020008FA
:100120007B020008790A00087B0200087B020008B5
:100130007B0200087B0200087B0200087B020008AB
:10014000290A00087B0200087B0200087B020008E5
:100150007B0200087B0200087B0200087B0200088B
:100160007B0200087B0200087B0200087B0200087B
:100170007B0200087B0200087B02000800000000F0
:100180007B0200087B020008DFF810D000F04CFB77
:1001900000480047F55E0008AFF30080E06B0020E8
:1001A0002C4B19680868B0E8F04F80F30988BFF35A
:1001B0006F8F4FF0000080F311887047000000003F
:1001C00008480068006880F308884FF0000080F35A
:1001D000148862B661B6BFF34F8FBFF36F8F00DF35
:1001E00000BF00BF08ED00E0DFF80C00016841F43B
:1001F00070010160704700BF88ED00E0EFF30980F7
:10020000BFF36F8F134B1A681EF0100F08BF20ED5D
:10021000108A20E9F04F106009B44FF0500080F3CD
:100220001188BFF34F8FBFF36F8F07F08BFB4FF039
:10023000000080F3118809BC19680868B0E8F04F25
:100240001EF0100F08BFB0EC108A80F30988BFF3CE
:100250006F8F704710040020EFF305807047000097
:100260000648804706480047FEE7FEE7FEE7FEE750
:10027000FEE7FEE7FEE7FEE7FEE7FEE77543000860
:10028000890100082DE9F05F0546002092469B4653
:1002900088460646814640241BE02846414647469C
:1002A000224600F00AFA53465A46C01A914110D32A
:1002B00011461846224600F0F1F92D1A67EB0108A5
:1002C0004F4622460120002100F0E8F917EB000913
:1002D0004E41201EA4F10104DFDC484631462A4687
:1002E0004346BDE8F09F40EA01039B0703D009E0C5
:1002F00008C9121F08C0042AFAD203E011F8013B12
:1003000000F8013B521EF9D27047D2B201E000F86A
:10031000012B491EFBD270470022F6E710B51346A9
:100320000A4604461946FFF7F0FF204610BD2DE9A6
:10033000FE4F804681EA0300C00F0C46009021F07A
:10034000004123F00045B8EB0200A94105D2404628
:10035000214690461C460B46024623F000401043BF
:1003600047D0270DC7F30A00C3F30A510290401A81
:10037000019040286BDAC3F3130040F4801B00980F
:10038000924620B10023D2EB030A63EB0B0B0198DA
:100390005946C0F14002504600F080F906460D462D
:1003A00050465946019A00F098F910EB0800614157
:1003B000002487EA115284EAE7731A4340D0009A76
:1003C00062B3019A012A4FEA075215DC001B61EB68
:1003D00002014FF0004202EA0752CDE90042001C40
:1003E00041F5801132462B4600F0CFF903B0BDE84D
:1003F000F08F40462146F9E7001B61EB0201001C2B
:1004000041F5801300185B412018A2F5001747EB57
:10041000030140EAD570B6196D4111E06D084FEA4D
:10042000360645EAC0754FEA0752001B61EB020130
:10043000001C41F5801149084FEA30000019514174
:1004400032462B4603B0BDE8F04F00F08FB900985C
:10045000012240000023D0EB020263EBE07300981E
:1004600021464FEAE074B8EB000061EB0401E9E7D4
:1004700083F000435BE781F0004158E72DE9FE4F30
:1004800081EA030404F0004421F0004100944FF09D
:10049000000B23F0004350EA01045ED052EA03044B
:1004A0005BD0C3F30A54C1F30A552C44A4F2F334CD
:1004B0000194A0FB0254C1F3130141F48011C3F372
:1004C000130343F4801301FB024400FB034E840A30
:1004D000970A44EA815447EA8357A4FB07680295C8
:1004E0008D0A05FB07854FEA932C04FB0C54270566
:1004F000029D4FEA065847EA1637B5EB08056EEB42
:10050000070C870E920E47EA811742EA8312A7FB77
:100510000201B6EB0B0164EB00042B0D43EA0C3334
:100520005E1844EB1C50DA465146E7FB0201C5F366
:1005300013044FEA0B3343EA14534FEA0432019C8D
:1005400043EA0603A4F10C040294009CCDE900B434
:1005500000F01BF903B0BDE8F08F00200146F9E779
:100560002DE9F04D81EA030404F0004B21F0004531
:1005700014464FF0000A23F0004150EA050220D053
:1005800054EA01021DD0C5F30A570246C5F313030E
:10059000C1F31300C1F30A5640F4801543F48013ED
:1005A000A7EB0608101BD64608F2FD3873EB0500D2
:1005B00002D308F1010801E092185B41B8F1000F85
:1005C00003DA00200146BDE8F08D00204FF48011D1
:1005D000064684460EE0171B73EB050705D3121B76
:1005E00063EB050306434CEA010C49084FEA30006F
:1005F00092185B4150EA0107EDD152EA030012D094
:1006000082EA040083EA0501084305D0101BAB41D0
:1006100006D20122002306E000224FF0004302E050
:100620006FF0010253101AEB06004CEB085110EB6F
:100630000A0041EB0B01BDE8F04D00F097B800F067
:10064000004230F000400AD0C10D01F56071C0F3E6
:10065000160042EA0151C2084007114370470020CA
:100660000146704701F0004330B421F0004150EAE8
:10067000010206D00A0DA2F56072C1F31301002A2F
:1006800002DC30BC00207047440F44EAC104C100C2
:10069000E01830BC00EBC25000F031B8202A04DB77
:1006A000203A00FA02F1002070479140C2F1200385
:1006B00020FA03F3194390407047202A04DB203AC4
:1006C00021FA02F00021704721FA02F3D040C2F172
:1006D00020029140084319467047202A06DBCB17B9
:1006E000203A41FA02F043EAE07306E041FA02F3ED
:1006F000D040C2F1200291400843194670470029BA
:10070000A8BF7047401C490008BF20F00100704797
:1007100010B4B0FA80FC00FA0CF050EA010404BFF7
:1007200010BC704749B1CCF1200421FA04F411FA4D
:100730000CF118BF012121430843A3EB0C01CB1D91
:100740004FEA00614FEA102042BF002010BC704702
:1007500000EBC35010440029A4BF10BC7047401CDC
:10076000490008BF20F0010010BC704710B5141EEE
:1007700073F1000408DA401C41F1000192185B415A
:100780001A4301D120F0010010BD2DE9F04D924631
:100790009B4611B1B1FA81F202E0B0FA80F2203248
:1007A0009046FFF77BFF04460F4640EA0A0041EA05
:1007B0000B0153465A46084313D0114653EA010031
:1007C00019D0C8F140025046FFF777FF05460E46A4
:1007D000504659464246FFF761FF084305D00120C5
:1007E00004E020463946BDE8F08D0020054346EA86
:1007F000E0762C4337430A986305E40AA0EB08002F
:100800000022FD0A44EA47540A3002D5002001467E
:10081000E9E7010510196941DDE908450019694159
:10082000BDE8F04DA2E70000064C074D06E0E06889
:1008300040F0010394E8070098471034AC42F6D327
:10084000FFF7A6FC848D0008A48D00080EB5C10F2B
:1008500080EAE0700844CA07002140F233438DE883
:100860000E000A460B46FFF790FF03B000BD0EB521
:1008700040F2334102910021CDE900110A460B46B6
:10088000FFF783FF03B000BD70B5C1F30A5201F05A
:1008900000450024C1F3130140F2FF3341F48011FD
:1008A0009A4201DA002070BD40F233439A42A2F22C
:1008B000334203DC5242FFF700FF00E090402C433C
:1008C000F1D0404270BD70B58C1810F8015B15F086
:1008D000070301D110F8013B2A1106D110F8012BB2
:1008E00003E010F8016B01F8016B5B1EF9D12B07D7
:1008F00005D40023521E0DD401F8013BFAE710F88D
:10090000013BCB1A921C03E013F8015B01F8015B79
:10091000521EF9D5A142D8D3002070BD10B50122D6
:100920000249034802F02CFE10BD0000B000002078
:10093000AC0A002000BFFEE700B58BB00020069097
:1009400007900120089000200190042002900020D0
:100950000390049005900120099001A90F4800F030
:1009600003FA08B100F042F90C4800F024FE08B187
:1009700000F03CF90221094800F03BF908B100F011
:1009800035F9002006494860042088600020C860CE
:1009900008200861002008750BB000BDCC090020BC
:1009A000B409002010B5024800F03BFB10BD000068
:1009B000CC09002000B58BB00E20069000200790D7
:1009C0000120089000200190042002900020039054
:1009D00004900590012009900E200A9001A910486A
:1009E00000F0C2F908B100F001F90D4800F0E3FD94
:1009F00008B100F0FBF80221094800F0FAF808B14C
:100A000000F0F4F8002007494860042088600020C6
:100A1000C86008200861002008750BB000BD000008
:100A2000F4090020B409002010B5024800F0F9FADA
:100A300010BD0000F409002030B502460B4600202E
:100A400000210BE0545C84EA2024E4B2054D35F823
:100A5000144084EA0024A0B24C1CE1B29942F1DBBC
:100A600030BD00002889000810B5024800F046FE9D
:100A700010BD0000CC0B002010B5024800F03EFE77
:100A800010BD00002C0C00200146087810381823F7
:100A9000B0FBF3F20848805CC865032A05D90868F2
:100AA0006FF30900001D886503E008686FF3090013
:100AB0008865886D7047000008890008014600209D
:100AC0008A6A8B69CBB932B1012A0DD0022A03D0D0
:100AD000032A10D10EE000BFCB6A03F08073B3F19C
:100AE000807F00D1012007E0CB6AB3F1C07F00D145
:100AF000012001E000E000BF34E08B69B3F5005F46
:100B00001AD132B1012A07D0022A03D0032A11D107
:100B10000AE000BF01200EE0CB6A03F08073B3F15E
:100B2000807F00D1012006E0CB6AB3F1C07F00D105
:100B3000012000E000BF15E032B1012A05D0022AF1
:100B400004D0032A0CD103E000BF00BF012008E05D
:100B5000CB6A03F08073B3F1807F00D1012000E005
:100B600000BF00BF704730B50468246824F48024B7
:100B700005682C60046863608468402C04D10468B4
:100B8000A2600468E16003E00468A1600468E260B8
:100B900030BD704710B5402001F026F810BD0000B0
:100BA00010B501220A490B4802F0EAFC01220A4969
:100BB0000A4802F0E5FC012209490A4802F0E0FC7B
:100BC00000220221012007F029F80749086010BD22
:100BD00090000020AC0A002091000020640A002050
:100BE000100000203C0B00208C00002072B600BFDB
:100BF000FEE710B5024692F82030012B01D0022BFF
:100C000006D110684069084314686061002010BD77
:100C1000506A40F4802050620120F8E7F0B50446A5
:100C20000D461E4694F8207020688368A86800B9B5
:100C300000E000BF012F01D0022F7DD103F08060C2
:100C400030B903F0006018B903F0805000287ED05E
:100C5000C3F30161012088403060A86860B9B5F82D
:100C600000C0E86840EA4C5C206800F5C07000EB0A
:100C70000110C0F800C00FE0D5E901C040EACC0087
:100C8000D5F80CC040EA0C00D4F800C00CF5C07CCC
:100C90000CEB011CCCF80000D5F810C0206800F562
:100CA000C07000EB0110C0F804C0287D01280ED1EF
:100CB000206800F5C07000EB0110406840F4807CB3
:100CC000206800F5C07000EB0110C0F804C0D079B6
:100CD000000692F806C040EA0C4092F805C040EACF
:100CE0000C2092F804C040EA0C00D4F800C00CF5C7
:100CF000C07C0CEB011CCCF80C00D078000692F8FC
:100D000002C040EA0C4092F801C040EA0C2092F880
:100D100000C040EA0C00D4F800C00CF5C07C0CEB1D
:100D2000011CCCF80800206800F5C07000EB011031
:100D3000006840F0010C01E00FE008E0206800F5D9
:100D4000C07000EB0110C0F800C00020F0BD606A68
:100D500040F4001060620120F8E7606A40F48020EF
:100D600060620120F2E70000F0B504460A462168FF
:100D700094F82050012D01D0022D7ED1424901F579
:100D80000071086840F001000860086820F47C5099
:100D900008600868566A40EA06200860107D00F086
:100DA0001F06012000FA06F3C8699843C861A1F53F
:100DB0000071D069C8B9D1F80C029843C1F80C028F
:100DC000908880B2968940EA064601F5107057690E
:100DD00040F83760108880B2168940EA064601F56F
:100DE0001070576900EBC7004660D069012819D11F
:100DF000D1F80C021843C1F80C02908880B2168812
:100E000040EA064601F51070576940F8376090894E
:100E100080B2168940EA064601F51070576900EB6A
:100E2000C7004660906928B9D1F804029843C1F818
:100E3000040204E0D1F804021843C1F80402106966
:100E400028B9D1F814029843C1F8140204E0D1F88B
:100E500014021843C1F81402106A012804D1D1F811
:100E60001C021843C1F81C02D1F8000220F0010056
:100E7000C1F800020020F0BDFFE7606A40F4802066
:100E800060620120F7E7000000640040704770B521
:100E9000044694F82050012D01D0022D7DD151B986
:100EA0002068C06800F0030080B9606A40F4001058
:100EB0006062012070BD2068006900F0030028B95D
:100EC000606A40F4001060620120F3E7206800F5DA
:100ED000D87000EB0110006800F00400906090688A
:100EE00040B9206800F5D87000EB01100068400D93
:100EF000106007E0206800F5D87000EB0110006872
:100F0000C0085060206800F5D87000EB0110006840
:100F100000F00200D060206800F5D87000EB0110EE
:100F2000406800F00F00082802D30820106108E094
:100F3000206800F5D87000EB0110406800F00F0049
:100F40001061206800F5D87000EB0110406800F4D3
:100F50007F40000A9061206800F5D87000EB011016
:100F60004068000C5061206800F5D87000EB01105B
:100F700080681870206800F5D87000EB0110806858
:100F800000F47F40000A5870206800F5D87000EB2C
:100F90000110806800F47F0000E03CE0000C9870D5
:100FA000206800F5D87000EB01108068000ED87042
:100FB000206800F5D87000EB0110C0681871206837
:100FC00000F5D87000EB0110C06800F47F40000A03
:100FD0005871206800F5D87000EB0110C06800F46B
:100FE0007F00000C9871206800F5D87000EB0110AC
:100FF000C068000ED87131B92068C06840F0200088
:101000002668F06005E02068006940F0200026684E
:10101000306100204EE7606A40F480206062012069
:1010200048E72DE9F05F04460025206846692068FE
:10103000D0F80490206887682068D0F80CA0206859
:10104000D0F810B02068D0F8188006F00100002811
:1010500055D007F00100C0B101202168886007F079
:10106000020018B1204600F0D6FA0EE007F00400A6
:1010700010B145F4006508E007F0080010B145F430
:10108000805502E0204600F0C5FA07F48070C8B130
:101090004FF480702168886007F4007018B1204612
:1010A00000F0BBFA0EE007F4806010B145F4005583
:1010B00008E007F4006010B145F4804502E02046E6
:1010C00000F0AAFA07F48030C8B14FF480302168EC
:1010D000886007F4003018B1204600F0A0FA0EE056
:1010E00007F4802010B145F4004508E007F4002023
:1010F00010B145F4803502E0204600F08FFA06F08A
:10110000080038B10AF0100020B145F40075102035
:101110002168C86006F0040040B10AF0080028B158
:1011200008202168C860204600F00EFA06F0020090
:1011300038B12068C06800F0030010B1204600F00C
:1011400005FA06F0400038B10BF0100020B145F46C
:10115000806510202168086106F0200040B10BF086
:10116000080028B1082021680861204600F020FA14
:1011700006F0100038B12068006900F0030010B1DB
:10118000204600F016FA06F4003040B109F01000D5
:1011900028B1102021684860204600F00BFA06F4C0
:1011A000803040B109F0080028B10820216848606B
:1011B000204600F035FA06F4004088B309F0040038
:1011C00078B306F4807020B108F0010008B145F052
:1011D000010506F4007020B108F0020008B145F0E6
:1011E000020506F4806020B108F0040008B145F063
:1011F000040506F40060A0B108F0700088B108F0A2
:101200007000402817D006DC10280BD020280CD006
:10121000302819D10CE0502810D0602814D110E0EB
:101220001DE019E045F008050FE045F010050CE061
:1012300045F0200509E045F0400506E045F0800551
:1012400003E045F4807500E000BF00BF20688069BE
:1012500020F07000216888610420216848602DB169
:10126000606A284360622046FFF710FEBDE8F09FE9
:1012700070B504460CB9012070BD94F8200010B977
:10128000204600F0AFF82068006840F001002168B7
:10129000086000F0B7FD05460DE000F0B3FD401B0F
:1012A0000A2808D9606A40F400306062052084F89A
:1012B00020000120E0E72068406800F001000028DD
:1012C000EBD02068006820F002002168086000F080
:1012D00099FD05460DE000F095FD401B0A2808D950
:1012E000606A40F400306062052084F8200001202C
:1012F000C2E72068406800F002000028EBD1207EA1
:10130000012806D12068006840F08000216808604C
:1013100005E02068006820F0800021680860607E99
:10132000012806D12068006840F04000216808606C
:1013300005E02068006820F0400021680860A07E79
:10134000012806D12068006840F02000216808606C
:1013500005E02068006820F0200021680860E07E39
:10136000012806D12068006820F01000216808607C
:1013700005E02068006840F0100021680860207FC8
:10138000012806D12068006840F008002168086044
:1013900005E02068006820F0080021680860607F90
:1013A000012806D12068006840F004002168086028
:1013B00005E02068006820F0040021680860D4E996
:1013C0000201084321690843616908436168491EB5
:1013D00008432168C86100206062012084F8200071
:1013E000002049E710B586B00446142101A8FEF795
:1013F00093FF4F492068884242D14E480068401C04
:101400004C4908600846006801280FD100BF002041
:1014100000904948006840F000704749086008465D
:10142000006800F00070009000BF00BF00BF002007
:10143000009041481038006840F001003E491039E2
:1014400008600846006800F00100009000BF00BF7F
:101450004FF4C0500190022002900020039003201E
:1014600004900920059001A9344800F0CBFB00222C
:101470000721142000F08EFD142000F077FD55E0C8
:101480002F492068884251D100BF002000902A488F
:10149000006840F08060284908600846006800F055
:1014A0008060009000BF00BF22480068401C2149B6
:1014B00008600846006801280FD100BF0020009096
:1014C0001D48006840F000701B490860084600682D
:1014D00000F00070009000BF00BF00BF002000902F
:1014E00015481038006840F00200134910390860B0
:1014F0000846006800F00200009000BF00BF4FF4F3
:10150000405001900220029000200390032004909C
:101510000920059001A90B4800F074FB0022082166
:10152000402000F037FD402000F020FD06B010BD47
:10153000006400405000002040380240000002409B
:1015400000680040000402407047000010B588B0F9
:101550000446124884420DD1012011490860114B04
:1015600001AA00210D48FFF792FC0E4901A804F0E2
:1015700023FC00BF0C4884420DD1002008490860BC
:101580000A4B01AA00210848FFF781FC074901A87E
:1015900005F0ACFE00BF08B010BD0000CC09002073
:1015A0004C0000203C000020F409002044000020F2
:1015B00070477047704770B5044694F820000128C2
:1015C00022D1022084F820002068006820F0010069
:1015D0002168086000F016FC05460DE000F012FCE2
:1015E000401B0A2808D9606A40F400306062052078
:1015F00084F82000012070BD2068406800F00100E0
:101600000028EBD16062F6E7606A40F40020606277
:101610000120F0E770477047704770477047704788
:10162000704770B50446A56D00F0ECFB064694F8D3
:101630003500022808D08020606500BF002084F8B3
:10164000340000BF012070BD2068006820F0160043
:10165000216808602068406920F0800021684861A6
:10166000206C08B9A06C28B12068006820F0080040
:10167000216808602068006820F001002168086087
:1016800010E000F0BFFB801B05280BD9202060650F
:10169000032084F8350000BF002084F8340000BF28
:1016A0000320D0E72068006800F001000028E8D19E
:1016B00094F85C103F208840A860012084F8350031
:1016C00000BF002084F8340000BF00BFBBE7014624
:1016D00091F83500022803D080204865012070472A
:1016E000052081F835000868006820F001000A68CC
:1016F00010600020F3E70146486D7047F8B50446D6
:10170000002000908C4800684FF41651B0FBF1F7B0
:10171000A56D2E6894F85C1008208840304098B180
:101720002068006800F0040070B12068006820F0B4
:1017300004002168086094F85C1008208840A860C4
:10174000606D40F00100606594F85C1001208840F5
:10175000304068B12068406900F0800040B194F8E2
:101760005C1001208840A860606D40F00200606558
:1017700094F85C1004208840304068B1206800680C
:1017800000F0020040B194F85C1004208840A8608A
:10179000606D40F00400606594F85C101020884093
:1017A000304078B32068006800F0080050B394F827
:1017B0005C1010208840A8602068006800F4802039
:1017C00080B12068006800F4002028B9206CC8B1FE
:1017D0002046216C884715E0A06C98B12046A16C8A
:1017E00088470FE02068006800F4807028B92068FE
:1017F000006820F0080021680860206C10B12046C5
:10180000216C884794F85C102020884030400028E4
:1018100065D02068006800F0100000285FD094F8C0
:101820005C1020208840A86094F83500052828D155
:101830002068006820F01600216808602068406970
:1018400020F0800021684861206C08B9A06C28B1A4
:101850002068006820F008002168086094F85C1097
:101860003F208840A860012084F8350000BF002098
:1018700084F8340000BF206D10B12046216D8847E8
:10188000F8BD2068006800F4802080B120680068FE
:1018900000F4002028B9606C10B12046616C8847C4
:1018A0001DE0E06BD8B12046E16B884717E0206867
:1018B000006800F4807068B92068006820F01000AB
:1018C00021680860012084F8350000BF002084F8FA
:1018D000340000BFE06B10B12046E16B8847606DBB
:1018E00038B3606D00F00100F0B1052084F83500D8
:1018F0002068006820F001002168086000BF00989F
:10190000401C0090B84200D905E02068006800F053
:1019100001000028F3D100BF012084F8350000BF8A
:10192000002084F8340000BFE06C10B12046E16C68
:10193000884700BFA4E70000600000202DE9F041C7
:101940000446002500F05EFA074614B90120BDE800
:10195000F081606A00B100BF022084F8350000BF4A
:10196000002084F8340000BF2068006820F00100E7
:10197000216808600AE000F045FAC01B052805D977
:1019800020206065032084F83500E0E720680068C7
:1019900000F001000028EED12068056821480540CC
:1019A000D4E901010843E1680843216908436169FA
:1019B0000843A1690843E1690843216A08430543D4
:1019C000606A042803D1D4E90B0108430543206869
:1019D00005602068456925F00705606A0543606A6F
:1019E00004280DD1A06A0543E06A48B12046FFF7FC
:1019F00065F828B140206065012084F83500A6E72D
:101A0000206845612046FFF73FF8064694F85C10D1
:101A10003F208840B06000206065012084F83500D8
:101A2000002094E73F8010F02DE9F04704460D4672
:101A300016461F464FF00008D4F8589000BF94F89F
:101A40003400012802D10220BDE8F087012084F88B
:101A5000340000BF94F83500012825D1022084F815
:101A60003500002060653B46324629462046FFF798
:101A70007AF894F85C103F208840C9F80800206884
:101A8000006840F0160021680860206C28B12068CA
:101A9000006840F00800216808602068006840F095
:101AA00001002168086006E000BF002084F83400CF
:101AB00000BF4FF002084046C6E7000010B50446DC
:101AC000402C7AD13D4800683D4908602006406AB4
:101AD0003C49096842F2107202FB01003749086074
:101AE000394908603548008835490988401A37491E
:101AF00008803748007801283CD10846008840F625
:101B00003401884208DB0120314908700020314946
:101B10000870314908703BE02C480088092825DB13
:101B20002A48008840F6020188421FDC27480088C6
:101B30002A49284A127821F8120026480078401CC9
:101B40002449087008460078082821DB08460078F8
:101B5000420022492248FEF7C6FB00201C490870BB
:101B60001C49087001201C49087011E00020184928
:101B700008700DE01548008840F63401884207DB04
:101B8000012013490870002012490870124908709A
:101B900005F0B4F91148408940F2A461884203DAA3
:101BA00000201049087008E00C48408940F2A46108
:101BB000884202DD01200B49087010BDFC000020A6
:101BC000F8000020D0000020CC00002002010020FE
:101BD0000001002001010020CA0000202C19002073
:101BE00090180020D800002010B504460448006872
:101BF000204020B1024804602046FFF75FFF10BD7F
:101C0000143C0140F8B502460B4600250024002094
:101C10000021D6E0012606FA01F51E6806EA050451
:101C2000AC4274D11E7906F00306012E04D01E7951
:101C300006F00306022E13D190684F000326BE4023
:101C4000B0434F00DE68BE403043906050680126CC
:101C50008E40B0431E79C6F300168E40304350606C
:101C60001E7906F00306032E09D0D0684F00032624
:101C7000BE40B0434F009E68BE403043D0601E79E6
:101C800006F00306022E13D1CF0802F1200656F803
:101C900027004E07F70E0F26BE40B0434F07FF0E3A
:101CA0001E69BE403043CF0802F1200646F82700E7
:101CB00010684F000326BE40B0431E7906F00306AD
:101CC0004F00BE40304310605E6806F44036002E80
:101CD00076D000BF002600963C4E366846F480461B
:101CE0003A4F3E603E46366806F48046009600BF96
:101CF00000BF374E8F0856F827008E07370F0F2684
:101D0000BE40B043334EB24202D1002624E057E039
:101D1000314EB24201D101261EE0304EB24201D115
:101D2000022619E02E4EB24201D1032614E02D4EB8
:101D3000B24201D104260FE02B4EB24201D105265A
:101D40000AE02A4EB24201D1062605E0284EB242F0
:101D500001D1072600E008268F073F0FBE40304321
:101D60001B4E8F0846F82700224E3068A0435E685D
:101D700006F4801606B120431E4E3060361D3068D2
:101D8000A0435E6806F4001606B12043194E361DC6
:101D90003060184E361F3068A0435E6806F4003687
:101DA00006B12043134E361F3060361F3068A04303
:101DB0005E6806F4803606B120430E4E083E306061
:101DC000491C1029FFF426AFF8BD0000443802403A
:101DD00008380140000002400004024000080240B0
:101DE000000C0240001002400014024000180240A3
:101DF000001C0240083C01400AB1816101E00B0473
:101E0000836170470148006870470000540000205B
:101E1000034800680349097808440149086070478D
:101E2000540000205C00002010B50D48006840F40C
:101E300000700B4908600846006840F48060086044
:101E40000846006840F480700860032000F0E0F865
:101E50000F2000F007F800F05FF8002010BD000030
:101E6000003C02402DE9F04188B004460027B84606
:101E700000BF002001902348006840F00200214983
:101E800008600846006800F00200019000BF00BF33
:101E900002A903A800F092F9069F1FB900F0B6F955
:101EA000054602E000F0B2F945001748B5FBF0F036
:101EB000A0F1010815481649086040F2E7311448BE
:101EC000C160C0F80480002101618160816100F07F
:101ED000BFFC064696B90E4800F010FD06466EB9E6
:101EE0001D2000F043F8102C07D2002221461D20AF
:101EF00000F050F80748046000E00126304608B0C2
:101F0000BDE8F0814038024040420F00000400402C
:101F10008C0C00205800002008B500BF0020009065
:101F20001148006840F480400F4908600846006886
:101F300000F48040009000BF00BF00BF0020009070
:101F4000081F006840F08050091F086008460068BC
:101F500000F08050009000BF00BF00220F21901EB3
:101F600000F018F808BD0000443802400146084659
:101F700000280DDB00BF00BF00F01F0301229A40C4
:101F800043099B0003F1E023C3F8002100BF00BF19
:101F900000BF70472DE9F05F80460D4616460027CA
:101FA00002F07AFF074639462A46334601F0070019
:101FB000C0F1070ABAF1040F02D94FF0040A01E098
:101FC000C0F1070AD14600F1040ABAF1070F02D2A4
:101FD0004FF0000A01E0A0F1030AD4464FF0010AD5
:101FE0000AFA09FAAAF1010A0AEA020A0AFA0CFA3A
:101FF0004FF0010B0BFA0CFBABF1010B0BEA030BDF
:102000004AEA0B042146404602F04EFFBDE8F09F2D
:1020100000BF00F00702064B19684FF6FF03194096
:10202000044B0B4343EA0221014B196000BF704788
:102030000CED00E00000FA0570B504460D460CB941
:10204000012070BD5848006800F00700A84209D27E
:1020500055490D700846006800F00700A84201D0FD
:102060000120EEE7207800F0020002281DD1207840
:1020700000F00400042805D14C48006840F4E0500A
:102080004A490860207800F00800082805D1474830
:10209000006840F46040454908604448006820F00A
:1020A000F000A168084341490860207800F0010071
:1020B000A8B36068012807D13C4808380068C0F31D
:1020C0004040B8B90120BCE76068022802D06068CF
:1020D000032807D1354808380068C0F3406048B984
:1020E0000120AEE7314808380068C0F3400008B965
:1020F0000120A6E72D48006820F00300616808432E
:102100002A490860FFF77EFE064609E0FFF77AFEDF
:10211000801B41F28831884202D9032091E707E011
:102120002248006800F00C006168B0EB810FEDD12F
:102130001D48006800F00700A84209D91A490D702F
:102140000846006800F00700A84201D0012078E7A7
:10215000207800F00400042807D11448006820F417
:10216000E050E168084311490860207800F0080059
:10217000082808D10D48006820F46040216940EA31
:10218000C1000A49086000F061F808490968C1F314
:102190000311074A515CC8400649086006480068B8
:1021A000FFF760FE00204CE7003C02400838024088
:1021B0001089000860000020580000200F220260F3
:1021C0000D4A126802F0030242600B4A126802F0E4
:1021D000F0028260084A126802F4E052C260064AC5
:1021E000126802F46042D2080261044A126802F0E6
:1021F00007020A607047000008380240003C0240B5
:1022000001480068704700006000002000B5FFF73B
:10221000F7FF04490968C1F38221034A515CC840B1
:1022200000BD0000083802402089000800B5FFF713
:10223000E7FF04490968C1F34231034A515CC840D1
:1022400000BD000008380240208900082DE9F04751
:10225000002400250026A1462548006800F00C0057
:1022600020B1042805D008283AD105E0DFF8849091
:1022700039E0DFF8849036E01D48001F006800F068
:102280003F041B48001F006800F4800078B11A4822
:102290001749091F0968C1F38811A0FB01700146A5
:1022A000224600233846FDF7EDFF05460EE01148B3
:1022B0000F49091F0968C1F38811A0FB017001468D
:1022C000224600233846FDF7DDFF05460848001F7B
:1022D0000068C0F30140401C4600B5FBF6F902E07F
:1022E000DFF8109000BF00BF4846BDE8F08700004F
:1022F000083802400024F40000127A00F8B50446C1
:102300000CB90120F8BD207800F00100002874D03D
:10231000F948006800F00C0004280DD0F648006869
:1023200000F00C00082813D1F348001F006800F4E7
:102330008000B0F5800F0BD1EF4808380068C0F37B
:102340004040002859D06068002856D10120D9E7C4
:1023500000BF6068B0F5803F08D1E74808380068E2
:1023600040F48030E449083908601EE06068B0F548
:10237000A02F0DD1E0480838006840F48020DE49E5
:10238000083908600846006840F4803008600CE0B6
:10239000D9480838006820F48030D74908390860E7
:1023A0000846006820F48020086000BF606890B193
:1023B000FFF728FD054606E0FFF724FD401B6428D3
:1023C00001D903209EE7CC4808380068C0F340409C
:1023D0000028F1D011E0FFF715FD054606E0FFF7F4
:1023E00011FD401B642801D903208BE7C24808383F
:1023F0000068C0F340400028F1D1207800F00200CE
:1024000002285FD1BC48006800F00C0058B1BA48FF
:10241000006800F00C0008281CD1B748001F0068B5
:1024200000F48000B0B9B44808380068C0F3400038
:1024300020B1E068012801D0012063E7AE480838E8
:10244000006820F0F800216940EAC100AA49083973
:10245000086037E0E06800B30120A8490860FFF792
:10246000D1FC054606E0FFF7CDFC401B022801D950
:10247000032047E7A04808380068C0F34000002860
:10248000F1D09D480838006820F0F800216940EA42
:10249000C10099490839086014E000209749086094
:1024A000FFF7B0FC054606E0FFF7ACFC401B022836
:1024B00001D9032026E7904808380068C0F340009F
:1024C0000028F1D1207800F0080008282CD160699C
:1024D000A8B101208A490860FFF794FC054606E090
:1024E000FFF790FC401B022801D903200AE782482D
:1024F0006C300068C0F340000028F1D014E00020E8
:102500007F490860FFF77EFC054606E0FFF77AFC8E
:10251000401B022801D90320F4E677486C3000689C
:10252000C0F340000028F1D1207800F00400042816
:1025300070D1002770483830006800F0805090B9A2
:1025400000BF002000906C483830006840F0805098
:102550006949383108600846006800F080500090F2
:1025600000BF00BF01276748006800F48070B0B961
:102570006448006840F4807062490860FFF742FCDC
:10258000054606E0FFF73EFC401B022801D9032068
:10259000B8E65C48006800F480700028F2D000BF04
:1025A000A068012808D154486830006840F0010054
:1025B0005149683108601DE0A06805280DD14E48DA
:1025C0006830006840F004004B49683108600846F4
:1025D000006840F0010008600CE04748683000687F
:1025E00020F001004449683108600846006820F086
:1025F0000400086000BFA068A8B1FFF703FC05460F
:1026000009E0FFF7FFFB401B41F28831884202D905
:10261000032077E626E0384868300068C0F34000C1
:102620000028EED013E0FFF7EDFB054608E0FFF7CA
:10263000E9FB401B41F28831884201D9032061E661
:102640002D4868300068C0F340000028EFD1012F0A
:1026500007D129483830006820F0805026493831A9
:10266000086000BFA069002845D02348006800F03A
:102670000C0008285DD0A069022845D100201F4920
:102680000866FFF7BFFB054606E0FFF7BBFB401BF4
:10269000022801D9032035E6174808380068C0F33E
:1026A00040600028F1D1D4E907010843616A40EA9B
:1026B00081110122A06AC2EB500041EA00412C20A6
:1026C000005D41EA00600C49091F086001200B49C8
:1026D0000866FFF797FB054606E0FFF793FB401BF4
:1026E000022801D903200DE6034808380068C0F32A
:1026F00040600028F1D049E008380240000047421D
:10270000800E474200700040002021490866FFF714
:1027100079FB054606E0FFF775FB401B022801D94F
:102720000320EFE51B480068C0F340600028F2D1A9
:102730002CE0A069012800D1E4E51648001D0668D8
:10274000A069012820D006F48001E06981421BD1F4
:1027500006F03F01206A814216D147F6C070304032
:10276000616AB0EB811F0FD106F440310122A06AEB
:10277000C2EB5000B1EB004F06D106F070612C2087
:10278000005DB1EB006F01D00120BBE50020B9E591
:1027900000004742003802407047704730B502469B
:1027A0000B4600BF92F83C00012801D1022030BD49
:1027B000012082F83C0000BF022082F83D00106832
:1027C00044681068816824F0700418680443106835
:1027D0004460184D1068A8421BD01068B0F1804FBB
:1027E00017D0154D1068A84213D0144D1068A84298
:1027F0000FD0134D1068A8420BD0124D1068A8429C
:1028000007D0114D1068A84203D0104D1068A8429F
:1028100005D121F0800158680143106881600120D2
:1028200082F83D0000BF002082F83C0000BF00BFDE
:10283000BDE7000000000140000400400008004027
:10284000000C00400004014000400140001800401E
:1028500010B504460CB9012010BD94F83D0028B90C
:10286000002084F83C00204600F026F8022084F87E
:102870003D00211D206801F097FD012084F84600ED
:1028800000BF84F83E0001213F2001554020015542
:102890004120015500BF00BF012084F842004320C1
:1028A0000155442001554520015500BF012084F801
:1028B0003D000020D0E7000038B504462068B0F1A4
:1028C000804F17D100BF002000900B48006840F0F7
:1028D0000100094908600846006800F00100009006
:1028E00000BF00BF002205211C20FFF753FB1C2066
:1028F000FFF73CFB38BD000040380240014691F82C
:102900003D00012801D001207047022081F83D00E0
:102910000868C06840F001000B68D8601A4B08686E
:1029200098421BD00868B0F1804F17D0174B086849
:10293000984213D0164B086898420FD0154B086880
:1029400098420BD0144B0868984207D0134B086884
:10295000984203D0124B086898420CD108688068EE
:1029600000F00702062A0CD00868006840F0010059
:102970000B68186005E00868006840F001000B680B
:1029800018600020C0E70000000001400004004083
:1029900000080040000C00400004014000400140DD
:1029A000001800402DE9F04104460D46002700BF05
:1029B00094F83C00012802D10220BDE8F0810120FA
:1029C00084F83C0000BF022084F83D00206886683F
:1029D00026F0770626F47F4620688660286850280F
:1029E00033D00CDC202850D004DC00284BD0102839
:1029F00051D149E0302849D040284CD139E06028F5
:102A00002DD0702807D0B0F5805F03D0B0F5005FFF
:102A100041D10DE041E0D5E902136A68206801F078
:102A200037FD2068866846F077062068866034E0C7
:102A3000D5E902136A68206801F02AFD20688068E1
:102A400040F480402168886027E0EA68696820686F
:102A500001F032FD5021206801F025FD1DE0EA68FB
:102A60006968206801F03BFD6021206801F01BFDD2
:102A700013E0EA686968206801F01EFD40212068C3
:102A800001F011FD09E000BF00BF00BF2968206808
:102A900001F009FD01E0012700BF00BF012084F81B
:102AA0003D0000BF002084F83C0000BF384684E7AA
:102AB000704770B504462068C5682068066906F04E
:102AC0000200022819D105F00200022815D1401F8A
:102AD00021680861012020772068806900F00300E8
:102AE00018B12046FFF7E4FF05E0204600F097F814
:102AF000204600F095F80020207706F00400042816
:102B000019D105F00400042815D1C04321680861DB
:102B1000022020772068806900F4407018B12046B8
:102B2000FFF7C6FF05E0204600F079F8204600F0E8
:102B300077F80020207706F00800082819D105F062
:102B40000800082815D1C0432168086104202077B7
:102B50002068C06900F0030018B12046FFF7A8FF05
:102B600005E0204600F05BF8204600F059F8002010
:102B7000207706F01000102819D105F01000102859
:102B800015D1C04321680861082020772068C069FA
:102B900000F4407018B12046FFF78AFF05E0204698
:102BA00000F03DF8204600F03BF80020207706F0CA
:102BB000010048B105F0010030B16FF0010021685B
:102BC0000861204600F02EF806F08000802809D128
:102BD00005F08000802805D1C043216808612046A7
:102BE000FFF7DAFD06F04000402809D105F040006B
:102BF000402805D1C04321680861204600F05CF8F8
:102C000006F02000202809D105F02000202805D159
:102C1000C043216808612046FFF7BFFD70BD7047C3
:102C20007047000010B504461E492068884202D152
:102C3000FFF7EEF834E02068B0F1804F30D11A4849
:102C400000681A49086018480068401C1649086066
:102C500017480088401C16490880084600886428E8
:102C60001ADB0020088013484088401C1149488026
:102C7000084640883C280FDB0020488008468088B2
:102C8000401C8880084680883C2805DB002088801E
:102C90000846C088401CC88005480088054908804F
:102CA00010BD000000040040D0000020D40000202F
:102CB000C8000020C00000207047F8B504460E464A
:102CC000174694F8420020282ED106B10FB90120F2
:102CD000F8BD01202063002060633A46314620465B
:102CE00001F0ACFE0546EDB9206B012819D100BFFB
:102CF00000200090206800680090206840680090E4
:102D000000BF00BF00BF00BF21680C3151E8001FA9
:102D100041F0100021680C3141E80002002AF3D193
:102D200000E001252846D3E70220D1E770B504462C
:102D30000D461648844212D106221549154803F063
:102D400069FA642213491148FFF7B7FF1248006877
:102D5000006820F0080010490968086014E00F4876
:102D6000844211D102220A490D4803F053FA642229
:102D70000B490A48FFF7A1FF0A480068006820F0E5
:102D8000080008490968086070BD0000840B002035
:102D900040190020AC0E00202C0C0020F40A00206A
:102DA000A00E0020CC0B002010B5044600BF00BFD1
:102DB00021680C3151E8001F21F4907021680C311A
:102DC00041E80002002AF3D100BF00BF00BF216824
:102DD000143151E8001F21F001002168143141E84D
:102DE0000002002AF3D100BF206B01280ED100BFE2
:102DF00000BF21680C3151E8001F21F0100021684C
:102E00000C3141E80002002AF3D100BF206840697C
:102E100000F04000402820D100BF00BF21681431DD
:102E200051E8001F21F040002168143141E8000200
:102E3000002AF3D100BFE06B78B10020E16B086598
:102E4000E06BFEF7EEFB40B1E06BFEF754FC202890
:102E500003D110206064032010BD0020E0852020F5
:102E600084F842000020206300BFF5E710B5044657
:102E7000124884420FD1FFF797FF642210490F4890
:102E8000FFF71BFF0F480068006820F008000D499D
:102E90000968086011E00C4884420ED1FFF784FFF6
:102EA00064220A490848FFF708FF094800680068DB
:102EB00020F0080006490968086010BD840B002056
:102EC0002A0E00202C0C0020F40A00204E0D0020B9
:102ED000CC0B00202DE9F84F0446206805682068D7
:102EE000C668206847694FF00009CA4605F00F0917
:102EF000B9F1000F0AD105F0200038B106F020002A
:102F000020B1204601F005FCBDE8F88FB9F1000FB3
:102F10007CD007F0010018B906F49070002875D035
:102F200005F0010030B106F4807018B1606C40F01B
:102F30000100606405F0040030B107F0010018B131
:102F4000606C40F00200606405F0020030B107F0F0
:102F5000010018B1606C40F00400606405F00800E6
:102F600048B106F0200010B907F0010018B1606CFC
:102F700040F008006064606C002846D005F0200036
:102F800028B106F0200010B1204601F0C2FB2068F5
:102F90004069C0F3801A606C00F0080010B9BAF103
:102FA000000F2DD0204601F05BFB2068406900F047
:102FB0004000402820D100BF00BF2168143151E8F3
:102FC000001F21F040002168143141E80002002A6E
:102FD000F3D100BFE06B50B17748E16B0865E06B5F
:102FE000FEF775FB88B1E06B016D88470DE0204668
:102FF000FFF73CFF09E009E02046FFF737FF04E058
:103000002046FFF733FF002060647DE7206B012836
:1030100078D105F01000002874D006F010000028C8
:10302000FAD000BF0020009020680068009020685F
:103030004068009000BF00BF2068406900F0400079
:10304000402860D1E06B006840681FFA80F8B8F152
:10305000000F56D0A08D404553DDA4F82E80E06BC4
:10306000C069B0F5807F43D000BF00BF21680C313C
:1030700051E8001F21F4807021680C3141E8000202
:10308000002AF3D100BF00BF00BF2168143151E80E
:10309000001F21F001002168143141E80002002ADC
:1030A000F3D100BF00BF00BF2168143151E8001FF9
:1030B00021F040002168143141E80002002AF3D1D8
:1030C00000BF202084F842000020206300BF00BF22
:1030D00021680C3151E8001F21F0100021680C31EB
:1030E00041E80002002AF3D100BFE06BFEF799FA35
:1030F00002206063A08DE28D801A81B22046FFF726
:1031000015FE01E742E0A08DE18D401A1FFA80F81C
:10311000E08DD0B3B8F1000F37D000BF00BF2168F9
:103120000C3151E8001F21F4907021680C3141E806
:103130000002002AF3D100BF00BF00BF2168143194
:1031400051E8001F21F001002168143141E800021C
:10315000002AF3D100BF202084F842000020206321
:1031600000BF00BF21680C3151E8001F21F01000A2
:1031700021680C3141E80002002AF3D100BF02208F
:10318000606341462046FFF7D1FDBDE605F08000B3
:1031900030B106F0800018B1204601F0D3FCB3E650
:1031A00005F0400030B106F0400018B1204601F0B3
:1031B0008DFAA9E600BFA7E62545000810B504462C
:1031C0000CB9012010BDA06900B100E000BF94F867
:1031D000410028B9002084F84000204600F02AF879
:1031E000242084F841002068C06820F40050216841
:1031F000C860204601F00CFB2068006920F4904074
:10320000216808612068406920F02A00216848612F
:103210002068C06840F400502168C86000206064E5
:10322000202084F8410084F842000020606300BF41
:10323000C8E7000010B586B00446142101A8FDF7C8
:103240006BF8C0492068884239D100BF0020009047
:10325000BD48006840F40020BB490860084600688B
:1032600000F40020009000BF00BF00BF00200090CD
:10327000B5481038006840F00400B34910390860C0
:103280000846006800F00400009000BF00BF4FF443
:1032900040600190022002900020039003200490DF
:1032A0000820059001A9A948FEF7ACFC00220521E1
:1032B0003420FEF76FFE3420FEF758FE3FE1A449AC
:1032C000206888423BD100BF002000909E48001D2E
:1032D000006840F010009C49091D0860084600681D
:1032E00000F01000009000BF00BF00BF0020009061
:1032F00095481038006840F0010093491039086083
:103300000846006800F00100009000BF00BF4FF4C5
:10331000C0600190022002900020039003200490DE
:103320000720059001A98B48FEF76CFC02220521BD
:103330002520FEF72FFE2520FEF718FEFFE0864928
:10334000206888424CD100BF002000907E48006871
:1033500040F400307C4908600846006800F4003002
:10336000009000BF00BF00BF0020009076481038DA
:10337000006840F008007449103908600846006889
:1033800000F00800009000BF00BF60200190022004
:10339000029000200390032004900720059001A9CB
:1033A0006E48FEF72FFC6E486E4908604FF00060D3
:1033B000486000216B488160C1604FF48061016109
:1033C000002141618161C16101624162FEF7B6FA8B
:1033D00008B1FDF70BFC00BF6248E0638463AEE018
:1033E00061492068884257D100BF002000905648AC
:1033F000006840F48020544908600846006800F4E2
:103400008020009000BF00BF00BF002000904E4809
:103410001038006840F002004B4910390860084637
:10342000006800F00200009000BF00BF00BF002055
:1034300000900846006840F00800086008460068F0
:1034400000F00800009000BF00BF4FF498400190CA
:103450000220029000200390032004900720059092
:1034600001A94248FEF7CEFB4FF400600190022014
:10347000029000200390032004900720059001A9EA
:103480003648FEF7BFFB012205212720FEF782FD0B
:103490002720FEF76BFD52E03549206888424ED167
:1034A00000BF002000902848001D006840F0200068
:1034B0002549091D08600846006800F020000090BA
:1034C00000BF00BF00BF002000901F4810380068F8
:1034D00040F040001C49103908600846006800F0C0
:1034E0004000009000BF00BF4FF4844001900220D4
:1034F000029000200390032004900820059001A969
:103500001C48FEF77FFB1C481C490860800548608A
:1035100000211A488160C1604FF48061016100217F
:1035200041618161C16101624162FEF707FA08B140
:10353000FDF75CFB00BF1148E063846300BF06B089
:1035400010BD0000004C004040380240000802401E
:10355000001001400000024000440040000C024006
:1035600088600240CC0B002000480040000402406C
:103570000014014000180240286402402C0C002076
:1035800070B504460D46164694F8420020280BD12B
:1035900005B10EB9012070BD0020206332462946D6
:1035A000204601F0AFFAF6E70220F4E738B504460A
:1035B000002553492068884210D100208DF8000072
:1035C000504800788DF8010001224E494E48FFF71F
:1035D000D7FF4C49087802F027FA86E04B4920686B
:1035E000884272D14A480068401C494908604948ED
:1035F00000784949087049480078052857D2DFE823
:1036000000F00311263D4B00434800780D2805D1FA
:1036100042480078401C4149087002E000203F49C0
:10362000087048E03C4800780A2808D100203C494E
:1036300008703A480078401C3849087006E036485F
:1036400000780D2802D000203449087033E0324859
:1036500000783449324A1278885431480078401C46
:103660002F49087008460078182806DB00200870EB
:103670002A480078401C294908701CE02648007838
:103680000A2805D125480078401C2449087002E02A
:103690000020224908700EE01F4800780D2802D152
:1036A000204801F0D5FA00201C49087003E00020F2
:1036B0001A49087000BF00BF002016490870012297
:1036C0001948FFF75DFF10E0FFE7184920688842BE
:1036D0000BD103208DF80000154800788DF801000B
:1036E000012213491348FFF74BFF3DB14FF08050C3
:1036F00011490860BFF34F8FBFF36F8F38BD0000D3
:103700000010014090000020AC0A0020004800405A
:10371000880000201000002092000020930000206C
:1037200094000020B80E00203C0B0020004C00400C
:1037300091000020640A002004ED00E070472DE9AC
:10374000F84F04460E46174699464FF0000A94F883
:103750004100202850D106B117B90120BDE8F88FEB
:1037600000206064212084F84100FEF74BFB824674
:10377000A784E784A068B0F5805F04D1206910B900
:103780000025B04602E035464FF000081EE05346E3
:10379000002280212046CDF8009001F003FA20B1EC
:1037A000202084F841000320D8E745B9B8F800008C
:1037B000C0F308002168486008F1020803E0287897
:1037C000216848606D1CE08C401EE084E08C00287D
:1037D000DDD15346002240212046CDF8009001F073
:1037E000E1F920B1202084F841000320B6E7202031
:1037F00084F841000020B1E70220AFE7704700BF26
:10380000FEE700009FED0C0A80ED000A9FED0B0A19
:1038100080ED010A9FED090A80ED020AB7EE000A69
:1038200080ED030A9FED060A80ED040AB1EE040A5A
:1038300080ED050A704700000AD7A33C0000000095
:103840000AD7233C10B51348134908600320486089
:10385000002111488160C1604FF4002101614FF4E3
:1038600040114161002101760121417600218176DC
:103870000121C176002101774177FDF7F9FC08B1FC
:10388000FDF7B4F9FDF758F802210348FDF7B1F947
:1038900010BD000000640040CC09002010B51248A3
:1038A0001249086003204860002110488160C1600F
:1038B0004FF4002101614FF4401141610021017674
:1038C0000121417600218176C17601774177FDF7AC
:1038D000CFFC08B1FDF78AF9FDF76CF80221034827
:1038E000FDF787F910BD000000680040F4090020D2
:1038F00008B500BF002000901648006840F4001092
:10390000144908600846006800F40010009000BFE9
:1039100000BF00BF002000900846006840F480000F
:1039200008600846006800F48000009000BF00BFF7
:10393000002207211020FEF72DFB1020FEF716FBBA
:10394000002205213920FEF725FB3920FEF70EFB6A
:1039500008BD00003038024010B5124A002112485C
:1039600002F07CFB11490860114A0021114802F065
:1039700075FB11490860114A0021114802F06EFBE5
:1039800010490860104A0021104802F067FB1049F6
:103990000860104A0021104802F060FB0F490860DF
:1039A00010BD0000548800089D4200082800002037
:1039B00078880008853D00082C0000209C880008BD
:1039C0008542000830000020C088000845420008F9
:1039D00034000020E4880008297400083800002022
:1039E00000B587B0142102A8FCF796FC00BF0020A8
:1039F00001907B48006840F004007949086008465F
:103A0000006800F00400019000BF00BF00BF00206C
:103A100001900846006840F02000086008460068F1
:103A200000F02000019000BF00BF00BF0020019007
:103A30000846006840F0800008600846006800F012
:103A40008000019000BF00BF00BF00200190084629
:103A5000006840F0010008600846006800F00100BE
:103A6000019000BF00BF00BF002001900846006821
:103A700040F0100008600846006800F01000019057
:103A800000BF00BF00BF002001900846006840F062
:103A9000020008600846006800F00200019000BFC4
:103AA00000BF00BF002001900846006840F00800F9
:103AB00008600846006800F00800019000BF00BFE1
:103AC00000BF002001900846006840F040000860F8
:103AD0000846006800F04000019000BF00BF0022CF
:103AE00080214048FEF788F901224FF4C1713E4819
:103AF000FEF782F90122D1023C48FEF77DF901224E
:103B000010213B48FEF778F9402002904FF48810CE
:103B100003900020049002A93248FEF773F8802039
:103B200002900120039002200490059002A92D48E4
:103B3000FEF768F801200290002003900120049015
:103B400002A92948FEF75EF84FF4C17002900120E7
:103B500003900490059002A92348FEF753F84FF410
:103B600000600290012003900490059002A91F4874
:103B7000FEF748F84FF40040029000200390012027
:103B8000049002A91A48FEF73DF84FF480400290D5
:103B9000002003900120049002A91648FEF732F895
:103BA0004FF400700290002003900120049002A9BD
:103BB0001148FEF727F8102002900120039004908E
:103BC000059002A90A48FEF71DF8002211461720A9
:103BD000FEF7E0F91720FEF7C9F907B000BD0000B5
:103BE0003038024000140240000002400010024041
:103BF00000040240000C02400008024000B587B0FB
:103C000000200390049005900690019002904FF0E0
:103C100080401449086053204860002111488160A9
:103C200042F21071C1600021016180218161FEF7C3
:103C30000FFE08B1FCF7DAFF4FF48050039003A9A0
:103C40000848FEF7AFFE08B1FCF7D0FF0020019056
:103C5000029001A90348FEF7A1FD08B1FCF7C6FFD9
:103C600007B000BD1C0A002010B50B480B490860C6
:103C70004FF4E1304860002108488160C160016173
:103C80000C21416100218161C161FFF797FA08B100
:103C9000FCF7ACFF10BD0000004C0040640A00209F
:103CA00010B50B480B4908604FF4E1304860002123
:103CB00008488160C16001610C214161002181617E
:103CC000C161FFF77BFA08B1FCF790FF10BD00005F
:103CD00000100140AC0A002010B50B480B490860E9
:103CE0004FF416504860002108488160C1600161AE
:103CF0000C21416100218161C161FFF75FFA08B1C8
:103D0000FCF774FF10BD000000440040F40A0020DE
:103D100010B50B480B4908604FF4E13048600021B2
:103D200008488160C16001610C21416189018161A4
:103D30000021C161FFF742FA08B1FCF757FF10BD3F
:103D4000004800403C0B002010B50B480B490860B0
:103D50004FF416504860002108488160C16001613D
:103D60000C21416100218161C161FFF727FA08B18F
:103D7000FCF73CFF10BD000000140140840B002044
:103D800000BFFEE700BF1C48B0F9080000EE100AB3
:103D9000B8EEC00A194880ED000A1748B0F94C0087
:103DA00000EE100AB8EEC00A144880ED010A12486D
:103DB000B0F9900000EE100AB8EEC00A0F4880ED8E
:103DC000020A0D48B0F9D40000EE100AB8EEC00A9D
:103DD0000A4880ED030A084890ED050A074880ED7F
:103DE000040A034608220121054803F0C7F90A2006
:103DF00003F0C8FCC7E70000F01000209409002081
:103E0000AC0A002010B52DED028B554890ED180A34
:103E1000544880ED030A524890ED070A524880ED5D
:103E2000030A4F4890ED290AB1EE400A4F4880ED51
:103E3000030A4B48B0F94C0000EE900AF8EEE00A95
:103E4000B0EE600A474800F0E9F8B0EE408A03F0AF
:103E500043F84349A1F850000846B0F9080000EEC5
:103E6000900AF8EEE00AB0EE600A3F4800F0D6F89B
:103E7000B0EE408A03F030F8394988810846B0F93D
:103E8000900000EE900AF8EEE00AB0EE600A3748C3
:103E900000F0C4F8B0EE408A03F01EF83049A1F8F3
:103EA00094003348B0F9080000EE900AF8EEE00AFA
:103EB000B0EE600A2F4800F0B1F8B0EE408A03F08F
:103EC0000BF82B4988810846B0F94C0000EE900AA7
:103ED000F8EEE00AB0EE600A274800F09FF8B0EE76
:103EE000408A02F0F9FF2249A1F850000846B0F9D3
:103EF000900000EE900AF8EEE00AB0EE600A1F486B
:103F000000F08CF8B0EE408A02F0E6FF1849A1F804
:103F100094000846B0F9D40000EE900AF8EEE00AEA
:103F2000B0EE600A164800F079F8B0EE408A02F070
:103F3000D3FF0F49A1F8D800B1F90A0003F08EFDB4
:103F40000B4880ED050A0146B1F90C0003F086FD2F
:103F5000074880ED040A01F0B1FCBDEC028B10BDF6
:103F6000D00E0020A8160020E41600202017002004
:103F7000F01000205C17002098170020D4170020B4
:103F80001018002010B5F7EE002A9FED172AF0EE6A
:103F9000001A9FED161ADFED160A9FED160A164855
:103FA00000F02EF9DFED152A9FED0F2AF2EE041A2C
:103FB000B6EE001ADFED120AB7EE080A114800F05B
:103FC0001FF9DFED0E2A9FED082ADFED0F1AB0EE84
:103FD000081AF6EE000A9FED0D0A0D4800F010F9E0
:103FE00001200C49C86010BD000000008FC2753D63
:103FF0000AD7A33CCDCC4C3E881A00200AD7A33B5D
:104000009A99993E501A00200000964366668640B1
:10401000C01A00201C19002000BFFEE7F0EE400A85
:1040200090ED030A30EE600A80ED0E0A90ED0E0A64
:1040300090ED0C1AB4EEC10AF1EE10FA0AD290ED2E
:104040000E0AB5EEC00AF1EE10FA03DD9FED540A38
:1040500080ED0E0A90ED0E0A90ED0C1AB1EE411AA9
:10406000B4EEC10AF1EE10FA0ADD90ED0E0AB5EEDB
:10407000C00AF1EE10FA03D29FED490A80ED0E0A54
:1040800090ED000A90ED0E1A20EE010A80ED060A6E
:1040900090ED070A90ED0E1A30EE010A80ED070A46
:1040A00090ED0E0A90ED0D1AB4EEC10AF1EE10FA81
:1040B00003DD9FED3B0A80ED070A90ED0E0A90EDBF
:1040C0000D1AB1EE411AB4EEC10AF1EE10FA03D2A4
:1040D0009FED330A80ED070A90ED070A90ED0A1A6A
:1040E000B4EEC10AF1EE10FA03DD90ED0A0A80ED9C
:1040F000070A90ED070A90ED0A1AB1EE411AB4EEE4
:10410000C10AF1EE10FA05D290ED0A0AB1EE400AAA
:1041100080ED070A90ED010A90ED071A20EE010AE2
:1041200080ED040A90ED0E0A90ED081A30EE410A77
:1041300090ED021A20EE010A80ED050A90ED0E0ABC
:1041400080ED080A90ED060A90ED041A30EE010A9F
:1041500090ED051A30EE010A80ED090A90ED090A8A
:1041600090ED0B1AB4EEC10AF1EE10FA04DD90EDF9
:104170000B0A80ED090A10E090ED090A90ED0B1A88
:10418000B1EE411AB4EEC10AF1EE10FA05D290ED8B
:104190000B0AB1EE400A80ED090A90ED090A70475A
:1041A0000000000080ED000AC0ED010A80ED021A57
:1041B000DFED123AC0ED033ADFED103AC0ED043AFC
:1041C000DFED0E3AC0ED063ADFED0C3AC0ED053AF0
:1041D000DFED0A3AC0ED073ADFED083AC0ED083AE4
:1041E000DFED063AC0ED093AC0ED0A1A80ED0B2A60
:1041F000C0ED0C2A80ED0D3A704700000000000071
:1042000080ED082AC0ED0A1A80ED000AC0ED010A0F
:1042100080ED021A9FED0A3A80ED0B3A80ED033AE9
:1042200080ED043A80ED093A80ED073A80ED053AD9
:1042300080ED063A012180F83010C0ED0D2A70475C
:104240000000000000BF0D480078012801D102F0F5
:1042500071FE02F0F9FF0A480088B0F5487F06DADF
:1042600040F2DC50064908804880C8808880FFF70B
:10427000C9FD012003F086FAE5E70000CA0000202E
:104280002C19002000BF04480068401C0249086047
:10429000052003F077FAF6E71800002000BF00BF02
:1042A0000A2003F06FFAFBE710B54FF0E020006939
:1042B00004F07AF8012801D003F096FC10BD00004C
:1042C00000B593B0302107A8FCF726F8142102A806
:1042D000FCF722F800BF002001902448006840F05D
:1042E0008050224908600846006800F08050019024
:1042F00000BF00BF00BF002001901D48006840F4CF
:1043000080401B4908600846006800F48040019026
:1043100000BF00BF012007900004089002200D900C
:1043200041050E9108210F914FF4A87110910221BF
:1043300011910421129107A8FDF7E0FF08B1FCF7E5
:1043400055FC0F20029002200390002004904FF4AF
:10435000A05005904FF480500690052102A8FDF76B
:104360006BFE08B1FCF742FC13B000BD40380240C0
:10437000007000400348006840F470000149086084
:104380007047000088ED00E010B50248FEF791FB91
:1043900010BD00001C0A002010B50248FEF789FB82
:1043A00010BD00008C0C002010B502682D4B984207
:1043B0000ED0B0F1804F0BD02B4B984208D02B4B36
:1043C000984205D02A4B984202D02A4B984203D1FA
:1043D00022F070024B681A43224B984220D0B0F171
:1043E000804F1DD0204B98421AD0204B984217D0B6
:1043F0001F4B984214D01F4B984211D01E4B98422D
:104400000ED01E4B98420BD01D4B984208D01D4B2E
:10441000984205D01C4B984202D01C4B984203D1C5
:1044200022F44072CB681A4322F080034C6943EABD
:10443000040202608B68C3620B688362094B984276
:1044400002D00C4B984201D10B69036301234361F5
:10445000036903F001031BB1036923F00103036146
:1044600010BD0000000001400004004000080040B2
:10447000000C0040000401400040014000440140A5
:104480000048014000180040001C0040002000408F
:1044900030B50C46816821F47F4142EA032525436B
:1044A0002943816030BD0A46816821F0700142F0E5
:1044B000070319438160704730B50B461446026A02
:1044C000056A25F001050562816921F0F00141EAE4
:1044D000041122F00A021A438161026230BD30B534
:1044E0000B461446026A056A25F0100505628169CB
:1044F00021F4704141EA043122F0A00242EA0312A1
:104500008161026230BD000010B5012203490448F8
:10451000FFF736F80248FEF7DDFC10BDC4030020AB
:10452000640A002070B50546AC6B0020E085E0848D
:104530002046FEF79BFC70BD70B506460025B46BA7
:1045400020684069C0F3C01594F84100212805D1C6
:1045500025B10020E084204600F0C8F820684069BA
:10456000C0F3801594F84200222805D125B100201F
:10457000E085204600F074F8606C40F01000606444
:104580002046FEF773FC70BD70B50546AC6B28681D
:10459000006800F48070002842D1E08500BF00BFB1
:1045A00021680C3151E8001F21F4807021680C3122
:1045B00041E80002002AF3D100BF00BF00BF21681C
:1045C000143151E8001F21F001002168143141E845
:1045D0000002002AF3D100BF00BF00BF21681431E0
:1045E00051E8001F21F040002168143141E8000229
:1045F000002AF3D100BF202084F84200206B01285C
:104600000ED100BF00BF21680C3151E8001F21F01E
:10461000100021680C3141E80002002AF3D100BFEC
:1046200000206063206B012804D1A18D2046FEF795
:104630007DFB02E02046FEF7B9FF70BD70B5054670
:10464000AC6B01206063206B012805D1A08D41086F
:104650002046FEF76BFB02E02046FFF76FF870BDC7
:1046600000BF00BF02680C3252E8002F22F49071A4
:1046700002680C3242E80013002BF3D100BF00BFE8
:1046800000BF0268143252E8002F22F001010268D4
:10469000143242E80013002BF3D100BF016B012953
:1046A0000ED100BF00BF02680C3252E8002F22F08A
:1046B000100102680C3242E80013002BF3D100BF56
:1046C000202180F8421000210163704710B5044694
:1046D0002068C06820F040002168C860202084F86D
:1046E00041002046FFF78AF8002010BD00BF00BF40
:1046F00002680C3252E8002F22F0C00102680C322E
:1047000042E80013002BF3D100BF202180F84110B4
:104710007047F8B5044694F84200222875D1A06885
:10472000B0F5805F0CD1206950B90025A66A2068D9
:104730004068C0F308003080A06A801CA06215E0C9
:10474000A56A0026A068B0F5805F03D0A06828B9EC
:10475000206918B920684068287004E02068406823
:1047600000F07F002870A06A401CA062E08D401E0F
:1047700080B2E085002846D12068C06820F0200083
:104780002168C8602068C06820F480702168C86013
:104790002068406920F0010021684861202084F8E9
:1047A000420000206063206B012826D10020206396
:1047B00000BF00BF21680C3151E8001F21F010003C
:1047C00021680C3141E80002002AF3D100BF2068C3
:1047D000006800F0100010280AD100BF00200090EF
:1047E00020680068009020684068009000BF00BF0B
:1047F000A18D2046FEF79AFA02E02046FEF7D6FE8B
:104800000020F8BD01E00020FBE70220F9E70000EE
:104810002DE9F84F04462068006920F44050E16813
:104820000843216808612169A06808436169084359
:10483000E169084300902068C06849F20C61884330
:10484000009908432168C8602068406920F44070DE
:10485000A16908432168486176492068884203D0ED
:1048600075492068884203D1FDF7E0FC814602E0EB
:10487000FDF7CCFC8146E069B0F5004F6CD1022019
:104880006168A0FB015003461920A9FB0070014696
:104890002A463846FBF7F6FC6421B0FBF1F04FEAFC
:1048A000001A02206168A0FB01510B461920A9FBE8
:1048B00000712A463846FBF7E5FC83460220616812
:1048C000A0FB015003461920A9FB00712A46384677
:1048D000FBF7D8FC6421B0FBF1F000EBC00101EB69
:1048E0000010ABEB8000322101EBC0006421B0FB73
:1048F000F1F000F0F8000AEB400A02206168A0FB2A
:10490000015003461920A9FB007001462A4638468B
:10491000FBF7B8FC834602206168A0FB0150034608
:104920001920A9FB00712A463846FBF7ABFC64212D
:10493000B0FBF1F000EBC00101EB0010ABEB80002D
:10494000322101EBC0006421B0FBF1F000F0070060
:104950005044216888606AE004206168A0FB01502F
:1049600003461920A9FB007001462A463846FBF78A
:1049700089FC824604206168A0FB0150034619208F
:10498000A9FB007001462A463846FBF77BFC6421F0
:10499000B0FBF1F000EBC00101EB0010AAEB8000CE
:1049A000322101EB00106421B0FBF1F000F0F00ABD
:1049B00004206168A0FB017003461920A9FB005187
:1049C0003A462846FBF75EFC6421B0FBF1F00AEBA7
:1049D000001A04206168A0FB01510B461920A9FBB5
:1049E00000712A463846FBF74DFC83460420616877
:1049F000A0FB015003461920A9FB007001462A467E
:104A00003846FBF73FFC6421B0FBF1F000EBC0013E
:104A100001EB0010ABEB8000322101EB00106421B0
:104A2000B0FBF1F000F00F00504421688860BDE851
:104A3000F88F0000001001400014014077B581B0EC
:104A4000044615460298A062A585002060642220D5
:104A500084F842002848E16BC8632848E16B086489
:104A60002748E16BC8640020E16B086502AE32683C
:104A70002368191D2B46E06BFCF7D6FF00BF002012
:104A8000009020680068009020684068009000BF97
:104A900000BF206970B100BF00BF21680C3151E830
:104AA000001F41F4807021680C3141E80002002AA7
:104AB000F3D100BF00BF00BF2168143151E8001FCF
:104AC00041F001002168143141E80002002AF3D1CD
:104AD00000BF00BF00BF2168143151E8001F41F042
:104AE00040002168143141E80002002AF3D100BFE0
:104AF000002004B070BD0000894500083D46000854
:104B00003945000810B5034699629A85DA85002078
:104B10005864222083F84200186928B11868C068D8
:104B200040F480701C68E0601868406940F0010043
:104B30001C6860611868C06840F020001C68E06074
:104B4000002010BD014691F84100212828D1886835
:104B5000B0F5805F0BD1086948B90A6A1088C0F3C4
:104B600008000B685860086A801C086205E00B6A40
:104B7000581C086218780B685860C88C401E80B2B8
:104B8000C88458B90868C06820F080000B68D860F5
:104B90000868C06840F040000B68D860002070478B
:104BA0000220FCE72DE9F84304460D4617469846D7
:104BB000089E31E0701C70B3FDF724F9A0EB0800EB
:104BC000B04200D816B90320BDE8F8832068C06859
:104BD00000F00400F8B1802D1ED0402D1CD02068BC
:104BE0000068C0F3C000B0B100BF00200090206892
:104BF0000068009020684068009000BF00BF204619
:104C0000FFF72EFD0820606400BF002084F84000FC
:104C100000BF0120D8E7FFE7206800682840A842CD
:104C200001D1012000E00020B842C3D00020CBE732
:104C300010B50248FEF74EF910BD0000AC0A002086
:104C400010B50248FEF746F910BD00003C0B0020ED
:104C500010B52DED0E8B04467C4890ED030A80EDD7
:104C6000060A90ED040A80ED070A94ED000A80ED33
:104C7000000A94ED010A80ED010A94ED020A80ED2C
:104C8000020A94ED030A80ED030A94ED040A80ED14
:104C9000040A94ED050A80ED050A90ED050A6C48BA
:104CA00080ED050A694890ED030AD0ED060A30EE62
:104CB000600A80ED080A90ED040AD0ED070A30EE94
:104CC000600A80ED090A90ED0A0AD0ED080A30EE7C
:104CD000200A80ED0A0A90ED0B0AD0ED090A30EEA9
:104CE000200A80ED0B0A90ED000A594880ED0C0A6D
:104CF00090ED0C0AB1EE400A564880ED020A564883
:104D00000068FBF79CFC41EC1E0BB0EE4E0AF0EE87
:104D10006E0A00F045F9B0EE40CAF0EE60CA4B48AA
:104D200090ED0B0A10EE101A0846FBF788FC41ECD8
:104D30001D0B53EC1C2BFBF7A1FB41EC1A0B464857
:104D40000068FBF77CFC41EC1E0BB0EE4E0AF0EE67
:104D50006E0A00F0C1F8B0EE40CAF0EE60CA3B48FF
:104D600090ED0A0A10EE101A0846FBF768FC41ECB9
:104D70001D0B53EC1C2BFBF781FB41EC1B0B53EC85
:104D80001A2BFBF775FB41EC190B9FED340B53EC21
:104D9000102BFBF7E5FB41EC180BFBF763FC2D49EF
:104DA00008602D480068FBF74AFC41EC1E0BB0EE92
:104DB0004E0AF0EE6E0A00F08FF8B0EE40CAF0EE48
:104DC00060CA224890ED0B0A10EE101A0846FBF755
:104DD00036FC41EC1D0B53EC1C2BFBF74FFB41EC5D
:104DE0001A0B1D480068FBF72AFC41EC1E0BB0EEC5
:104DF0004E0AF0EE6E0A00F0D3F8B0EE40CAF0EEC4
:104E000060CA124890ED0A0A10EE101A0846FBF725
:104E100016FC41EC1D0B53EC1C2BFBF72FFB41EC5C
:104E20001B0B53EC1A2BFBF782FA41EC190B9FED8D
:104E30000B0B53EC102BFBF793FB41EC180BFBF720
:104E400011FC04494860BDEC0E8B10BDB818002061
:104E5000E81800201C190020B80000200000000005
:104E600000408F4000BFFEE703B401984100009866
:104E700050EAC12018BF04204A0D18BF40F00100BD
:104E800040F2FF72B2EB515F08BF40F00200012810
:104E900008BF052002B0704702480068C0F3022036
:104EA000704700000CED00E010B5002804DB0A0795
:104EB000130E054A135406E00A07140E034A00F0C5
:104EC0000F031B1FD45410BD00E400E018ED00E0F8
:104ED000EFF305807047000010B52F499FED2C1BA4
:104EE0002DED020B84B0059820F000408842D8BF19
:104EF0009DED040B2DDD2949884209D1049840B964
:104F00004FF0010000F0D4FC00F0A2FC06B010BD90
:104F100005DB9DED040B00F08FFC06B010BD68466C
:104F20009DED040B00F0A0F810F0030004BF9DED10
:104F3000021B9DED000B0CD001280ED09DED021B35
:104F40009DED000B022817D0012000F0DDFB06B01C
:104F500010BD00F0A5FA06B010BD9DED021B9DED41
:104F6000000B012000F0D0FB51EC100B81F0004150
:104F700006B041EC100B10BD00F092FA51EC100B92
:104F800081F0004106B041EC100B10BD00000000A4
:104F90000000000000000000FB21E93F0000F07F5E
:104FA00010B52F499FED2C1B2DED020B84B00598F9
:104FB00020F000408842DCBF00209DED040B32DD74
:104FC0002849884209D1049840B94FF0010000F007
:104FD0006FFC00F03DFC06B010BD05DB9DED040B41
:104FE00000F02AFC06B010BD68469DED040B00F0F1
:104FF0003BF810F0030011D0012818D09DED021BE2
:105000009DED000B02281AD000F04AFA51EC100B6B
:1050100081F0004106B041EC100B10BD9DED021B6C
:105020009DED000B012000F06FFB06B010BD9DED63
:10503000021B9DED000B00F033FA06B010BD0120FD
:1050400000F062FB51EC100B81F0004106B041EC26
:10505000100B10BD00000000000000000000000068
:10506000FB21E93F0000F07F2DE9F14F04462DEDD3
:10507000020B2DED088B8AB09FEDE70B80ED020B44
:10508000139EE74826F0004585420ADC9DED120B91
:10509000002084ED000B0AB0BDEC088B03B0BDE826
:1050A000F08FE0489FEDE0AB9FEDE1BBA84247DD0C
:1050B000E14F9FEDE39B9FEDE48B9DED120B53ECD5
:1050C0001A2B51EC100B002E1CDDFBF7D1F941EC33
:1050D000100BBD4208D053EC1B2B51EC100BFBF70F
:1050E000C7F9C4E900010BE053EC192B51EC100B8C
:1050F000FBF7BEF953EC182BFBF7BAF9C4E9000132
:105100000120C8E7FBF713F941EC100BBD4208D0B2
:1051100053EC1B2B51EC100BFBF709F9C4E9000110
:105120000BE053EC192B51EC100BFBF700F953EC8F
:10513000182BFBF7FCF8C4E900014FF0FF30AAE799
:10514000C348A84279DB9DED120B51EC100B00F027
:1051500037FC41EC180B9FEDC00B53EC102BFBF709
:105160008DF99FEDBF1B53EC112BFBF7E0F8FBF71C
:105170008BFB0746FBF76AFB41EC190B53EC1A2B30
:10518000FBF77CF953EC182BFBF775F941EC180B86
:1051900053EC1B2B51EC190BFBF770F9DFF8C8A28D
:1051A00041EC100B4FEA15580125FA4453EC102B33
:1051B00051EC180BFBF75CF9032DC4E900013DD05D
:1051C000C1F30A5005EB4511A8EB000011398142EB
:1051D00034DA0AEB051BB0EE48AA9BED000BF0EEAB
:1051E00068AA53EC102B51EC190BFBF747F941EC73
:1051F0001B0B51EC1A0B53EC1B2BFBF739F941EC51
:10520000180B51EC1A0B53EC182BFBF731F953EC3C
:105210001B2BFBF72DF99BED020B41EC1A0B53EC0A
:10522000102B51EC190BFBF729F953EC1A2BFBF758
:105230001FF941EC100B6D1CB8E70EE0002EA8BF63
:105240003846BFF628AF94ED000B51EC100B81F0FF
:105250000041C4E9000178421DE7C6F3130040F4A1
:10526000801EC6F30A50A0F2F530471100F01F056A
:10527000C5F12000DDF848B00890002006900790A6
:105280000520EC467949002D07EB0002794408BF60
:1052900051F8221009D051F8223001EB8201AB40C5
:1052A0004A68089922FA01F11943A1FB0E26A1FBD5
:1052B0000B131A449A4234BF0123002303EB060860
:1052C0000CEB8003D3E901A60E448E4234BF0121CA
:1052D000002192448A4411B1924502D903E09245DB
:1052E00001D2012100E00021C3E901A641444CF8AC
:1052F0002010011EA0F10100C4DC029800F1005052
:10530000850F0298DDE903678000DDF81480FBF764
:105310009DFA41EC1A0B3046FBF7A9FA9FED541B9E
:1053200053EC112BFBF7AAF841EC1B0B3846FBF7AB
:105330009EFA9FED511B53EC112BFBF79FF841ECAC
:10534000180B4046FBF793FA9FED4D1B53EC112BC6
:10535000FBF794F841EC190B51EC180B53EC192B9B
:10536000FAF7E5FF53EC1B2BFAF7E1FF53EC1A2B8E
:10537000FAF7DDFFCDE90801002008909DED080B4C
:1053800053EC1A2B51EC100BFBF772F853EC1B2B60
:10539000FBF76EF853EC182BFBF76AF853EC192B5C
:1053A000FBF769F89FED381B53EC112BFBF766F800
:1053B0009FED370B41EC180B53EC102B9DED080BB8
:1053C00051EC100BFBF75AF853EC182BFAF7AFFF20
:1053D0009FED310B41EC180B53EC102B9DED080B9E
:1053E00051EC100BFBF74AF853EC182BFAF79FFF20
:1053F00041EC100B139810F0004F06D06D4251ECA9
:10540000100B81F0004141EC100B284684ED000B9D
:1054100041E6000000000000000000000000000065
:10542000FB21E93F7CD9024000004054FB21F93FB9
:105430003163621A61B4D03DFB21F93F00000000E6
:105440000000601A61B4D03D7370032E8A19A33B2B
:10545000FB2139410000000083C8C96D305FE43F83
:10546000000000000000E03FAA3A0000F839000008
:10547000000000000000103E000000000000103C92
:10548000000000000000103A182D4454FB21F93DA3
:105490003326A611460B113C00000054FB21F93DB8
:1054A00010B52DED040B2DED088B82B0B0EE419AB6
:1054B000F0EE619A0B9820F000449FED4BABB4F1F5
:1054C000795F11DA9DED0A0B51EC100BFBF7DCF95B
:1054D000002801BFB0EE4A0AF0EE6A0A02B0BDEC45
:1054E000088B04BF04B010BD9DED0A0B53EC102BCC
:1054F00051EC100BFAF7C2FF41EC180B3C480621A7
:10550000B0EE480AF0EE680A784400F081F853ECF7
:10551000182B51EC100BFAF7B1FF9DED0A0B41EC83
:105520001B0B53EC192B51EC100BFAF7A7FF41ECB6
:10553000190B53EC1B2B51EC180BFAF79FFF53EC94
:10554000192BFAF795FF9FED2C0B41EC190B53EC3F
:10555000102B51EC180BFAF791FF41EC100B284877
:10556000844210DA53EC192B51EC100BFAF780FF40
:1055700053EC1A2BFAF77FFF41EC100B02B0BDEC95
:10558000088B04B010BD1F48A042BCBF9FED1E1B7E
:105590008DED001B06DBA4F50010019000200090AB
:1055A0009DED001B51EC100B53EC112BFAF760FF33
:1055B0009DED000B41EC180B53EC102B51EC1A0B2A
:1055C000FAF756FF41EC1A0B53EC192B51EC180B60
:1055D000FAF74EFF53EC1A2BFAF74DFF41EC100B84
:1055E000CCE7000000000000000000000000F03FD9
:1055F0001C37000000000000000000000000E03F39
:105600003333D33F0000E93F000000000000D23FE9
:1056100070B504462DED028B4D1E00EBC500B0EEBB
:10562000408AF0EE608A90ED000B35F0060017D04E
:1056300053EC182B51EC100BFAF720FF41EC100B38
:105640006D1E04EBC50090ED001B51EC100B53ECEC
:10565000112BFAF76CFE41EC100B35F00600E7D188
:10566000022D36D0042D1CD0062D1CBFBDEC028BA4
:1056700070BD53EC182B51EC100BFAF7FFFE94EDB4
:105680000A1B53EC112BFAF752FE53EC182BFAF7C6
:10569000F5FE94ED081B53EC112BFAF748FE41EC94
:1056A000100B53EC182B51EC100BFAF7E7FE94EDAE
:1056B000061B53EC112BFAF73AFE53EC182BFAF7B2
:1056C000DDFE94ED040B53EC102BFAF730FE41ECA9
:1056D000100B53EC182B51EC100BFAF7CFFE94ED96
:1056E000021B53EC112BFAF722FE53EC182BFAF79E
:1056F000C5FE94ED001B53EC112BFAF718FEBDEC20
:10570000028B41EC100B70BD31B504462DED040B3E
:105710002DED0A8BB0EE41BAF0EE61BA0B989DED1B
:105720000A0B20F00040B0F1795F0DDA51EC100B5C
:10573000FFF79AFB042808BF00F09AF89DED0A0BCA
:10574000BDEC0A8B05B030BD53EC102B51EC100BA7
:10575000FAF794FE41EC180B9DED0A0B53EC182B55
:1057600051EC100BFAF78AFE41EC190B2C48B0EE05
:10577000480AF0EE680A05217844FFF749FF9FEDDB
:105780002ACBB0EE40AAF0EE60AA9CB353EC1C2BDF
:1057900051EC190BFAF772FE41EC1C0B53EC1A2B6F
:1057A00051EC190BFAF76AFE9FED210B41EC190B36
:1057B00053EC102B51EC1B0BFAF760FE53EC192B3A
:1057C000FAF756FE53EC182BFAF758FE53EC1B2B46
:1057D000FAF74EFE53EC1C2BFAF74AFE9DED0A1B1E
:1057E00053EC112BFAF747FEBDEC0A8B05B041ECE8
:1057F000100B30BDFFE753EC1A2B51EC180BFAF7E6
:105800003DFE53EC1C2BFAF792FD53EC192BFAF7E3
:1058100035FE9DED0A1B53EC112BFAF788FDE3E7EB
:10582000A435000000000000495555555555C5BF29
:10583000000000000000E03F10B553EC102B51ECCD
:10584000100BFAF774FD41EC100B10BD00000000C6
:105850009FED050B10B553EC102B51EC100BFAF724
:105860007FFE41EC100B10BD0000000000000000A6
:105870009FED050B10B553EC102B51EC100BFAF704
:10588000FDFD41EC100B10BD0000000000000010F9
:1058900002E008C8121F08C1002AFAD170477047F9
:1058A000002001E001C1121F002AFBD17047000057
:1058B00001490860704700009804002000B58FB0CF
:1058C00000200B900C9008200D9000208DF83800DF
:1058D0004FF40070099033488089000A32490870FB
:1058E0003048007B48702F48B0F85000000A88709C
:1058F0002C4890F85000C8702A48B0F89400000A6C
:105900000871284890F8940048712648B0F8D800EB
:10591000000A8871234890F8D800C87108AB0A467D
:1059200009A92248FBF77AF910B101202049087033
:105930000020049005900820069000208DF81C009F
:105940004FF4007002901B488089000A1A490870C1
:105950001848007B48701748B0F85000000A88705B
:10596000144890F85000C8701248B0F89400000A2B
:105970000871104890F8940048710E48B0F8D800AB
:10598000000A88710B4890F8D800C87101AB0A462C
:1059900002A90A48FBF742F910B101200449087036
:1059A0000FB000BDD00E002098000020CC090020D0
:1059B000A0000020F0100020A1000020F409002029
:1059C00082B0CDE9000121F0004001909DED000B77
:1059D00002B051EC100B704710B5002821D0114BCC
:1059E0000022001F196803E0814203D80A46496873
:1059F0000029F9D152B11368841A9C4204D100687D
:105A000018441060104602E0506000E0186039B1A0
:105A100002680B1A934203D10B681A44026049686A
:105A2000416010BD9004002030B504464248007823
:105A3000092879D2DFE800F0050D191F283A4148FE
:105A40005500FC2C04D13D48447001203A490870AF
:105A50006EE0FB2C05D1394884700220364908706D
:105A600002E000203449087062E03448C47003202A
:105A7000314908705CE031480470002030490870FA
:105A800004202D49087053E02D4801780078401C0F
:105A90002B4A10702B484454284800781146097846
:105AA000884202DC05202449087041E0234880F840
:105AB00022400620204908703AE0204880F8234020
:105AC00007201D49087033E0FD2C06D11B4880F8E3
:105AD000244008201849087002E000201649087088
