:020000040800F2
:10000000505A00207902000835340008E52F000816
:100010003134000895060008393900080000000056
:10002000000000000000000000000000B1340008E3
:10003000A90700080000000041340008D53400087A
:10004000930200089302000893020008930200083C
:10005000930200089302000893020008930200082C
:10006000930200089302000893020008930200081C
:10007000930200089302000893020008930200080C
:1000800091070008930200089302000893020008F9
:10009000990600089302000893020008AD070008C3
:1000A00093020008930200089302000893020008DC
:1000B000B5350008C1350008930200089302000816
:1000C00093020008930200089302000893020008BC
:1000D0009302000821390008930200082D39000816
:1000E000930200089302000893020008930200089C
:1000F000930200089302000893020008930200088C
:10010000930200089302000893020008930200087B
:1001100019370008930200089302000893020008B0
:10012000930200089D07000893020008930200084C
:10013000930200089302000893020008930200084B
:10014000A506000893020008930200089302000825
:10015000930200089302000893020008930200082B
:10016000930200089302000893020008930200081B
:1001700093020008930200089302000800000000A8
:10018000930200089302000800F002F800F064F8FF
:1001900014A696E8000CB244B344DA4501D100F04D
:1001A0005BF8BAE80F000FA696E83000A5EB04054F
:1001B00004EB0607AAEB0704A7F101074FEA1515A0
:1001C0004FEA3414A4F10104AC4201D300F044F826
:1001D00013F0010F18BFFB1A43F0010300F001F800
:1001E000DBE71847086B0000286B00000A4410F892
:1001F000014B14F00F0508BF10F8015B240908BF7C
:1002000010F8014B6D1E05D010F8013B6D1E01F872
:10021000013BF9D1641E03D0641E01F8015BFBD1E0
:100220009142E4D37047000070470000002300248F
:1002300000250026103A28BF78C1FBD8520728BFF6
:1002400030C148BF0B6070471FB506F0C1FB00F01E
:1002500023F91FBD10B510BD00F0A8F91146FFF736
:10026000F3FF04F023FC00F0C6F903B4FFF7F2FF3C
:1002700003BC00F091F90000094880470948004795
:10028000FEE7FEE7FEE7FEE7FEE7FEE7FEE7FEE746
:10029000FEE7FEE704480549054A064B70470000A3
:1002A000A13500088901000850540020505A002050
:1002B000505600205056002053EA020C00F069808E
:1002C0002DE9F04B4FF00006002B1FBFB3FA83F56A
:1002D00003FA05F424FA05F65E4012BF1643B2FA9B
:1002E00082F502FA05F4C5F120051EBF22FA05FCCD
:1002F00044EA0C04203556EA044C4FEA144418BF73
:10030000641C4FF000084FF00009904271EB030CA1
:1003100039D3002919BFB1FA81F701FA07F6B0FA0B
:1003200080F700FA07F6C7F120071EBF20FA07FC86
:1003300046EA0C062037B6FBF4FCA7EB0507103F96
:1003400007F01F0BCBF120062CFA06F60CFA0BFB7C
:1003500044BFB3460026202FA4BF5E464FF0000BDB
:100360005BEA060C08BF4FF0010B19EB0B0948EBD9
:100370000608ABFB027C06FB02CC0BFB03CCC01BCC
:1003800071EB0C01C1E70B46024641464846BDE809
:10039000F08B13B5084318BF4FF0FF300146AFF3A1
:1003A0000080BDE81C407047032A40F2308010F006
:1003B000030C00F0158011F8013BBCF1020F624400
:1003C00098BF11F801CB00F8013B38BF11F8013B91
:1003D000A2F1040298BF00F801CB38BF00F8013B3E
:1003E00011F0030300F09580083AC0F0088051F83E
:1003F000043B083A51F804CBA0E80810F5E7121DB9
:100400005CBF51F8043B40F8043BAFF30080D207D7
:1004100024BF11F8013B11F801CB48BF11F8012BA3
:1004200024BF00F8013B00F801CB48BF00F8012BC6
:10043000704702F0FF0343EA032242EA024200F05F
:1004400002B84FF0000200B5134694469646203994
:1004500022BFA0E80C50A0E80C50B1F12001BFF47D
:10046000F7AF090728BFA0E80C5048BF0CC05DF8E3
:1004700004EB890028BF40F8042B08BF704748BF31
:1004800020F8022B11F0804F18BF00F8012B7047A5
:10049000704770477047000008487CB5784400906A
:1004A00007487844009C0546019004E02046016816
:1004B00008448047241DAC42F8D17CBD6C68000024
:1004C0006A68000070B50446051F00F055F8006822
:1004D000002C14BF446870BD002C18BFAC423CBF58
:1004E00020466468F8D301680A18AA4218BF45601C
:1004F00003D12A6805461144016028684119A142C8
:100500001CBF6C6070BD6168696021680844286028
:1005100070BD10B5203AC0F00B80B1E81850A0E8CB
:100520001850B1E81850A0E81850203ABFF4F5AFC1
:100530005FEA027C24BFB1E81850A0E8185044BF1D
:1005400018C918C0BDE810405FEA827C24BF51F88A
:10055000043B40F8043B08BF7047D20728BF31F87E
:10056000023B48BF11F8012B28BF20F8023B48BFCF
:1005700000F8012B7047000000487047400400203D
:1005800010B5002000F040F8FFF764FEBDE8104011
:10059000012000F001B8000001491820ABBEFEE7C1
:1005A0002600020000487047380400207546FFF717
:1005B000F9FFAE4605006946534620F00700854620
:1005C00018B020B5FFF766FEBDE820404FF00006EA
:1005D0004FF000074FF000084FF0000BAC46ACE8BE
:1005E000C009ACE8C009ACE8C009ACE8C00921F01A
:1005F00007018D46704710B50446AFF300802046D2
:10060000BDE81040FFF731BE10B500F00BF8BDE8B3
:10061000104000F001B87047002801D0FFF7BCBFC0
:100620007047000010B5002102A000F013F801206F
:1006300010BD0000534947414252543A2041626E76
:100640006F726D616C207465726D696E6174696F33
:100650006E00000070B505460C460A2000E06D1CD7
:1006600000F011F835B128780028F8D102E0641CB8
:1006700000F009F814B120780028F8D1BDE87040E6
:100680000A20AFF3008008B569468DF8000003200A
:10069000ABBE08BDFEE7000040F2B040C2F2000071
:1006A00000F000BA40F2D840C2F2000000F0FAB9FF
:1006B00091B1F0B546F6022201F0030C0429C0F610
:1006C00000020DD24FF0000E0021BCF1000F3AD114
:1006D000BDE8F04088B27047002188B2704700BF83
:1006E00001F0FC01C1F1000E431C00216FF0030476
:1006F0001D19EE788FB286EA172632F816602F7928
:1007000086EA012189B287EA112132F811106F7946
:1007100081EA0626B6B287EA162632F81660AD7967
:1007200086EA012189B285EA112132F811100434D8
:100730000EEB0405043581EA0621D9D104F1040E3B
:10074000BCF1000FC4D010F80E408BB284EA132322
:1007500032F81340BCF1010F84EA0121B8D0704493
:10076000437889B283EA112132F81130BCF1020FCB
:1007700083EA0421ACD0807889B280EA112032F873
:10078000100080EA0321BDE8F04088B27047000005
:1007900040F2FC60C2F2000000F0D6BC40F25C7097
:1007A000C2F2000000F0D0BC70470000402000F012
:1007B0005FBE000072B600BFFEE7000090F8202088
:1007C000013A012A08D8006800F1140200201368D9
:1007D00019431160704700BF00F1240201204FF45B
:1007E00080211368194311607047000010B590F81C
:1007F00020E0D0F800C0AEF1010EBEF1010FDCF830
:1008000008E011D81EF0E05F18D0CEF3016E012091
:1008100000FA0EF018608B68D3B14868CC6844EADF
:10082000C000034318E000BF00F1240101204FF491
:1008300080220B681A430A6010BD00BF00F124013A
:1008400001204FF400120B681A430A6010BD00BF6C
:100850000868CB6843EA40530CEB0E10C0F88031B7
:100860000B69C0F88431097D012905D100F5C271F9
:100870000B6843F480730B605168C0F88C111268E8
:1008800000F5C071C0F88821002001220B681A43CE
:100890000A6010BD90F82020013A012A30D8B0B586
:1008A00046F20060C4F20000026842F001020260F9
:1008B000026822F47C520260D1F814E0CC694A6AE2
:1008C0000368012C43EA022202600EF01F024FF07F
:1008D000010303FA02F2C3696FEA020C23EA02037E
:1008E000C36113D02CBBC36803EA0C03C360CB689D
:1008F0008C8844EA034300EBCE0423640B4611E0EA
:10090000416A41F48021416201207047C36813436A
:10091000C3600B688C8844EA034300EBCE04236475
:1009200001F10C038C681B8843EA044300EBCE04FE
:10093000636443688D6943EA0204D1F810E0096AF0
:10094000002D08BF03EA0C0444604369BEF1000FA8
:1009500043EA020408BF03EA0C040129446102D1FE
:10096000C1691143C161016821F0010101600020EA
:10097000B0BD00007047000010B590F82040013C69
:10098000012C7BD8D0F800C000290CBFDCF80C404B
:10099000DCF81040A4077BD00CEB011CDCF8B04164
:1009A0000CF5D87E14F004049460DCF8B04119BF53
:1009B000E4085460640D1460DEF800400CF5DA7E43
:1009C00004F00204D460DCF8B44124075ABFDEF816
:1009D000004004F00F0408241461DEF800400029F0
:1009E000C4F307249461DEF800404FEA14445461D4
:1009F000DCF8B8211A70026802EB0112D2F8B821B3
:100A00004FEA12225A70026802EB0112D2F8B821A2
:100A10004FEA12429A70026802EB0112D2F8B82132
:100A20004FEA1262DA70026802EB0112D2F8BC21BE
:100A30001A71026802EB0112D2F8BC214FEA1222AD
:100A40005A71026802EB0112D2F8BC214FEA12423D
:100A50009A71026802EB0112D2F8BC214FEA1262CD
:100A6000DA7100680CBF00F10C0100F110010020E8
:100A700020220B681A430A6010BD00BF00F1240158
:100A800001204FF480220B681A430A6010BD00BF9A
:100A900000F1240101204FF400120B681A430A6090
:100AA00010BD00002DE9F04F81B004460068466992
:100AB000D0F804908768D0F80CB0D0F810A0D0F827
:100AC0001880F10704D1002530071DD424E000BFB1
:100AD000F90710D00121BA07816009D4780700F125
:100AE000AF80380700F1B680204600F0C3FA02E07C
:100AF000204600F0C1FA0025F80500F18780F803D0
:100B000000F1B180300707D51BF0100004D0206839
:100B100045F400751021C160700708D51BF008006E
:100B200005D020680821C160204600F001FAB00716
:100B300006D52068C068800702D0204600F0FAF988
:100B4000700607D51AF0100004D0206845F48065BF
:100B500010210161B00608D51AF0080005D0206800
:100B600008210161204600F051FAF00606D5206800
:100B70000069800702D0204600F04AFAB00308D589
:100B800019F0100005D0206810214160204600F0C7
:100B900041FAF00308D519F0080005D020680821B3
:100BA0004160204600F072FA300440F19B805FEA19
:100BB000497040F1948006F4807008EA10202843C0
:100BC0005FEA8871014648BF41F00201B20558BF93
:100BD00001465FEA48700D4648BF45F004057005C0
:100BE00058BF0D46300540F17A8018F0700000F0D3
:100BF00076801038000905286CD8DFE800F003592A
:100C00005D61656945F0080564E000BF20684FF448
:100C10008071BA0581600BD4780515D438051DD4D0
:100C2000204600F02BFAF8037FF56CAF1BE000BF05
:100C3000204600F025FAF8037FF564AF13E000BF0B
:100C40004FF4006558E700BF05F50055F8037FF540
:100C500059AF08E04FF480554EE700BF05F58045D9
:100C6000F8037FF54FAF20684FF48031BA038160FD
:100C70000AD4780310D4380314D4204600F002FAC2
:100C800030073FF541AF47E7204600F0FDF9300758
:100C90003FF53AAF40E700BF05F5004530073FF5A7
:100CA00033AF39E705F5803530073FF52DAF33E732
:100CB00045F010050EE000BF45F020050AE000BF3A
:100CC00045F0400506E000BF45F0800502E000BFAA
:100CD00045F480752068816921F070018161206888
:100CE0000421416055B1606A40EA05012046616215
:100CF00001B0BDE8F04FFFF73DBE00BF01B0BDE859
:100D0000F08F0000002804BF01207047B0B50446F2
:100D100090F8200010B9204600F06EF820680168B5
:100D200041F00101016000F085FC05462068416842
:100D3000C90705D100F07EFC401B0B28F6D310E05C
:100D4000016821F00201016000F074FC054600BF5B
:100D50002068416889070DD500F06CFC401B0B280A
:100D6000F6D3606A052140F400306062012084F807
:100D70002010B0BD217E0268012922F0800208BF48
:100D800080320260617E0268012922F0400208BFC1
:100D900040320260A17E0268012922F0200208BFD1
:100DA00020320260E17E0268012922F0100218BFA1
:100DB00010320260217F0268012922F0080208BF78
:100DC00008320260617F0268012922F0040208BF34
:100DD00004320260D4E901C2D4E9033561691A43DF
:100DE0002A431143ACF101021143C16100200121EA
:100DF000606284F82010B0BD10B586B0006846F679
:100E00000002C4F2000200219042CDE90411CDE9B4
:100E10000211019140D046F20041C4F20001884223
:100E200040F0848040F2F461C2F200010A6843F6A7
:100E30004000C4F20200531C0B6052B90021009123
:100E4000016841F000710160016801F000710091DA
:100E500000990021009150F8102C42F0010240F856
:100E6000102C50F8100C00F00100009000984FF486
:100E7000C05001900220CDE9020103200490092016
:100E800005900020C4F2020001A900F0FDFA142030
:100E900007210022142444E043F64000C4F202007B
:100EA0000091016841F080610160016801F080619A
:100EB0000091009940F2F461C2F200010A68531CEB
:100EC0000B6052B900210091016841F0007101608E
:100ED000016801F00071009100990021009150F823
:100EE000102C42F0020240F8102C50F8100C00F0C8
:100EF0000200009000984FF4405001900220CDE98C
:100F0000020103200490092005900020C4F2020091
:100F100000F5806001A900F0B7FA40200821002206
:100F2000402400F049FC204600F034FC06B010BD1F
:100F300070470000B0B588B040F2B041C2F2000185
:100F4000884207D040F2D841C2F2000188421DD049
:100F500008B0B0BD40F26C65C2F2000505F11004A6
:100F600040F2B040C2F2000001AA00212346FFF780
:100F700003FD0198A0F201200728E9D8DFE800F07E
:100F800004222426282A2C2E286A36E040F26C659A
:100F9000C2F2000505F1180440F2D840C2F2000088
:100FA00001AA00212346FFF7E7FC0198A0F20120E7
:100FB0000728CDD8DFE800F0041416181A1C1E20EC
:100FC000286B1AE0686A18E0A86A16E0E86A14E07C
:100FD000286C12E0686C10E0A86C0EE0E86C0CE085
:100FE000686B0AE0A86B08E0E86B06E0286D04E097
:100FF000686D02E0A86D00E0E86D00283FF4A8AF3E
:1010000001684A682146904708B0B0BD70470000AB
:101010007047000070470000B0B5044690F820000B
:1010200001281DD1022084F820002068016821F0E9
:101030000101016000F0FEFA054600BF206840682B
:10104000C00713D000F0F6FA401B0B28F6D3606AF5
:1010500040F400306062052084F820000120B0BD1B
:10106000606A40F4002060620120B0BD0020606230
:10107000B0BD0000704700007047000070470000DE
:101080007047000070470000704700007047000084
:1010900070B5866D044600F0CDFA94F8351002293B
:1010A00028D105462068216C026822F016020260F1
:1010B000426922F08002426109B9A16C19B101684C
:1010C00021F008010160016821F00101016000BF09
:1010D00020680068C00715D000F0ACFA401B062855
:1010E000F6D320206065032084F83500002184F8C1
:1010F000341070BD802060650120002184F8341018
:1011000070BD00BFE06D3F2101FA00F0B06001202A
:1011100084F835000020002184F8341070BD0000F0
:1011200090F83510022909D1052180F835100068A2
:10113000016821F0010101600020704780214165B4
:1011400001207047406D7047F0B581B00446002023
:10115000009040F20800C2F200000268D4E9166074
:1011600048F2B51337680821C1F64E338140394241
:10117000A2FB03250CD0226813685B0708D513680F
:1011800023F004031360B160616D41F001016165FA
:1011900001218140394208D022685269120604D5E3
:1011A000B160616D41F00201616504218140394205
:1011B00008D022681268920704D5B160616D41F0D1
:1011C0000401616510218140394217D0206802680E
:1011D000120713D5B16002680168520308D4C9052B
:1011E00008D4016821F008010160216C21B905E0F3
:1011F00008033FD4216C09B120468847E16D2020C7
:1012000000FA01F23A4241D020680368DB063DD57E
:10121000B26094F835300268052B1BD122F016021B
:101220000260426922F080024261226C0AB9A26C1B
:101230001AB1026822F0080202603F208840B060C4
:10124000012084F83500216D0020002984F8340045
:1012500052D157E00168520310D4C90512D4016875
:1012600021F010010160012084F83500002084F88D
:10127000340007E0A16C0029BED1BFE7080301D408
:10128000616C00E0E16B09B120468847606DC8B32E
:10129000606DC0072ED0052084F835002068A90AAB
:1012A000026822F001020260009A01328A42009232
:1012B0001AD80268D20717D0009A01328A420092E7
:1012C00012D80268D2070FD0009A01328A420092E7
:1012D0000AD80268D20707D0009A01328A420092E7
:1012E00002D80268D207DFD1012084F8350000203F
:1012F00084F83400E16C29B1204601B0BDE8F0402B
:10130000084700BF01B0F0BD2DE9F041044600F0F0
:1013100091F9ECB10546022084F8350000202168DF
:1013200084F83400086820F001000860216808682B
:10133000C00711D000F07EF9401B0528F6D903251F
:1013400020230320636584F83550BDE8F08100BF99
:101350000120BDE8F08100BF086848F23F02CFF2EB
:101360001002D4E9013500EA020C04F10C0898E8F7
:10137000C10143EA0C032B431843D4E9072E304341
:1013800038431043626A40EA0E00042A40EA080328
:101390001CD1206BD4E90A2E40EA0E0018430860E5
:1013A0004869BEF1000F20F0030040EA020040F05F
:1013B000040C11D0B8F5005F36D0B8F1000F45D15C
:1013C000022A46D0012A3BD032B942E00B6048697C
:1013D00020F0070040EA020C01F0F8004AF6AB22C8
:1013E0001038CAF6AA22A0FB02231A0946F6DC43EB
:1013F000C1F814C0C0F600039A5C40F2FF335F28C6
:101400004FF03F0021EA030100FA02F088BF0431E7
:10141000C4E916128860002301250020636584F862
:101420003550BDE8F08100BF032AD5D801254023FF
:101430000120DFE802F0030E030500BF82E700BFD2
:10144000AEF1C070B0FA80F0400904E0032A04D382
:10145000C2D1CEF300600028BED001254023012078
:10146000636584F83550BDE8F081000070470000E6
:1014700043F61441C4F201010A68024214BF086035
:101480007047FFF7F3BF00002DE9F04F82B000F185
:101490003E4707F1FF77860546EA972741F6004663
:1014A000C4F20206082243F6004EB04208BF0722EB
:1014B000C4F2010E072F38BF3A46002600274FF02E
:1014C0000008009209E000BF08F101080237B8F1F6
:1014D000100F06F1040600F0A3800D68012202FA45
:1014E00008F415EA0409EFD0D1F804B003220BF098
:1014F000030CACF10105BA40012D6FEA020A0FD8C6
:101500008268CD6802EA0A02BD402A4382604268CE
:10151000A243CBF3001404FA08F42243426005E02E
:10152000BCF1030F02D14FF0030C1EE0C2688C68BF
:1015300002EA0A02BC402243BCF1020FC26014D18D
:101540006FF0030202EA58020244D2F820C006F00B
:101550001C040F230D69A3402CEA0303A5402B4371
:101560001362D1F804B00BF0030C02680CFA07F315
:1015700002EA0A021A431BF4403F0260A4D0002290
:1015800043F644030192C4F202031A684FF6084C72
:1015900042F480421A601A68CFF6FF7C02F480425F
:1015A0000192019A28F00302724452F80C3006F0BE
:1015B0000C050F24AC40A343009C04FA05F52B4313
:1015C00042F80C30DEF808204B6842EA090543F681
:1015D0000C4CDC0258BF22EA0905CEF80850C4F2D0
:1015E000010CDCF800209C0242EA090558BF22EAFF
:1015F0000905CCF80050DEF804209C0342EA0905F6
:1016000058BF22EA0905CEF80450DEF80020DB03BB
:1016100042EA090558BF22EA0905CEF8005053E70F
:1016200002B0BDE8F08F0000002A08BF0904816104
:101630007047000044F65450C2F200000068704742
:1016400040F2000044F65451C2F20000C2F2000120
:1016500000780A68104408607047000080B543F6BF
:101660000040C4F20200016841F4007101600168A9
:1016700041F480610160016841F4807101600320E0
:1016800000F0C6F80F2000F005F800F061F8002027
:1016900080BD000070B586B0002543F6400101957D
:1016A000C4F202010A68044642F002020A600968B4
:1016B00001A801F0020101910199694600F06AF95F
:1016C000049E002E18BF012600F084F94DF68361B8
:1016D000B040C4F21B31A0FB01014FF0FF3000EB22
:1016E000914140F6040040F20042C2F20000C4F210
:1016F000000240F2E733C0E90021C0E9025305616E
:10170000856100F0FFFB054610B1284606B070BDAC
:1017100040F60400C2F2000000F044FC0546002838
:10172000F3D11D2000F036F80F2C0DD81D202146D6
:101730000022002500F040F840F20400C2F2000050
:101740000460284606B070BD0125284606B070BD6D
:1017500082B0002043F640010190C4F202014A68C1
:1017600042F480424A604A6802F480420192019A3F
:1017700000900868002240F08050086008680F213F
:1017800000F08050009000986FF0010002B000F06F
:1017900013B80000002848BF704700F01F01012265
:1017A00002FA01F11C2202EAD0004EF20012CEF23F
:1017B000000281507047000010B54EF60C5CCEF26E
:1017C000000CDCF80030C3F3022E8EF00704042C6A
:1017D00028BF0424BEF103034FF0FF3E0EFA04F4C9
:1017E00038BF0023A14399400EFA03F39A431143F3
:1017F00000F00F0200F160430901043A03F564436D
:101800006244002848BF02F10C03197010BD0000AB
:101810004EF60C51CEF200010A684FF6FF031A4053
:1018200060F30A2242F0806040F0FD70086070476B
:10183000002804BF012070472DE9F04143F6080855
:10184000C4F202080446D8F8F8030D4600F0070079
:10185000884207D288F8F853D8F8F80300F0070058
:10186000A84277D12068810717D5410705D5D8F858
:10187000001041F4E051C8F80010010705D5D8F870
:10188000001041F46041C8F80010D8F80010A268B8
:1018900021F0F0011143C8F80010C00740D1D8F87A
:1018A000F80300F00700A84207D988F8F853D8F8E1
:1018B000F80300F00700A8424CD12068410707D583
:1018C000D8F80010E26821F4E0511143C8F8001084
:1018D000000708D5D8F80000216920F4604040EAEC
:1018E000C100C8F8000000F09DF8D8F8001046F6D6
:1018F000EA12C1F30311C0F60002515C40F2080283
:1019000020FA01F140F20400C2F200000068C2F2C5
:1019100000021160FFF7BEFE0020BDE8F08100BFAD
:101920006068811E022907D258F8081C89015CBF33
:101930000120BDE8F08111E0012807D158F8081C0A
:1019400089035CBF0120BDE8F08107E058F8081C5E
:10195000890703D40120BDE8F08100BFD8F800104A
:1019600021F003010843C8F80000FFF763FE0646B4
:1019700041F28837D8F80000616800F00C00B0EB45
:10198000810F8CD0FFF756FE801BB842F2D903209E
:10199000BDE8F0810F22026043F60802C4F20202A1
:1019A000136803F003034360136803F0F0038360DC
:1019B000136803F4E053C360D2F800C04FF4E0535F
:1019C00003EADC030361D2F8F80300F007000860C3
:1019D0007047000040F2080043F60801C2F2000020
:1019E000C4F202010068096846F6FA12C1F38221C6
:1019F000C0F60002515CC8407047000040F2080089
:101A000043F60801C2F20000C4F20201006809684E
:101A100046F6FA12C1F34231C0F60002515CC840EA
:101A20007047000010B543F60404C4F20204606875
:101A300000F00C0142F200400829C0F2F40007D087
:101A4000042918BF10BD41F20020C0F27A0010BD79
:101A5000216801F03F02216823684902C3F388111D
:101A600006D4A1FB00010023FEF726FC07E000BF1F
:101A700041F20020C0F27A004843B0FBF2F0216846
:101A80000222C1F3014102EB4101B0FBF1F010BDB4
:101A9000002804BF012070472DE9F04182B00446C0
:101AA000007843F60006C007C4F202060CD0B06806
:101AB00000F00C00042840F081803068800303D5DA
:101AC0006068002800F06A81207880071BD5B06824
:101AD00010F00C0F09D0B06800F00C00082840F09E
:101AE00087807068400200F183803068800703D5EA
:101AF000E068012840F052813068216920F0F80048
:101B000040EAC10030602078000713D420784007F5
:101B10002AD4A569002D00F03C81B06800F00C00CB
:101B2000082840F0A180012D40F01081012002B072
:101B3000BDE8F0816069002840F20000C4F247204F
:101B400000F07E800121C0F8801EFFF773FD05467E
:101B5000706F8007DAD4FFF76DFD401B0228F7D9BC
:101B6000032002B0BDE8F081306C5FEAC0080AD4FF
:101B700000200190306C40F080503064306C00F0F8
:101B800080500190019847F20007C4F200073868BE
:101B9000C00547D4386840F480703860FFF74AFDCC
:101BA000054600BF3868C0053CD4FFF743FD401B25
:101BB0000228F7D9032002B0BDE8F081B06800F038
:101BC0000C00082803D1706840023FF576AF6068CA
:101BD000B0F5803F07D0B0F5A02F40F09B80306873
:101BE00040F480203060306840F4803030609BE00A
:101BF000E06800285CD00020C4F247200121016089
:101C0000FFF718FD054600BF306880073FF574AF49
:101C1000FFF710FD401B0228F6D9032002B0BDE8F3
:101C2000F08100BFA068012805D0052854D1306F8D
:101C300040F004003067306F40F00100306755E03D
:101C40000021C0F8801EFFF7F5FC0546706F800785
:101C50007FF55CAFFFF7EEFC401B0228F6D90320AE
:101C600002B0BDE8F08100BF0027C4F24727002082
:101C70003866FFF7DFFC022D05460DD13068800184
:101C800040F19080FFF7D6FC401B02284FF0030084
:101C9000F4D902B0BDE8F0813068800179D5FFF752
:101CA000C9FC401B02284FF00300F5D9F1E700BF43
:101CB0000020C4F2472000210160FFF7BBFC05466D
:101CC000306880077FF51FAFFFF7B4FC401B022888
:101CD0004FF00300F4D9DCE7316F002821F0010157
:101CE0003167316F21F0040131677DD0FFF7A2FC2D
:101CF000054641F2883700BF306F800700F18680CB
:101D0000FFF798FC401BB842F6D9032002B0BDE8AB
:101D1000F08100BF3168002821F4803131603168E2
:101D200021F4802131607BD0FFF784FC054600BFA1
:101D3000306880033FF5C8AEFFF77CFC401B642889
:101D4000F6D9032002B0BDE8F08100BF7068E169F8
:101D500000F480028A4221D1216A00F03F028A42C7
:101D60001CD147F6C071626A0140B1EB821F15D1E8
:101D7000A16A4FF6FF73C903994300F44032A1F5FD
:101D800080318A420AD1E16A00F07060B0EB016FE5
:101D900004D1002002B0BDE8F08100BF012002B0F4
:101DA000BDE8F08104F11C052FCD084340EA821004
:101DB000D9034FF6FF729143A1F5803140EA0560E7
:101DC0000843706001203866FFF734FC044600BF0A
:101DD00030688001DDD4FFF72DFC001B02284FF096
:101DE0000300F5D955E700BFFFF724FC054641F293
:101DF000883700BF306F800708D5FFF71BFC401BFA
:101E0000B8424FF00300F5D943E700BFB8F1000F27
:101E10003FF57FAE306C20F08050306479E600BF33
:101E2000FFF708FC054600BF306880037FF54CAE25
:101E3000FFF700FC401B64284FF00300F4D928E7AB
:101E4000704700007047000090F83C20012A4FF0D6
:101E5000020254D010B580F83D200268D2F804E0A8
:101E6000D2F808C00C682EF07003234341F2FF74CF
:101E7000C4F20004A24253600EDC40F2FF73C4F2CD
:101E800000039A4216DCB2F1804F2BD040F200439F
:101E9000C4F2000324E000BF40F2FF33C4F20103A8
:101EA0009A4213DC41F60003C4F200039A4219D0AF
:101EB000002313E040F60003C4F200039A4211D05D
:101EC00040F60043C4F200030AE000BF44F20003FE
:101ED000C4F201039A4205D040F20043C4F2010368
:101EE0009A4204D149682CF0800319439160012182
:101EF000002280F83D1080F83C20BDE810401046DC
:101F000070470000002804BF0120704710B5044648
:101F100090F83D0028B9002084F83C00204600F0ED
:101F20001FF8022084F83D002068211D01F04EFBBF
:101F3000012084F8460084F83E0084F83F0084F8CD
:101F4000400084F8410084F8420084F8430084F89B
:101F5000440084F8450084F83D00002010BD0000D6
:101F60000068B0F1804F18BF704780B582B0002084
:101F7000019043F64000C4F202000168002241F0E3
:101F8000010101600068052100F001000190019845
:101F90001C20FFF711FC1C2002B0BDE88040FFF7B9
:101FA000F9BB000090F83D1001291CBF01207047CB
:101FB000022180F83D10006841F2FF72C168C4F24E
:101FC0000002904241F00101C1600DDC40F2FF715E
:101FD000C4F20001884215DCB0F1804F2AD040F2F3
:101FE0000041C4F2000123E040F2FF31C4F20101DC
:101FF000884213DC41F60001C4F20001884219D086
:10200000002113E040F60001C4F20001884211D023
:1020100040F60041C4F200010AE000BF44F20001B2
:10202000C4F20101884205D040F20041C4F201012E
:10203000884206D1816801F00701062904BF00200B
:102040007047016841F00101016000207047000005
:1020500090F83C20012A4FF0020200F0C58080B5C4
:1020600080F83D20D0F800C04FF67772DCF80830D9
:1020700023EA0202CCF808200B684F2B28DC1F2B28
:1020800044DD202B45D0302B43D0402B40F0AE8098
:10209000D1F804E0C968DCF82030DCF8202022F018
:1020A0000102CCF82020DCF8182022F0F00242EAED
:1020B000011123F00A0242EA0E02CCF81810CCF803
:1020C0002020DCF8081041F0470121F0300180E0C9
:1020D0006F2B27DDB3F5005F48D0B3F5805F7AD072
:1020E000702B40F08380D1E901E3C968DCF8082057
:1020F00043EA0E0322F47F4243EA01211143CCF864
:102100000810DCF8081041F0770162E00BB1102BE9
:102110006CD1DCF8081021F07001194341F007017F
:1021200057E000BF502B35D0602B5FD1D1F804E0D1
:10213000C968DCF82030DCF8202022F01002CCF84E
:102140002020DCF8182022F4704242EA013123F00A
:10215000A00242EA0E12CCF81810CCF82020DCF8CD
:10216000081041F0670121F0100132E0D1E901E3EC
:10217000C968DCF8082043EA0E0322F47F4243EAF0
:1021800001211143CCF80810DCF8081041F480411B
:102190001FE000BFD1F804E0C968DCF82030DCF8AB
:1021A000202022F00102CCF82020DCF8182022F0B8
:1021B000F00242EA011123F00A0242EA0E02CCF8D0
:1021C0001810CCF82020DCF8081041F0570121F05D
:1021D0002001CCF808100022012180F83D100021D8
:1021E00080F83C10BDE88040104670470122F3E7BC
:1021F0007047000070B504460068C5680669B107FD
:1022000016D515F0020113D06FF002010161012112
:1022100021778069800703D02046FFF7E9FF05E0BA
:10222000204600F08FF8204600F08EF8002020773E
:10223000700719D515F0040016D020686FF004015E
:10224000016102212177806910F4407F04D020468B
:10225000FFF7CEFF06E000BF204600F073F82046EF
:1022600000F072F800202077300717D515F008002D
:1022700014D020686FF00801016104212177C06942
:10228000800703D02046FFF7B3FF05E0204600F0AB
:1022900059F8204600F058F800202077F00619D5AC
:1022A00015F0100016D020686FF0100101610821B0
:1022B0002177C06910F4407F04D02046FFF798FFD3
:1022C00006E000BF204600F03DF8204600F03CF854
:1022D00000202077F00718BF15F0010002D130066A
:1022E00009D412E020686FF001010161204600F07E
:1022F0002DF8300609D515F0800006D020686FF063
:10230000800101612046FFF79BFD700609D515F09D
:10231000400006D020686FF040010161204600F0C7
:102320001FF8B00658BF70BD15F0200008D0216816
:102330006FF0200220460A61BDE87040FFF782BDC1
:1023400070BD00007047000070470000006840F258
:102350000041C4F20001884218BF7047FFF770B90E
:10236000704700007047000010B50446206850E830
:10237000030F216820F4907041E80302BAB320688B
:1023800050E8030F216820F4907041E8030272B313
:10239000206850E8030F216820F4907041E80302A0
:1023A0002AB3206850E8030F216820F4907041E8B8
:1023B0000302002ADAD11AE0206850E8050F2168EC
:1023C00020F0010041E80502DAB1206850E8050F6D
:1023D000216820F0010041E8050292B1206850E830
:1023E000050F216820F0010041E805024AB120688C
:1023F00050E8050F216820F0010041E80502002A9D
:10240000DAD1206B012824D1206850E8030F21681D
:1024100020F0100041E80302DAB1206850E8030F11
:10242000216820F0100041E8030292B1206850E8D2
:10243000030F216820F0100041E803024AB1206830
:1024400050E8030F216820F0100041E80302002A41
:10245000DAD120684069400636D500BF206850E8D0
:10246000050F216820F0400041E80502DAB120683C
:1024700050E8050F216820F0400041E8050292B1C4
:10248000206850E8050F216820F0400041E805026F
:102490004AB1206850E8050F216820F0400041E86B
:1024A0000502002ADAD1E06B70B100210165FEF768
:1024B000EFFD48B1E06BFEF745FE202804D1102067
:1024C0006064032010BD00BF00202021E08584F857
:1024D0004210206310BD000040F66C11C2F20001F2
:1024E000884218BF704780B540F66C10C2F20000F9
:1024F000FFF73AFF40F25C70C2F20000006801682A
:1025000021F008010160BDE880407047B0B582B09D
:10251000044600680168C368426901F02F05202D58
:1025200003F0200506D12DB1204602B0BDE8B04031
:1025300001F0FEB85FEA017C1EBF02F0010E03F459
:10254000907212EB0E0243D1226BCD0618D5012AF0
:1025500016D113F0100213D00021019101680191EE
:10256000416801910199406940063BD4A08DE18DFD
:10257000E28D002A18BF884240F0F28102B0B0BD5F
:102580000A0640F1E78013F0800200F0E38094F83F
:1025900041102129F2D1A168B1F5805F03D12169F1
:1025A000002900F06382216A4A1C22620978416096
:1025B000E18C01390A04E184E0D1C16821F0800195
:1025C000C160C16841F04001C16002B0B0BD00BF50
:1025D000CA0718BF13F4807240F0D0804A0700F198
:1025E000D380D8E0E06B016849688AB2002AC5D080
:1025F000A38D9A42C2D2E185C069B0F5807F00F018
:102600009D80206850E8030F216820F4807041E825
:102610000302DAB1206850E8030F216820F48070CB
:1026200041E8030292B1206850E8030F216820F4CA
:10263000807041E803024AB1206850E8030F216826
:1026400020F4807041E80302002ADAD1206850E8C3
:10265000050F216820F0010041E80502BAB32068A7
:1026600050E8050F216820F0010041E8050272B32F
:10267000206850E8050F216820F0010041E80502BC
:102680002AB3206850E8050F216820F0010041E8D6
:102690000502002ADAD11AE0206850E8050F216807
:1026A00020F0400041E80502DAB1206850E8050F4B
:1026B000216820F0400041E8050292B1206850E80E
:1026C000050F216820F0400041E805024AB120686A
:1026D00050E8050F216820F0400041E80502002A7B
:1026E000DAD1202084F8420000202063206850E8DE
:1026F000030F216820F0100041E80302DAB12068DE
:1027000050E8030F216820F0100041E8030292B165
:10271000206850E8030F216820F0100041E8030210
:102720004AB1206850E8030F216820F0100041E80A
:102730000302002ADAD1E06BFEF7AAFC02206063F4
:10274000A08DE18D401A81B2204602B0BDE8B040B4
:10275000FFF708BE49067FF511AF13F040013FF4C3
:102760000DAFC16821F04001C1602021204684F8EE
:10277000411002B0BDE8B04000F032BC626C42F0E3
:10278000010262644A0706D5BEF1000F03D0626CF5
:1027900042F0020262648A0706D5BEF1000F03D040
:1027A000626C42F004026264BCF1000F06D55EEA7E
:1027B000050203D0626C42F008026264626C002A77
:1027C0003FF4DCAE890604D51DB1204600F0B0FF11
:1027D00020684069616C00F0400001F00801401879
:1027E00000F0B680206850E8030F216820F4907054
:1027F00041E80302BAB3206850E8030F216820F4CF
:10280000907041E8030272B3206850E8030F21681A
:1028100020F4907041E803022AB3206850E8030FC7
:10282000216820F4907041E80302002ADAD11AE00E
:10283000206850E8050F216820F0010041E80502FA
:10284000DAB1206850E8050F216820F0010041E866
:10285000050292B1206850E8050F216820F00100C0
:1028600041E805024AB1206850E8050F216820F0D0
:10287000010041E80502002ADAD1206B012824D1A9
:10288000206850E8030F216820F0100041E803029F
:10289000DAB1206850E8030F216820F0100041E809
:1028A000030292B1206850E8030F216820F0100065
:1028B00041E803024AB1206850E8030F216820F084
:1028C000100041E80302002ADAD1202084F84200F7
:1028D0000020206320684069400640F1C1802068E4
:1028E00050E8050F216820F0400041E80502DAB108
:1028F000206850E8050F216820F0400041E80502FB
:1029000092B1206850E8050F216820F0400041E8AE
:1029100005024AB1206850E8050F216820F0400008
:1029200041E80502002ADAD1E06B002800F0988027
:1029300043F22571C0F600010165FEF7F1FB0028A6
:102940003FF41CAEE06B016D02B0BDE8B04008473B
:102950002046FFF7C1FD0020606402B0B0BD00BF9B
:10296000401A00BF216851E8031F226821F49071CA
:1029700042E80313BBB3216851E8031F226821F426
:10298000907142E8031373B3216851E8031F226872
:1029900021F4907142E803132BB3216851E8031F1F
:1029A000226821F4907142E80313002BDAD11AE077
:1029B000216851E8051F226821F0010142E8051352
:1029C000DBB1216851E8051F226821F0010142E8CE
:1029D000051393B1216851E8051F226821F0010118
:1029E00042E805134BB1216851E8051F226821F028
:1029F000010142E80513002BDAD1202184F84210AE
:102A000000212163216851E8031F226821F0100191
:102A100042E80313DBB1216851E8031F226821F06B
:102A2000100142E8031393B1216851E8031F2268A3
:102A300021F0100142E803134BB1216851E8031F54
:102A4000226821F0100142E80313002BDAD10222A0
:102A500081B22046626302B0BDE8B040FFF782BC9D
:102A6000204602B0BDE8B040FFF736BD216A31F81C
:102A7000022B6FF35F224260216299E5002804BFB8
:102A80000120704710B5044690F8410028B9002095
:102A900084F84000204600F021F8242084F841000A
:102AA0002068C16821F40051C160204600F0C0FEDA
:102AB0002068016921F490410161416921F02A01F6
:102AC0004161C16841F40051C1600020202160646F
:102AD00084F8411084F84210606310BD2DE9F04382
:102AE00087B00446006844F6FF31C4F20001884212
:102AF0004FF000010691CDE90411CDE902114BDD43
:102B000041F20041C4F20101884200F0A38041F289
:102B10000001C4F20101884200F0D68044F6004171
:102B2000C4F20001884240F04E81002043F630019B
:102B30000190C4F202010A6942F400220A610A69A2
:102B400002F400220192019A01900A6842F0040204
:102B50000A60096801F00401019101994FF4406194
:102B600002910221CDE90310032005900820069070
:102B700040F60040C4F20200A0F5806002A9FEF712
:102B800083FC342005210022FEF716FE3420FEF7D8
:102B900001FE07B0BDE8F08344F20041C4F2000139
:102BA000884200F0C98044F60001C4F20001884266
:102BB00040F00981002643F630000196C4F202007D
:102BC000016940F6004441F4802101610169C4F2C9
:102BD000020401F48021019101990196016802AD7E
:102BE00041F00201016001684FF0020801F00201AA
:102BF00001910199019601684FF0030941F0080124
:102C000001600068072700F00800019001984FF468
:102C100098400290A4F500602946CDE90386CDF8DE
:102C200014900697FEF730FC4FF40060CDE90208DF
:102C300020462946CDE904690697FEF725FC2720A2
:102C400006210022FEF7B8FD2720FEF7A3FD07B0FE
:102C5000BDE8F083002643F630000196C4F202007E
:102C6000416941F020014161416901F02001019178
:102C700001990196016841F040010160006802A9D4
:102C800000F04000019001984FF48440029002202F
:102C9000CDE90306032005900820069040F6004089
:102CA000C4F2020000F54060FEF7EEFB46F2880039
:102CB000C4F2020040F25C7500F56870C2F20005D3
:102CC0004FF020616BE000BF002043F6300101901F
:102CD000C4F202014A6942F010024A614A6902F0F4
:102CE00010020192019A01900A6842F001020A6002
:102CF000096801F00101019101994FF4C06102914D
:102D00000221CDE90310032005900720069040F62C
:102D10000040C4F20200A0F5406002A9FEF7B4FB37
:102D2000252005210022FEF747FD2520FEF732FD74
:102D300007B0BDE8F08300BF002643F630000196DF
:102D4000C4F20200016941F400310161016901F43A
:102D50000031019101990196016841F0080101607B
:102D6000006802A900F0080001900198602002901C
:102D70000220CDE90306032005900720069040F6C7
:102D80000040C4F20200FEF77FFB40F2FC6546F211
:102D90008800C2F20005C4F202004FF000614FF457
:102DA0008062286028466960AE60EE602A616E61CC
:102DB000AE61EE612E626E62FEF7A6FA08B1FDF713
:102DC000F9FCE563AC6307B0BDE8F08390F84230EE
:102DD000202B07D100294FF0010318BF002A05D18D
:102DE0001846704702231846704700BF002303634C
:102DF000816222218285C285436480F84210016984
:102E0000006819B1C16841F48071C160416941F045
:102E100001014161C16841F02001C160184670475D
:102E2000F0B581B040F2DC55C2F2000529680129F5
:102E300018DB0446002602E001368E4212DA05EB6A
:102E4000860778684268A242F6D10268017A126861
:102E500090477868012200F108012046FFF7B6FF8D
:102E60002968E9E701B0F0BD2DE9F041044690F88A
:102E7000410020281CBF0220BDE8F0810D4600293A
:102E80004FF0010000F0AA801646002A08BFBDE8F6
:102E9000F081002060642120984684F84100FEF70C
:102EA000C9FBA684E684A1680646B1F5805F02D11D
:102EB0002069002862D02F460025E08C002861D0D0
:102EC00018F1010018D0B8F1000F37D1216808E0DF
:102ED00017F8010B4860E08C0138E084E08C002892
:102EE00051D00868000673D5002FF1D135F8020BD8
:102EF00000276FF35F20EDE7216802E00868000615
:102F000009D40868000606D4086800065CBF086893
:102F10005FEA0060F2D51FB117F8010B05E000BFB2
:102F200035F8020B00276FF35F204860E08C013812
:102F3000E084E08C0028E4D125E000BF216800BFD8
:102F40000868000608D4FEF775FB801B404541D891
:102F50002168C868F4E700BF17B117F8010B04E057
:102F600035F8020B00276FF35F204860E08C0138D2
:102F7000E084E08C0028E3D105E000BF0027E08C6E
:102F800000289DD12168086840061FD4B8F1000FC1
:102F90001ED018F101000FD10868400616D4086849
:102FA000400613D40868400610D4086840064FF065
:102FB0000000F1D50FE000BFFEF73CFB801B404551
:102FC00008D82068C16800684006F5D5002002E0F6
:102FD000FEF730FB0320202184F84110BDE8F0818A
:102FE00070470000FEE7000080B540F2984046F2CE
:102FF0000041C2F20000C4F2000140F8181F032192
:103000000022C0E9011200F10C014FF400234FF43B
:10301000401C4FF0012E81E80C508283FDF772FEB8
:10302000002808BF80BDBDE88040FDF7C3BB00009D
:1030300080B540F2984046F60001C2F20000C4F2AA
:10304000000140F8401F03210022C0E9011200F1F5
:103050000C014FF400234FF4401C81E80C104FF496
:1030600080710183C0F81A20FDF74CFE002808BFCC
:1030700080BDBDE88040FDF79DBB000080B582B0FB
:10308000002043F630010190C4F202010A6842F4C4
:1030900000120A600A6802F400120192019A00907C
:1030A0000868002240F4800008600868072100F4E6
:1030B0008000009000981020FEF77EFB1020FEF7A5
:1030C00069FB392005210022FEF776FB392002B08A
:1030D000BDE88040FEF75EBB2DE9F04F87B00024CD
:1030E00043F63000CDE905440194C4F202000168C2
:1030F00040F2000941F0040101600168C4F20209D4
:1031000001F00401019101990194016809F5A055AC
:1031100041F0200101600168002201F020010191CD
:103120000199019401684FF0800B41F0800101602A
:10313000016801F08001019101990194016841F059
:1031400001010160016801F00101019101990194FF
:10315000016841F010010160016801F01001019166
:1031600001990194016841F002010160016801F0D8
:103170000201019101990194016841F00801016087
:10318000016801F00801019101990194016841F081
:10319000400101600068802100F04000019001982A
:1031A0002846FEF741FA48464FF4C1710122012733
:1031B000FEF73AFA09F5805A50464FF400610122B1
:1031C000FEF732FA09F58068404610210122FEF729
:1031D0002BFA402002904FF4881002AECDE9030490
:1031E00028463146FEF750F90220CDE90400284672
:1031F0003146CDE902B7FEF747F948463146CDE9F9
:1032000002740497FEF740F94FF4C170CDE902074C
:1032100048463146CDE90477FEF736F94FF40060B1
:10322000CDE9020750463146CDE90477FEF72CF987
:103230004FF4004002A991C140463146FEF724F9FF
:103240004FF4804002A991C109F540603146FEF774
:103250001BF94FF4007002A991C109F500603146D5
:10326000FEF712F91020CDE9020740463146CDE9BC
:103270000477FEF709F9172000210022FEF79CFAD7
:103280001720FEF787FA07B0BDE8F08F80B586B04B
:1032900040F2BC700021C2F2000042F2107C0591A5
:1032A000CDE90311CDE900114FF080425323C0E96D
:1032B000021C01618021C0E900238161FEF722FE2A
:1032C000002818BFFDF776FA4FF48050029040F2C4
:1032D000BC70C2F2000002A9FEF7BAFE002818BFB7
:1032E000FDF768FA40F2BC70C2F200006946FEF7D2
:1032F000ABFD002818BFFDF75DFA06B080BD0000E9
:1033000080B540F6241044F60041C2F20000C4F239
:10331000000100234FF00C0C4FF4E13280E80E0066
:10332000C0E90333C0E905C3C361FFF7A7FB002869
:1033300008BF80BDBDE88040FDF73CBA80B540F6CF
:103340004C0041F20001C2F20000C4F2010100236E
:103350004FF00C0C4FF4E13280E80E00C0E903336B
:10336000C0E905C3C361FFF789FB002808BF80BD22
:10337000BDE88040FDF71EBA80B540F6940044F2E7
:103380000041C2F20000C4F2000100234FF00C0C17
:103390004FF4E13280E80E00C0E90333C0E905C311
:1033A000C361FFF76BFB002808BF80BDBDE880400C
:1033B000FDF700BA80B540F6DC0044F60001C2F229
:1033C0000000C4F2000100234FF00C0C4FF4407ECB
:1033D0004FF4E13280E80E00C0E90333C0E905CEC6
:1033E000C361FFF74BFB002808BF80BDBDE88040EC
:1033F000FDF7E0B980B540F66C1041F20041C2F231
:103400000000C4F2010100234FF00C0C4FF41652DF
:1034100080E80E00C0E90333C0E905C3C361FFF7CC
:103420002DFB002808BF80BDBDE88040FDF7C2B974
:10343000FEE70000FEE700000000000000000000C2
:10344000EFF30980BFF36F8F154B1A681EF0100F52
:1034500008BF20ED108A20E9F04F10602DE9090027
:103460004FF0500080F31188BFF34F8FBFF36F8F81
:1034700002F0E4FB4FF0000080F31188BDE8090082
:1034800019680868B0E8F04F1EF0100F08BFB0ECE4
:10349000108A80F30988BFF36F8F704700BF00BFA9
:1034A00000050020000000000000000000000000F7
:1034B000074B19680868B0E8F04F80F30988BFF33C
:1034C0006F8F4FF0000080F31188704700BF00BF7E
:1034D0000005002080B54EF21000CEF2000000681A
:1034E00003F08CF8012808BF80BDBDE8804002F0E1
:1034F000C7BC0000B0B592B0002443F64000CDE94F
:103500000A44CDE908440594CDE90344CDE90144DA
:103510000094C4F202000168022541F0805101606C
:10352000006800F080500090009847F2000000947E
:10353000C4F20000016841F480410160006800F4B9
:10354000804000900098012006904FF48030079052
:103550004FF480000D9008200E904FF4A870CDE934
:103560000F050420119006A80C95FEF791FA18B1EA
:1035700072B600BFFEE700BF0F20CDE901054FF492
:10358000A05004904FF48050059001A805210394A9
:10359000FEF74EF910B172B6FEE700BF12B0B0BD33
:1035A0004EF68850CEF20000016841F470010160CF
:1035B0007047000040F2BC70C2F20000FEF71ABE75
:1035C00040F60400C2F20000FEF714BE10B540F64B
:1035D000FF3E0368C4F2000E40F2004C7045C4F296
:1035E000010C27DCB0F1804F31D040F20042C4F230
:1035F000000290422BD040F60002C4F2000290423A
:1036000025D041F6FF72C4F20002904229DC7045D9
:103610003CDCB0F1804F5FD040F20042C4F20002C7
:10362000904259D040F60002C4F20002904253D0BA
:1036300056E000BF40F60042C4F20002904206D0BD
:10364000604504D00022C4F201029042D9D14A68F8
:1036500023F07003134341F6FF72C4F2000290425C
:10366000D5DD43F6FF72C4F20102904222DC42F241
:103670000002C4F2000290422ED00022C4F20102E5
:10368000904229D0604527D02AE000BF40F6004292
:10369000C4F2000290421FD041F60002C4F20002C0
:1036A000904219D041F60042C4F20002904213D079
:1036B00016E000BF44F20002C4F2010290420BD0B7
:1036C00044F60002C4F20102904205D044F20042E6
:1036D000C4F20102904203D1CA6823F44073134339
:1036E00023F080024B69D1F800E08C681A43026035
:1036F000C46240F48062C0F828E0624504BF0969F2
:103700000163012141610169C90708BF10BD016959
:1037100021F00101016110BD40F62410C2F2000049
:10372000FEF7F4BE806B0021C185C184FEF7D4BED4
:1037300081B090F84210222921D183680246B3F566
:10374000805F09D152F8281F52F8183C002B63D033
:1037500003685B680AE000BF52F8281F13B90369C9
:10376000002BF5D003685B6803F07F030B701168D2
:1037700001311160C18D01390A04C18502D001B047
:10378000704700BF0168CA6822F02002CA60CA6898
:1037900022F48072CA604A6922F001024A61202143
:1037A00080F8421000214163026B012A3CD1016381
:1037B000016851E8031F026821F0100142E8031379
:1037C000DBB1016851E8031F026821F0100142E8F3
:1037D000031393B1016851E8031F026821F010013F
:1037E00042E803134BB1016851E8031F026821F05E
:1037F000100142E80313002BDAD101680A68D206EF
:1038000006D5002200920A6800924968009100994A
:10381000818D01B0FEF7A6BD026852686FF35F228A
:1038200021F8022B8162A5E701B0FFF7F9BA000089
:1038300010B504460068D4E902C22369016921F485
:10384000405111430161626943EA0C01E36911438C
:10385000C268194349F20C639A431143C16041693C
:10386000A26921F4407141F20043114340F48062A7
:10387000C4F201039A42416102D1FEF7BFF801E0B0
:10388000FEF7A8F8E16963681922B1F5004FA0FBC3
:10389000020123D15A00DB0FFCF70EFD48F21F5145
:1038A000C5F2EB11A0FB01235A094FF69C73C0F639
:1038B000FF7303F1805302FB0300322303EBC000CC
:1038C000A0FB01014FF4F87000EA111000EB0210A8
:1038D000C1F3421108442168886010BD9A009B0F13
:1038E000FCF7EAFC48F21F51C5F2EB11A0FB0123E3
:1038F0005A094FF69C73C0F6FF7302FB0300322394
:1039000003EB0010A0FB0101F02000EA511000EBD6
:103910000210C1F3431108442168886010BD000003
:1039200040F64C00C2F20000FEF7F0BD40F6DC00AD
:10393000C2F20000FEF7EABDFEE7000080B540F6E7
:10394000B47040F64C01C2F20000C2F20001002245
:1039500000F008FBDFED121A40F6B41040F2B0425E
:103960009FED0D0ADFED0D0AC2F20000C2F2000267
:10397000B1EE081A0121B0EE612AF0EE612A00F0E2
:103980003BFD40F20860C2F2000000F089FB043009
:10399000BDE8804000F044B9000087436666E63F1A
:1039A000000000002DE9F04381B040F26C66C2F2E5
:1039B000000631680446012910DB002506EB85006E
:1039C000006A01680968884700BA04EB4501000CE9
:1039D000A1F84400306801358542EFDB4FF40070F8
:1039E000254645F8140F05F1300805F1400940F26D
:1039F000B040C2F20000294642464B46FCF7F6FEB4
:103A0000012804BF012084F85C00B068012811DBA4
:103A1000002700BF06EB8700006C01680968884733
:103A200000BA04EB4701000CA1F84400B06801376C
:103A30008742EFDB40F2FF10286040F2B040C2F254
:103A40000000294642464B46FCF7D0FE012804BF41
:103A5000012084F85C007068012811DB002500BF9C
:103A600006EB8500006B01680968884700BA04EB23
:103A70004501000CA1F84C00706801358542EFDB70
:103A80004FF40070254645F82C0F05F1200805F18C
:103A90002C0940F2D840C2F20000294642464B466B
:103AA000FCF7A4FE00281CBF012084F85C00F0682D
:103AB000012811DB002700BF06EB8700006D0168BD
:103AC0000968884700BA04EB4701000CA1F84C00D4
:103AD000F06801378742EFDB40F2FF10286040F2C8
:103AE000D840C2F20000294642464B46FCF77EFE13
:103AF00000281CBF012084F85C0001B0BDE8F08301
:103B000080B58AB000200422CDE905000121009093
:103B1000CDE90120CDE9030040F2B04007910891C2
:103B2000C2F200006946FCF7B5FE002818BFFCF79A
:103B300041FE40F2B040C2F20000FDF76DFA0028ED
:103B400018BFFCF737FE40F2B040C2F2000002217D
:103B5000FCF734FE002818BFFCF72CFE40F298401A
:103B6000C2F20000002104220823C0E90112C0E9CA
:103B7000031301750AB080BD80B58AB00E20012202
:103B8000059000210423CDE9082040F2D840069199
:103B90000091CDE90131CDE90311C2F2000069467F
:103BA0000792FCF777FE002818BFFCF703FE40F2EF
:103BB000D840C2F20000FDF72FFA002818BFFCF72A
:103BC000F9FD40F2D840C2F200000221FCF7F6FDF8
:103BD000002818BFFCF7EEFD40F29840C2F200004A
:103BE000002104220823C0E90112C0E90313017572
:103BF0000AB080BD80B5FFF783FFFFF7BDFF40F23D
:103C0000B040C2F200000221FCF7D8FD40F2D840DB
:103C1000C2F200000221BDE88040FCF7CFBD0000E9
:103C200046F60442C0F6000230210832017100213C
:103C300002600822C0F80510C0F80910C0F80D1085
:103C40000161C0E91111C0E91311C0E9151180F833
:103C50005C10C0E90711426280F828104161C0E998
:103C60000D11C26380F84010C1627047602100F0FE
:103C7000D6BE0000F0B581B0054600F59C774FF642
:103C8000FC3095F8AC10A5F8380195F8AF0085F830
:103C90003A0185F83B1119B3042901F0030001D260
:103CA00000220BE001F0FC03002200BFAE18D6F8A2
:103CB000F44004329342C6F83C41F7D180B105F19B
:103CC000F404A65C5319012883F83C6108D022440F
:103CD0005678022883F83D611CBF907883F83E0136
:103CE00005F1F400FCF7E4FC95F8AC10A5F83401FC
:103CF0006E1886F83C01000A86F83D014FF6FD6417
:103D0000686801F1080239464FF0FF33A6F83E41DA
:103D100001B0BDE8F040FFF7A7B800002DE9F0477B
:103D200082B0044690F89C01082800F21581DFE873
:103D300000F005111D2531454D556100FC2956D176
:103D4000012084F89C01FC2084F8210002B0BDE829
:103D5000F08700BFFB2940F0FF80022084F89C011F
:103D6000FB2084F8220002B0BDE8F08784F823101D
:103D7000032084F89C0102B0BDE8F087002084F89D
:103D8000201084F88001042084F89C0102B0BDE872
:103D9000F08700BF204610F8202F90F860315F1C9C
:103DA000FEB280F860711844964281711FD30520DD
:103DB00084F89C0102B0BDE8F08700BF84F8A81029
:103DC000062084F89C0102B0BDE8F08784F8A910B1
:103DD000072084F89C0102B0BDE8F087FD2940F07F
:103DE000BB80082084F89C01FD2084F8AA0002B062
:103DF000BDE8F087FE2940F0AF8094F8811194F877
:103E00002080FE20002984F8AB005CD004F126005D
:103E10004146FCF74DFCB4F8A810A08488424CD170
:103E200094F82080B8F1000F25D0B8F1040F08F005
:103E3000030001D2002109E008F0FC020021631810
:103E4000D3F8267004318A429F66F8D198B163187E
:103E500093F8263004F16802012853540BD04B1C10
:103E6000E71897F826700228D75404D0881C211828
:103E700091F826101154D4F8981101291ADB94F8FE
:103E8000239004F1680704F5C27A002603E000BF1E
:103E900001368E420EDA5AF826000028F8D0016862
:103EA00042468D6849463B460097A847D4F898118A
:103EB000EEE700BF002084F89C0194F881010028FF
:103EC0004AD194F82080B8F1000F27D0B8F1040F40
:103ED00008F0030002D200210BE000BF08F0FC0252
:103EE000002100BF6318D3F8267004318A429F6610
:103EF000F8D198B1631893F8263004F168020128CC
:103F000053540BD04B1CE71897F826700228D7544F
:103F100004D0881C211891F826101154D4F8981157
:103F2000012919DB94F8239004F1680704F5C27A9B
:103F3000002602E001368E420EDA5AF826000028EA
:103F4000F8D0016842468D6849463B460097A8472D
:103F5000D4F89811EEE700BF002084F89C0102B06D
:103F6000BDE8F08770B51546044600F029F9302009
:103F7000207446F61840C0F6000000F10801203019
:103F800000262160E06004F168004021C4F811605F
:103F9000C4F81560C4F81960E66184F8206084F8FC
:103FA0002360A684FCF74DFA04F1F400402184F864
:103FB000AC6084F8AF60A4F8B060FCF742FA204629
:103FC00084F8806184F88151C4E96166C4E963665C
:103FD000C4E9656684F89C6170BD00004FF4D0713F
:103FE00000F01DBD7047000040F20C01C2F200015C
:103FF000682200FB021044F6D35900F1600400F17E
:104000000C0500F110064FF47A78C1F2620907E05E
:10401000286800FB08F0A0FB0901880901F0C4FC36
:1040200021680129F4DB002703E000BF01378F423C
:10403000EEDA56F827000028F8D0016809688847AA
:104040002168F3E710B582B0092914D840F20C0EAC
:10405000C2F2000E682001FB00EC0B46614651F8ED
:10406000600F132807DC0CEB80042261DCF80020D1
:104070000130086012B102B010BD00BF682003FB20
:1040800000E0B0F86420C47A011D43F6E970C0F680
:104090000000CDE9004C02F045FA02B010BD00006E
:1040A00010B540F20C01C2F2000143F25F020A8136
:1040B00043F25F12A1F8702043F25F22A1F8D820EA
:1040C00043F25F32A1F8402143F25F42A1F8A821F8
:1040D00043F25F52A1F8102243F25F62A1F8782206
:1040E00043F25F72A1F8E02243F65F02A1F8482391
:1040F00043F65F1246F27413A1F8B0230522C6F608
:104100007333CA72C1F8DC20C1F844210A224B6023
:10411000CB66C1F8D430C1F83C31C1F8A431C1F844
:104120000C32C1F87432C1F8DC32C1F84433C1F842
:10413000AC330423C1F8AC21C1F814220F224FF094
:10414000000C4FF0010E81F87330022481F8DB304F
:104150000323C1F87C22C1F8E422142281F80AC0AA
:1041600081F872C081F8DAC081F842C181F8AAC131
:1041700081F812C281F87AC281F8E2C281F84AC39A
:1041800081F8B2C3C1F80CE04C6781F8433181F883
:10419000AB3181F8134281F87B4281F8E3E281F888
:1041A0004BE3C1F84C2381F8B3C3C1F8B42310BD6D
:1041B000426800F1080110460122FEF707BE000028
:1041C00080B540F2DC5EC2F2000E46F6644CDEF8CA
:1041D0000030C0F6000C0CF10802092BC0E90021E8
:1041E000C8BF80BD591CCEF800100EEB830148609B
:1041F00080BD00007047000090ED031A90ED002A8A
:1042000031EE401A90ED0C0AB5EE401AF1EE10FABC
:10421000B0EE416AB4EE401A90ED073A90ED0A5ABA
:104220009FED434AC8BFB0EE446AF1EE10FAB8BF42
:10423000B0EE461AB1EE400AB5EE401AF1EE10FAB1
:10424000B0EE416AB4EE401AB8BFB0EE446AF1EE87
:1042500010FAC8BFB0EE461A21EE020A90ED0D2A00
:1042600031EE036AB1EE423AB4EE431A80ED0E1A13
:1042700080ED060AF1EE10FAB8BFB0EE446AB4EE73
:10428000421AF1EE10FAC8BFB0EE446AB4EE456AC5
:10429000B0EE462AB1EE454AF1EE10FAC8BFB0EED4
:1042A000452AB4EE442AF1EE10FAB0EE423AB4EEEA
:1042B000456AB8BFB0EE443AF1EE10FA80ED076AF5
:1042C00008DCB4EE442AF1EE10FAB8BF80ED073AEC
:1042D00002E000BF80ED073A90ED014A90ED086AD8
:1042E00090ED025A23EE043A31EE464A90ED0B2A45
:1042F00024EE054A33EE000A30EE040AB4EE420A18
:10430000F1EE10FA80ED043A80ED054A80ED081ACE
:1043100080ED090A07DCB1EE422AB4EE420AF1EE62
:1043200010FAA8BF7047B0EE420A80ED092A704724
:1043300000000000002100F1280280EC030AC0E91F
:104340000311C0E90511C0E907114162C2EC031A6B
:10435000816380ED0D3A704770470000142100F032
:104360005EBB000070B50C46098800F110060546DA
:1043700049BA304600F0B2FA85ED040A608800BA06
:10438000000CA882A088C1BA304600F0B9FA85EDC9
:10439000060A70BD10B5044690F8280094ED0C0A8A
:1043A00001EE100AB8EE411AB4F9141020EE010A19
:1043B00084ED110A00EE101A04F13800B8EEC00ABC
:1043C000FFF71AFFBDEEC00A10EE100AA08610BD5E
:1043D0009FED010A704700BF000000009FED010A39
:1043E000704700BF000000007047000070470000E9
:1043F000704700007047000010B52DED0C8B0B4688
:104400000421B0EE628AB0EE429AB0EE61AAB0EE3C
:1044100041BAB0EE60CAB0EE40DA044600F054F89B
:1044200046F64440C0F6000008309FED210AE060E7
:1044300004F110004FF4804141F6FF7200F072FA6F
:1044400046F68440C0F6000000F108013030E0601C
:10445000012084F828000020DFED161A9FED162AAF
:104460009FED163AC4E90B00A08604F13800F7EE80
:10447000002AB0EE4D0AF0EE4C0AB0EE4B1A216065
:10448000FFF758FFDFED0E1A04F17400B0EE4A0A90
:10449000F0EE490AB0EE481AB0EE612AF0EE612A59
:1044A000B0EE613AFFF746FF2046BDEC0C8B10BD25
:1044B00000803B45002474490050C3460000B442CC
:1044C00000000000002070472DE9F04F46F6CC4771
:1044D000C0F600070837C0E9007240F2B047C2F2E8
:1044E0000007BA420172437208D040F2D847C2F2C4
:1044F0000007BA4200F0FC80BDE8F08F042939D0F3
:104500000029F9D140F26C6EC2F2000EDEF800C054
:10451000BCF1030FF0DCBCF1010FE346C0F2B38045
:10452000DEF82040647A9C425AD94FF0000BDC45FB
:1045300040F2A980ACEB0B056FEA0B060CEB06080A
:1045400015F00307654600F08580ACF101050EF11A
:10455000200656F82590012F46F82C907AD0ACF121
:10456000020956F829A0022F46F825A06CD14D4625
:1045700070E000BF40F26C6EC2F2000EDEF808C0C0
:10458000BCF1030FB8DCBCF1010FE346C0F29F8021
:10459000DEF84040647A9C422ED94FF0000BDC4597
:1045A00040F29580ACEB0B056FEA0B060CEB0608AE
:1045B00015F00307654671D0ACF101050EF1400618
:1045C00056F82590012F46F82C9067D0ACF10209DF
:1045D00056F829A0022F46F825A059D14D465DE096
:1045E000BCF1010FE3464ED0DEF82440647A9C42D1
:1045F0000ED94FF0010B9AE7BCF1010FE34666D0EC
:10460000DEF84440647A9C4210D94FF0010BC6E7B3
:10461000BCF1020FE34636D0DEF82840E346647A68
:104620009C4230D94FF0020B81E700BFBCF1020F72
:10463000E3464CD0DEF84840E346647A9C4246D9D3
:104640004FF0020BABE700BFACF1030556F8257045
:1046500046F82970B8F1030F15D3202606EB85061E
:104660000EEB8507FC690EEB06084EF80640D7E90D
:104670000594043DC7E9069458F8104C5D45A6F131
:1046800010067C61ECDC0EEB8B04203424E000BFD0
:10469000ACF1030556F8257046F82970B8F1030F00
:1046A00015D3402606EB85060EEB8507FC6B0EEB5B
:1046B00006084EF80640D7E90D94043DC7E90E946C
:1046C00058F8104C5D45A6F110067C63ECDC0EEB4F
:1046D0008B0440340EF1080E0CF101072060CEF877
:1046E000007040F2D847C2F20007BA427FF404AF2C
:1046F000042919D000297FF4FFAE40F26C68C2F2A1
:104700000008D8F8041003293FF7F6AE01298946BE
:10471000C0F2DA80D8F830707F7A9F4246D94FF0E5
:104720000009494550D8CFE040F26C68C2F2000859
:10473000D8F80C100329C8BFBDE8F08F01298946BD
:10474000C0F29980D8F850707F7A9F4222D94FF0FA
:104750000009494540F28F80A1EB09036FEA090780
:1047600001EB070E13F003070B466AD04B1E08F14E
:10477000500555F82360012F45F8216061D0A1F163
:10478000020C55F82C60022F45F8236054D1634683
:1047900057E000BF012989466DD0D8F854707F7A60
:1047A0009F422FD94FF00109D3E700BF0129894665
:1047B00000F08A80D8F834707F7A9F422ED94FF06B
:1047C0000109494540F28080A1EB09036FEA09071E
:1047D00001EB070E13F003070B465CD04B1E08F1EC
:1047E000300555F82360012F45F8216053D0A1F121
:1047F000020C55F82C60022F45F8236046D1634621
:1048000049E000BF0229894635D0D8F8587089465A
:104810007F7A9F422FD94FF002099AE702298946F1
:1048200052D0D8F8387089467F7A9F424CD94FF0E1
:1048300002094945C8D847E0CB1E55F8236045F822
:104840002C60BEF1030F16D3502707EB830600BF81
:1048500008EB8307FD6C08EB060248F80650D7E921
:104860001145043BC7E9124552F8102C4B45A6F1FF
:1048700010067A64ECDC08EB8903503308F10C0273
:10488000013118601160BDE8F08F00BFCB1E55F8F4
:10489000236045F82C60BEF1030F15D3302707EBDA
:1048A000830608EB8307FD6A08EB060248F806500A
:1048B000D7E90945043BC7E90A4552F8102C4B4596
:1048C000A6F110067A62ECDC08EB8903303308F1BC
:1048D0000402013118601160BDE8F08FC08A00EE5B
:1048E000101A9FED062AB8EE400A01EE100AB8EE43
:1048F000411A20EE020A80EE010A70470000B4431C
:1049000000EE101AB0F9141090ED042AB8EEC00AA7
:1049100001EE101AB8EEC11A22EE000A80EE010A6A
:10492000704700000023036083808360838180EDF3
:10493000040A8182C28270472DE9F0410546A0F148
:104940000C0600F596784FF6FC3095F8A010A5F807
:104950002C0195F8A30085F82E0185F82F1119B3C5
:10496000042901F0030001D200220BE001F0FC0356
:10497000002200BFAC18D4F8E87004329342C4F8A7
:104980003071F7D180B105F1E804A75C93190128D3
:1049900083F83C7108D022445778022883F83D718F
:1049A0001CBF907883F83E0105F1E800FBF780FE1C
:1049B00095F8A010A5F82801771887F83C01000A9F
:1049C00087F83D014FF6FD6655F8080C01F1080225
:1049D00041464FF0FF33A7F83E61BDE8F041FEF7D6
:1049E00043BA00000C384FF4D07100F018B8000042
:1049F000704700009FED010A704700BF00000000F3
:104A00009FED010A704700BF0000000070470000E2
:104A100070470000704700007047FBF753BDFFF779
:104A2000FCBF000001A000F011F800BF50757265D6
:104A3000207669727475616C2066756E6374696F37
:104A40006E2063616C6C656421000000FBF798FDCB
:104A500070B540F20865C2F200052E1D3046FFF722
:104A6000C9F840F6B474C2F200042046FFF7A0FB78
:104A7000284600213246FFF7E5FA04F10C022846E9
:104A80000421FFF7DFFA40F21C42C2F2000228467E
:104A90000321FFF7D7FA082084F8AC00012084F83E
:104AA000AF00BDE8704000F039B80000FCF7D6FD5B
:104AB000FEF720FDFEF710FBFEF7E0FAFEF794FA92
:104AC000FEF73CFCFEF7B4FAFEF7E0FBFEF772FCE3
:104AD000FEF716FCFEF750FCFEF78CFC40F2BC70B3
:104AE000C2F20000FDF75EFA00F004F8FFF7B0FF35
:104AF000FEE70000EFF3058000281CBF6FF0050003
:104B0000704740F2F860C2F200000168002911BF4E
:104B10004FF0FF30012101600020704710B5EFF326
:104B2000058000281CBF6FF0050010BD40F2F86042
:104B3000C2F20000016801291CBF4FF0FF3010BD18
:104B40004EF61F51CEF2000100240C7002210160CC
:104B500000F0F4FF204610BD2DE9F041044600F0BE
:104B6000E1FD40F20056C2F20006F06840F654350E
:104B70000130F0603068C2F2000558B13069002899
:104B800040F007813068E16AC06A884298BF3460AB
:104B9000FFE000BF3460F068012840F0FA8028464A
:104BA00000F066FD05F1140000F062FD05F128003B
:104BB00000F05EFD05F13C0000F05AFD05F15000EB
:104BC00000F056FD05F1640000F052FD05F178009B
:104BD00000F04EFD05F18C0000F04AFD05F1A0004B
:104BE00000F046FD05F1B40000F042FD05F1C800FB
:104BF00000F03EFD05F1DC0000F03AFD05F1F000AB
:104C000000F036FD05F5827000F032FD05F58C7080
:104C100000F02EFD05F5967000F02AFD05F5A07058
:104C200000F026FD05F5AA7000F022FD05F5B47030
:104C300000F01EFD05F5BE7000F01AFD05F5C87008
:104C400000F016FD05F5D27000F012FD05F5DC70E0
:104C500000F00EFD05F5E67000F00AFD05F5F070B8
:104C600000F006FD05F5FA7000F002FD05F5027092
:104C700000F0FEFC05F5077000F0FAFC05F50C707D
:104C800000F0F6FC05F5117000F0F2FC05F5167069
:104C900000F0EEFC05F51B7000F0EAFC05F5207055
:104CA00000F0E6FC05F5257000F0E2FC05F52A7041
:104CB00000F0DEFC05F52F7000F0DAFC05F534702D
:104CC00000F0D6FC05F5397000F0D2FC05F53E7019
:104CD00000F0CEFC05F5437000F0CAFC05F5487005
:104CE00000F0C6FC05F54D7000F0C2FC05F55270F1
:104CF00000F0BEFC05F5577000F0BAFC05F55C70DD
:104D000000F0B6FC05F5617000F0B2FC05F56670C8
:104D100000F0AEFC05F56B7000F0AAFC05F57070B4
:104D200000F0A6FC05F5757000F0A2FC05F57A70A0
:104D300000F09EFC05F57F7000F09AFC05F582609E
:104D400000F096FC05F2244000F092FC05F5876027
:104D500000F08EFC05F24C4000F08AFC40F2CC687A
:104D6000C2F20008404600F083FC08F11407384600
:104D700000F07EFC06F1640000F07AFC06F13C00D5
:104D800000F076FC06F1500000F072FCC6F81C80C2
:104D900037627068716A421CE06A726088426264BD
:104DA00088BF706200EB800005EB8000211D00F0E1
:104DB000A1FC00F0DBFC306988B13068E16AC06AB0
:104DC000884228BFBDE8F0814EF60450CEF20000C4
:104DD0004FF080510160BFF34F8FBFF36F8FBDE87D
:104DE000F081000040F2005540F654364EF604586B
:104DF000C2F20005C2F20006CEF200084FF0805762
:104E000003E000BF204600F0C9FCA868D0B100F064
:104E100089FCA86CC468201D00F0FCFBE868013820
:104E2000E860A8680138A86000F0A0FC94F8590078
:104E30000228EAD00128E5D070B9206B00F0AEFC62
:104E4000E0E700BF30680228DFD3C8F80070BFF386
:104E50004F8FBFF36F8FD8E74FF0500080F311886A
:104E6000BFF36F8FBFF34F8FFEE700002DE9F047D0
:104E70000A9C8246206B16460F46DDE908599100D0
:104E8000A5229846FBF7D5FA206B002F00EB860091
:104E9000A0F1040020F0070656D0387884F83400DA
:104EA000387800284BD0787884F835007878002856
:104EB00045D0B87884F83600B87800283FD0F87824
:104EC00084F83700F878D0B3387984F83800387926
:104ED000A8B3787984F83900787980B3B87984F800
:104EE0003A00B87958B3F87984F83B00F87930B3D0
:104EF000387A84F83C00387A08B3787A84F83D0030
:104F0000787AE0B1B87A84F83E00B87AB8B1F87A25
:104F100084F83F00F87A90B1387B84F84000387B01
:104F200068B1787B84F84100787B40B1B87B84F825
:104F30004200B87B00281CBFF87B84F843000020A7
:104F400084F8430003E000BF002084F83400002709
:104F5000201D372D28BF3725E562C4E9135700F01F
:104F600093FB04F1180000F08FFBC5F13800A0613D
:104F700030465146424624616462676584F8587041
:104F800000F036FBB9F1000F206018BFC9F80040EF
:104F9000BDE8F08708480068006880F308884FF093
:104FA000000080F3148862B661B6BFF34F8FBFF381
:104FB0006F8F00DF00BF000008ED00E081B000202F
:104FC000009040F23040C2F2000000684FF0500103
:104FD00081F31188BFF36F8FBFF34F8F013007D07C
:104FE000FEE700BF009830B9009820B9009810B9CA
:104FF00000980028F6D001B07047000088B040F259
:10500000785AC2F2000A0DF11009EB46DAF80800EE
:1050100005681DB1C068046801E000BF002400F00D
:1050200005FE01F0FBFADAF810100646884220D39C
:10503000002DCAF8106051D0A6424FD301F0F6FB04
:10504000DAF80800C068C7683D1D284600F0E2FA9B
:1050500097F82800410745D400F0FE0087F82800A3
:1050600084E000BF6860DAF8080039462D6100F07E
:105070000FFBDAF80800016831B3C068C56804683E
:105080002F1D384600F0C6FA296A2846884795F849
:1050900028004007EDD5A8692044A042E2D8DAF8FC
:1050A0000000002800F04881002004A931C101F06F
:1050B000A5FADAF8000049460022002300F068FF54
:1050C0000028D6D138E100BFDAF80C10CAF8106019
:1050D000CAE9021001F0AAFB1AE100BF65B1002283
:1050E00010E000BFB8693F610119B14279601FD972
:1050F0000AF1080021E000BFDAF80C000068B0FAFD
:1051000080F04209DAF80000A11B00F023FC01F056
:105110008DFB002840F0FC804EF60450CEF20000DB
:105120004FF080510160BFF34F8FBFF36F8FEFE0FF
:10513000311B814206D20AF10C000068294600F0BA
:10514000A7FA13E0DAF80000002800F0138100202D
:1051500004A991C101F052FADAF800004946002290
:10516000002300F015FF002800F00481396A38465A
:105170008847CDE00098B0F1FF3F07DCDDE9012072
:10518000039990470098002800F1C280029E706940
:1051900010B1301D00F03EFA01F040FADAF81010BC
:1051A000074688420DD30098CAF8107009283FD9E5
:1051B000AEE000BF6860DAF8080021462D6100F01B
:1051C00067FADAF80800016841B3C068C568D0F82A
:1051D00000802C1D204600F01DFA296A28468847C9
:1051E00095F828004007ECD5A86940444045E1D82F
:1051F000DAF80000002800F095800020CDE90408CE
:10520000069501F0FBF9DAF8000049460022002378
:1052100000F0BEFE0028D4D184E000BFDAF80C1004
:10522000CAE902100098CAF81070092800F27080CC
:10523000DFE800F00606064448620606444800BF60
:1052400096F82800019A40F00101B06986F828100C
:105250008318314641F8043FBB42366106D9974274
:105260000AF1080007D293420AD204E0BA1A824235
:1052700006D20AF10C00006800F00AFA48E000BF0C
:10528000316A3046884796F82800400740D5DAF85A
:10529000000000285AD00198B16906960844002100
:1052A000CDE9041001F0AAF9DAF80000494600221D
:1052B000002300F06DFE58BB48E000BF96F82800C0
:1052C00022E000BF96F8280040F00101019886F81E
:1052D00028100028B06143D0384431460AF10C024E
:1052E00041F8040F3661B84288BF0AF1080210681D
:1052F00000F0CEF90CE000BF96F82800810703D437
:10530000304600F04BFA03E000F0FE0086F828007B
:10531000DAF800005946002200F098FF00287FF4D8
:1053200029AF73E64FF0500080F31188BFF36F8F01
:10533000BFF34F8FFEE700BF4FF0500080F311889E
:10534000BFF36F8FBFF34F8FFEE700BF4FF05000EA
:1053500080F31188BFF36F8FBFF34F8FFEE700BF5D
:105360004FF0500080F31188BFF36F8FBFF34F8F62
:10537000FEE700BF4FF0500080F31188BFF36F8F3E
:10538000BFF34F8FFEE70000F0B581B0044600F098
:10539000C9F994F94560012E0FDB04F1240500BF23
:1053A000286850B1284601F007FA002818BF00F01D
:1053B00045FBF0B2013E0128F2D8FF2684F8456093
:1053C00000F0D4F900F0AEF994F94470012F0EDB2F
:1053D00004F11005286850B1284601F0EDF90028C5
:1053E00018BF00F02BFBF8B2013F0128F2D884F877
:1053F000446001B0BDE8F04000F0B8B970B50446B3
:1054000000F014FC40F2B45CC2F2000CDCF80400C2
:1054100050B19CF80000002818BF4FF000404FF03A
:10542000000544BB83E000BF41F25410C2F200000B
:10543000420700F5705200F1070122F0070218BF81
:1054400021F007000021A2F10803CCE90601CCF805
:10545000043042E90211DCF80420191AC0E90021E5
:1054600001208CF800004FF00040CCE90211002C24
:105470004FF000055BD0204059D124F0070000F127
:105480001002600708BF04F10802DCF80800511E92
:1054900081424CD2604650F818EFDEF80450954235
:1054A0002BD2DEF80010B9B174464D68954217D280
:1054B0000B68ABB15D68954216D21868A0B145681B
:1054C000954215D204689CB16568954214D2216852
:1054D000A6460029E9D110E00CF118000DE000BF4C
:1054E0008E46204609E000BF9E46084605E000BF04
:1054F0008646184601E000BFA646DCF804108E453B
:1055000014D00168DEF80040AB1A112B04604DD3B3
:105510000EEB0205680719D04FF0500080F3118898
:10552000BFF36F8FBFF34F8FFEE700BF002501F081
:105530007DF968075AD04FF0500080F31188BFF30F
:105540006F8FBFF34F8F00BFFEE700BF0CF1180055
:105550006B60CEF8042000BF0368AB420AD2186823
:10556000A8420BD20368AB4204D218681A46A8427C
:10557000F2D304E00246184601E000BF1A46546820
:105580006B681619AE4202D1234415465360EC18DD
:10559000844207D1DCF80440A04203D0D0E90004E3
:1055A00023446B60AA42286018BF1560DEF804002F
:1055B000DCE9022301F10805111A9942CCF8081020
:1055C00038BFCCF80C109CF8001000294FF00001F7
:1055D00018BF40F00040CEE90010DCF810000130A8
:1055E000CCF8100001F022F96807A4D1284670BD5C
:1055F000034644F6BD7021F00101C0F600004FF0F3
:10560000807C03E903106FF00201A3F1440043E939
:1056100009127047D0E9013201699A60D1F804C0DB
:1056200082688445536008BF4A60002202610868AE
:10563000013808600868704744F65873C2F20003E6
:10564000036044F65850C2F20000086080201060E9
:105650007047000045F2B433C2F20003036044F621
:10566000B470C2F2000008604FF4807010607047A0
:105670004FF0FF31024642F8081F00214260C0E9A6
:1056800003220160704700000021016170470000A3
:1056900010B5D1F800E01EF1010213D000F10804AA
:1056A00062681368734511D853681C68744511D833
:1056B0005A68146874450FD854682368A446734523
:1056C000EED90BE00269D2F804C007E09446224606
:1056D00004E000BF9C4601E094461A46C1F804C0AD
:1056E000CCF808108A6051600861016801310160DE
:1056F00010BD0000D0F800C0436808619A684B6094
:105700008A609A68996051600CF1010101607047EC
:10571000DFF80C00016841F470010160704700007F
:1057200088ED00E04FF0500080F31188BFF36F8FD9
:10573000BFF34F8F40F23040C2F2000001684A1CB4
:10574000026009B1704700BF4EF60450CEF200006F
:105750000068000608BF70474FF0500080F31188C2
:10576000BFF36F8FBFF34F8FFEE7000040F2304072
:10577000C2F20000016839B10139016018BF7047F9
:10578000002080F3118870474FF0500080F311889B
:10579000BFF36F8FBFF34F8FFEE7000070B5002897
:1057A00008BF70BD40F2B455C2F200050446287827
:1057B00054F8041C002818BF4FF0004008420DD0D8
:1057C000A4F1080632689AB14FF0500080F31188B6
:1057D000BFF36F8FBFF34F8FFEE700BF4FF0500056
:1057E00080F31188BFF36F8FBFF34F8FFEE700BFC9
:1057F00021EA000044F8040C00F018FA54F8041CE4
:10580000A8680844A86005F1180000BF0368B34207
:105810000AD21868B04225D20368B34204D218688D
:105820001A46B042F2D301E0024618465368D41833
:10583000B44202D11944164651607318834206D10E
:105840006B68984203D0D0E9000319447160B242FA
:10585000306018BF1660686901306861BDE870404B
:1058600000F0E4BF1A465368D418B442E5D1E1E72A
:105870004EF21000CEF2000000210160816040F283
:105880000801C2F20001096844F6D352C1F2620273
:10589000A1FB02124FF0FF3101EB92114160072191
:1058A0000160704745F2104CC2F2000CDCF8002099
:1058B00022B3634653F8082F42B3634653F8102FC0
:1058C00052B3634653F8182F62B3634653F8202F40
:1058D00072B3634653F8282F82B3634653F8302FD0
:1058E00092B3634653F8382F002A18BF7047072237
:1058F00019600CEBC2014860704700BF002263468C
:1059000019600CEBC2014860704700BF01221960AA
:105910000CEBC20148607047022219600CEBC20117
:1059200048607047032219600CEBC2014860704761
:10593000042219600CEBC20148607047052219600F
:105940000CEBC20148607047062219600CEBC201E3
:105950004860704770B515460E460446FFF7E2FEF4
:1059600094F84400FF2804BF002084F8440094F811
:105970004500FF2804BF002084F84500FFF7F6FE2D
:10598000A06B28B12046BDE87040FFF7FDBC00BF0A
:1059900004F1240031462A4600F092F82046BDE882
:1059A0007040FFF7F1BC000070B588B340F20055BD
:1059B000C2F200050446686950B14FF0500080F310
:1059C0001188BFF36F8FBFF34F8F00BFFEE700BF9B
:1059D000686901306861AE6928680430FFF71AFE13
:1059E0002868A419446005D3286A29680431FFF7A0
:1059F0004FFE08E0E86929680431FFF749FEE86ACC
:105A0000844238BFEC6200F011FF002818BF70BD5F
:105A10004EF60450CEF200004FF080510160BFF30B
:105A20004F8FBFF36F8F70BD40F20051C2F2000183
:105A30008A6B0260896941607047000040F2005043
:105A4000C2F20000012101637047000070B5D8B1B7
:105A500040F20054C2F200040D4621681831FFF7ED
:105A600017FEA66920680430FFF7D4FD681C15D026
:105A70002068AD19456019D3206A21680431BDE85A
:105A80007040FFF705BE00BF4FF0500080F3118853
:105A9000BFF36F8FBFF34F8FFEE700BF54F8500B7B
:105AA000011D2046BDE87040FFF724BEE069216873
:105AB0000431FFF7EDFDE06A854238BFE56270BD55
:105AC000F0B581B0C0B140F20054C2F200040D46FE
:105AD000216816461831FFF70DFEA76920680430CB
